{
	"homework01/voting.sol": {
		"Voting": {
			"abi": [
				{
					"inputs": [],
					"stateMutability": "nonpayable",
					"type": "constructor"
				},
				{
					"inputs": [
						{
							"internalType": "address",
							"name": "owner",
							"type": "address"
						}
					],
					"name": "OwnableInvalidOwner",
					"type": "error"
				},
				{
					"inputs": [
						{
							"internalType": "address",
							"name": "account",
							"type": "address"
						}
					],
					"name": "OwnableUnauthorizedAccount",
					"type": "error"
				},
				{
					"anonymous": false,
					"inputs": [
						{
							"indexed": true,
							"internalType": "address",
							"name": "previousOwner",
							"type": "address"
						},
						{
							"indexed": true,
							"internalType": "address",
							"name": "newOwner",
							"type": "address"
						}
					],
					"name": "OwnershipTransferred",
					"type": "event"
				},
				{
					"inputs": [
						{
							"internalType": "string",
							"name": "candidate",
							"type": "string"
						}
					],
					"name": "getVotes",
					"outputs": [
						{
							"internalType": "uint256",
							"name": "",
							"type": "uint256"
						}
					],
					"stateMutability": "view",
					"type": "function"
				},
				{
					"inputs": [],
					"name": "owner",
					"outputs": [
						{
							"internalType": "address",
							"name": "",
							"type": "address"
						}
					],
					"stateMutability": "view",
					"type": "function"
				},
				{
					"inputs": [],
					"name": "renounceOwnership",
					"outputs": [],
					"stateMutability": "nonpayable",
					"type": "function"
				},
				{
					"inputs": [],
					"name": "resetVotes",
					"outputs": [
						{
							"internalType": "bool",
							"name": "",
							"type": "bool"
						}
					],
					"stateMutability": "nonpayable",
					"type": "function"
				},
				{
					"inputs": [
						{
							"internalType": "address",
							"name": "newOwner",
							"type": "address"
						}
					],
					"name": "transferOwnership",
					"outputs": [],
					"stateMutability": "nonpayable",
					"type": "function"
				},
				{
					"inputs": [
						{
							"internalType": "string",
							"name": "candidate",
							"type": "string"
						}
					],
					"name": "vote",
					"outputs": [
						{
							"internalType": "bool",
							"name": "",
							"type": "bool"
						}
					],
					"stateMutability": "nonpayable",
					"type": "function"
				}
			],
			"devdoc": {
				"errors": {
					"OwnableInvalidOwner(address)": [
						{
							"details": "The owner is not a valid owner account. (eg. `address(0)`)"
						}
					],
					"OwnableUnauthorizedAccount(address)": [
						{
							"details": "The caller account is not authorized to perform an operation."
						}
					]
				},
				"kind": "dev",
				"methods": {
					"owner()": {
						"details": "Returns the address of the current owner."
					},
					"renounceOwnership()": {
						"details": "Leaves the contract without owner. It will not be possible to call `onlyOwner` functions. Can only be called by the current owner. NOTE: Renouncing ownership will leave the contract without an owner, thereby disabling any functionality that is only available to the owner."
					},
					"transferOwnership(address)": {
						"details": "Transfers ownership of the contract to a new account (`newOwner`). Can only be called by the current owner."
					}
				},
				"version": 1
			},
			"evm": {
				"assembly": "    /* \"homework01/voting.sol\":164:1562  contract Voting is Ownable {... */\n  mstore(0x40, 0x80)\n    /* \"homework01/voting.sol\":361:397  constructor() Ownable(msg.sender) {} */\n  callvalue\n  dup1\n  iszero\n  tag_1\n  jumpi\n  revert(0x00, 0x00)\ntag_1:\n  pop\n    /* \"homework01/voting.sol\":383:393  msg.sender */\n  caller\n    /* \"@openzeppelin/contracts/access/Ownable.sol\":1297:1298  0 */\n  0x00\n    /* \"@openzeppelin/contracts/access/Ownable.sol\":1273:1299  initialOwner == address(0) */\n  0xffffffffffffffffffffffffffffffffffffffff\n  and\n    /* \"@openzeppelin/contracts/access/Ownable.sol\":1273:1285  initialOwner */\n  dup2\n    /* \"@openzeppelin/contracts/access/Ownable.sol\":1273:1299  initialOwner == address(0) */\n  0xffffffffffffffffffffffffffffffffffffffff\n  and\n  sub\n    /* \"@openzeppelin/contracts/access/Ownable.sol\":1269:1364  if (initialOwner == address(0)) {... */\n  tag_5\n  jumpi\n    /* \"@openzeppelin/contracts/access/Ownable.sol\":1350:1351  0 */\n  0x00\n    /* \"@openzeppelin/contracts/access/Ownable.sol\":1322:1353  OwnableInvalidOwner(address(0)) */\n  mload(0x40)\n  0x1e4fbdf700000000000000000000000000000000000000000000000000000000\n  dup2\n  mstore\n  0x04\n  add\n  tag_6\n  swap2\n  swap1\n  tag_7\n  jump\t// in\ntag_6:\n  mload(0x40)\n  dup1\n  swap2\n  sub\n  swap1\n  revert\n    /* \"@openzeppelin/contracts/access/Ownable.sol\":1269:1364  if (initialOwner == address(0)) {... */\ntag_5:\n    /* \"@openzeppelin/contracts/access/Ownable.sol\":1373:1405  _transferOwnership(initialOwner) */\n  tag_8\n    /* \"@openzeppelin/contracts/access/Ownable.sol\":1392:1404  initialOwner */\n  dup2\n    /* \"@openzeppelin/contracts/access/Ownable.sol\":1373:1391  _transferOwnership */\n  shl(0x20, tag_9)\n    /* \"@openzeppelin/contracts/access/Ownable.sol\":1373:1405  _transferOwnership(initialOwner) */\n  0x20\n  shr\n  jump\t// in\ntag_8:\n    /* \"@openzeppelin/contracts/access/Ownable.sol\":1225:1412  constructor(address initialOwner) {... */\n  pop\n    /* \"homework01/voting.sol\":164:1562  contract Voting is Ownable {... */\n  jump(tag_11)\n    /* \"@openzeppelin/contracts/access/Ownable.sol\":2912:3099  function _transferOwnership(address newOwner) internal virtual {... */\ntag_9:\n    /* \"@openzeppelin/contracts/access/Ownable.sol\":2985:3001  address oldOwner */\n  0x00\n    /* \"@openzeppelin/contracts/access/Ownable.sol\":3004:3010  _owner */\n  0x00\n  0x00\n  swap1\n  sload\n  swap1\n  0x0100\n  exp\n  swap1\n  div\n  0xffffffffffffffffffffffffffffffffffffffff\n  and\n    /* \"@openzeppelin/contracts/access/Ownable.sol\":2985:3010  address oldOwner = _owner */\n  swap1\n  pop\n    /* \"@openzeppelin/contracts/access/Ownable.sol\":3029:3037  newOwner */\n  dup2\n    /* \"@openzeppelin/contracts/access/Ownable.sol\":3020:3026  _owner */\n  0x00\n  0x00\n    /* \"@openzeppelin/contracts/access/Ownable.sol\":3020:3037  _owner = newOwner */\n  0x0100\n  exp\n  dup2\n  sload\n  dup2\n  0xffffffffffffffffffffffffffffffffffffffff\n  mul\n  not\n  and\n  swap1\n  dup4\n  0xffffffffffffffffffffffffffffffffffffffff\n  and\n  mul\n  or\n  swap1\n  sstore\n  pop\n    /* \"@openzeppelin/contracts/access/Ownable.sol\":3083:3091  newOwner */\n  dup2\n    /* \"@openzeppelin/contracts/access/Ownable.sol\":3052:3092  OwnershipTransferred(oldOwner, newOwner) */\n  0xffffffffffffffffffffffffffffffffffffffff\n  and\n    /* \"@openzeppelin/contracts/access/Ownable.sol\":3073:3081  oldOwner */\n  dup2\n    /* \"@openzeppelin/contracts/access/Ownable.sol\":3052:3092  OwnershipTransferred(oldOwner, newOwner) */\n  0xffffffffffffffffffffffffffffffffffffffff\n  and\n  0x8be0079c531659141344cd1fd0a4f28419497f9722a3daafe3b4186f6b6457e0\n  mload(0x40)\n  mload(0x40)\n  dup1\n  swap2\n  sub\n  swap1\n  log3\n    /* \"@openzeppelin/contracts/access/Ownable.sol\":2975:3099  {... */\n  pop\n    /* \"@openzeppelin/contracts/access/Ownable.sol\":2912:3099  function _transferOwnership(address newOwner) internal virtual {... */\n  pop\n  jump\t// out\n    /* \"#utility.yul\":7:133   */\ntag_13:\n    /* \"#utility.yul\":44:51   */\n  0x00\n    /* \"#utility.yul\":84:126   */\n  0xffffffffffffffffffffffffffffffffffffffff\n    /* \"#utility.yul\":77:82   */\n  dup3\n    /* \"#utility.yul\":73:127   */\n  and\n    /* \"#utility.yul\":62:127   */\n  swap1\n  pop\n    /* \"#utility.yul\":7:133   */\n  swap2\n  swap1\n  pop\n  jump\t// out\n    /* \"#utility.yul\":139:235   */\ntag_14:\n    /* \"#utility.yul\":176:183   */\n  0x00\n    /* \"#utility.yul\":205:229   */\n  tag_19\n    /* \"#utility.yul\":223:228   */\n  dup3\n    /* \"#utility.yul\":205:229   */\n  tag_13\n  jump\t// in\ntag_19:\n    /* \"#utility.yul\":194:229   */\n  swap1\n  pop\n    /* \"#utility.yul\":139:235   */\n  swap2\n  swap1\n  pop\n  jump\t// out\n    /* \"#utility.yul\":241:359   */\ntag_15:\n    /* \"#utility.yul\":328:352   */\n  tag_21\n    /* \"#utility.yul\":346:351   */\n  dup2\n    /* \"#utility.yul\":328:352   */\n  tag_14\n  jump\t// in\ntag_21:\n    /* \"#utility.yul\":323:326   */\n  dup3\n    /* \"#utility.yul\":316:353   */\n  mstore\n    /* \"#utility.yul\":241:359   */\n  pop\n  pop\n  jump\t// out\n    /* \"#utility.yul\":365:587   */\ntag_7:\n    /* \"#utility.yul\":458:462   */\n  0x00\n    /* \"#utility.yul\":496:498   */\n  0x20\n    /* \"#utility.yul\":485:494   */\n  dup3\n    /* \"#utility.yul\":481:499   */\n  add\n    /* \"#utility.yul\":473:499   */\n  swap1\n  pop\n    /* \"#utility.yul\":509:580   */\n  tag_23\n    /* \"#utility.yul\":577:578   */\n  0x00\n    /* \"#utility.yul\":566:575   */\n  dup4\n    /* \"#utility.yul\":562:579   */\n  add\n    /* \"#utility.yul\":553:559   */\n  dup5\n    /* \"#utility.yul\":509:580   */\n  tag_15\n  jump\t// in\ntag_23:\n    /* \"#utility.yul\":365:587   */\n  swap3\n  swap2\n  pop\n  pop\n  jump\t// out\n    /* \"homework01/voting.sol\":164:1562  contract Voting is Ownable {... */\ntag_11:\n  dataSize(sub_0)\n  dup1\n  dataOffset(sub_0)\n  0x00\n  codecopy\n  0x00\n  return\nstop\n\nsub_0: assembly {\n        /* \"homework01/voting.sol\":164:1562  contract Voting is Ownable {... */\n      mstore(0x40, 0x80)\n      callvalue\n      dup1\n      iszero\n      tag_1\n      jumpi\n      revert(0x00, 0x00)\n    tag_1:\n      pop\n      jumpi(tag_2, lt(calldatasize, 0x04))\n      shr(0xe0, calldataload(0x00))\n      dup1\n      0x715018a6\n      eq\n      tag_3\n      jumpi\n      dup1\n      0x805265e5\n      eq\n      tag_4\n      jumpi\n      dup1\n      0x8da5cb5b\n      eq\n      tag_5\n      jumpi\n      dup1\n      0xb9830ff1\n      eq\n      tag_6\n      jumpi\n      dup1\n      0xf2fde38b\n      eq\n      tag_7\n      jumpi\n      dup1\n      0xfc36e15b\n      eq\n      tag_8\n      jumpi\n    tag_2:\n      revert(0x00, 0x00)\n        /* \"@openzeppelin/contracts/access/Ownable.sol\":2293:2394  function renounceOwnership() public virtual onlyOwner {... */\n    tag_3:\n      tag_9\n      tag_10\n      jump\t// in\n    tag_9:\n      stop\n        /* \"homework01/voting.sol\":1004:1116  function getVotes(string memory candidate) public view returns(uint256) {... */\n    tag_4:\n      tag_11\n      0x04\n      dup1\n      calldatasize\n      sub\n      dup2\n      add\n      swap1\n      tag_12\n      swap2\n      swap1\n      tag_13\n      jump\t// in\n    tag_12:\n      tag_14\n      jump\t// in\n    tag_11:\n      mload(0x40)\n      tag_15\n      swap2\n      swap1\n      tag_16\n      jump\t// in\n    tag_15:\n      mload(0x40)\n      dup1\n      swap2\n      sub\n      swap1\n      return\n        /* \"@openzeppelin/contracts/access/Ownable.sol\":1638:1723  function owner() public view virtual returns (address) {... */\n    tag_5:\n      tag_17\n      tag_18\n      jump\t// in\n    tag_17:\n      mload(0x40)\n      tag_19\n      swap2\n      swap1\n      tag_20\n      jump\t// in\n    tag_19:\n      mload(0x40)\n      dup1\n      swap2\n      sub\n      swap1\n      return\n        /* \"homework01/voting.sol\":1187:1559  function resetVotes() public onlyOwner returns(bool) {... */\n    tag_6:\n      tag_21\n      tag_22\n      jump\t// in\n    tag_21:\n      mload(0x40)\n      tag_23\n      swap2\n      swap1\n      tag_24\n      jump\t// in\n    tag_23:\n      mload(0x40)\n      dup1\n      swap2\n      sub\n      swap1\n      return\n        /* \"@openzeppelin/contracts/access/Ownable.sol\":2543:2758  function transferOwnership(address newOwner) public virtual onlyOwner {... */\n    tag_7:\n      tag_25\n      0x04\n      dup1\n      calldatasize\n      sub\n      dup2\n      add\n      swap1\n      tag_26\n      swap2\n      swap1\n      tag_27\n      jump\t// in\n    tag_26:\n      tag_28\n      jump\t// in\n    tag_25:\n      stop\n        /* \"homework01/voting.sol\":465:935  function vote(string memory candidate) public returns(bool) {... */\n    tag_8:\n      tag_29\n      0x04\n      dup1\n      calldatasize\n      sub\n      dup2\n      add\n      swap1\n      tag_30\n      swap2\n      swap1\n      tag_13\n      jump\t// in\n    tag_30:\n      tag_31\n      jump\t// in\n    tag_29:\n      mload(0x40)\n      tag_32\n      swap2\n      swap1\n      tag_24\n      jump\t// in\n    tag_32:\n      mload(0x40)\n      dup1\n      swap2\n      sub\n      swap1\n      return\n        /* \"@openzeppelin/contracts/access/Ownable.sol\":2293:2394  function renounceOwnership() public virtual onlyOwner {... */\n    tag_10:\n        /* \"@openzeppelin/contracts/access/Ownable.sol\":1531:1544  _checkOwner() */\n      tag_34\n        /* \"@openzeppelin/contracts/access/Ownable.sol\":1531:1542  _checkOwner */\n      tag_35\n        /* \"@openzeppelin/contracts/access/Ownable.sol\":1531:1544  _checkOwner() */\n      jump\t// in\n    tag_34:\n        /* \"@openzeppelin/contracts/access/Ownable.sol\":2357:2387  _transferOwnership(address(0)) */\n      tag_37\n        /* \"@openzeppelin/contracts/access/Ownable.sol\":2384:2385  0 */\n      0x00\n        /* \"@openzeppelin/contracts/access/Ownable.sol\":2357:2375  _transferOwnership */\n      tag_38\n        /* \"@openzeppelin/contracts/access/Ownable.sol\":2357:2387  _transferOwnership(address(0)) */\n      jump\t// in\n    tag_37:\n        /* \"@openzeppelin/contracts/access/Ownable.sol\":2293:2394  function renounceOwnership() public virtual onlyOwner {... */\n      jump\t// out\n        /* \"homework01/voting.sol\":1004:1116  function getVotes(string memory candidate) public view returns(uint256) {... */\n    tag_14:\n        /* \"homework01/voting.sol\":1067:1074  uint256 */\n      0x00\n        /* \"homework01/voting.sol\":1093:1098  votes */\n      0x01\n        /* \"homework01/voting.sol\":1099:1108  candidate */\n      dup3\n        /* \"homework01/voting.sol\":1093:1109  votes[candidate] */\n      mload(0x40)\n      tag_40\n      swap2\n      swap1\n      tag_41\n      jump\t// in\n    tag_40:\n      swap1\n      dup2\n      mstore\n      0x20\n      add\n      mload(0x40)\n      dup1\n      swap2\n      sub\n      swap1\n      keccak256\n      sload\n        /* \"homework01/voting.sol\":1086:1109  return votes[candidate] */\n      swap1\n      pop\n        /* \"homework01/voting.sol\":1004:1116  function getVotes(string memory candidate) public view returns(uint256) {... */\n      swap2\n      swap1\n      pop\n      jump\t// out\n        /* \"@openzeppelin/contracts/access/Ownable.sol\":1638:1723  function owner() public view virtual returns (address) {... */\n    tag_18:\n        /* \"@openzeppelin/contracts/access/Ownable.sol\":1684:1691  address */\n      0x00\n        /* \"@openzeppelin/contracts/access/Ownable.sol\":1710:1716  _owner */\n      0x00\n      0x00\n      swap1\n      sload\n      swap1\n      0x0100\n      exp\n      swap1\n      div\n      0xffffffffffffffffffffffffffffffffffffffff\n      and\n        /* \"@openzeppelin/contracts/access/Ownable.sol\":1703:1716  return _owner */\n      swap1\n      pop\n        /* \"@openzeppelin/contracts/access/Ownable.sol\":1638:1723  function owner() public view virtual returns (address) {... */\n      swap1\n      jump\t// out\n        /* \"homework01/voting.sol\":1187:1559  function resetVotes() public onlyOwner returns(bool) {... */\n    tag_22:\n        /* \"homework01/voting.sol\":1234:1238  bool */\n      0x00\n        /* \"@openzeppelin/contracts/access/Ownable.sol\":1531:1544  _checkOwner() */\n      tag_44\n        /* \"@openzeppelin/contracts/access/Ownable.sol\":1531:1542  _checkOwner */\n      tag_35\n        /* \"@openzeppelin/contracts/access/Ownable.sol\":1531:1544  _checkOwner() */\n      jump\t// in\n    tag_44:\n        /* \"homework01/voting.sol\":1251:1271  uint256 candidateLen */\n      0x00\n        /* \"homework01/voting.sol\":1274:1284  candidates */\n      0x03\n        /* \"homework01/voting.sol\":1274:1291  candidates.length */\n      dup1\n      sload\n      swap1\n      pop\n        /* \"homework01/voting.sol\":1251:1291  uint256 candidateLen = candidates.length */\n      swap1\n      pop\n        /* \"homework01/voting.sol\":1305:1314  uint256 i */\n      0x00\n        /* \"homework01/voting.sol\":1315:1316  0 */\n      0x00\n        /* \"homework01/voting.sol\":1305:1316  uint256 i=0 */\n      swap1\n      pop\n        /* \"homework01/voting.sol\":1301:1392  for(uint256 i=0; i < candidateLen; i++){... */\n    tag_46:\n        /* \"homework01/voting.sol\":1322:1334  candidateLen */\n      dup2\n        /* \"homework01/voting.sol\":1318:1319  i */\n      dup2\n        /* \"homework01/voting.sol\":1318:1334  i < candidateLen */\n      lt\n        /* \"homework01/voting.sol\":1301:1392  for(uint256 i=0; i < candidateLen; i++){... */\n      iszero\n      tag_47\n      jumpi\n        /* \"homework01/voting.sol\":1361:1366  votes */\n      0x01\n        /* \"homework01/voting.sol\":1367:1377  candidates */\n      0x03\n        /* \"homework01/voting.sol\":1378:1379  i */\n      dup3\n        /* \"homework01/voting.sol\":1367:1380  candidates[i] */\n      dup2\n      sload\n      dup2\n      lt\n      tag_49\n      jumpi\n      tag_50\n      tag_51\n      jump\t// in\n    tag_50:\n    tag_49:\n      swap1\n      0x00\n      mstore\n      keccak256(0x00, 0x20)\n      add\n        /* \"homework01/voting.sol\":1361:1381  votes[candidates[i]] */\n      mload(0x40)\n      tag_53\n      swap2\n      swap1\n      tag_54\n      jump\t// in\n    tag_53:\n      swap1\n      dup2\n      mstore\n      0x20\n      add\n      mload(0x40)\n      dup1\n      swap2\n      sub\n      swap1\n      keccak256\n        /* \"homework01/voting.sol\":1354:1381  delete votes[candidates[i]] */\n      0x00\n      swap1\n      sstore\n        /* \"homework01/voting.sol\":1336:1339  i++ */\n      dup1\n      dup1\n      0x01\n      add\n      swap2\n      pop\n      pop\n        /* \"homework01/voting.sol\":1301:1392  for(uint256 i=0; i < candidateLen; i++){... */\n      jump(tag_46)\n    tag_47:\n      pop\n        /* \"homework01/voting.sol\":1401:1417  uint256 voterLen */\n      0x00\n        /* \"homework01/voting.sol\":1420:1426  voters */\n      0x04\n        /* \"homework01/voting.sol\":1420:1433  voters.length */\n      dup1\n      sload\n      swap1\n      pop\n        /* \"homework01/voting.sol\":1401:1433  uint256 voterLen = voters.length */\n      swap1\n      pop\n        /* \"homework01/voting.sol\":1447:1456  uint256 i */\n      0x00\n        /* \"homework01/voting.sol\":1457:1458  0 */\n      0x00\n        /* \"homework01/voting.sol\":1447:1458  uint256 i=0 */\n      swap1\n      pop\n        /* \"homework01/voting.sol\":1443:1532  for(uint256 i=0; i < voterLen; i++){... */\n    tag_55:\n        /* \"homework01/voting.sol\":1464:1472  voterLen */\n      dup2\n        /* \"homework01/voting.sol\":1460:1461  i */\n      dup2\n        /* \"homework01/voting.sol\":1460:1472  i < voterLen */\n      lt\n        /* \"homework01/voting.sol\":1443:1532  for(uint256 i=0; i < voterLen; i++){... */\n      iszero\n      tag_56\n      jumpi\n        /* \"homework01/voting.sol\":1499:1510  voteMapping */\n      0x02\n        /* \"homework01/voting.sol\":1499:1521  voteMapping[voters[i]] */\n      0x00\n        /* \"homework01/voting.sol\":1511:1517  voters */\n      0x04\n        /* \"homework01/voting.sol\":1518:1519  i */\n      dup4\n        /* \"homework01/voting.sol\":1511:1520  voters[i] */\n      dup2\n      sload\n      dup2\n      lt\n      tag_58\n      jumpi\n      tag_59\n      tag_51\n      jump\t// in\n    tag_59:\n    tag_58:\n      swap1\n      0x00\n      mstore\n      keccak256(0x00, 0x20)\n      add\n      0x00\n      swap1\n      sload\n      swap1\n      0x0100\n      exp\n      swap1\n      div\n      0xffffffffffffffffffffffffffffffffffffffff\n      and\n        /* \"homework01/voting.sol\":1499:1521  voteMapping[voters[i]] */\n      0xffffffffffffffffffffffffffffffffffffffff\n      and\n      0xffffffffffffffffffffffffffffffffffffffff\n      and\n      dup2\n      mstore\n      0x20\n      add\n      swap1\n      dup2\n      mstore\n      0x20\n      add\n      0x00\n      keccak256\n      0x00\n        /* \"homework01/voting.sol\":1492:1521  delete voteMapping[voters[i]] */\n      0x0100\n      exp\n      dup2\n      sload\n      swap1\n      0xff\n      mul\n      not\n      and\n      swap1\n      sstore\n        /* \"homework01/voting.sol\":1474:1477  i++ */\n      dup1\n      dup1\n      0x01\n      add\n      swap2\n      pop\n      pop\n        /* \"homework01/voting.sol\":1443:1532  for(uint256 i=0; i < voterLen; i++){... */\n      jump(tag_55)\n    tag_56:\n      pop\n        /* \"homework01/voting.sol\":1548:1552  true */\n      0x01\n        /* \"homework01/voting.sol\":1541:1552  return true */\n      swap3\n      pop\n      pop\n      pop\n        /* \"homework01/voting.sol\":1187:1559  function resetVotes() public onlyOwner returns(bool) {... */\n      swap1\n      jump\t// out\n        /* \"@openzeppelin/contracts/access/Ownable.sol\":2543:2758  function transferOwnership(address newOwner) public virtual onlyOwner {... */\n    tag_28:\n        /* \"@openzeppelin/contracts/access/Ownable.sol\":1531:1544  _checkOwner() */\n      tag_62\n        /* \"@openzeppelin/contracts/access/Ownable.sol\":1531:1542  _checkOwner */\n      tag_35\n        /* \"@openzeppelin/contracts/access/Ownable.sol\":1531:1544  _checkOwner() */\n      jump\t// in\n    tag_62:\n        /* \"@openzeppelin/contracts/access/Ownable.sol\":2647:2648  0 */\n      0x00\n        /* \"@openzeppelin/contracts/access/Ownable.sol\":2627:2649  newOwner == address(0) */\n      0xffffffffffffffffffffffffffffffffffffffff\n      and\n        /* \"@openzeppelin/contracts/access/Ownable.sol\":2627:2635  newOwner */\n      dup2\n        /* \"@openzeppelin/contracts/access/Ownable.sol\":2627:2649  newOwner == address(0) */\n      0xffffffffffffffffffffffffffffffffffffffff\n      and\n      sub\n        /* \"@openzeppelin/contracts/access/Ownable.sol\":2623:2714  if (newOwner == address(0)) {... */\n      tag_64\n      jumpi\n        /* \"@openzeppelin/contracts/access/Ownable.sol\":2700:2701  0 */\n      0x00\n        /* \"@openzeppelin/contracts/access/Ownable.sol\":2672:2703  OwnableInvalidOwner(address(0)) */\n      mload(0x40)\n      0x1e4fbdf700000000000000000000000000000000000000000000000000000000\n      dup2\n      mstore\n      0x04\n      add\n      tag_65\n      swap2\n      swap1\n      tag_20\n      jump\t// in\n    tag_65:\n      mload(0x40)\n      dup1\n      swap2\n      sub\n      swap1\n      revert\n        /* \"@openzeppelin/contracts/access/Ownable.sol\":2623:2714  if (newOwner == address(0)) {... */\n    tag_64:\n        /* \"@openzeppelin/contracts/access/Ownable.sol\":2723:2751  _transferOwnership(newOwner) */\n      tag_66\n        /* \"@openzeppelin/contracts/access/Ownable.sol\":2742:2750  newOwner */\n      dup2\n        /* \"@openzeppelin/contracts/access/Ownable.sol\":2723:2741  _transferOwnership */\n      tag_38\n        /* \"@openzeppelin/contracts/access/Ownable.sol\":2723:2751  _transferOwnership(newOwner) */\n      jump\t// in\n    tag_66:\n        /* \"@openzeppelin/contracts/access/Ownable.sol\":2543:2758  function transferOwnership(address newOwner) public virtual onlyOwner {... */\n      pop\n      jump\t// out\n        /* \"homework01/voting.sol\":465:935  function vote(string memory candidate) public returns(bool) {... */\n    tag_31:\n        /* \"homework01/voting.sol\":519:523  bool */\n      0x00\n        /* \"homework01/voting.sol\":544:563  candidate.equal(\"\") */\n      tag_68\n      mload(0x40)\n      dup1\n      0x20\n      add\n      0x40\n      mstore\n      dup1\n      0x00\n      dup2\n      mstore\n      pop\n        /* \"homework01/voting.sol\":544:553  candidate */\n      dup4\n        /* \"homework01/voting.sol\":544:559  candidate.equal */\n      tag_69\n      swap1\n        /* \"homework01/voting.sol\":544:563  candidate.equal(\"\") */\n      swap2\n      swap1\n      0xffffffff\n      and\n      jump\t// in\n    tag_68:\n        /* \"homework01/voting.sol\":543:563  !candidate.equal(\"\") */\n      iszero\n        /* \"homework01/voting.sol\":535:593  require(!candidate.equal(\"\"), \"candidate cannot be empty\") */\n      tag_70\n      jumpi\n      mload(0x40)\n      0x08c379a000000000000000000000000000000000000000000000000000000000\n      dup2\n      mstore\n      0x04\n      add\n      tag_71\n      swap1\n      tag_72\n      jump\t// in\n    tag_71:\n      mload(0x40)\n      dup1\n      swap2\n      sub\n      swap1\n      revert\n    tag_70:\n        /* \"homework01/voting.sol\":612:623  voteMapping */\n      0x02\n        /* \"homework01/voting.sol\":612:635  voteMapping[msg.sender] */\n      0x00\n        /* \"homework01/voting.sol\":624:634  msg.sender */\n      caller\n        /* \"homework01/voting.sol\":612:635  voteMapping[msg.sender] */\n      0xffffffffffffffffffffffffffffffffffffffff\n      and\n      0xffffffffffffffffffffffffffffffffffffffff\n      and\n      dup2\n      mstore\n      0x20\n      add\n      swap1\n      dup2\n      mstore\n      0x20\n      add\n      0x00\n      keccak256\n      0x00\n      swap1\n      sload\n      swap1\n      0x0100\n      exp\n      swap1\n      div\n      0xff\n      and\n        /* \"homework01/voting.sol\":611:635  !voteMapping[msg.sender] */\n      iszero\n        /* \"homework01/voting.sol\":603:657  require(!voteMapping[msg.sender], \"you already voted\") */\n      tag_73\n      jumpi\n      mload(0x40)\n      0x08c379a000000000000000000000000000000000000000000000000000000000\n      dup2\n      mstore\n      0x04\n      add\n      tag_74\n      swap1\n      tag_75\n      jump\t// in\n    tag_74:\n      mload(0x40)\n      dup1\n      swap2\n      sub\n      swap1\n      revert\n    tag_73:\n        /* \"homework01/voting.sol\":699:700  0 */\n      0x00\n        /* \"homework01/voting.sol\":679:684  votes */\n      0x01\n        /* \"homework01/voting.sol\":685:694  candidate */\n      dup4\n        /* \"homework01/voting.sol\":679:695  votes[candidate] */\n      mload(0x40)\n      tag_76\n      swap2\n      swap1\n      tag_41\n      jump\t// in\n    tag_76:\n      swap1\n      dup2\n      mstore\n      0x20\n      add\n      mload(0x40)\n      dup1\n      swap2\n      sub\n      swap1\n      keccak256\n      sload\n        /* \"homework01/voting.sol\":679:700  votes[candidate] == 0 */\n      sub\n        /* \"homework01/voting.sol\":676:752  if(votes[candidate] == 0){... */\n      tag_77\n      jumpi\n        /* \"homework01/voting.sol\":715:725  candidates */\n      0x03\n        /* \"homework01/voting.sol\":731:740  candidate */\n      dup3\n        /* \"homework01/voting.sol\":715:741  candidates.push(candidate) */\n      swap1\n      dup1\n      0x01\n      dup2\n      sload\n      add\n      dup1\n      dup3\n      sstore\n      dup1\n      swap2\n      pop\n      pop\n      0x01\n      swap1\n      sub\n      swap1\n      0x00\n      mstore\n      keccak256(0x00, 0x20)\n      add\n      0x00\n      swap1\n      swap2\n      swap1\n      swap2\n      swap1\n      swap2\n      pop\n      swap1\n      dup2\n      tag_79\n      swap2\n      swap1\n      tag_80\n      jump\t// in\n    tag_79:\n      pop\n        /* \"homework01/voting.sol\":676:752  if(votes[candidate] == 0){... */\n    tag_77:\n        /* \"homework01/voting.sol\":765:776  voteMapping */\n      0x02\n        /* \"homework01/voting.sol\":765:788  voteMapping[msg.sender] */\n      0x00\n        /* \"homework01/voting.sol\":777:787  msg.sender */\n      caller\n        /* \"homework01/voting.sol\":765:788  voteMapping[msg.sender] */\n      0xffffffffffffffffffffffffffffffffffffffff\n      and\n      0xffffffffffffffffffffffffffffffffffffffff\n      and\n      dup2\n      mstore\n      0x20\n      add\n      swap1\n      dup2\n      mstore\n      0x20\n      add\n      0x00\n      keccak256\n      0x00\n      swap1\n      sload\n      swap1\n      0x0100\n      exp\n      swap1\n      div\n      0xff\n      and\n        /* \"homework01/voting.sol\":761:837  if(!voteMapping[msg.sender]){... */\n      tag_81\n      jumpi\n        /* \"homework01/voting.sol\":803:809  voters */\n      0x04\n        /* \"homework01/voting.sol\":815:825  msg.sender */\n      caller\n        /* \"homework01/voting.sol\":803:826  voters.push(msg.sender) */\n      swap1\n      dup1\n      0x01\n      dup2\n      sload\n      add\n      dup1\n      dup3\n      sstore\n      dup1\n      swap2\n      pop\n      pop\n      0x01\n      swap1\n      sub\n      swap1\n      0x00\n      mstore\n      keccak256(0x00, 0x20)\n      add\n      0x00\n      swap1\n      swap2\n      swap1\n      swap2\n      swap1\n      swap2\n      0x0100\n      exp\n      dup2\n      sload\n      dup2\n      0xffffffffffffffffffffffffffffffffffffffff\n      mul\n      not\n      and\n      swap1\n      dup4\n      0xffffffffffffffffffffffffffffffffffffffff\n      and\n      mul\n      or\n      swap1\n      sstore\n      pop\n        /* \"homework01/voting.sol\":761:837  if(!voteMapping[msg.sender]){... */\n    tag_81:\n        /* \"homework01/voting.sol\":872:876  true */\n      0x01\n        /* \"homework01/voting.sol\":846:857  voteMapping */\n      0x02\n        /* \"homework01/voting.sol\":846:869  voteMapping[msg.sender] */\n      0x00\n        /* \"homework01/voting.sol\":858:868  msg.sender */\n      caller\n        /* \"homework01/voting.sol\":846:869  voteMapping[msg.sender] */\n      0xffffffffffffffffffffffffffffffffffffffff\n      and\n      0xffffffffffffffffffffffffffffffffffffffff\n      and\n      dup2\n      mstore\n      0x20\n      add\n      swap1\n      dup2\n      mstore\n      0x20\n      add\n      0x00\n      keccak256\n      0x00\n        /* \"homework01/voting.sol\":846:876  voteMapping[msg.sender] = true */\n      0x0100\n      exp\n      dup2\n      sload\n      dup2\n      0xff\n      mul\n      not\n      and\n      swap1\n      dup4\n      iszero\n      iszero\n      mul\n      or\n      swap1\n      sstore\n      pop\n        /* \"homework01/voting.sol\":906:907  1 */\n      0x01\n        /* \"homework01/voting.sol\":886:891  votes */\n      dup1\n        /* \"homework01/voting.sol\":892:901  candidate */\n      dup4\n        /* \"homework01/voting.sol\":886:902  votes[candidate] */\n      mload(0x40)\n      tag_83\n      swap2\n      swap1\n      tag_41\n      jump\t// in\n    tag_83:\n      swap1\n      dup2\n      mstore\n      0x20\n      add\n      mload(0x40)\n      dup1\n      swap2\n      sub\n      swap1\n      keccak256\n      0x00\n        /* \"homework01/voting.sol\":886:907  votes[candidate] += 1 */\n      dup3\n      dup3\n      sload\n      tag_84\n      swap2\n      swap1\n      tag_85\n      jump\t// in\n    tag_84:\n      swap3\n      pop\n      pop\n      dup2\n      swap1\n      sstore\n      pop\n        /* \"homework01/voting.sol\":924:928  true */\n      0x01\n        /* \"homework01/voting.sol\":917:928  return true */\n      swap1\n      pop\n        /* \"homework01/voting.sol\":465:935  function vote(string memory candidate) public returns(bool) {... */\n      swap2\n      swap1\n      pop\n      jump\t// out\n        /* \"@openzeppelin/contracts/access/Ownable.sol\":1796:1958  function _checkOwner() internal view virtual {... */\n    tag_35:\n        /* \"@openzeppelin/contracts/access/Ownable.sol\":1866:1878  _msgSender() */\n      tag_87\n        /* \"@openzeppelin/contracts/access/Ownable.sol\":1866:1876  _msgSender */\n      tag_88\n        /* \"@openzeppelin/contracts/access/Ownable.sol\":1866:1878  _msgSender() */\n      jump\t// in\n    tag_87:\n        /* \"@openzeppelin/contracts/access/Ownable.sol\":1855:1878  owner() != _msgSender() */\n      0xffffffffffffffffffffffffffffffffffffffff\n      and\n        /* \"@openzeppelin/contracts/access/Ownable.sol\":1855:1862  owner() */\n      tag_89\n        /* \"@openzeppelin/contracts/access/Ownable.sol\":1855:1860  owner */\n      tag_18\n        /* \"@openzeppelin/contracts/access/Ownable.sol\":1855:1862  owner() */\n      jump\t// in\n    tag_89:\n        /* \"@openzeppelin/contracts/access/Ownable.sol\":1855:1878  owner() != _msgSender() */\n      0xffffffffffffffffffffffffffffffffffffffff\n      and\n      eq\n        /* \"@openzeppelin/contracts/access/Ownable.sol\":1851:1952  if (owner() != _msgSender()) {... */\n      tag_90\n      jumpi\n        /* \"@openzeppelin/contracts/access/Ownable.sol\":1928:1940  _msgSender() */\n      tag_91\n        /* \"@openzeppelin/contracts/access/Ownable.sol\":1928:1938  _msgSender */\n      tag_88\n        /* \"@openzeppelin/contracts/access/Ownable.sol\":1928:1940  _msgSender() */\n      jump\t// in\n    tag_91:\n        /* \"@openzeppelin/contracts/access/Ownable.sol\":1901:1941  OwnableUnauthorizedAccount(_msgSender()) */\n      mload(0x40)\n      0x118cdaa700000000000000000000000000000000000000000000000000000000\n      dup2\n      mstore\n      0x04\n      add\n      tag_92\n      swap2\n      swap1\n      tag_20\n      jump\t// in\n    tag_92:\n      mload(0x40)\n      dup1\n      swap2\n      sub\n      swap1\n      revert\n        /* \"@openzeppelin/contracts/access/Ownable.sol\":1851:1952  if (owner() != _msgSender()) {... */\n    tag_90:\n        /* \"@openzeppelin/contracts/access/Ownable.sol\":1796:1958  function _checkOwner() internal view virtual {... */\n      jump\t// out\n        /* \"@openzeppelin/contracts/access/Ownable.sol\":2912:3099  function _transferOwnership(address newOwner) internal virtual {... */\n    tag_38:\n        /* \"@openzeppelin/contracts/access/Ownable.sol\":2985:3001  address oldOwner */\n      0x00\n        /* \"@openzeppelin/contracts/access/Ownable.sol\":3004:3010  _owner */\n      0x00\n      0x00\n      swap1\n      sload\n      swap1\n      0x0100\n      exp\n      swap1\n      div\n      0xffffffffffffffffffffffffffffffffffffffff\n      and\n        /* \"@openzeppelin/contracts/access/Ownable.sol\":2985:3010  address oldOwner = _owner */\n      swap1\n      pop\n        /* \"@openzeppelin/contracts/access/Ownable.sol\":3029:3037  newOwner */\n      dup2\n        /* \"@openzeppelin/contracts/access/Ownable.sol\":3020:3026  _owner */\n      0x00\n      0x00\n        /* \"@openzeppelin/contracts/access/Ownable.sol\":3020:3037  _owner = newOwner */\n      0x0100\n      exp\n      dup2\n      sload\n      dup2\n      0xffffffffffffffffffffffffffffffffffffffff\n      mul\n      not\n      and\n      swap1\n      dup4\n      0xffffffffffffffffffffffffffffffffffffffff\n      and\n      mul\n      or\n      swap1\n      sstore\n      pop\n        /* \"@openzeppelin/contracts/access/Ownable.sol\":3083:3091  newOwner */\n      dup2\n        /* \"@openzeppelin/contracts/access/Ownable.sol\":3052:3092  OwnershipTransferred(oldOwner, newOwner) */\n      0xffffffffffffffffffffffffffffffffffffffff\n      and\n        /* \"@openzeppelin/contracts/access/Ownable.sol\":3073:3081  oldOwner */\n      dup2\n        /* \"@openzeppelin/contracts/access/Ownable.sol\":3052:3092  OwnershipTransferred(oldOwner, newOwner) */\n      0xffffffffffffffffffffffffffffffffffffffff\n      and\n      0x8be0079c531659141344cd1fd0a4f28419497f9722a3daafe3b4186f6b6457e0\n      mload(0x40)\n      mload(0x40)\n      dup1\n      swap2\n      sub\n      swap1\n      log3\n        /* \"@openzeppelin/contracts/access/Ownable.sol\":2975:3099  {... */\n      pop\n        /* \"@openzeppelin/contracts/access/Ownable.sol\":2912:3099  function _transferOwnership(address newOwner) internal virtual {... */\n      pop\n      jump\t// out\n        /* \"@openzeppelin/contracts/utils/Strings.sol\":4420:4602  function equal(string memory a, string memory b) internal pure returns (bool) {... */\n    tag_69:\n        /* \"@openzeppelin/contracts/utils/Strings.sol\":4492:4496  bool */\n      0x00\n        /* \"@openzeppelin/contracts/utils/Strings.sol\":4540:4541  b */\n      dup2\n        /* \"@openzeppelin/contracts/utils/Strings.sol\":4534:4549  bytes(b).length */\n      mload\n        /* \"@openzeppelin/contracts/utils/Strings.sol\":4521:4522  a */\n      dup4\n        /* \"@openzeppelin/contracts/utils/Strings.sol\":4515:4530  bytes(a).length */\n      mload\n        /* \"@openzeppelin/contracts/utils/Strings.sol\":4515:4549  bytes(a).length == bytes(b).length */\n      eq\n        /* \"@openzeppelin/contracts/utils/Strings.sol\":4515:4595  bytes(a).length == bytes(b).length && keccak256(bytes(a)) == keccak256(bytes(b)) */\n      dup1\n      iszero\n      tag_95\n      jumpi\n      pop\n        /* \"@openzeppelin/contracts/utils/Strings.sol\":4592:4593  b */\n      dup2\n        /* \"@openzeppelin/contracts/utils/Strings.sol\":4576:4595  keccak256(bytes(b)) */\n      dup1\n      mload\n      swap1\n      0x20\n      add\n      keccak256\n        /* \"@openzeppelin/contracts/utils/Strings.sol\":4569:4570  a */\n      dup4\n        /* \"@openzeppelin/contracts/utils/Strings.sol\":4553:4572  keccak256(bytes(a)) */\n      dup1\n      mload\n      swap1\n      0x20\n      add\n      keccak256\n        /* \"@openzeppelin/contracts/utils/Strings.sol\":4553:4595  keccak256(bytes(a)) == keccak256(bytes(b)) */\n      eq\n        /* \"@openzeppelin/contracts/utils/Strings.sol\":4515:4595  bytes(a).length == bytes(b).length && keccak256(bytes(a)) == keccak256(bytes(b)) */\n    tag_95:\n        /* \"@openzeppelin/contracts/utils/Strings.sol\":4508:4595  return bytes(a).length == bytes(b).length && keccak256(bytes(a)) == keccak256(bytes(b)) */\n      swap1\n      pop\n        /* \"@openzeppelin/contracts/utils/Strings.sol\":4420:4602  function equal(string memory a, string memory b) internal pure returns (bool) {... */\n      swap3\n      swap2\n      pop\n      pop\n      jump\t// out\n        /* \"@openzeppelin/contracts/utils/Context.sol\":656:752  function _msgSender() internal view virtual returns (address) {... */\n    tag_88:\n        /* \"@openzeppelin/contracts/utils/Context.sol\":709:716  address */\n      0x00\n        /* \"@openzeppelin/contracts/utils/Context.sol\":735:745  msg.sender */\n      caller\n        /* \"@openzeppelin/contracts/utils/Context.sol\":728:745  return msg.sender */\n      swap1\n      pop\n        /* \"@openzeppelin/contracts/utils/Context.sol\":656:752  function _msgSender() internal view virtual returns (address) {... */\n      swap1\n      jump\t// out\n        /* \"#utility.yul\":7:82   */\n    tag_97:\n        /* \"#utility.yul\":40:46   */\n      0x00\n        /* \"#utility.yul\":73:75   */\n      0x40\n        /* \"#utility.yul\":67:76   */\n      mload\n        /* \"#utility.yul\":57:76   */\n      swap1\n      pop\n        /* \"#utility.yul\":7:82   */\n      swap1\n      jump\t// out\n        /* \"#utility.yul\":88:205   */\n    tag_98:\n        /* \"#utility.yul\":197:198   */\n      0x00\n        /* \"#utility.yul\":194:195   */\n      0x00\n        /* \"#utility.yul\":187:199   */\n      revert\n        /* \"#utility.yul\":211:328   */\n    tag_99:\n        /* \"#utility.yul\":320:321   */\n      0x00\n        /* \"#utility.yul\":317:318   */\n      0x00\n        /* \"#utility.yul\":310:322   */\n      revert\n        /* \"#utility.yul\":334:451   */\n    tag_100:\n        /* \"#utility.yul\":443:444   */\n      0x00\n        /* \"#utility.yul\":440:441   */\n      0x00\n        /* \"#utility.yul\":433:445   */\n      revert\n        /* \"#utility.yul\":457:574   */\n    tag_101:\n        /* \"#utility.yul\":566:567   */\n      0x00\n        /* \"#utility.yul\":563:564   */\n      0x00\n        /* \"#utility.yul\":556:568   */\n      revert\n        /* \"#utility.yul\":580:682   */\n    tag_102:\n        /* \"#utility.yul\":621:627   */\n      0x00\n        /* \"#utility.yul\":672:674   */\n      0x1f\n        /* \"#utility.yul\":668:675   */\n      not\n        /* \"#utility.yul\":663:665   */\n      0x1f\n        /* \"#utility.yul\":656:661   */\n      dup4\n        /* \"#utility.yul\":652:666   */\n      add\n        /* \"#utility.yul\":648:676   */\n      and\n        /* \"#utility.yul\":638:676   */\n      swap1\n      pop\n        /* \"#utility.yul\":580:682   */\n      swap2\n      swap1\n      pop\n      jump\t// out\n        /* \"#utility.yul\":688:868   */\n    tag_103:\n        /* \"#utility.yul\":736:813   */\n      0x4e487b7100000000000000000000000000000000000000000000000000000000\n        /* \"#utility.yul\":733:734   */\n      0x00\n        /* \"#utility.yul\":726:814   */\n      mstore\n        /* \"#utility.yul\":833:837   */\n      0x41\n        /* \"#utility.yul\":830:831   */\n      0x04\n        /* \"#utility.yul\":823:838   */\n      mstore\n        /* \"#utility.yul\":857:861   */\n      0x24\n        /* \"#utility.yul\":854:855   */\n      0x00\n        /* \"#utility.yul\":847:862   */\n      revert\n        /* \"#utility.yul\":874:1155   */\n    tag_104:\n        /* \"#utility.yul\":957:984   */\n      tag_156\n        /* \"#utility.yul\":979:983   */\n      dup3\n        /* \"#utility.yul\":957:984   */\n      tag_102\n      jump\t// in\n    tag_156:\n        /* \"#utility.yul\":949:955   */\n      dup2\n        /* \"#utility.yul\":945:985   */\n      add\n        /* \"#utility.yul\":1087:1093   */\n      dup2\n        /* \"#utility.yul\":1075:1085   */\n      dup2\n        /* \"#utility.yul\":1072:1094   */\n      lt\n        /* \"#utility.yul\":1051:1069   */\n      0xffffffffffffffff\n        /* \"#utility.yul\":1039:1049   */\n      dup3\n        /* \"#utility.yul\":1036:1070   */\n      gt\n        /* \"#utility.yul\":1033:1095   */\n      or\n        /* \"#utility.yul\":1030:1118   */\n      iszero\n      tag_157\n      jumpi\n        /* \"#utility.yul\":1098:1116   */\n      tag_158\n      tag_103\n      jump\t// in\n    tag_158:\n        /* \"#utility.yul\":1030:1118   */\n    tag_157:\n        /* \"#utility.yul\":1138:1148   */\n      dup1\n        /* \"#utility.yul\":1134:1136   */\n      0x40\n        /* \"#utility.yul\":1127:1149   */\n      mstore\n        /* \"#utility.yul\":917:1155   */\n      pop\n        /* \"#utility.yul\":874:1155   */\n      pop\n      pop\n      jump\t// out\n        /* \"#utility.yul\":1161:1290   */\n    tag_105:\n        /* \"#utility.yul\":1195:1201   */\n      0x00\n        /* \"#utility.yul\":1222:1242   */\n      tag_160\n      tag_97\n      jump\t// in\n    tag_160:\n        /* \"#utility.yul\":1212:1242   */\n      swap1\n      pop\n        /* \"#utility.yul\":1251:1284   */\n      tag_161\n        /* \"#utility.yul\":1279:1283   */\n      dup3\n        /* \"#utility.yul\":1271:1277   */\n      dup3\n        /* \"#utility.yul\":1251:1284   */\n      tag_104\n      jump\t// in\n    tag_161:\n        /* \"#utility.yul\":1161:1290   */\n      swap2\n      swap1\n      pop\n      jump\t// out\n        /* \"#utility.yul\":1296:1604   */\n    tag_106:\n        /* \"#utility.yul\":1358:1362   */\n      0x00\n        /* \"#utility.yul\":1448:1466   */\n      0xffffffffffffffff\n        /* \"#utility.yul\":1440:1446   */\n      dup3\n        /* \"#utility.yul\":1437:1467   */\n      gt\n        /* \"#utility.yul\":1434:1490   */\n      iszero\n      tag_163\n      jumpi\n        /* \"#utility.yul\":1470:1488   */\n      tag_164\n      tag_103\n      jump\t// in\n    tag_164:\n        /* \"#utility.yul\":1434:1490   */\n    tag_163:\n        /* \"#utility.yul\":1508:1537   */\n      tag_165\n        /* \"#utility.yul\":1530:1536   */\n      dup3\n        /* \"#utility.yul\":1508:1537   */\n      tag_102\n      jump\t// in\n    tag_165:\n        /* \"#utility.yul\":1500:1537   */\n      swap1\n      pop\n        /* \"#utility.yul\":1592:1596   */\n      0x20\n        /* \"#utility.yul\":1586:1590   */\n      dup2\n        /* \"#utility.yul\":1582:1597   */\n      add\n        /* \"#utility.yul\":1574:1597   */\n      swap1\n      pop\n        /* \"#utility.yul\":1296:1604   */\n      swap2\n      swap1\n      pop\n      jump\t// out\n        /* \"#utility.yul\":1610:1758   */\n    tag_107:\n        /* \"#utility.yul\":1708:1714   */\n      dup3\n        /* \"#utility.yul\":1703:1706   */\n      dup2\n        /* \"#utility.yul\":1698:1701   */\n      dup4\n        /* \"#utility.yul\":1685:1715   */\n      calldatacopy\n        /* \"#utility.yul\":1749:1750   */\n      0x00\n        /* \"#utility.yul\":1740:1746   */\n      dup4\n        /* \"#utility.yul\":1735:1738   */\n      dup4\n        /* \"#utility.yul\":1731:1747   */\n      add\n        /* \"#utility.yul\":1724:1751   */\n      mstore\n        /* \"#utility.yul\":1610:1758   */\n      pop\n      pop\n      pop\n      jump\t// out\n        /* \"#utility.yul\":1764:2189   */\n    tag_108:\n        /* \"#utility.yul\":1842:1847   */\n      0x00\n        /* \"#utility.yul\":1867:1933   */\n      tag_168\n        /* \"#utility.yul\":1883:1932   */\n      tag_169\n        /* \"#utility.yul\":1925:1931   */\n      dup5\n        /* \"#utility.yul\":1883:1932   */\n      tag_106\n      jump\t// in\n    tag_169:\n        /* \"#utility.yul\":1867:1933   */\n      tag_105\n      jump\t// in\n    tag_168:\n        /* \"#utility.yul\":1858:1933   */\n      swap1\n      pop\n        /* \"#utility.yul\":1956:1962   */\n      dup3\n        /* \"#utility.yul\":1949:1954   */\n      dup2\n        /* \"#utility.yul\":1942:1963   */\n      mstore\n        /* \"#utility.yul\":1994:1998   */\n      0x20\n        /* \"#utility.yul\":1987:1992   */\n      dup2\n        /* \"#utility.yul\":1983:1999   */\n      add\n        /* \"#utility.yul\":2032:2035   */\n      dup5\n        /* \"#utility.yul\":2023:2029   */\n      dup5\n        /* \"#utility.yul\":2018:2021   */\n      dup5\n        /* \"#utility.yul\":2014:2030   */\n      add\n        /* \"#utility.yul\":2011:2036   */\n      gt\n        /* \"#utility.yul\":2008:2120   */\n      iszero\n      tag_170\n      jumpi\n        /* \"#utility.yul\":2039:2118   */\n      tag_171\n      tag_101\n      jump\t// in\n    tag_171:\n        /* \"#utility.yul\":2008:2120   */\n    tag_170:\n        /* \"#utility.yul\":2129:2183   */\n      tag_172\n        /* \"#utility.yul\":2176:2182   */\n      dup5\n        /* \"#utility.yul\":2171:2174   */\n      dup3\n        /* \"#utility.yul\":2166:2169   */\n      dup6\n        /* \"#utility.yul\":2129:2183   */\n      tag_107\n      jump\t// in\n    tag_172:\n        /* \"#utility.yul\":1848:2189   */\n      pop\n        /* \"#utility.yul\":1764:2189   */\n      swap4\n      swap3\n      pop\n      pop\n      pop\n      jump\t// out\n        /* \"#utility.yul\":2209:2549   */\n    tag_109:\n        /* \"#utility.yul\":2265:2270   */\n      0x00\n        /* \"#utility.yul\":2314:2317   */\n      dup3\n        /* \"#utility.yul\":2307:2311   */\n      0x1f\n        /* \"#utility.yul\":2299:2305   */\n      dup4\n        /* \"#utility.yul\":2295:2312   */\n      add\n        /* \"#utility.yul\":2291:2318   */\n      slt\n        /* \"#utility.yul\":2281:2403   */\n      tag_174\n      jumpi\n        /* \"#utility.yul\":2322:2401   */\n      tag_175\n      tag_100\n      jump\t// in\n    tag_175:\n        /* \"#utility.yul\":2281:2403   */\n    tag_174:\n        /* \"#utility.yul\":2439:2445   */\n      dup2\n        /* \"#utility.yul\":2426:2446   */\n      calldataload\n        /* \"#utility.yul\":2464:2543   */\n      tag_176\n        /* \"#utility.yul\":2539:2542   */\n      dup5\n        /* \"#utility.yul\":2531:2537   */\n      dup3\n        /* \"#utility.yul\":2524:2528   */\n      0x20\n        /* \"#utility.yul\":2516:2522   */\n      dup7\n        /* \"#utility.yul\":2512:2529   */\n      add\n        /* \"#utility.yul\":2464:2543   */\n      tag_108\n      jump\t// in\n    tag_176:\n        /* \"#utility.yul\":2455:2543   */\n      swap2\n      pop\n        /* \"#utility.yul\":2271:2549   */\n      pop\n        /* \"#utility.yul\":2209:2549   */\n      swap3\n      swap2\n      pop\n      pop\n      jump\t// out\n        /* \"#utility.yul\":2555:3064   */\n    tag_13:\n        /* \"#utility.yul\":2624:2630   */\n      0x00\n        /* \"#utility.yul\":2673:2675   */\n      0x20\n        /* \"#utility.yul\":2661:2670   */\n      dup3\n        /* \"#utility.yul\":2652:2659   */\n      dup5\n        /* \"#utility.yul\":2648:2671   */\n      sub\n        /* \"#utility.yul\":2644:2676   */\n      slt\n        /* \"#utility.yul\":2641:2760   */\n      iszero\n      tag_178\n      jumpi\n        /* \"#utility.yul\":2679:2758   */\n      tag_179\n      tag_98\n      jump\t// in\n    tag_179:\n        /* \"#utility.yul\":2641:2760   */\n    tag_178:\n        /* \"#utility.yul\":2827:2828   */\n      0x00\n        /* \"#utility.yul\":2816:2825   */\n      dup3\n        /* \"#utility.yul\":2812:2829   */\n      add\n        /* \"#utility.yul\":2799:2830   */\n      calldataload\n        /* \"#utility.yul\":2857:2875   */\n      0xffffffffffffffff\n        /* \"#utility.yul\":2849:2855   */\n      dup2\n        /* \"#utility.yul\":2846:2876   */\n      gt\n        /* \"#utility.yul\":2843:2960   */\n      iszero\n      tag_180\n      jumpi\n        /* \"#utility.yul\":2879:2958   */\n      tag_181\n      tag_99\n      jump\t// in\n    tag_181:\n        /* \"#utility.yul\":2843:2960   */\n    tag_180:\n        /* \"#utility.yul\":2984:3047   */\n      tag_182\n        /* \"#utility.yul\":3039:3046   */\n      dup5\n        /* \"#utility.yul\":3030:3036   */\n      dup3\n        /* \"#utility.yul\":3019:3028   */\n      dup6\n        /* \"#utility.yul\":3015:3037   */\n      add\n        /* \"#utility.yul\":2984:3047   */\n      tag_109\n      jump\t// in\n    tag_182:\n        /* \"#utility.yul\":2974:3047   */\n      swap2\n      pop\n        /* \"#utility.yul\":2770:3057   */\n      pop\n        /* \"#utility.yul\":2555:3064   */\n      swap3\n      swap2\n      pop\n      pop\n      jump\t// out\n        /* \"#utility.yul\":3070:3147   */\n    tag_110:\n        /* \"#utility.yul\":3107:3114   */\n      0x00\n        /* \"#utility.yul\":3136:3141   */\n      dup2\n        /* \"#utility.yul\":3125:3141   */\n      swap1\n      pop\n        /* \"#utility.yul\":3070:3147   */\n      swap2\n      swap1\n      pop\n      jump\t// out\n        /* \"#utility.yul\":3153:3271   */\n    tag_111:\n        /* \"#utility.yul\":3240:3264   */\n      tag_185\n        /* \"#utility.yul\":3258:3263   */\n      dup2\n        /* \"#utility.yul\":3240:3264   */\n      tag_110\n      jump\t// in\n    tag_185:\n        /* \"#utility.yul\":3235:3238   */\n      dup3\n        /* \"#utility.yul\":3228:3265   */\n      mstore\n        /* \"#utility.yul\":3153:3271   */\n      pop\n      pop\n      jump\t// out\n        /* \"#utility.yul\":3277:3499   */\n    tag_16:\n        /* \"#utility.yul\":3370:3374   */\n      0x00\n        /* \"#utility.yul\":3408:3410   */\n      0x20\n        /* \"#utility.yul\":3397:3406   */\n      dup3\n        /* \"#utility.yul\":3393:3411   */\n      add\n        /* \"#utility.yul\":3385:3411   */\n      swap1\n      pop\n        /* \"#utility.yul\":3421:3492   */\n      tag_187\n        /* \"#utility.yul\":3489:3490   */\n      0x00\n        /* \"#utility.yul\":3478:3487   */\n      dup4\n        /* \"#utility.yul\":3474:3491   */\n      add\n        /* \"#utility.yul\":3465:3471   */\n      dup5\n        /* \"#utility.yul\":3421:3492   */\n      tag_111\n      jump\t// in\n    tag_187:\n        /* \"#utility.yul\":3277:3499   */\n      swap3\n      swap2\n      pop\n      pop\n      jump\t// out\n        /* \"#utility.yul\":3505:3631   */\n    tag_112:\n        /* \"#utility.yul\":3542:3549   */\n      0x00\n        /* \"#utility.yul\":3582:3624   */\n      0xffffffffffffffffffffffffffffffffffffffff\n        /* \"#utility.yul\":3575:3580   */\n      dup3\n        /* \"#utility.yul\":3571:3625   */\n      and\n        /* \"#utility.yul\":3560:3625   */\n      swap1\n      pop\n        /* \"#utility.yul\":3505:3631   */\n      swap2\n      swap1\n      pop\n      jump\t// out\n        /* \"#utility.yul\":3637:3733   */\n    tag_113:\n        /* \"#utility.yul\":3674:3681   */\n      0x00\n        /* \"#utility.yul\":3703:3727   */\n      tag_190\n        /* \"#utility.yul\":3721:3726   */\n      dup3\n        /* \"#utility.yul\":3703:3727   */\n      tag_112\n      jump\t// in\n    tag_190:\n        /* \"#utility.yul\":3692:3727   */\n      swap1\n      pop\n        /* \"#utility.yul\":3637:3733   */\n      swap2\n      swap1\n      pop\n      jump\t// out\n        /* \"#utility.yul\":3739:3857   */\n    tag_114:\n        /* \"#utility.yul\":3826:3850   */\n      tag_192\n        /* \"#utility.yul\":3844:3849   */\n      dup2\n        /* \"#utility.yul\":3826:3850   */\n      tag_113\n      jump\t// in\n    tag_192:\n        /* \"#utility.yul\":3821:3824   */\n      dup3\n        /* \"#utility.yul\":3814:3851   */\n      mstore\n        /* \"#utility.yul\":3739:3857   */\n      pop\n      pop\n      jump\t// out\n        /* \"#utility.yul\":3863:4085   */\n    tag_20:\n        /* \"#utility.yul\":3956:3960   */\n      0x00\n        /* \"#utility.yul\":3994:3996   */\n      0x20\n        /* \"#utility.yul\":3983:3992   */\n      dup3\n        /* \"#utility.yul\":3979:3997   */\n      add\n        /* \"#utility.yul\":3971:3997   */\n      swap1\n      pop\n        /* \"#utility.yul\":4007:4078   */\n      tag_194\n        /* \"#utility.yul\":4075:4076   */\n      0x00\n        /* \"#utility.yul\":4064:4073   */\n      dup4\n        /* \"#utility.yul\":4060:4077   */\n      add\n        /* \"#utility.yul\":4051:4057   */\n      dup5\n        /* \"#utility.yul\":4007:4078   */\n      tag_114\n      jump\t// in\n    tag_194:\n        /* \"#utility.yul\":3863:4085   */\n      swap3\n      swap2\n      pop\n      pop\n      jump\t// out\n        /* \"#utility.yul\":4091:4181   */\n    tag_115:\n        /* \"#utility.yul\":4125:4132   */\n      0x00\n        /* \"#utility.yul\":4168:4173   */\n      dup2\n        /* \"#utility.yul\":4161:4174   */\n      iszero\n        /* \"#utility.yul\":4154:4175   */\n      iszero\n        /* \"#utility.yul\":4143:4175   */\n      swap1\n      pop\n        /* \"#utility.yul\":4091:4181   */\n      swap2\n      swap1\n      pop\n      jump\t// out\n        /* \"#utility.yul\":4187:4296   */\n    tag_116:\n        /* \"#utility.yul\":4268:4289   */\n      tag_197\n        /* \"#utility.yul\":4283:4288   */\n      dup2\n        /* \"#utility.yul\":4268:4289   */\n      tag_115\n      jump\t// in\n    tag_197:\n        /* \"#utility.yul\":4263:4266   */\n      dup3\n        /* \"#utility.yul\":4256:4290   */\n      mstore\n        /* \"#utility.yul\":4187:4296   */\n      pop\n      pop\n      jump\t// out\n        /* \"#utility.yul\":4302:4512   */\n    tag_24:\n        /* \"#utility.yul\":4389:4393   */\n      0x00\n        /* \"#utility.yul\":4427:4429   */\n      0x20\n        /* \"#utility.yul\":4416:4425   */\n      dup3\n        /* \"#utility.yul\":4412:4430   */\n      add\n        /* \"#utility.yul\":4404:4430   */\n      swap1\n      pop\n        /* \"#utility.yul\":4440:4505   */\n      tag_199\n        /* \"#utility.yul\":4502:4503   */\n      0x00\n        /* \"#utility.yul\":4491:4500   */\n      dup4\n        /* \"#utility.yul\":4487:4504   */\n      add\n        /* \"#utility.yul\":4478:4484   */\n      dup5\n        /* \"#utility.yul\":4440:4505   */\n      tag_116\n      jump\t// in\n    tag_199:\n        /* \"#utility.yul\":4302:4512   */\n      swap3\n      swap2\n      pop\n      pop\n      jump\t// out\n        /* \"#utility.yul\":4518:4640   */\n    tag_117:\n        /* \"#utility.yul\":4591:4615   */\n      tag_201\n        /* \"#utility.yul\":4609:4614   */\n      dup2\n        /* \"#utility.yul\":4591:4615   */\n      tag_113\n      jump\t// in\n    tag_201:\n        /* \"#utility.yul\":4584:4589   */\n      dup2\n        /* \"#utility.yul\":4581:4616   */\n      eq\n        /* \"#utility.yul\":4571:4634   */\n      tag_202\n      jumpi\n        /* \"#utility.yul\":4630:4631   */\n      0x00\n        /* \"#utility.yul\":4627:4628   */\n      0x00\n        /* \"#utility.yul\":4620:4632   */\n      revert\n        /* \"#utility.yul\":4571:4634   */\n    tag_202:\n        /* \"#utility.yul\":4518:4640   */\n      pop\n      jump\t// out\n        /* \"#utility.yul\":4646:4785   */\n    tag_118:\n        /* \"#utility.yul\":4692:4697   */\n      0x00\n        /* \"#utility.yul\":4730:4736   */\n      dup2\n        /* \"#utility.yul\":4717:4737   */\n      calldataload\n        /* \"#utility.yul\":4708:4737   */\n      swap1\n      pop\n        /* \"#utility.yul\":4746:4779   */\n      tag_204\n        /* \"#utility.yul\":4773:4778   */\n      dup2\n        /* \"#utility.yul\":4746:4779   */\n      tag_117\n      jump\t// in\n    tag_204:\n        /* \"#utility.yul\":4646:4785   */\n      swap3\n      swap2\n      pop\n      pop\n      jump\t// out\n        /* \"#utility.yul\":4791:5120   */\n    tag_27:\n        /* \"#utility.yul\":4850:4856   */\n      0x00\n        /* \"#utility.yul\":4899:4901   */\n      0x20\n        /* \"#utility.yul\":4887:4896   */\n      dup3\n        /* \"#utility.yul\":4878:4885   */\n      dup5\n        /* \"#utility.yul\":4874:4897   */\n      sub\n        /* \"#utility.yul\":4870:4902   */\n      slt\n        /* \"#utility.yul\":4867:4986   */\n      iszero\n      tag_206\n      jumpi\n        /* \"#utility.yul\":4905:4984   */\n      tag_207\n      tag_98\n      jump\t// in\n    tag_207:\n        /* \"#utility.yul\":4867:4986   */\n    tag_206:\n        /* \"#utility.yul\":5025:5026   */\n      0x00\n        /* \"#utility.yul\":5050:5103   */\n      tag_208\n        /* \"#utility.yul\":5095:5102   */\n      dup5\n        /* \"#utility.yul\":5086:5092   */\n      dup3\n        /* \"#utility.yul\":5075:5084   */\n      dup6\n        /* \"#utility.yul\":5071:5093   */\n      add\n        /* \"#utility.yul\":5050:5103   */\n      tag_118\n      jump\t// in\n    tag_208:\n        /* \"#utility.yul\":5040:5103   */\n      swap2\n      pop\n        /* \"#utility.yul\":4996:5113   */\n      pop\n        /* \"#utility.yul\":4791:5120   */\n      swap3\n      swap2\n      pop\n      pop\n      jump\t// out\n        /* \"#utility.yul\":5126:5225   */\n    tag_119:\n        /* \"#utility.yul\":5178:5184   */\n      0x00\n        /* \"#utility.yul\":5212:5217   */\n      dup2\n        /* \"#utility.yul\":5206:5218   */\n      mload\n        /* \"#utility.yul\":5196:5218   */\n      swap1\n      pop\n        /* \"#utility.yul\":5126:5225   */\n      swap2\n      swap1\n      pop\n      jump\t// out\n        /* \"#utility.yul\":5231:5379   */\n    tag_120:\n        /* \"#utility.yul\":5333:5344   */\n      0x00\n        /* \"#utility.yul\":5370:5373   */\n      dup2\n        /* \"#utility.yul\":5355:5373   */\n      swap1\n      pop\n        /* \"#utility.yul\":5231:5379   */\n      swap3\n      swap2\n      pop\n      pop\n      jump\t// out\n        /* \"#utility.yul\":5385:5524   */\n    tag_121:\n        /* \"#utility.yul\":5474:5480   */\n      dup3\n        /* \"#utility.yul\":5469:5472   */\n      dup2\n        /* \"#utility.yul\":5464:5467   */\n      dup4\n        /* \"#utility.yul\":5458:5481   */\n      mcopy\n        /* \"#utility.yul\":5515:5516   */\n      0x00\n        /* \"#utility.yul\":5506:5512   */\n      dup4\n        /* \"#utility.yul\":5501:5504   */\n      dup4\n        /* \"#utility.yul\":5497:5513   */\n      add\n        /* \"#utility.yul\":5490:5517   */\n      mstore\n        /* \"#utility.yul\":5385:5524   */\n      pop\n      pop\n      pop\n      jump\t// out\n        /* \"#utility.yul\":5530:5920   */\n    tag_122:\n        /* \"#utility.yul\":5636:5639   */\n      0x00\n        /* \"#utility.yul\":5664:5703   */\n      tag_213\n        /* \"#utility.yul\":5697:5702   */\n      dup3\n        /* \"#utility.yul\":5664:5703   */\n      tag_119\n      jump\t// in\n    tag_213:\n        /* \"#utility.yul\":5719:5808   */\n      tag_214\n        /* \"#utility.yul\":5801:5807   */\n      dup2\n        /* \"#utility.yul\":5796:5799   */\n      dup6\n        /* \"#utility.yul\":5719:5808   */\n      tag_120\n      jump\t// in\n    tag_214:\n        /* \"#utility.yul\":5712:5808   */\n      swap4\n      pop\n        /* \"#utility.yul\":5817:5882   */\n      tag_215\n        /* \"#utility.yul\":5875:5881   */\n      dup2\n        /* \"#utility.yul\":5870:5873   */\n      dup6\n        /* \"#utility.yul\":5863:5867   */\n      0x20\n        /* \"#utility.yul\":5856:5861   */\n      dup7\n        /* \"#utility.yul\":5852:5868   */\n      add\n        /* \"#utility.yul\":5817:5882   */\n      tag_121\n      jump\t// in\n    tag_215:\n        /* \"#utility.yul\":5907:5913   */\n      dup1\n        /* \"#utility.yul\":5902:5905   */\n      dup5\n        /* \"#utility.yul\":5898:5914   */\n      add\n        /* \"#utility.yul\":5891:5914   */\n      swap2\n      pop\n        /* \"#utility.yul\":5640:5920   */\n      pop\n        /* \"#utility.yul\":5530:5920   */\n      swap3\n      swap2\n      pop\n      pop\n      jump\t// out\n        /* \"#utility.yul\":5926:6201   */\n    tag_41:\n        /* \"#utility.yul\":6058:6061   */\n      0x00\n        /* \"#utility.yul\":6080:6175   */\n      tag_217\n        /* \"#utility.yul\":6171:6174   */\n      dup3\n        /* \"#utility.yul\":6162:6168   */\n      dup5\n        /* \"#utility.yul\":6080:6175   */\n      tag_122\n      jump\t// in\n    tag_217:\n        /* \"#utility.yul\":6073:6175   */\n      swap2\n      pop\n        /* \"#utility.yul\":6192:6195   */\n      dup2\n        /* \"#utility.yul\":6185:6195   */\n      swap1\n      pop\n        /* \"#utility.yul\":5926:6201   */\n      swap3\n      swap2\n      pop\n      pop\n      jump\t// out\n        /* \"#utility.yul\":6207:6387   */\n    tag_51:\n        /* \"#utility.yul\":6255:6332   */\n      0x4e487b7100000000000000000000000000000000000000000000000000000000\n        /* \"#utility.yul\":6252:6253   */\n      0x00\n        /* \"#utility.yul\":6245:6333   */\n      mstore\n        /* \"#utility.yul\":6352:6356   */\n      0x32\n        /* \"#utility.yul\":6349:6350   */\n      0x04\n        /* \"#utility.yul\":6342:6357   */\n      mstore\n        /* \"#utility.yul\":6376:6380   */\n      0x24\n        /* \"#utility.yul\":6373:6374   */\n      0x00\n        /* \"#utility.yul\":6366:6381   */\n      revert\n        /* \"#utility.yul\":6393:6573   */\n    tag_123:\n        /* \"#utility.yul\":6441:6518   */\n      0x4e487b7100000000000000000000000000000000000000000000000000000000\n        /* \"#utility.yul\":6438:6439   */\n      0x00\n        /* \"#utility.yul\":6431:6519   */\n      mstore\n        /* \"#utility.yul\":6538:6542   */\n      0x22\n        /* \"#utility.yul\":6535:6536   */\n      0x04\n        /* \"#utility.yul\":6528:6543   */\n      mstore\n        /* \"#utility.yul\":6562:6566   */\n      0x24\n        /* \"#utility.yul\":6559:6560   */\n      0x00\n        /* \"#utility.yul\":6552:6567   */\n      revert\n        /* \"#utility.yul\":6579:6899   */\n    tag_124:\n        /* \"#utility.yul\":6623:6629   */\n      0x00\n        /* \"#utility.yul\":6660:6661   */\n      0x02\n        /* \"#utility.yul\":6654:6658   */\n      dup3\n        /* \"#utility.yul\":6650:6662   */\n      div\n        /* \"#utility.yul\":6640:6662   */\n      swap1\n      pop\n        /* \"#utility.yul\":6707:6708   */\n      0x01\n        /* \"#utility.yul\":6701:6705   */\n      dup3\n        /* \"#utility.yul\":6697:6709   */\n      and\n        /* \"#utility.yul\":6728:6746   */\n      dup1\n        /* \"#utility.yul\":6718:6799   */\n      tag_221\n      jumpi\n        /* \"#utility.yul\":6784:6788   */\n      0x7f\n        /* \"#utility.yul\":6776:6782   */\n      dup3\n        /* \"#utility.yul\":6772:6789   */\n      and\n        /* \"#utility.yul\":6762:6789   */\n      swap2\n      pop\n        /* \"#utility.yul\":6718:6799   */\n    tag_221:\n        /* \"#utility.yul\":6846:6848   */\n      0x20\n        /* \"#utility.yul\":6838:6844   */\n      dup3\n        /* \"#utility.yul\":6835:6849   */\n      lt\n        /* \"#utility.yul\":6815:6833   */\n      dup2\n        /* \"#utility.yul\":6812:6850   */\n      sub\n        /* \"#utility.yul\":6809:6893   */\n      tag_222\n      jumpi\n        /* \"#utility.yul\":6865:6883   */\n      tag_223\n      tag_123\n      jump\t// in\n    tag_223:\n        /* \"#utility.yul\":6809:6893   */\n    tag_222:\n        /* \"#utility.yul\":6630:6899   */\n      pop\n        /* \"#utility.yul\":6579:6899   */\n      swap2\n      swap1\n      pop\n      jump\t// out\n        /* \"#utility.yul\":6905:7046   */\n    tag_125:\n        /* \"#utility.yul\":6954:6958   */\n      0x00\n        /* \"#utility.yul\":6977:6980   */\n      dup2\n        /* \"#utility.yul\":6969:6980   */\n      swap1\n      pop\n        /* \"#utility.yul\":7000:7003   */\n      dup2\n        /* \"#utility.yul\":6997:6998   */\n      0x00\n        /* \"#utility.yul\":6990:7004   */\n      mstore\n        /* \"#utility.yul\":7034:7038   */\n      0x20\n        /* \"#utility.yul\":7031:7032   */\n      0x00\n        /* \"#utility.yul\":7021:7039   */\n      keccak256\n        /* \"#utility.yul\":7013:7039   */\n      swap1\n      pop\n        /* \"#utility.yul\":6905:7046   */\n      swap2\n      swap1\n      pop\n      jump\t// out\n        /* \"#utility.yul\":7076:7950   */\n    tag_126:\n        /* \"#utility.yul\":7179:7182   */\n      0x00\n        /* \"#utility.yul\":7216:7221   */\n      dup2\n        /* \"#utility.yul\":7210:7222   */\n      sload\n        /* \"#utility.yul\":7245:7281   */\n      tag_226\n        /* \"#utility.yul\":7271:7280   */\n      dup2\n        /* \"#utility.yul\":7245:7281   */\n      tag_124\n      jump\t// in\n    tag_226:\n        /* \"#utility.yul\":7297:7386   */\n      tag_227\n        /* \"#utility.yul\":7379:7385   */\n      dup2\n        /* \"#utility.yul\":7374:7377   */\n      dup7\n        /* \"#utility.yul\":7297:7386   */\n      tag_120\n      jump\t// in\n    tag_227:\n        /* \"#utility.yul\":7290:7386   */\n      swap5\n      pop\n        /* \"#utility.yul\":7417:7418   */\n      0x01\n        /* \"#utility.yul\":7406:7415   */\n      dup3\n        /* \"#utility.yul\":7402:7419   */\n      and\n        /* \"#utility.yul\":7433:7434   */\n      0x00\n        /* \"#utility.yul\":7428:7594   */\n      dup2\n      eq\n      tag_229\n      jumpi\n        /* \"#utility.yul\":7608:7609   */\n      0x01\n        /* \"#utility.yul\":7603:7944   */\n      dup2\n      eq\n      tag_230\n      jumpi\n        /* \"#utility.yul\":7395:7944   */\n      jump(tag_228)\n        /* \"#utility.yul\":7428:7594   */\n    tag_229:\n        /* \"#utility.yul\":7512:7516   */\n      0xff\n        /* \"#utility.yul\":7508:7517   */\n      not\n        /* \"#utility.yul\":7497:7506   */\n      dup4\n        /* \"#utility.yul\":7493:7518   */\n      and\n        /* \"#utility.yul\":7488:7491   */\n      dup7\n        /* \"#utility.yul\":7481:7519   */\n      mstore\n        /* \"#utility.yul\":7574:7580   */\n      dup2\n        /* \"#utility.yul\":7567:7581   */\n      iszero\n        /* \"#utility.yul\":7560:7582   */\n      iszero\n        /* \"#utility.yul\":7552:7558   */\n      dup3\n        /* \"#utility.yul\":7548:7583   */\n      mul\n        /* \"#utility.yul\":7543:7546   */\n      dup7\n        /* \"#utility.yul\":7539:7584   */\n      add\n        /* \"#utility.yul\":7532:7584   */\n      swap4\n      pop\n        /* \"#utility.yul\":7428:7594   */\n      jump(tag_228)\n        /* \"#utility.yul\":7603:7944   */\n    tag_230:\n        /* \"#utility.yul\":7670:7708   */\n      tag_231\n        /* \"#utility.yul\":7702:7707   */\n      dup6\n        /* \"#utility.yul\":7670:7708   */\n      tag_125\n      jump\t// in\n    tag_231:\n        /* \"#utility.yul\":7730:7731   */\n      0x00\n        /* \"#utility.yul\":7744:7898   */\n    tag_232:\n        /* \"#utility.yul\":7758:7764   */\n      dup4\n        /* \"#utility.yul\":7755:7756   */\n      dup2\n        /* \"#utility.yul\":7752:7765   */\n      lt\n        /* \"#utility.yul\":7744:7898   */\n      iszero\n      tag_234\n      jumpi\n        /* \"#utility.yul\":7832:7839   */\n      dup2\n        /* \"#utility.yul\":7826:7840   */\n      sload\n        /* \"#utility.yul\":7822:7823   */\n      dup2\n        /* \"#utility.yul\":7817:7820   */\n      dup10\n        /* \"#utility.yul\":7813:7824   */\n      add\n        /* \"#utility.yul\":7806:7841   */\n      mstore\n        /* \"#utility.yul\":7882:7883   */\n      0x01\n        /* \"#utility.yul\":7873:7880   */\n      dup3\n        /* \"#utility.yul\":7869:7884   */\n      add\n        /* \"#utility.yul\":7858:7884   */\n      swap2\n      pop\n        /* \"#utility.yul\":7780:7784   */\n      0x20\n        /* \"#utility.yul\":7777:7778   */\n      dup2\n        /* \"#utility.yul\":7773:7785   */\n      add\n        /* \"#utility.yul\":7768:7785   */\n      swap1\n      pop\n        /* \"#utility.yul\":7744:7898   */\n      jump(tag_232)\n    tag_234:\n        /* \"#utility.yul\":7927:7933   */\n      dup4\n        /* \"#utility.yul\":7922:7925   */\n      dup9\n        /* \"#utility.yul\":7918:7934   */\n      add\n        /* \"#utility.yul\":7911:7934   */\n      swap6\n      pop\n        /* \"#utility.yul\":7610:7944   */\n      pop\n      pop\n        /* \"#utility.yul\":7395:7944   */\n    tag_228:\n      pop\n        /* \"#utility.yul\":7183:7950   */\n      pop\n      pop\n        /* \"#utility.yul\":7076:7950   */\n      swap3\n      swap2\n      pop\n      pop\n      jump\t// out\n        /* \"#utility.yul\":7956:8225   */\n    tag_54:\n        /* \"#utility.yul\":8085:8088   */\n      0x00\n        /* \"#utility.yul\":8107:8199   */\n      tag_236\n        /* \"#utility.yul\":8195:8198   */\n      dup3\n        /* \"#utility.yul\":8186:8192   */\n      dup5\n        /* \"#utility.yul\":8107:8199   */\n      tag_126\n      jump\t// in\n    tag_236:\n        /* \"#utility.yul\":8100:8199   */\n      swap2\n      pop\n        /* \"#utility.yul\":8216:8219   */\n      dup2\n        /* \"#utility.yul\":8209:8219   */\n      swap1\n      pop\n        /* \"#utility.yul\":7956:8225   */\n      swap3\n      swap2\n      pop\n      pop\n      jump\t// out\n        /* \"#utility.yul\":8231:8400   */\n    tag_127:\n        /* \"#utility.yul\":8315:8326   */\n      0x00\n        /* \"#utility.yul\":8349:8355   */\n      dup3\n        /* \"#utility.yul\":8344:8347   */\n      dup3\n        /* \"#utility.yul\":8337:8356   */\n      mstore\n        /* \"#utility.yul\":8389:8393   */\n      0x20\n        /* \"#utility.yul\":8384:8387   */\n      dup3\n        /* \"#utility.yul\":8380:8394   */\n      add\n        /* \"#utility.yul\":8365:8394   */\n      swap1\n      pop\n        /* \"#utility.yul\":8231:8400   */\n      swap3\n      swap2\n      pop\n      pop\n      jump\t// out\n        /* \"#utility.yul\":8406:8581   */\n    tag_128:\n        /* \"#utility.yul\":8546:8573   */\n      0x63616e6469646174652063616e6e6f7420626520656d70747900000000000000\n        /* \"#utility.yul\":8542:8543   */\n      0x00\n        /* \"#utility.yul\":8534:8540   */\n      dup3\n        /* \"#utility.yul\":8530:8544   */\n      add\n        /* \"#utility.yul\":8523:8574   */\n      mstore\n        /* \"#utility.yul\":8406:8581   */\n      pop\n      jump\t// out\n        /* \"#utility.yul\":8587:8953   */\n    tag_129:\n        /* \"#utility.yul\":8729:8732   */\n      0x00\n        /* \"#utility.yul\":8750:8817   */\n      tag_240\n        /* \"#utility.yul\":8814:8816   */\n      0x19\n        /* \"#utility.yul\":8809:8812   */\n      dup4\n        /* \"#utility.yul\":8750:8817   */\n      tag_127\n      jump\t// in\n    tag_240:\n        /* \"#utility.yul\":8743:8817   */\n      swap2\n      pop\n        /* \"#utility.yul\":8826:8919   */\n      tag_241\n        /* \"#utility.yul\":8915:8918   */\n      dup3\n        /* \"#utility.yul\":8826:8919   */\n      tag_128\n      jump\t// in\n    tag_241:\n        /* \"#utility.yul\":8944:8946   */\n      0x20\n        /* \"#utility.yul\":8939:8942   */\n      dup3\n        /* \"#utility.yul\":8935:8947   */\n      add\n        /* \"#utility.yul\":8928:8947   */\n      swap1\n      pop\n        /* \"#utility.yul\":8587:8953   */\n      swap2\n      swap1\n      pop\n      jump\t// out\n        /* \"#utility.yul\":8959:9378   */\n    tag_72:\n        /* \"#utility.yul\":9125:9129   */\n      0x00\n        /* \"#utility.yul\":9163:9165   */\n      0x20\n        /* \"#utility.yul\":9152:9161   */\n      dup3\n        /* \"#utility.yul\":9148:9166   */\n      add\n        /* \"#utility.yul\":9140:9166   */\n      swap1\n      pop\n        /* \"#utility.yul\":9212:9221   */\n      dup2\n        /* \"#utility.yul\":9206:9210   */\n      dup2\n        /* \"#utility.yul\":9202:9222   */\n      sub\n        /* \"#utility.yul\":9198:9199   */\n      0x00\n        /* \"#utility.yul\":9187:9196   */\n      dup4\n        /* \"#utility.yul\":9183:9200   */\n      add\n        /* \"#utility.yul\":9176:9223   */\n      mstore\n        /* \"#utility.yul\":9240:9371   */\n      tag_243\n        /* \"#utility.yul\":9366:9370   */\n      dup2\n        /* \"#utility.yul\":9240:9371   */\n      tag_129\n      jump\t// in\n    tag_243:\n        /* \"#utility.yul\":9232:9371   */\n      swap1\n      pop\n        /* \"#utility.yul\":8959:9378   */\n      swap2\n      swap1\n      pop\n      jump\t// out\n        /* \"#utility.yul\":9384:9551   */\n    tag_130:\n        /* \"#utility.yul\":9524:9543   */\n      0x796f7520616c726561647920766f746564000000000000000000000000000000\n        /* \"#utility.yul\":9520:9521   */\n      0x00\n        /* \"#utility.yul\":9512:9518   */\n      dup3\n        /* \"#utility.yul\":9508:9522   */\n      add\n        /* \"#utility.yul\":9501:9544   */\n      mstore\n        /* \"#utility.yul\":9384:9551   */\n      pop\n      jump\t// out\n        /* \"#utility.yul\":9557:9923   */\n    tag_131:\n        /* \"#utility.yul\":9699:9702   */\n      0x00\n        /* \"#utility.yul\":9720:9787   */\n      tag_246\n        /* \"#utility.yul\":9784:9786   */\n      0x11\n        /* \"#utility.yul\":9779:9782   */\n      dup4\n        /* \"#utility.yul\":9720:9787   */\n      tag_127\n      jump\t// in\n    tag_246:\n        /* \"#utility.yul\":9713:9787   */\n      swap2\n      pop\n        /* \"#utility.yul\":9796:9889   */\n      tag_247\n        /* \"#utility.yul\":9885:9888   */\n      dup3\n        /* \"#utility.yul\":9796:9889   */\n      tag_130\n      jump\t// in\n    tag_247:\n        /* \"#utility.yul\":9914:9916   */\n      0x20\n        /* \"#utility.yul\":9909:9912   */\n      dup3\n        /* \"#utility.yul\":9905:9917   */\n      add\n        /* \"#utility.yul\":9898:9917   */\n      swap1\n      pop\n        /* \"#utility.yul\":9557:9923   */\n      swap2\n      swap1\n      pop\n      jump\t// out\n        /* \"#utility.yul\":9929:10348   */\n    tag_75:\n        /* \"#utility.yul\":10095:10099   */\n      0x00\n        /* \"#utility.yul\":10133:10135   */\n      0x20\n        /* \"#utility.yul\":10122:10131   */\n      dup3\n        /* \"#utility.yul\":10118:10136   */\n      add\n        /* \"#utility.yul\":10110:10136   */\n      swap1\n      pop\n        /* \"#utility.yul\":10182:10191   */\n      dup2\n        /* \"#utility.yul\":10176:10180   */\n      dup2\n        /* \"#utility.yul\":10172:10192   */\n      sub\n        /* \"#utility.yul\":10168:10169   */\n      0x00\n        /* \"#utility.yul\":10157:10166   */\n      dup4\n        /* \"#utility.yul\":10153:10170   */\n      add\n        /* \"#utility.yul\":10146:10193   */\n      mstore\n        /* \"#utility.yul\":10210:10341   */\n      tag_249\n        /* \"#utility.yul\":10336:10340   */\n      dup2\n        /* \"#utility.yul\":10210:10341   */\n      tag_131\n      jump\t// in\n    tag_249:\n        /* \"#utility.yul\":10202:10341   */\n      swap1\n      pop\n        /* \"#utility.yul\":9929:10348   */\n      swap2\n      swap1\n      pop\n      jump\t// out\n        /* \"#utility.yul\":10354:10447   */\n    tag_132:\n        /* \"#utility.yul\":10391:10397   */\n      0x00\n        /* \"#utility.yul\":10438:10440   */\n      0x20\n        /* \"#utility.yul\":10433:10435   */\n      0x1f\n        /* \"#utility.yul\":10426:10431   */\n      dup4\n        /* \"#utility.yul\":10422:10436   */\n      add\n        /* \"#utility.yul\":10418:10441   */\n      div\n        /* \"#utility.yul\":10408:10441   */\n      swap1\n      pop\n        /* \"#utility.yul\":10354:10447   */\n      swap2\n      swap1\n      pop\n      jump\t// out\n        /* \"#utility.yul\":10453:10560   */\n    tag_133:\n        /* \"#utility.yul\":10497:10505   */\n      0x00\n        /* \"#utility.yul\":10547:10552   */\n      dup3\n        /* \"#utility.yul\":10541:10545   */\n      dup3\n        /* \"#utility.yul\":10537:10553   */\n      shl\n        /* \"#utility.yul\":10516:10553   */\n      swap1\n      pop\n        /* \"#utility.yul\":10453:10560   */\n      swap3\n      swap2\n      pop\n      pop\n      jump\t// out\n        /* \"#utility.yul\":10566:10959   */\n    tag_134:\n        /* \"#utility.yul\":10635:10641   */\n      0x00\n        /* \"#utility.yul\":10685:10686   */\n      0x08\n        /* \"#utility.yul\":10673:10683   */\n      dup4\n        /* \"#utility.yul\":10669:10687   */\n      mul\n        /* \"#utility.yul\":10708:10805   */\n      tag_253\n        /* \"#utility.yul\":10738:10804   */\n      0xffffffffffffffffffffffffffffffffffffffffffffffffffffffffffffffff\n        /* \"#utility.yul\":10727:10736   */\n      dup3\n        /* \"#utility.yul\":10708:10805   */\n      tag_133\n      jump\t// in\n    tag_253:\n        /* \"#utility.yul\":10826:10865   */\n      tag_254\n        /* \"#utility.yul\":10856:10864   */\n      dup7\n        /* \"#utility.yul\":10845:10854   */\n      dup4\n        /* \"#utility.yul\":10826:10865   */\n      tag_133\n      jump\t// in\n    tag_254:\n        /* \"#utility.yul\":10814:10865   */\n      swap6\n      pop\n        /* \"#utility.yul\":10898:10902   */\n      dup1\n        /* \"#utility.yul\":10894:10903   */\n      not\n        /* \"#utility.yul\":10887:10892   */\n      dup5\n        /* \"#utility.yul\":10883:10904   */\n      and\n        /* \"#utility.yul\":10874:10904   */\n      swap4\n      pop\n        /* \"#utility.yul\":10947:10951   */\n      dup1\n        /* \"#utility.yul\":10937:10945   */\n      dup7\n        /* \"#utility.yul\":10933:10952   */\n      and\n        /* \"#utility.yul\":10926:10931   */\n      dup5\n        /* \"#utility.yul\":10923:10953   */\n      or\n        /* \"#utility.yul\":10913:10953   */\n      swap3\n      pop\n        /* \"#utility.yul\":10642:10959   */\n      pop\n      pop\n        /* \"#utility.yul\":10566:10959   */\n      swap4\n      swap3\n      pop\n      pop\n      pop\n      jump\t// out\n        /* \"#utility.yul\":10965:11025   */\n    tag_135:\n        /* \"#utility.yul\":10993:10996   */\n      0x00\n        /* \"#utility.yul\":11014:11019   */\n      dup2\n        /* \"#utility.yul\":11007:11019   */\n      swap1\n      pop\n        /* \"#utility.yul\":10965:11025   */\n      swap2\n      swap1\n      pop\n      jump\t// out\n        /* \"#utility.yul\":11031:11173   */\n    tag_136:\n        /* \"#utility.yul\":11081:11090   */\n      0x00\n        /* \"#utility.yul\":11114:11167   */\n      tag_257\n        /* \"#utility.yul\":11132:11166   */\n      tag_258\n        /* \"#utility.yul\":11141:11165   */\n      tag_259\n        /* \"#utility.yul\":11159:11164   */\n      dup5\n        /* \"#utility.yul\":11141:11165   */\n      tag_110\n      jump\t// in\n    tag_259:\n        /* \"#utility.yul\":11132:11166   */\n      tag_135\n      jump\t// in\n    tag_258:\n        /* \"#utility.yul\":11114:11167   */\n      tag_110\n      jump\t// in\n    tag_257:\n        /* \"#utility.yul\":11101:11167   */\n      swap1\n      pop\n        /* \"#utility.yul\":11031:11173   */\n      swap2\n      swap1\n      pop\n      jump\t// out\n        /* \"#utility.yul\":11179:11254   */\n    tag_137:\n        /* \"#utility.yul\":11222:11225   */\n      0x00\n        /* \"#utility.yul\":11243:11248   */\n      dup2\n        /* \"#utility.yul\":11236:11248   */\n      swap1\n      pop\n        /* \"#utility.yul\":11179:11254   */\n      swap2\n      swap1\n      pop\n      jump\t// out\n        /* \"#utility.yul\":11260:11529   */\n    tag_138:\n        /* \"#utility.yul\":11370:11409   */\n      tag_262\n        /* \"#utility.yul\":11401:11408   */\n      dup4\n        /* \"#utility.yul\":11370:11409   */\n      tag_136\n      jump\t// in\n    tag_262:\n        /* \"#utility.yul\":11431:11522   */\n      tag_263\n        /* \"#utility.yul\":11480:11521   */\n      tag_264\n        /* \"#utility.yul\":11504:11520   */\n      dup3\n        /* \"#utility.yul\":11480:11521   */\n      tag_137\n      jump\t// in\n    tag_264:\n        /* \"#utility.yul\":11472:11478   */\n      dup5\n        /* \"#utility.yul\":11465:11469   */\n      dup5\n        /* \"#utility.yul\":11459:11470   */\n      sload\n        /* \"#utility.yul\":11431:11522   */\n      tag_134\n      jump\t// in\n    tag_263:\n        /* \"#utility.yul\":11425:11429   */\n      dup3\n        /* \"#utility.yul\":11418:11523   */\n      sstore\n        /* \"#utility.yul\":11336:11529   */\n      pop\n        /* \"#utility.yul\":11260:11529   */\n      pop\n      pop\n      pop\n      jump\t// out\n        /* \"#utility.yul\":11535:11608   */\n    tag_139:\n        /* \"#utility.yul\":11580:11583   */\n      0x00\n        /* \"#utility.yul\":11601:11602   */\n      0x00\n        /* \"#utility.yul\":11594:11602   */\n      swap1\n      pop\n        /* \"#utility.yul\":11535:11608   */\n      swap1\n      jump\t// out\n        /* \"#utility.yul\":11614:11803   */\n    tag_140:\n        /* \"#utility.yul\":11691:11723   */\n      tag_267\n      tag_139\n      jump\t// in\n    tag_267:\n        /* \"#utility.yul\":11732:11797   */\n      tag_268\n        /* \"#utility.yul\":11790:11796   */\n      dup2\n        /* \"#utility.yul\":11782:11788   */\n      dup5\n        /* \"#utility.yul\":11776:11780   */\n      dup5\n        /* \"#utility.yul\":11732:11797   */\n      tag_138\n      jump\t// in\n    tag_268:\n        /* \"#utility.yul\":11667:11803   */\n      pop\n        /* \"#utility.yul\":11614:11803   */\n      pop\n      pop\n      jump\t// out\n        /* \"#utility.yul\":11809:11995   */\n    tag_141:\n        /* \"#utility.yul\":11869:11989   */\n    tag_270:\n        /* \"#utility.yul\":11886:11889   */\n      dup2\n        /* \"#utility.yul\":11879:11884   */\n      dup2\n        /* \"#utility.yul\":11876:11890   */\n      lt\n        /* \"#utility.yul\":11869:11989   */\n      iszero\n      tag_272\n      jumpi\n        /* \"#utility.yul\":11940:11979   */\n      tag_273\n        /* \"#utility.yul\":11977:11978   */\n      0x00\n        /* \"#utility.yul\":11970:11975   */\n      dup3\n        /* \"#utility.yul\":11940:11979   */\n      tag_140\n      jump\t// in\n    tag_273:\n        /* \"#utility.yul\":11913:11914   */\n      0x01\n        /* \"#utility.yul\":11906:11911   */\n      dup2\n        /* \"#utility.yul\":11902:11915   */\n      add\n        /* \"#utility.yul\":11893:11915   */\n      swap1\n      pop\n        /* \"#utility.yul\":11869:11989   */\n      jump(tag_270)\n    tag_272:\n        /* \"#utility.yul\":11809:11995   */\n      pop\n      pop\n      jump\t// out\n        /* \"#utility.yul\":12001:12544   */\n    tag_142:\n        /* \"#utility.yul\":12102:12104   */\n      0x1f\n        /* \"#utility.yul\":12097:12100   */\n      dup3\n        /* \"#utility.yul\":12094:12105   */\n      gt\n        /* \"#utility.yul\":12091:12537   */\n      iszero\n      tag_275\n      jumpi\n        /* \"#utility.yul\":12136:12174   */\n      tag_276\n        /* \"#utility.yul\":12168:12173   */\n      dup2\n        /* \"#utility.yul\":12136:12174   */\n      tag_125\n      jump\t// in\n    tag_276:\n        /* \"#utility.yul\":12220:12249   */\n      tag_277\n        /* \"#utility.yul\":12238:12248   */\n      dup5\n        /* \"#utility.yul\":12220:12249   */\n      tag_132\n      jump\t// in\n    tag_277:\n        /* \"#utility.yul\":12210:12218   */\n      dup2\n        /* \"#utility.yul\":12206:12250   */\n      add\n        /* \"#utility.yul\":12403:12405   */\n      0x20\n        /* \"#utility.yul\":12391:12401   */\n      dup6\n        /* \"#utility.yul\":12388:12406   */\n      lt\n        /* \"#utility.yul\":12385:12434   */\n      iszero\n      tag_278\n      jumpi\n        /* \"#utility.yul\":12424:12432   */\n      dup2\n        /* \"#utility.yul\":12409:12432   */\n      swap1\n      pop\n        /* \"#utility.yul\":12385:12434   */\n    tag_278:\n        /* \"#utility.yul\":12447:12527   */\n      tag_279\n        /* \"#utility.yul\":12503:12525   */\n      tag_280\n        /* \"#utility.yul\":12521:12524   */\n      dup6\n        /* \"#utility.yul\":12503:12525   */\n      tag_132\n      jump\t// in\n    tag_280:\n        /* \"#utility.yul\":12493:12501   */\n      dup4\n        /* \"#utility.yul\":12489:12526   */\n      add\n        /* \"#utility.yul\":12476:12487   */\n      dup3\n        /* \"#utility.yul\":12447:12527   */\n      tag_141\n      jump\t// in\n    tag_279:\n        /* \"#utility.yul\":12106:12537   */\n      pop\n      pop\n        /* \"#utility.yul\":12091:12537   */\n    tag_275:\n        /* \"#utility.yul\":12001:12544   */\n      pop\n      pop\n      pop\n      jump\t// out\n        /* \"#utility.yul\":12550:12667   */\n    tag_143:\n        /* \"#utility.yul\":12604:12612   */\n      0x00\n        /* \"#utility.yul\":12654:12659   */\n      dup3\n        /* \"#utility.yul\":12648:12652   */\n      dup3\n        /* \"#utility.yul\":12644:12660   */\n      shr\n        /* \"#utility.yul\":12623:12660   */\n      swap1\n      pop\n        /* \"#utility.yul\":12550:12667   */\n      swap3\n      swap2\n      pop\n      pop\n      jump\t// out\n        /* \"#utility.yul\":12673:12842   */\n    tag_144:\n        /* \"#utility.yul\":12717:12723   */\n      0x00\n        /* \"#utility.yul\":12750:12801   */\n      tag_283\n        /* \"#utility.yul\":12798:12799   */\n      0x00\n        /* \"#utility.yul\":12794:12800   */\n      not\n        /* \"#utility.yul\":12786:12791   */\n      dup5\n        /* \"#utility.yul\":12783:12784   */\n      0x08\n        /* \"#utility.yul\":12779:12792   */\n      mul\n        /* \"#utility.yul\":12750:12801   */\n      tag_143\n      jump\t// in\n    tag_283:\n        /* \"#utility.yul\":12746:12802   */\n      not\n        /* \"#utility.yul\":12831:12835   */\n      dup1\n        /* \"#utility.yul\":12825:12829   */\n      dup4\n        /* \"#utility.yul\":12821:12836   */\n      and\n        /* \"#utility.yul\":12811:12836   */\n      swap2\n      pop\n        /* \"#utility.yul\":12724:12842   */\n      pop\n        /* \"#utility.yul\":12673:12842   */\n      swap3\n      swap2\n      pop\n      pop\n      jump\t// out\n        /* \"#utility.yul\":12847:13142   */\n    tag_145:\n        /* \"#utility.yul\":12923:12927   */\n      0x00\n        /* \"#utility.yul\":13069:13098   */\n      tag_285\n        /* \"#utility.yul\":13094:13097   */\n      dup4\n        /* \"#utility.yul\":13088:13092   */\n      dup4\n        /* \"#utility.yul\":13069:13098   */\n      tag_144\n      jump\t// in\n    tag_285:\n        /* \"#utility.yul\":13061:13098   */\n      swap2\n      pop\n        /* \"#utility.yul\":13131:13134   */\n      dup3\n        /* \"#utility.yul\":13128:13129   */\n      0x02\n        /* \"#utility.yul\":13124:13135   */\n      mul\n        /* \"#utility.yul\":13118:13122   */\n      dup3\n        /* \"#utility.yul\":13115:13136   */\n      or\n        /* \"#utility.yul\":13107:13136   */\n      swap1\n      pop\n        /* \"#utility.yul\":12847:13142   */\n      swap3\n      swap2\n      pop\n      pop\n      jump\t// out\n        /* \"#utility.yul\":13147:14542   */\n    tag_80:\n        /* \"#utility.yul\":13264:13301   */\n      tag_287\n        /* \"#utility.yul\":13297:13300   */\n      dup3\n        /* \"#utility.yul\":13264:13301   */\n      tag_119\n      jump\t// in\n    tag_287:\n        /* \"#utility.yul\":13366:13384   */\n      0xffffffffffffffff\n        /* \"#utility.yul\":13358:13364   */\n      dup2\n        /* \"#utility.yul\":13355:13385   */\n      gt\n        /* \"#utility.yul\":13352:13408   */\n      iszero\n      tag_288\n      jumpi\n        /* \"#utility.yul\":13388:13406   */\n      tag_289\n      tag_103\n      jump\t// in\n    tag_289:\n        /* \"#utility.yul\":13352:13408   */\n    tag_288:\n        /* \"#utility.yul\":13432:13470   */\n      tag_290\n        /* \"#utility.yul\":13464:13468   */\n      dup3\n        /* \"#utility.yul\":13458:13469   */\n      sload\n        /* \"#utility.yul\":13432:13470   */\n      tag_124\n      jump\t// in\n    tag_290:\n        /* \"#utility.yul\":13517:13584   */\n      tag_291\n        /* \"#utility.yul\":13577:13583   */\n      dup3\n        /* \"#utility.yul\":13569:13575   */\n      dup3\n        /* \"#utility.yul\":13563:13567   */\n      dup6\n        /* \"#utility.yul\":13517:13584   */\n      tag_142\n      jump\t// in\n    tag_291:\n        /* \"#utility.yul\":13611:13612   */\n      0x00\n        /* \"#utility.yul\":13635:13639   */\n      0x20\n        /* \"#utility.yul\":13622:13639   */\n      swap1\n      pop\n        /* \"#utility.yul\":13667:13669   */\n      0x1f\n        /* \"#utility.yul\":13659:13665   */\n      dup4\n        /* \"#utility.yul\":13656:13670   */\n      gt\n        /* \"#utility.yul\":13684:13685   */\n      0x01\n        /* \"#utility.yul\":13679:14297   */\n      dup2\n      eq\n      tag_293\n      jumpi\n        /* \"#utility.yul\":14341:14342   */\n      0x00\n        /* \"#utility.yul\":14358:14364   */\n      dup5\n        /* \"#utility.yul\":14355:14432   */\n      iszero\n      tag_294\n      jumpi\n        /* \"#utility.yul\":14407:14416   */\n      dup3\n        /* \"#utility.yul\":14402:14405   */\n      dup8\n        /* \"#utility.yul\":14398:14417   */\n      add\n        /* \"#utility.yul\":14392:14418   */\n      mload\n        /* \"#utility.yul\":14383:14418   */\n      swap1\n      pop\n        /* \"#utility.yul\":14355:14432   */\n    tag_294:\n        /* \"#utility.yul\":14458:14525   */\n      tag_295\n        /* \"#utility.yul\":14518:14524   */\n      dup6\n        /* \"#utility.yul\":14511:14516   */\n      dup3\n        /* \"#utility.yul\":14458:14525   */\n      tag_145\n      jump\t// in\n    tag_295:\n        /* \"#utility.yul\":14452:14456   */\n      dup7\n        /* \"#utility.yul\":14445:14526   */\n      sstore\n        /* \"#utility.yul\":14314:14536   */\n      pop\n        /* \"#utility.yul\":13649:14536   */\n      jump(tag_292)\n        /* \"#utility.yul\":13679:14297   */\n    tag_293:\n        /* \"#utility.yul\":13731:13735   */\n      0x1f\n        /* \"#utility.yul\":13727:13736   */\n      not\n        /* \"#utility.yul\":13719:13725   */\n      dup5\n        /* \"#utility.yul\":13715:13737   */\n      and\n        /* \"#utility.yul\":13765:13802   */\n      tag_296\n        /* \"#utility.yul\":13797:13801   */\n      dup7\n        /* \"#utility.yul\":13765:13802   */\n      tag_125\n      jump\t// in\n    tag_296:\n        /* \"#utility.yul\":13824:13825   */\n      0x00\n        /* \"#utility.yul\":13838:14046   */\n    tag_297:\n        /* \"#utility.yul\":13852:13859   */\n      dup3\n        /* \"#utility.yul\":13849:13850   */\n      dup2\n        /* \"#utility.yul\":13846:13860   */\n      lt\n        /* \"#utility.yul\":13838:14046   */\n      iszero\n      tag_299\n      jumpi\n        /* \"#utility.yul\":13931:13940   */\n      dup5\n        /* \"#utility.yul\":13926:13929   */\n      dup10\n        /* \"#utility.yul\":13922:13941   */\n      add\n        /* \"#utility.yul\":13916:13942   */\n      mload\n        /* \"#utility.yul\":13908:13914   */\n      dup3\n        /* \"#utility.yul\":13901:13943   */\n      sstore\n        /* \"#utility.yul\":13982:13983   */\n      0x01\n        /* \"#utility.yul\":13974:13980   */\n      dup3\n        /* \"#utility.yul\":13970:13984   */\n      add\n        /* \"#utility.yul\":13960:13984   */\n      swap2\n      pop\n        /* \"#utility.yul\":14029:14031   */\n      0x20\n        /* \"#utility.yul\":14018:14027   */\n      dup6\n        /* \"#utility.yul\":14014:14032   */\n      add\n        /* \"#utility.yul\":14001:14032   */\n      swap5\n      pop\n        /* \"#utility.yul\":13875:13879   */\n      0x20\n        /* \"#utility.yul\":13872:13873   */\n      dup2\n        /* \"#utility.yul\":13868:13880   */\n      add\n        /* \"#utility.yul\":13863:13880   */\n      swap1\n      pop\n        /* \"#utility.yul\":13838:14046   */\n      jump(tag_297)\n    tag_299:\n        /* \"#utility.yul\":14074:14080   */\n      dup7\n        /* \"#utility.yul\":14065:14072   */\n      dup4\n        /* \"#utility.yul\":14062:14081   */\n      lt\n        /* \"#utility.yul\":14059:14238   */\n      iszero\n      tag_300\n      jumpi\n        /* \"#utility.yul\":14132:14141   */\n      dup5\n        /* \"#utility.yul\":14127:14130   */\n      dup10\n        /* \"#utility.yul\":14123:14142   */\n      add\n        /* \"#utility.yul\":14117:14143   */\n      mload\n        /* \"#utility.yul\":14175:14223   */\n      tag_301\n        /* \"#utility.yul\":14217:14221   */\n      0x1f\n        /* \"#utility.yul\":14209:14215   */\n      dup10\n        /* \"#utility.yul\":14205:14222   */\n      and\n        /* \"#utility.yul\":14194:14203   */\n      dup3\n        /* \"#utility.yul\":14175:14223   */\n      tag_144\n      jump\t// in\n    tag_301:\n        /* \"#utility.yul\":14167:14173   */\n      dup4\n        /* \"#utility.yul\":14160:14224   */\n      sstore\n        /* \"#utility.yul\":14082:14238   */\n      pop\n        /* \"#utility.yul\":14059:14238   */\n    tag_300:\n        /* \"#utility.yul\":14284:14285   */\n      0x01\n        /* \"#utility.yul\":14280:14281   */\n      0x02\n        /* \"#utility.yul\":14272:14278   */\n      dup9\n        /* \"#utility.yul\":14268:14282   */\n      mul\n        /* \"#utility.yul\":14264:14286   */\n      add\n        /* \"#utility.yul\":14258:14262   */\n      dup9\n        /* \"#utility.yul\":14251:14287   */\n      sstore\n        /* \"#utility.yul\":13686:14297   */\n      pop\n      pop\n      pop\n        /* \"#utility.yul\":13649:14536   */\n    tag_292:\n      pop\n        /* \"#utility.yul\":13239:14542   */\n      pop\n      pop\n      pop\n        /* \"#utility.yul\":13147:14542   */\n      pop\n      pop\n      jump\t// out\n        /* \"#utility.yul\":14548:14728   */\n    tag_146:\n        /* \"#utility.yul\":14596:14673   */\n      0x4e487b7100000000000000000000000000000000000000000000000000000000\n        /* \"#utility.yul\":14593:14594   */\n      0x00\n        /* \"#utility.yul\":14586:14674   */\n      mstore\n        /* \"#utility.yul\":14693:14697   */\n      0x11\n        /* \"#utility.yul\":14690:14691   */\n      0x04\n        /* \"#utility.yul\":14683:14698   */\n      mstore\n        /* \"#utility.yul\":14717:14721   */\n      0x24\n        /* \"#utility.yul\":14714:14715   */\n      0x00\n        /* \"#utility.yul\":14707:14722   */\n      revert\n        /* \"#utility.yul\":14734:14925   */\n    tag_85:\n        /* \"#utility.yul\":14774:14777   */\n      0x00\n        /* \"#utility.yul\":14793:14813   */\n      tag_304\n        /* \"#utility.yul\":14811:14812   */\n      dup3\n        /* \"#utility.yul\":14793:14813   */\n      tag_110\n      jump\t// in\n    tag_304:\n        /* \"#utility.yul\":14788:14813   */\n      swap2\n      pop\n        /* \"#utility.yul\":14827:14847   */\n      tag_305\n        /* \"#utility.yul\":14845:14846   */\n      dup4\n        /* \"#utility.yul\":14827:14847   */\n      tag_110\n      jump\t// in\n    tag_305:\n        /* \"#utility.yul\":14822:14847   */\n      swap3\n      pop\n        /* \"#utility.yul\":14870:14871   */\n      dup3\n        /* \"#utility.yul\":14867:14868   */\n      dup3\n        /* \"#utility.yul\":14863:14872   */\n      add\n        /* \"#utility.yul\":14856:14872   */\n      swap1\n      pop\n        /* \"#utility.yul\":14891:14894   */\n      dup1\n        /* \"#utility.yul\":14888:14889   */\n      dup3\n        /* \"#utility.yul\":14885:14895   */\n      gt\n        /* \"#utility.yul\":14882:14918   */\n      iszero\n      tag_306\n      jumpi\n        /* \"#utility.yul\":14898:14916   */\n      tag_307\n      tag_146\n      jump\t// in\n    tag_307:\n        /* \"#utility.yul\":14882:14918   */\n    tag_306:\n        /* \"#utility.yul\":14734:14925   */\n      swap3\n      swap2\n      pop\n      pop\n      jump\t// out\n\n    auxdata: 0xa264697066735822122048b68fbb04ba03f4853082090e8d1489ea6cf13536255e88382a437a7387c5ce64736f6c634300081e0033\n}\n",
				"bytecode": {
					"linkReferences": {},
					"object": "608060405234801561000f575f5ffd5b50335f73ffffffffffffffffffffffffffffffffffffffff168173ffffffffffffffffffffffffffffffffffffffff1603610081575f6040517f1e4fbdf70000000000000000000000000000000000000000000000000000000081526004016100789190610196565b60405180910390fd5b6100908161009660201b60201c565b506101af565b5f5f5f9054906101000a900473ffffffffffffffffffffffffffffffffffffffff169050815f5f6101000a81548173ffffffffffffffffffffffffffffffffffffffff021916908373ffffffffffffffffffffffffffffffffffffffff1602179055508173ffffffffffffffffffffffffffffffffffffffff168173ffffffffffffffffffffffffffffffffffffffff167f8be0079c531659141344cd1fd0a4f28419497f9722a3daafe3b4186f6b6457e060405160405180910390a35050565b5f73ffffffffffffffffffffffffffffffffffffffff82169050919050565b5f61018082610157565b9050919050565b61019081610176565b82525050565b5f6020820190506101a95f830184610187565b92915050565b610f35806101bc5f395ff3fe608060405234801561000f575f5ffd5b5060043610610060575f3560e01c8063715018a614610064578063805265e51461006e5780638da5cb5b1461009e578063b9830ff1146100bc578063f2fde38b146100da578063fc36e15b146100f6575b5f5ffd5b61006c610126565b005b61008860048036038101906100839190610870565b610139565b60405161009591906108cf565b60405180910390f35b6100a6610160565b6040516100b39190610927565b60405180910390f35b6100c4610187565b6040516100d1919061095a565b60405180910390f35b6100f460048036038101906100ef919061099d565b6102a4565b005b610110600480360381019061010b9190610870565b610328565b60405161011d919061095a565b60405180910390f35b61012e6105ad565b6101375f610634565b565b5f60018260405161014a9190610a1a565b9081526020016040518091039020549050919050565b5f5f5f9054906101000a900473ffffffffffffffffffffffffffffffffffffffff16905090565b5f6101906105ad565b5f60038054905090505f5f90505b818110156101ef576001600382815481106101bc576101bb610a30565b5b905f5260205f20016040516101d19190610b4c565b90815260200160405180910390205f9055808060010191505061019e565b505f60048054905090505f5f90505b8181101561029a5760025f6004838154811061021d5761021c610a30565b5b905f5260205f20015f9054906101000a900473ffffffffffffffffffffffffffffffffffffffff1673ffffffffffffffffffffffffffffffffffffffff1673ffffffffffffffffffffffffffffffffffffffff1681526020019081526020015f205f6101000a81549060ff021916905580806001019150506101fe565b5060019250505090565b6102ac6105ad565b5f73ffffffffffffffffffffffffffffffffffffffff168173ffffffffffffffffffffffffffffffffffffffff160361031c575f6040517f1e4fbdf70000000000000000000000000000000000000000000000000000000081526004016103139190610927565b60405180910390fd5b61032581610634565b50565b5f61034a60405180602001604052805f815250836106f590919063ffffffff16565b1561038a576040517f08c379a000000000000000000000000000000000000000000000000000000000815260040161038190610bbc565b60405180910390fd5b60025f3373ffffffffffffffffffffffffffffffffffffffff1673ffffffffffffffffffffffffffffffffffffffff1681526020019081526020015f205f9054906101000a900460ff1615610414576040517f08c379a000000000000000000000000000000000000000000000000000000000815260040161040b90610c24565b60405180910390fd5b5f6001836040516104259190610a1a565b9081526020016040518091039020540361046c57600382908060018154018082558091505060019003905f5260205f20015f90919091909150908161046a9190610dd0565b505b60025f3373ffffffffffffffffffffffffffffffffffffffff1673ffffffffffffffffffffffffffffffffffffffff1681526020019081526020015f205f9054906101000a900460ff1661051b57600433908060018154018082558091505060019003905f5260205f20015f9091909190916101000a81548173ffffffffffffffffffffffffffffffffffffffff021916908373ffffffffffffffffffffffffffffffffffffffff1602179055505b600160025f3373ffffffffffffffffffffffffffffffffffffffff1673ffffffffffffffffffffffffffffffffffffffff1681526020019081526020015f205f6101000a81548160ff021916908315150217905550600180836040516105819190610a1a565b90815260200160405180910390205f82825461059d9190610ecc565b9250508190555060019050919050565b6105b561071c565b73ffffffffffffffffffffffffffffffffffffffff166105d3610160565b73ffffffffffffffffffffffffffffffffffffffff1614610632576105f661071c565b6040517f118cdaa70000000000000000000000000000000000000000000000000000000081526004016106299190610927565b60405180910390fd5b565b5f5f5f9054906101000a900473ffffffffffffffffffffffffffffffffffffffff169050815f5f6101000a81548173ffffffffffffffffffffffffffffffffffffffff021916908373ffffffffffffffffffffffffffffffffffffffff1602179055508173ffffffffffffffffffffffffffffffffffffffff168173ffffffffffffffffffffffffffffffffffffffff167f8be0079c531659141344cd1fd0a4f28419497f9722a3daafe3b4186f6b6457e060405160405180910390a35050565b5f81518351148015610714575081805190602001208380519060200120145b905092915050565b5f33905090565b5f604051905090565b5f5ffd5b5f5ffd5b5f5ffd5b5f5ffd5b5f601f19601f8301169050919050565b7f4e487b71000000000000000000000000000000000000000000000000000000005f52604160045260245ffd5b6107828261073c565b810181811067ffffffffffffffff821117156107a1576107a061074c565b5b80604052505050565b5f6107b3610723565b90506107bf8282610779565b919050565b5f67ffffffffffffffff8211156107de576107dd61074c565b5b6107e78261073c565b9050602081019050919050565b828183375f83830152505050565b5f61081461080f846107c4565b6107aa565b9050828152602081018484840111156108305761082f610738565b5b61083b8482856107f4565b509392505050565b5f82601f83011261085757610856610734565b5b8135610867848260208601610802565b91505092915050565b5f602082840312156108855761088461072c565b5b5f82013567ffffffffffffffff8111156108a2576108a1610730565b5b6108ae84828501610843565b91505092915050565b5f819050919050565b6108c9816108b7565b82525050565b5f6020820190506108e25f8301846108c0565b92915050565b5f73ffffffffffffffffffffffffffffffffffffffff82169050919050565b5f610911826108e8565b9050919050565b61092181610907565b82525050565b5f60208201905061093a5f830184610918565b92915050565b5f8115159050919050565b61095481610940565b82525050565b5f60208201905061096d5f83018461094b565b92915050565b61097c81610907565b8114610986575f5ffd5b50565b5f8135905061099781610973565b92915050565b5f602082840312156109b2576109b161072c565b5b5f6109bf84828501610989565b91505092915050565b5f81519050919050565b5f81905092915050565b8281835e5f83830152505050565b5f6109f4826109c8565b6109fe81856109d2565b9350610a0e8185602086016109dc565b80840191505092915050565b5f610a2582846109ea565b915081905092915050565b7f4e487b71000000000000000000000000000000000000000000000000000000005f52603260045260245ffd5b7f4e487b71000000000000000000000000000000000000000000000000000000005f52602260045260245ffd5b5f6002820490506001821680610aa157607f821691505b602082108103610ab457610ab3610a5d565b5b50919050565b5f819050815f5260205f209050919050565b5f8154610ad881610a8a565b610ae281866109d2565b9450600182165f8114610afc5760018114610b1157610b43565b60ff1983168652811515820286019350610b43565b610b1a85610aba565b5f5b83811015610b3b57815481890152600182019150602081019050610b1c565b838801955050505b50505092915050565b5f610b578284610acc565b915081905092915050565b5f82825260208201905092915050565b7f63616e6469646174652063616e6e6f7420626520656d707479000000000000005f82015250565b5f610ba6601983610b62565b9150610bb182610b72565b602082019050919050565b5f6020820190508181035f830152610bd381610b9a565b9050919050565b7f796f7520616c726561647920766f7465640000000000000000000000000000005f82015250565b5f610c0e601183610b62565b9150610c1982610bda565b602082019050919050565b5f6020820190508181035f830152610c3b81610c02565b9050919050565b5f6020601f8301049050919050565b5f82821b905092915050565b5f60088302610c8c7fffffffffffffffffffffffffffffffffffffffffffffffffffffffffffffffff82610c51565b610c968683610c51565b95508019841693508086168417925050509392505050565b5f819050919050565b5f610cd1610ccc610cc7846108b7565b610cae565b6108b7565b9050919050565b5f819050919050565b610cea83610cb7565b610cfe610cf682610cd8565b848454610c5d565b825550505050565b5f5f905090565b610d15610d06565b610d20818484610ce1565b505050565b5b81811015610d4357610d385f82610d0d565b600181019050610d26565b5050565b601f821115610d8857610d5981610aba565b610d6284610c42565b81016020851015610d71578190505b610d85610d7d85610c42565b830182610d25565b50505b505050565b5f82821c905092915050565b5f610da85f1984600802610d8d565b1980831691505092915050565b5f610dc08383610d99565b9150826002028217905092915050565b610dd9826109c8565b67ffffffffffffffff811115610df257610df161074c565b5b610dfc8254610a8a565b610e07828285610d47565b5f60209050601f831160018114610e38575f8415610e26578287015190505b610e308582610db5565b865550610e97565b601f198416610e4686610aba565b5f5b82811015610e6d57848901518255600182019150602085019450602081019050610e48565b86831015610e8a5784890151610e86601f891682610d99565b8355505b6001600288020188555050505b505050505050565b7f4e487b71000000000000000000000000000000000000000000000000000000005f52601160045260245ffd5b5f610ed6826108b7565b9150610ee1836108b7565b9250828201905080821115610ef957610ef8610e9f565b5b9291505056fea264697066735822122048b68fbb04ba03f4853082090e8d1489ea6cf13536255e88382a437a7387c5ce64736f6c634300081e0033",
					"opcodes": "PUSH1 0x80 PUSH1 0x40 MSTORE CALLVALUE DUP1 ISZERO PUSH2 0xF JUMPI PUSH0 PUSH0 REVERT JUMPDEST POP CALLER PUSH0 PUSH20 0xFFFFFFFFFFFFFFFFFFFFFFFFFFFFFFFFFFFFFFFF AND DUP2 PUSH20 0xFFFFFFFFFFFFFFFFFFFFFFFFFFFFFFFFFFFFFFFF AND SUB PUSH2 0x81 JUMPI PUSH0 PUSH1 0x40 MLOAD PUSH32 0x1E4FBDF700000000000000000000000000000000000000000000000000000000 DUP2 MSTORE PUSH1 0x4 ADD PUSH2 0x78 SWAP2 SWAP1 PUSH2 0x196 JUMP JUMPDEST PUSH1 0x40 MLOAD DUP1 SWAP2 SUB SWAP1 REVERT JUMPDEST PUSH2 0x90 DUP2 PUSH2 0x96 PUSH1 0x20 SHL PUSH1 0x20 SHR JUMP JUMPDEST POP PUSH2 0x1AF JUMP JUMPDEST PUSH0 PUSH0 PUSH0 SWAP1 SLOAD SWAP1 PUSH2 0x100 EXP SWAP1 DIV PUSH20 0xFFFFFFFFFFFFFFFFFFFFFFFFFFFFFFFFFFFFFFFF AND SWAP1 POP DUP2 PUSH0 PUSH0 PUSH2 0x100 EXP DUP2 SLOAD DUP2 PUSH20 0xFFFFFFFFFFFFFFFFFFFFFFFFFFFFFFFFFFFFFFFF MUL NOT AND SWAP1 DUP4 PUSH20 0xFFFFFFFFFFFFFFFFFFFFFFFFFFFFFFFFFFFFFFFF AND MUL OR SWAP1 SSTORE POP DUP2 PUSH20 0xFFFFFFFFFFFFFFFFFFFFFFFFFFFFFFFFFFFFFFFF AND DUP2 PUSH20 0xFFFFFFFFFFFFFFFFFFFFFFFFFFFFFFFFFFFFFFFF AND PUSH32 0x8BE0079C531659141344CD1FD0A4F28419497F9722A3DAAFE3B4186F6B6457E0 PUSH1 0x40 MLOAD PUSH1 0x40 MLOAD DUP1 SWAP2 SUB SWAP1 LOG3 POP POP JUMP JUMPDEST PUSH0 PUSH20 0xFFFFFFFFFFFFFFFFFFFFFFFFFFFFFFFFFFFFFFFF DUP3 AND SWAP1 POP SWAP2 SWAP1 POP JUMP JUMPDEST PUSH0 PUSH2 0x180 DUP3 PUSH2 0x157 JUMP JUMPDEST SWAP1 POP SWAP2 SWAP1 POP JUMP JUMPDEST PUSH2 0x190 DUP2 PUSH2 0x176 JUMP JUMPDEST DUP3 MSTORE POP POP JUMP JUMPDEST PUSH0 PUSH1 0x20 DUP3 ADD SWAP1 POP PUSH2 0x1A9 PUSH0 DUP4 ADD DUP5 PUSH2 0x187 JUMP JUMPDEST SWAP3 SWAP2 POP POP JUMP JUMPDEST PUSH2 0xF35 DUP1 PUSH2 0x1BC PUSH0 CODECOPY PUSH0 RETURN INVALID PUSH1 0x80 PUSH1 0x40 MSTORE CALLVALUE DUP1 ISZERO PUSH2 0xF JUMPI PUSH0 PUSH0 REVERT JUMPDEST POP PUSH1 0x4 CALLDATASIZE LT PUSH2 0x60 JUMPI PUSH0 CALLDATALOAD PUSH1 0xE0 SHR DUP1 PUSH4 0x715018A6 EQ PUSH2 0x64 JUMPI DUP1 PUSH4 0x805265E5 EQ PUSH2 0x6E JUMPI DUP1 PUSH4 0x8DA5CB5B EQ PUSH2 0x9E JUMPI DUP1 PUSH4 0xB9830FF1 EQ PUSH2 0xBC JUMPI DUP1 PUSH4 0xF2FDE38B EQ PUSH2 0xDA JUMPI DUP1 PUSH4 0xFC36E15B EQ PUSH2 0xF6 JUMPI JUMPDEST PUSH0 PUSH0 REVERT JUMPDEST PUSH2 0x6C PUSH2 0x126 JUMP JUMPDEST STOP JUMPDEST PUSH2 0x88 PUSH1 0x4 DUP1 CALLDATASIZE SUB DUP2 ADD SWAP1 PUSH2 0x83 SWAP2 SWAP1 PUSH2 0x870 JUMP JUMPDEST PUSH2 0x139 JUMP JUMPDEST PUSH1 0x40 MLOAD PUSH2 0x95 SWAP2 SWAP1 PUSH2 0x8CF JUMP JUMPDEST PUSH1 0x40 MLOAD DUP1 SWAP2 SUB SWAP1 RETURN JUMPDEST PUSH2 0xA6 PUSH2 0x160 JUMP JUMPDEST PUSH1 0x40 MLOAD PUSH2 0xB3 SWAP2 SWAP1 PUSH2 0x927 JUMP JUMPDEST PUSH1 0x40 MLOAD DUP1 SWAP2 SUB SWAP1 RETURN JUMPDEST PUSH2 0xC4 PUSH2 0x187 JUMP JUMPDEST PUSH1 0x40 MLOAD PUSH2 0xD1 SWAP2 SWAP1 PUSH2 0x95A JUMP JUMPDEST PUSH1 0x40 MLOAD DUP1 SWAP2 SUB SWAP1 RETURN JUMPDEST PUSH2 0xF4 PUSH1 0x4 DUP1 CALLDATASIZE SUB DUP2 ADD SWAP1 PUSH2 0xEF SWAP2 SWAP1 PUSH2 0x99D JUMP JUMPDEST PUSH2 0x2A4 JUMP JUMPDEST STOP JUMPDEST PUSH2 0x110 PUSH1 0x4 DUP1 CALLDATASIZE SUB DUP2 ADD SWAP1 PUSH2 0x10B SWAP2 SWAP1 PUSH2 0x870 JUMP JUMPDEST PUSH2 0x328 JUMP JUMPDEST PUSH1 0x40 MLOAD PUSH2 0x11D SWAP2 SWAP1 PUSH2 0x95A JUMP JUMPDEST PUSH1 0x40 MLOAD DUP1 SWAP2 SUB SWAP1 RETURN JUMPDEST PUSH2 0x12E PUSH2 0x5AD JUMP JUMPDEST PUSH2 0x137 PUSH0 PUSH2 0x634 JUMP JUMPDEST JUMP JUMPDEST PUSH0 PUSH1 0x1 DUP3 PUSH1 0x40 MLOAD PUSH2 0x14A SWAP2 SWAP1 PUSH2 0xA1A JUMP JUMPDEST SWAP1 DUP2 MSTORE PUSH1 0x20 ADD PUSH1 0x40 MLOAD DUP1 SWAP2 SUB SWAP1 KECCAK256 SLOAD SWAP1 POP SWAP2 SWAP1 POP JUMP JUMPDEST PUSH0 PUSH0 PUSH0 SWAP1 SLOAD SWAP1 PUSH2 0x100 EXP SWAP1 DIV PUSH20 0xFFFFFFFFFFFFFFFFFFFFFFFFFFFFFFFFFFFFFFFF AND SWAP1 POP SWAP1 JUMP JUMPDEST PUSH0 PUSH2 0x190 PUSH2 0x5AD JUMP JUMPDEST PUSH0 PUSH1 0x3 DUP1 SLOAD SWAP1 POP SWAP1 POP PUSH0 PUSH0 SWAP1 POP JUMPDEST DUP2 DUP2 LT ISZERO PUSH2 0x1EF JUMPI PUSH1 0x1 PUSH1 0x3 DUP3 DUP2 SLOAD DUP2 LT PUSH2 0x1BC JUMPI PUSH2 0x1BB PUSH2 0xA30 JUMP JUMPDEST JUMPDEST SWAP1 PUSH0 MSTORE PUSH1 0x20 PUSH0 KECCAK256 ADD PUSH1 0x40 MLOAD PUSH2 0x1D1 SWAP2 SWAP1 PUSH2 0xB4C JUMP JUMPDEST SWAP1 DUP2 MSTORE PUSH1 0x20 ADD PUSH1 0x40 MLOAD DUP1 SWAP2 SUB SWAP1 KECCAK256 PUSH0 SWAP1 SSTORE DUP1 DUP1 PUSH1 0x1 ADD SWAP2 POP POP PUSH2 0x19E JUMP JUMPDEST POP PUSH0 PUSH1 0x4 DUP1 SLOAD SWAP1 POP SWAP1 POP PUSH0 PUSH0 SWAP1 POP JUMPDEST DUP2 DUP2 LT ISZERO PUSH2 0x29A JUMPI PUSH1 0x2 PUSH0 PUSH1 0x4 DUP4 DUP2 SLOAD DUP2 LT PUSH2 0x21D JUMPI PUSH2 0x21C PUSH2 0xA30 JUMP JUMPDEST JUMPDEST SWAP1 PUSH0 MSTORE PUSH1 0x20 PUSH0 KECCAK256 ADD PUSH0 SWAP1 SLOAD SWAP1 PUSH2 0x100 EXP SWAP1 DIV PUSH20 0xFFFFFFFFFFFFFFFFFFFFFFFFFFFFFFFFFFFFFFFF AND PUSH20 0xFFFFFFFFFFFFFFFFFFFFFFFFFFFFFFFFFFFFFFFF AND PUSH20 0xFFFFFFFFFFFFFFFFFFFFFFFFFFFFFFFFFFFFFFFF AND DUP2 MSTORE PUSH1 0x20 ADD SWAP1 DUP2 MSTORE PUSH1 0x20 ADD PUSH0 KECCAK256 PUSH0 PUSH2 0x100 EXP DUP2 SLOAD SWAP1 PUSH1 0xFF MUL NOT AND SWAP1 SSTORE DUP1 DUP1 PUSH1 0x1 ADD SWAP2 POP POP PUSH2 0x1FE JUMP JUMPDEST POP PUSH1 0x1 SWAP3 POP POP POP SWAP1 JUMP JUMPDEST PUSH2 0x2AC PUSH2 0x5AD JUMP JUMPDEST PUSH0 PUSH20 0xFFFFFFFFFFFFFFFFFFFFFFFFFFFFFFFFFFFFFFFF AND DUP2 PUSH20 0xFFFFFFFFFFFFFFFFFFFFFFFFFFFFFFFFFFFFFFFF AND SUB PUSH2 0x31C JUMPI PUSH0 PUSH1 0x40 MLOAD PUSH32 0x1E4FBDF700000000000000000000000000000000000000000000000000000000 DUP2 MSTORE PUSH1 0x4 ADD PUSH2 0x313 SWAP2 SWAP1 PUSH2 0x927 JUMP JUMPDEST PUSH1 0x40 MLOAD DUP1 SWAP2 SUB SWAP1 REVERT JUMPDEST PUSH2 0x325 DUP2 PUSH2 0x634 JUMP JUMPDEST POP JUMP JUMPDEST PUSH0 PUSH2 0x34A PUSH1 0x40 MLOAD DUP1 PUSH1 0x20 ADD PUSH1 0x40 MSTORE DUP1 PUSH0 DUP2 MSTORE POP DUP4 PUSH2 0x6F5 SWAP1 SWAP2 SWAP1 PUSH4 0xFFFFFFFF AND JUMP JUMPDEST ISZERO PUSH2 0x38A JUMPI PUSH1 0x40 MLOAD PUSH32 0x8C379A000000000000000000000000000000000000000000000000000000000 DUP2 MSTORE PUSH1 0x4 ADD PUSH2 0x381 SWAP1 PUSH2 0xBBC JUMP JUMPDEST PUSH1 0x40 MLOAD DUP1 SWAP2 SUB SWAP1 REVERT JUMPDEST PUSH1 0x2 PUSH0 CALLER PUSH20 0xFFFFFFFFFFFFFFFFFFFFFFFFFFFFFFFFFFFFFFFF AND PUSH20 0xFFFFFFFFFFFFFFFFFFFFFFFFFFFFFFFFFFFFFFFF AND DUP2 MSTORE PUSH1 0x20 ADD SWAP1 DUP2 MSTORE PUSH1 0x20 ADD PUSH0 KECCAK256 PUSH0 SWAP1 SLOAD SWAP1 PUSH2 0x100 EXP SWAP1 DIV PUSH1 0xFF AND ISZERO PUSH2 0x414 JUMPI PUSH1 0x40 MLOAD PUSH32 0x8C379A000000000000000000000000000000000000000000000000000000000 DUP2 MSTORE PUSH1 0x4 ADD PUSH2 0x40B SWAP1 PUSH2 0xC24 JUMP JUMPDEST PUSH1 0x40 MLOAD DUP1 SWAP2 SUB SWAP1 REVERT JUMPDEST PUSH0 PUSH1 0x1 DUP4 PUSH1 0x40 MLOAD PUSH2 0x425 SWAP2 SWAP1 PUSH2 0xA1A JUMP JUMPDEST SWAP1 DUP2 MSTORE PUSH1 0x20 ADD PUSH1 0x40 MLOAD DUP1 SWAP2 SUB SWAP1 KECCAK256 SLOAD SUB PUSH2 0x46C JUMPI PUSH1 0x3 DUP3 SWAP1 DUP1 PUSH1 0x1 DUP2 SLOAD ADD DUP1 DUP3 SSTORE DUP1 SWAP2 POP POP PUSH1 0x1 SWAP1 SUB SWAP1 PUSH0 MSTORE PUSH1 0x20 PUSH0 KECCAK256 ADD PUSH0 SWAP1 SWAP2 SWAP1 SWAP2 SWAP1 SWAP2 POP SWAP1 DUP2 PUSH2 0x46A SWAP2 SWAP1 PUSH2 0xDD0 JUMP JUMPDEST POP JUMPDEST PUSH1 0x2 PUSH0 CALLER PUSH20 0xFFFFFFFFFFFFFFFFFFFFFFFFFFFFFFFFFFFFFFFF AND PUSH20 0xFFFFFFFFFFFFFFFFFFFFFFFFFFFFFFFFFFFFFFFF AND DUP2 MSTORE PUSH1 0x20 ADD SWAP1 DUP2 MSTORE PUSH1 0x20 ADD PUSH0 KECCAK256 PUSH0 SWAP1 SLOAD SWAP1 PUSH2 0x100 EXP SWAP1 DIV PUSH1 0xFF AND PUSH2 0x51B JUMPI PUSH1 0x4 CALLER SWAP1 DUP1 PUSH1 0x1 DUP2 SLOAD ADD DUP1 DUP3 SSTORE DUP1 SWAP2 POP POP PUSH1 0x1 SWAP1 SUB SWAP1 PUSH0 MSTORE PUSH1 0x20 PUSH0 KECCAK256 ADD PUSH0 SWAP1 SWAP2 SWAP1 SWAP2 SWAP1 SWAP2 PUSH2 0x100 EXP DUP2 SLOAD DUP2 PUSH20 0xFFFFFFFFFFFFFFFFFFFFFFFFFFFFFFFFFFFFFFFF MUL NOT AND SWAP1 DUP4 PUSH20 0xFFFFFFFFFFFFFFFFFFFFFFFFFFFFFFFFFFFFFFFF AND MUL OR SWAP1 SSTORE POP JUMPDEST PUSH1 0x1 PUSH1 0x2 PUSH0 CALLER PUSH20 0xFFFFFFFFFFFFFFFFFFFFFFFFFFFFFFFFFFFFFFFF AND PUSH20 0xFFFFFFFFFFFFFFFFFFFFFFFFFFFFFFFFFFFFFFFF AND DUP2 MSTORE PUSH1 0x20 ADD SWAP1 DUP2 MSTORE PUSH1 0x20 ADD PUSH0 KECCAK256 PUSH0 PUSH2 0x100 EXP DUP2 SLOAD DUP2 PUSH1 0xFF MUL NOT AND SWAP1 DUP4 ISZERO ISZERO MUL OR SWAP1 SSTORE POP PUSH1 0x1 DUP1 DUP4 PUSH1 0x40 MLOAD PUSH2 0x581 SWAP2 SWAP1 PUSH2 0xA1A JUMP JUMPDEST SWAP1 DUP2 MSTORE PUSH1 0x20 ADD PUSH1 0x40 MLOAD DUP1 SWAP2 SUB SWAP1 KECCAK256 PUSH0 DUP3 DUP3 SLOAD PUSH2 0x59D SWAP2 SWAP1 PUSH2 0xECC JUMP JUMPDEST SWAP3 POP POP DUP2 SWAP1 SSTORE POP PUSH1 0x1 SWAP1 POP SWAP2 SWAP1 POP JUMP JUMPDEST PUSH2 0x5B5 PUSH2 0x71C JUMP JUMPDEST PUSH20 0xFFFFFFFFFFFFFFFFFFFFFFFFFFFFFFFFFFFFFFFF AND PUSH2 0x5D3 PUSH2 0x160 JUMP JUMPDEST PUSH20 0xFFFFFFFFFFFFFFFFFFFFFFFFFFFFFFFFFFFFFFFF AND EQ PUSH2 0x632 JUMPI PUSH2 0x5F6 PUSH2 0x71C JUMP JUMPDEST PUSH1 0x40 MLOAD PUSH32 0x118CDAA700000000000000000000000000000000000000000000000000000000 DUP2 MSTORE PUSH1 0x4 ADD PUSH2 0x629 SWAP2 SWAP1 PUSH2 0x927 JUMP JUMPDEST PUSH1 0x40 MLOAD DUP1 SWAP2 SUB SWAP1 REVERT JUMPDEST JUMP JUMPDEST PUSH0 PUSH0 PUSH0 SWAP1 SLOAD SWAP1 PUSH2 0x100 EXP SWAP1 DIV PUSH20 0xFFFFFFFFFFFFFFFFFFFFFFFFFFFFFFFFFFFFFFFF AND SWAP1 POP DUP2 PUSH0 PUSH0 PUSH2 0x100 EXP DUP2 SLOAD DUP2 PUSH20 0xFFFFFFFFFFFFFFFFFFFFFFFFFFFFFFFFFFFFFFFF MUL NOT AND SWAP1 DUP4 PUSH20 0xFFFFFFFFFFFFFFFFFFFFFFFFFFFFFFFFFFFFFFFF AND MUL OR SWAP1 SSTORE POP DUP2 PUSH20 0xFFFFFFFFFFFFFFFFFFFFFFFFFFFFFFFFFFFFFFFF AND DUP2 PUSH20 0xFFFFFFFFFFFFFFFFFFFFFFFFFFFFFFFFFFFFFFFF AND PUSH32 0x8BE0079C531659141344CD1FD0A4F28419497F9722A3DAAFE3B4186F6B6457E0 PUSH1 0x40 MLOAD PUSH1 0x40 MLOAD DUP1 SWAP2 SUB SWAP1 LOG3 POP POP JUMP JUMPDEST PUSH0 DUP2 MLOAD DUP4 MLOAD EQ DUP1 ISZERO PUSH2 0x714 JUMPI POP DUP2 DUP1 MLOAD SWAP1 PUSH1 0x20 ADD KECCAK256 DUP4 DUP1 MLOAD SWAP1 PUSH1 0x20 ADD KECCAK256 EQ JUMPDEST SWAP1 POP SWAP3 SWAP2 POP POP JUMP JUMPDEST PUSH0 CALLER SWAP1 POP SWAP1 JUMP JUMPDEST PUSH0 PUSH1 0x40 MLOAD SWAP1 POP SWAP1 JUMP JUMPDEST PUSH0 PUSH0 REVERT JUMPDEST PUSH0 PUSH0 REVERT JUMPDEST PUSH0 PUSH0 REVERT JUMPDEST PUSH0 PUSH0 REVERT JUMPDEST PUSH0 PUSH1 0x1F NOT PUSH1 0x1F DUP4 ADD AND SWAP1 POP SWAP2 SWAP1 POP JUMP JUMPDEST PUSH32 0x4E487B7100000000000000000000000000000000000000000000000000000000 PUSH0 MSTORE PUSH1 0x41 PUSH1 0x4 MSTORE PUSH1 0x24 PUSH0 REVERT JUMPDEST PUSH2 0x782 DUP3 PUSH2 0x73C JUMP JUMPDEST DUP2 ADD DUP2 DUP2 LT PUSH8 0xFFFFFFFFFFFFFFFF DUP3 GT OR ISZERO PUSH2 0x7A1 JUMPI PUSH2 0x7A0 PUSH2 0x74C JUMP JUMPDEST JUMPDEST DUP1 PUSH1 0x40 MSTORE POP POP POP JUMP JUMPDEST PUSH0 PUSH2 0x7B3 PUSH2 0x723 JUMP JUMPDEST SWAP1 POP PUSH2 0x7BF DUP3 DUP3 PUSH2 0x779 JUMP JUMPDEST SWAP2 SWAP1 POP JUMP JUMPDEST PUSH0 PUSH8 0xFFFFFFFFFFFFFFFF DUP3 GT ISZERO PUSH2 0x7DE JUMPI PUSH2 0x7DD PUSH2 0x74C JUMP JUMPDEST JUMPDEST PUSH2 0x7E7 DUP3 PUSH2 0x73C JUMP JUMPDEST SWAP1 POP PUSH1 0x20 DUP2 ADD SWAP1 POP SWAP2 SWAP1 POP JUMP JUMPDEST DUP3 DUP2 DUP4 CALLDATACOPY PUSH0 DUP4 DUP4 ADD MSTORE POP POP POP JUMP JUMPDEST PUSH0 PUSH2 0x814 PUSH2 0x80F DUP5 PUSH2 0x7C4 JUMP JUMPDEST PUSH2 0x7AA JUMP JUMPDEST SWAP1 POP DUP3 DUP2 MSTORE PUSH1 0x20 DUP2 ADD DUP5 DUP5 DUP5 ADD GT ISZERO PUSH2 0x830 JUMPI PUSH2 0x82F PUSH2 0x738 JUMP JUMPDEST JUMPDEST PUSH2 0x83B DUP5 DUP3 DUP6 PUSH2 0x7F4 JUMP JUMPDEST POP SWAP4 SWAP3 POP POP POP JUMP JUMPDEST PUSH0 DUP3 PUSH1 0x1F DUP4 ADD SLT PUSH2 0x857 JUMPI PUSH2 0x856 PUSH2 0x734 JUMP JUMPDEST JUMPDEST DUP2 CALLDATALOAD PUSH2 0x867 DUP5 DUP3 PUSH1 0x20 DUP7 ADD PUSH2 0x802 JUMP JUMPDEST SWAP2 POP POP SWAP3 SWAP2 POP POP JUMP JUMPDEST PUSH0 PUSH1 0x20 DUP3 DUP5 SUB SLT ISZERO PUSH2 0x885 JUMPI PUSH2 0x884 PUSH2 0x72C JUMP JUMPDEST JUMPDEST PUSH0 DUP3 ADD CALLDATALOAD PUSH8 0xFFFFFFFFFFFFFFFF DUP2 GT ISZERO PUSH2 0x8A2 JUMPI PUSH2 0x8A1 PUSH2 0x730 JUMP JUMPDEST JUMPDEST PUSH2 0x8AE DUP5 DUP3 DUP6 ADD PUSH2 0x843 JUMP JUMPDEST SWAP2 POP POP SWAP3 SWAP2 POP POP JUMP JUMPDEST PUSH0 DUP2 SWAP1 POP SWAP2 SWAP1 POP JUMP JUMPDEST PUSH2 0x8C9 DUP2 PUSH2 0x8B7 JUMP JUMPDEST DUP3 MSTORE POP POP JUMP JUMPDEST PUSH0 PUSH1 0x20 DUP3 ADD SWAP1 POP PUSH2 0x8E2 PUSH0 DUP4 ADD DUP5 PUSH2 0x8C0 JUMP JUMPDEST SWAP3 SWAP2 POP POP JUMP JUMPDEST PUSH0 PUSH20 0xFFFFFFFFFFFFFFFFFFFFFFFFFFFFFFFFFFFFFFFF DUP3 AND SWAP1 POP SWAP2 SWAP1 POP JUMP JUMPDEST PUSH0 PUSH2 0x911 DUP3 PUSH2 0x8E8 JUMP JUMPDEST SWAP1 POP SWAP2 SWAP1 POP JUMP JUMPDEST PUSH2 0x921 DUP2 PUSH2 0x907 JUMP JUMPDEST DUP3 MSTORE POP POP JUMP JUMPDEST PUSH0 PUSH1 0x20 DUP3 ADD SWAP1 POP PUSH2 0x93A PUSH0 DUP4 ADD DUP5 PUSH2 0x918 JUMP JUMPDEST SWAP3 SWAP2 POP POP JUMP JUMPDEST PUSH0 DUP2 ISZERO ISZERO SWAP1 POP SWAP2 SWAP1 POP JUMP JUMPDEST PUSH2 0x954 DUP2 PUSH2 0x940 JUMP JUMPDEST DUP3 MSTORE POP POP JUMP JUMPDEST PUSH0 PUSH1 0x20 DUP3 ADD SWAP1 POP PUSH2 0x96D PUSH0 DUP4 ADD DUP5 PUSH2 0x94B JUMP JUMPDEST SWAP3 SWAP2 POP POP JUMP JUMPDEST PUSH2 0x97C DUP2 PUSH2 0x907 JUMP JUMPDEST DUP2 EQ PUSH2 0x986 JUMPI PUSH0 PUSH0 REVERT JUMPDEST POP JUMP JUMPDEST PUSH0 DUP2 CALLDATALOAD SWAP1 POP PUSH2 0x997 DUP2 PUSH2 0x973 JUMP JUMPDEST SWAP3 SWAP2 POP POP JUMP JUMPDEST PUSH0 PUSH1 0x20 DUP3 DUP5 SUB SLT ISZERO PUSH2 0x9B2 JUMPI PUSH2 0x9B1 PUSH2 0x72C JUMP JUMPDEST JUMPDEST PUSH0 PUSH2 0x9BF DUP5 DUP3 DUP6 ADD PUSH2 0x989 JUMP JUMPDEST SWAP2 POP POP SWAP3 SWAP2 POP POP JUMP JUMPDEST PUSH0 DUP2 MLOAD SWAP1 POP SWAP2 SWAP1 POP JUMP JUMPDEST PUSH0 DUP2 SWAP1 POP SWAP3 SWAP2 POP POP JUMP JUMPDEST DUP3 DUP2 DUP4 MCOPY PUSH0 DUP4 DUP4 ADD MSTORE POP POP POP JUMP JUMPDEST PUSH0 PUSH2 0x9F4 DUP3 PUSH2 0x9C8 JUMP JUMPDEST PUSH2 0x9FE DUP2 DUP6 PUSH2 0x9D2 JUMP JUMPDEST SWAP4 POP PUSH2 0xA0E DUP2 DUP6 PUSH1 0x20 DUP7 ADD PUSH2 0x9DC JUMP JUMPDEST DUP1 DUP5 ADD SWAP2 POP POP SWAP3 SWAP2 POP POP JUMP JUMPDEST PUSH0 PUSH2 0xA25 DUP3 DUP5 PUSH2 0x9EA JUMP JUMPDEST SWAP2 POP DUP2 SWAP1 POP SWAP3 SWAP2 POP POP JUMP JUMPDEST PUSH32 0x4E487B7100000000000000000000000000000000000000000000000000000000 PUSH0 MSTORE PUSH1 0x32 PUSH1 0x4 MSTORE PUSH1 0x24 PUSH0 REVERT JUMPDEST PUSH32 0x4E487B7100000000000000000000000000000000000000000000000000000000 PUSH0 MSTORE PUSH1 0x22 PUSH1 0x4 MSTORE PUSH1 0x24 PUSH0 REVERT JUMPDEST PUSH0 PUSH1 0x2 DUP3 DIV SWAP1 POP PUSH1 0x1 DUP3 AND DUP1 PUSH2 0xAA1 JUMPI PUSH1 0x7F DUP3 AND SWAP2 POP JUMPDEST PUSH1 0x20 DUP3 LT DUP2 SUB PUSH2 0xAB4 JUMPI PUSH2 0xAB3 PUSH2 0xA5D JUMP JUMPDEST JUMPDEST POP SWAP2 SWAP1 POP JUMP JUMPDEST PUSH0 DUP2 SWAP1 POP DUP2 PUSH0 MSTORE PUSH1 0x20 PUSH0 KECCAK256 SWAP1 POP SWAP2 SWAP1 POP JUMP JUMPDEST PUSH0 DUP2 SLOAD PUSH2 0xAD8 DUP2 PUSH2 0xA8A JUMP JUMPDEST PUSH2 0xAE2 DUP2 DUP7 PUSH2 0x9D2 JUMP JUMPDEST SWAP5 POP PUSH1 0x1 DUP3 AND PUSH0 DUP2 EQ PUSH2 0xAFC JUMPI PUSH1 0x1 DUP2 EQ PUSH2 0xB11 JUMPI PUSH2 0xB43 JUMP JUMPDEST PUSH1 0xFF NOT DUP4 AND DUP7 MSTORE DUP2 ISZERO ISZERO DUP3 MUL DUP7 ADD SWAP4 POP PUSH2 0xB43 JUMP JUMPDEST PUSH2 0xB1A DUP6 PUSH2 0xABA JUMP JUMPDEST PUSH0 JUMPDEST DUP4 DUP2 LT ISZERO PUSH2 0xB3B JUMPI DUP2 SLOAD DUP2 DUP10 ADD MSTORE PUSH1 0x1 DUP3 ADD SWAP2 POP PUSH1 0x20 DUP2 ADD SWAP1 POP PUSH2 0xB1C JUMP JUMPDEST DUP4 DUP9 ADD SWAP6 POP POP POP JUMPDEST POP POP POP SWAP3 SWAP2 POP POP JUMP JUMPDEST PUSH0 PUSH2 0xB57 DUP3 DUP5 PUSH2 0xACC JUMP JUMPDEST SWAP2 POP DUP2 SWAP1 POP SWAP3 SWAP2 POP POP JUMP JUMPDEST PUSH0 DUP3 DUP3 MSTORE PUSH1 0x20 DUP3 ADD SWAP1 POP SWAP3 SWAP2 POP POP JUMP JUMPDEST PUSH32 0x63616E6469646174652063616E6E6F7420626520656D70747900000000000000 PUSH0 DUP3 ADD MSTORE POP JUMP JUMPDEST PUSH0 PUSH2 0xBA6 PUSH1 0x19 DUP4 PUSH2 0xB62 JUMP JUMPDEST SWAP2 POP PUSH2 0xBB1 DUP3 PUSH2 0xB72 JUMP JUMPDEST PUSH1 0x20 DUP3 ADD SWAP1 POP SWAP2 SWAP1 POP JUMP JUMPDEST PUSH0 PUSH1 0x20 DUP3 ADD SWAP1 POP DUP2 DUP2 SUB PUSH0 DUP4 ADD MSTORE PUSH2 0xBD3 DUP2 PUSH2 0xB9A JUMP JUMPDEST SWAP1 POP SWAP2 SWAP1 POP JUMP JUMPDEST PUSH32 0x796F7520616C726561647920766F746564000000000000000000000000000000 PUSH0 DUP3 ADD MSTORE POP JUMP JUMPDEST PUSH0 PUSH2 0xC0E PUSH1 0x11 DUP4 PUSH2 0xB62 JUMP JUMPDEST SWAP2 POP PUSH2 0xC19 DUP3 PUSH2 0xBDA JUMP JUMPDEST PUSH1 0x20 DUP3 ADD SWAP1 POP SWAP2 SWAP1 POP JUMP JUMPDEST PUSH0 PUSH1 0x20 DUP3 ADD SWAP1 POP DUP2 DUP2 SUB PUSH0 DUP4 ADD MSTORE PUSH2 0xC3B DUP2 PUSH2 0xC02 JUMP JUMPDEST SWAP1 POP SWAP2 SWAP1 POP JUMP JUMPDEST PUSH0 PUSH1 0x20 PUSH1 0x1F DUP4 ADD DIV SWAP1 POP SWAP2 SWAP1 POP JUMP JUMPDEST PUSH0 DUP3 DUP3 SHL SWAP1 POP SWAP3 SWAP2 POP POP JUMP JUMPDEST PUSH0 PUSH1 0x8 DUP4 MUL PUSH2 0xC8C PUSH32 0xFFFFFFFFFFFFFFFFFFFFFFFFFFFFFFFFFFFFFFFFFFFFFFFFFFFFFFFFFFFFFFFF DUP3 PUSH2 0xC51 JUMP JUMPDEST PUSH2 0xC96 DUP7 DUP4 PUSH2 0xC51 JUMP JUMPDEST SWAP6 POP DUP1 NOT DUP5 AND SWAP4 POP DUP1 DUP7 AND DUP5 OR SWAP3 POP POP POP SWAP4 SWAP3 POP POP POP JUMP JUMPDEST PUSH0 DUP2 SWAP1 POP SWAP2 SWAP1 POP JUMP JUMPDEST PUSH0 PUSH2 0xCD1 PUSH2 0xCCC PUSH2 0xCC7 DUP5 PUSH2 0x8B7 JUMP JUMPDEST PUSH2 0xCAE JUMP JUMPDEST PUSH2 0x8B7 JUMP JUMPDEST SWAP1 POP SWAP2 SWAP1 POP JUMP JUMPDEST PUSH0 DUP2 SWAP1 POP SWAP2 SWAP1 POP JUMP JUMPDEST PUSH2 0xCEA DUP4 PUSH2 0xCB7 JUMP JUMPDEST PUSH2 0xCFE PUSH2 0xCF6 DUP3 PUSH2 0xCD8 JUMP JUMPDEST DUP5 DUP5 SLOAD PUSH2 0xC5D JUMP JUMPDEST DUP3 SSTORE POP POP POP POP JUMP JUMPDEST PUSH0 PUSH0 SWAP1 POP SWAP1 JUMP JUMPDEST PUSH2 0xD15 PUSH2 0xD06 JUMP JUMPDEST PUSH2 0xD20 DUP2 DUP5 DUP5 PUSH2 0xCE1 JUMP JUMPDEST POP POP POP JUMP JUMPDEST JUMPDEST DUP2 DUP2 LT ISZERO PUSH2 0xD43 JUMPI PUSH2 0xD38 PUSH0 DUP3 PUSH2 0xD0D JUMP JUMPDEST PUSH1 0x1 DUP2 ADD SWAP1 POP PUSH2 0xD26 JUMP JUMPDEST POP POP JUMP JUMPDEST PUSH1 0x1F DUP3 GT ISZERO PUSH2 0xD88 JUMPI PUSH2 0xD59 DUP2 PUSH2 0xABA JUMP JUMPDEST PUSH2 0xD62 DUP5 PUSH2 0xC42 JUMP JUMPDEST DUP2 ADD PUSH1 0x20 DUP6 LT ISZERO PUSH2 0xD71 JUMPI DUP2 SWAP1 POP JUMPDEST PUSH2 0xD85 PUSH2 0xD7D DUP6 PUSH2 0xC42 JUMP JUMPDEST DUP4 ADD DUP3 PUSH2 0xD25 JUMP JUMPDEST POP POP JUMPDEST POP POP POP JUMP JUMPDEST PUSH0 DUP3 DUP3 SHR SWAP1 POP SWAP3 SWAP2 POP POP JUMP JUMPDEST PUSH0 PUSH2 0xDA8 PUSH0 NOT DUP5 PUSH1 0x8 MUL PUSH2 0xD8D JUMP JUMPDEST NOT DUP1 DUP4 AND SWAP2 POP POP SWAP3 SWAP2 POP POP JUMP JUMPDEST PUSH0 PUSH2 0xDC0 DUP4 DUP4 PUSH2 0xD99 JUMP JUMPDEST SWAP2 POP DUP3 PUSH1 0x2 MUL DUP3 OR SWAP1 POP SWAP3 SWAP2 POP POP JUMP JUMPDEST PUSH2 0xDD9 DUP3 PUSH2 0x9C8 JUMP JUMPDEST PUSH8 0xFFFFFFFFFFFFFFFF DUP2 GT ISZERO PUSH2 0xDF2 JUMPI PUSH2 0xDF1 PUSH2 0x74C JUMP JUMPDEST JUMPDEST PUSH2 0xDFC DUP3 SLOAD PUSH2 0xA8A JUMP JUMPDEST PUSH2 0xE07 DUP3 DUP3 DUP6 PUSH2 0xD47 JUMP JUMPDEST PUSH0 PUSH1 0x20 SWAP1 POP PUSH1 0x1F DUP4 GT PUSH1 0x1 DUP2 EQ PUSH2 0xE38 JUMPI PUSH0 DUP5 ISZERO PUSH2 0xE26 JUMPI DUP3 DUP8 ADD MLOAD SWAP1 POP JUMPDEST PUSH2 0xE30 DUP6 DUP3 PUSH2 0xDB5 JUMP JUMPDEST DUP7 SSTORE POP PUSH2 0xE97 JUMP JUMPDEST PUSH1 0x1F NOT DUP5 AND PUSH2 0xE46 DUP7 PUSH2 0xABA JUMP JUMPDEST PUSH0 JUMPDEST DUP3 DUP2 LT ISZERO PUSH2 0xE6D JUMPI DUP5 DUP10 ADD MLOAD DUP3 SSTORE PUSH1 0x1 DUP3 ADD SWAP2 POP PUSH1 0x20 DUP6 ADD SWAP5 POP PUSH1 0x20 DUP2 ADD SWAP1 POP PUSH2 0xE48 JUMP JUMPDEST DUP7 DUP4 LT ISZERO PUSH2 0xE8A JUMPI DUP5 DUP10 ADD MLOAD PUSH2 0xE86 PUSH1 0x1F DUP10 AND DUP3 PUSH2 0xD99 JUMP JUMPDEST DUP4 SSTORE POP JUMPDEST PUSH1 0x1 PUSH1 0x2 DUP9 MUL ADD DUP9 SSTORE POP POP POP JUMPDEST POP POP POP POP POP POP JUMP JUMPDEST PUSH32 0x4E487B7100000000000000000000000000000000000000000000000000000000 PUSH0 MSTORE PUSH1 0x11 PUSH1 0x4 MSTORE PUSH1 0x24 PUSH0 REVERT JUMPDEST PUSH0 PUSH2 0xED6 DUP3 PUSH2 0x8B7 JUMP JUMPDEST SWAP2 POP PUSH2 0xEE1 DUP4 PUSH2 0x8B7 JUMP JUMPDEST SWAP3 POP DUP3 DUP3 ADD SWAP1 POP DUP1 DUP3 GT ISZERO PUSH2 0xEF9 JUMPI PUSH2 0xEF8 PUSH2 0xE9F JUMP JUMPDEST JUMPDEST SWAP3 SWAP2 POP POP JUMP INVALID LOG2 PUSH5 0x6970667358 0x22 SLT KECCAK256 BASEFEE 0xB6 DUP16 0xBB DIV 0xBA SUB DELEGATECALL DUP6 ADDRESS DUP3 MULMOD 0xE DUP14 EQ DUP10 0xEA PUSH13 0xF13536255E88382A437A7387C5 0xCE PUSH5 0x736F6C6343 STOP ADDMOD 0x1E STOP CALLER "
				},
				"gasEstimates": {
					"creation": {
						"codeDepositCost": "778600",
						"executionCost": "infinite",
						"totalCost": "infinite"
					},
					"external": {
						"getVotes(string)": "infinite",
						"owner()": "2536",
						"renounceOwnership()": "infinite",
						"resetVotes()": "infinite",
						"transferOwnership(address)": "infinite",
						"vote(string)": "infinite"
					}
				},
				"methodIdentifiers": {
					"getVotes(string)": "805265e5",
					"owner()": "8da5cb5b",
					"renounceOwnership()": "715018a6",
					"resetVotes()": "b9830ff1",
					"transferOwnership(address)": "f2fde38b",
					"vote(string)": "fc36e15b"
				}
			},
			"storageLayout": {
				"storage": [
					{
						"astId": 8,
						"contract": "homework01/voting.sol:Voting",
						"label": "_owner",
						"offset": 0,
						"slot": "0",
						"type": "t_address"
					},
					{
						"astId": 5174,
						"contract": "homework01/voting.sol:Voting",
						"label": "votes",
						"offset": 0,
						"slot": "1",
						"type": "t_mapping(t_string_memory_ptr,t_uint256)"
					},
					{
						"astId": 5178,
						"contract": "homework01/voting.sol:Voting",
						"label": "voteMapping",
						"offset": 0,
						"slot": "2",
						"type": "t_mapping(t_address,t_bool)"
					},
					{
						"astId": 5181,
						"contract": "homework01/voting.sol:Voting",
						"label": "candidates",
						"offset": 0,
						"slot": "3",
						"type": "t_array(t_string_storage)dyn_storage"
					},
					{
						"astId": 5184,
						"contract": "homework01/voting.sol:Voting",
						"label": "voters",
						"offset": 0,
						"slot": "4",
						"type": "t_array(t_address)dyn_storage"
					}
				],
				"types": {
					"t_address": {
						"encoding": "inplace",
						"label": "address",
						"numberOfBytes": "20"
					},
					"t_array(t_address)dyn_storage": {
						"base": "t_address",
						"encoding": "dynamic_array",
						"label": "address[]",
						"numberOfBytes": "32"
					},
					"t_array(t_string_storage)dyn_storage": {
						"base": "t_string_storage",
						"encoding": "dynamic_array",
						"label": "string[]",
						"numberOfBytes": "32"
					},
					"t_bool": {
						"encoding": "inplace",
						"label": "bool",
						"numberOfBytes": "1"
					},
					"t_mapping(t_address,t_bool)": {
						"encoding": "mapping",
						"key": "t_address",
						"label": "mapping(address => bool)",
						"numberOfBytes": "32",
						"value": "t_bool"
					},
					"t_mapping(t_string_memory_ptr,t_uint256)": {
						"encoding": "mapping",
						"key": "t_string_memory_ptr",
						"label": "mapping(string => uint256)",
						"numberOfBytes": "32",
						"value": "t_uint256"
					},
					"t_string_memory_ptr": {
						"encoding": "bytes",
						"label": "string",
						"numberOfBytes": "32"
					},
					"t_string_storage": {
						"encoding": "bytes",
						"label": "string",
						"numberOfBytes": "32"
					},
					"t_uint256": {
						"encoding": "inplace",
						"label": "uint256",
						"numberOfBytes": "32"
					}
				}
			},
			"userdoc": {
				"kind": "user",
				"methods": {},
				"version": 1
			}
		}
	}
}