{
	"7.2Callee.sol": {
		"Callee": {
			"abi": [
				{
					"inputs": [
						{
							"internalType": "uint256",
							"name": "code",
							"type": "uint256"
						}
					],
					"name": "CustomError",
					"type": "error"
				},
				{
					"inputs": [],
					"name": "failWithCustomError",
					"outputs": [],
					"stateMutability": "pure",
					"type": "function"
				},
				{
					"inputs": [],
					"name": "failWithPanic",
					"outputs": [],
					"stateMutability": "pure",
					"type": "function"
				},
				{
					"inputs": [],
					"name": "failWithRequire",
					"outputs": [],
					"stateMutability": "pure",
					"type": "function"
				},
				{
					"inputs": [],
					"name": "ok",
					"outputs": [
						{
							"internalType": "uint256",
							"name": "",
							"type": "uint256"
						}
					],
					"stateMutability": "pure",
					"type": "function"
				}
			],
			"devdoc": {
				"kind": "dev",
				"methods": {},
				"version": 1
			},
			"evm": {
				"assembly": "    /* \"7.2Callee.sol\":92:479  contract Callee {... */\n  mstore(0x40, 0x80)\n  callvalue\n  dup1\n  iszero\n  tag_1\n  jumpi\n  revert(0x00, 0x00)\ntag_1:\n  pop\n  dataSize(sub_0)\n  dup1\n  dataOffset(sub_0)\n  0x00\n  codecopy\n  0x00\n  return\nstop\n\nsub_0: assembly {\n        /* \"7.2Callee.sol\":92:479  contract Callee {... */\n      mstore(0x40, 0x80)\n      callvalue\n      dup1\n      iszero\n      tag_1\n      jumpi\n      revert(0x00, 0x00)\n    tag_1:\n      pop\n      jumpi(tag_2, lt(calldatasize, 0x04))\n      shr(0xe0, calldataload(0x00))\n      dup1\n      0x14418cd8\n      eq\n      tag_3\n      jumpi\n      dup1\n      0x55d6fe7d\n      eq\n      tag_4\n      jumpi\n      dup1\n      0x84b18ddd\n      eq\n      tag_5\n      jumpi\n      dup1\n      0xd909b403\n      eq\n      tag_6\n      jumpi\n    tag_2:\n      revert(0x00, 0x00)\n        /* \"7.2Callee.sol\":380:477  function failWithPanic() external pure {... */\n    tag_3:\n      tag_7\n      tag_8\n      jump\t// in\n    tag_7:\n      stop\n        /* \"7.2Callee.sol\":192:282  function failWithRequire() external pure {... */\n    tag_4:\n      tag_9\n      tag_10\n      jump\t// in\n    tag_9:\n      stop\n        /* \"7.2Callee.sol\":288:374  function failWithCustomError() external pure {... */\n    tag_5:\n      tag_11\n      tag_12\n      jump\t// in\n    tag_11:\n      stop\n        /* \"7.2Callee.sol\":114:186  function ok() external pure returns (uint256) {... */\n    tag_6:\n      tag_13\n      tag_14\n      jump\t// in\n    tag_13:\n      mload(0x40)\n      tag_15\n      swap2\n      swap1\n      tag_16\n      jump\t// in\n    tag_15:\n      mload(0x40)\n      dup1\n      swap2\n      sub\n      swap1\n      return\n        /* \"7.2Callee.sol\":380:477  function failWithPanic() external pure {... */\n    tag_8:\n        /* \"7.2Callee.sol\":436:441  false */\n      0x00\n        /* \"7.2Callee.sol\":429:442  assert(false) */\n      tag_18\n      jumpi\n      tag_19\n      tag_20\n      jump\t// in\n    tag_19:\n    tag_18:\n        /* \"7.2Callee.sol\":380:477  function failWithPanic() external pure {... */\n      jump\t// out\n        /* \"7.2Callee.sol\":192:282  function failWithRequire() external pure {... */\n    tag_10:\n        /* \"7.2Callee.sol\":251:256  false */\n      0x00\n        /* \"7.2Callee.sol\":243:275  require(false, \"require failed\") */\n      tag_22\n      jumpi\n      mload(0x40)\n      0x08c379a000000000000000000000000000000000000000000000000000000000\n      dup2\n      mstore\n      0x04\n      add\n      tag_23\n      swap1\n      tag_24\n      jump\t// in\n    tag_23:\n      mload(0x40)\n      dup1\n      swap2\n      sub\n      swap1\n      revert\n    tag_22:\n        /* \"7.2Callee.sol\":192:282  function failWithRequire() external pure {... */\n      jump\t// out\n        /* \"7.2Callee.sol\":288:374  function failWithCustomError() external pure {... */\n    tag_12:\n        /* \"7.2Callee.sol\":362:366  1001 */\n      0x03e9\n        /* \"7.2Callee.sol\":350:367  CustomError(1001) */\n      mload(0x40)\n      0x110b365500000000000000000000000000000000000000000000000000000000\n      dup2\n      mstore\n      0x04\n      add\n      tag_26\n      swap2\n      swap1\n      tag_27\n      jump\t// in\n    tag_26:\n      mload(0x40)\n      dup1\n      swap2\n      sub\n      swap1\n      revert\n        /* \"7.2Callee.sol\":114:186  function ok() external pure returns (uint256) {... */\n    tag_14:\n        /* \"7.2Callee.sol\":151:158  uint256 */\n      0x00\n        /* \"7.2Callee.sol\":177:179  42 */\n      0x2a\n        /* \"7.2Callee.sol\":170:179  return 42 */\n      swap1\n      pop\n        /* \"7.2Callee.sol\":114:186  function ok() external pure returns (uint256) {... */\n      swap1\n      jump\t// out\n        /* \"#utility.yul\":7:84   */\n    tag_29:\n        /* \"#utility.yul\":44:51   */\n      0x00\n        /* \"#utility.yul\":73:78   */\n      dup2\n        /* \"#utility.yul\":62:78   */\n      swap1\n      pop\n        /* \"#utility.yul\":7:84   */\n      swap2\n      swap1\n      pop\n      jump\t// out\n        /* \"#utility.yul\":90:208   */\n    tag_30:\n        /* \"#utility.yul\":177:201   */\n      tag_41\n        /* \"#utility.yul\":195:200   */\n      dup2\n        /* \"#utility.yul\":177:201   */\n      tag_29\n      jump\t// in\n    tag_41:\n        /* \"#utility.yul\":172:175   */\n      dup3\n        /* \"#utility.yul\":165:202   */\n      mstore\n        /* \"#utility.yul\":90:208   */\n      pop\n      pop\n      jump\t// out\n        /* \"#utility.yul\":214:436   */\n    tag_16:\n        /* \"#utility.yul\":307:311   */\n      0x00\n        /* \"#utility.yul\":345:347   */\n      0x20\n        /* \"#utility.yul\":334:343   */\n      dup3\n        /* \"#utility.yul\":330:348   */\n      add\n        /* \"#utility.yul\":322:348   */\n      swap1\n      pop\n        /* \"#utility.yul\":358:429   */\n      tag_43\n        /* \"#utility.yul\":426:427   */\n      0x00\n        /* \"#utility.yul\":415:424   */\n      dup4\n        /* \"#utility.yul\":411:428   */\n      add\n        /* \"#utility.yul\":402:408   */\n      dup5\n        /* \"#utility.yul\":358:429   */\n      tag_30\n      jump\t// in\n    tag_43:\n        /* \"#utility.yul\":214:436   */\n      swap3\n      swap2\n      pop\n      pop\n      jump\t// out\n        /* \"#utility.yul\":442:622   */\n    tag_20:\n        /* \"#utility.yul\":490:567   */\n      0x4e487b7100000000000000000000000000000000000000000000000000000000\n        /* \"#utility.yul\":487:488   */\n      0x00\n        /* \"#utility.yul\":480:568   */\n      mstore\n        /* \"#utility.yul\":587:591   */\n      0x01\n        /* \"#utility.yul\":584:585   */\n      0x04\n        /* \"#utility.yul\":577:592   */\n      mstore\n        /* \"#utility.yul\":611:615   */\n      0x24\n        /* \"#utility.yul\":608:609   */\n      0x00\n        /* \"#utility.yul\":601:616   */\n      revert\n        /* \"#utility.yul\":628:797   */\n    tag_31:\n        /* \"#utility.yul\":712:723   */\n      0x00\n        /* \"#utility.yul\":746:752   */\n      dup3\n        /* \"#utility.yul\":741:744   */\n      dup3\n        /* \"#utility.yul\":734:753   */\n      mstore\n        /* \"#utility.yul\":786:790   */\n      0x20\n        /* \"#utility.yul\":781:784   */\n      dup3\n        /* \"#utility.yul\":777:791   */\n      add\n        /* \"#utility.yul\":762:791   */\n      swap1\n      pop\n        /* \"#utility.yul\":628:797   */\n      swap3\n      swap2\n      pop\n      pop\n      jump\t// out\n        /* \"#utility.yul\":803:967   */\n    tag_32:\n        /* \"#utility.yul\":943:959   */\n      0x72657175697265206661696c6564000000000000000000000000000000000000\n        /* \"#utility.yul\":939:940   */\n      0x00\n        /* \"#utility.yul\":931:937   */\n      dup3\n        /* \"#utility.yul\":927:941   */\n      add\n        /* \"#utility.yul\":920:960   */\n      mstore\n        /* \"#utility.yul\":803:967   */\n      pop\n      jump\t// out\n        /* \"#utility.yul\":973:1339   */\n    tag_33:\n        /* \"#utility.yul\":1115:1118   */\n      0x00\n        /* \"#utility.yul\":1136:1203   */\n      tag_48\n        /* \"#utility.yul\":1200:1202   */\n      0x0e\n        /* \"#utility.yul\":1195:1198   */\n      dup4\n        /* \"#utility.yul\":1136:1203   */\n      tag_31\n      jump\t// in\n    tag_48:\n        /* \"#utility.yul\":1129:1203   */\n      swap2\n      pop\n        /* \"#utility.yul\":1212:1305   */\n      tag_49\n        /* \"#utility.yul\":1301:1304   */\n      dup3\n        /* \"#utility.yul\":1212:1305   */\n      tag_32\n      jump\t// in\n    tag_49:\n        /* \"#utility.yul\":1330:1332   */\n      0x20\n        /* \"#utility.yul\":1325:1328   */\n      dup3\n        /* \"#utility.yul\":1321:1333   */\n      add\n        /* \"#utility.yul\":1314:1333   */\n      swap1\n      pop\n        /* \"#utility.yul\":973:1339   */\n      swap2\n      swap1\n      pop\n      jump\t// out\n        /* \"#utility.yul\":1345:1764   */\n    tag_24:\n        /* \"#utility.yul\":1511:1515   */\n      0x00\n        /* \"#utility.yul\":1549:1551   */\n      0x20\n        /* \"#utility.yul\":1538:1547   */\n      dup3\n        /* \"#utility.yul\":1534:1552   */\n      add\n        /* \"#utility.yul\":1526:1552   */\n      swap1\n      pop\n        /* \"#utility.yul\":1598:1607   */\n      dup2\n        /* \"#utility.yul\":1592:1596   */\n      dup2\n        /* \"#utility.yul\":1588:1608   */\n      sub\n        /* \"#utility.yul\":1584:1585   */\n      0x00\n        /* \"#utility.yul\":1573:1582   */\n      dup4\n        /* \"#utility.yul\":1569:1586   */\n      add\n        /* \"#utility.yul\":1562:1609   */\n      mstore\n        /* \"#utility.yul\":1626:1757   */\n      tag_51\n        /* \"#utility.yul\":1752:1756   */\n      dup2\n        /* \"#utility.yul\":1626:1757   */\n      tag_33\n      jump\t// in\n    tag_51:\n        /* \"#utility.yul\":1618:1757   */\n      swap1\n      pop\n        /* \"#utility.yul\":1345:1764   */\n      swap2\n      swap1\n      pop\n      jump\t// out\n        /* \"#utility.yul\":1770:1858   */\n    tag_34:\n        /* \"#utility.yul\":1818:1825   */\n      0x00\n        /* \"#utility.yul\":1847:1852   */\n      dup2\n        /* \"#utility.yul\":1836:1852   */\n      swap1\n      pop\n        /* \"#utility.yul\":1770:1858   */\n      swap2\n      swap1\n      pop\n      jump\t// out\n        /* \"#utility.yul\":1864:1924   */\n    tag_35:\n        /* \"#utility.yul\":1892:1895   */\n      0x00\n        /* \"#utility.yul\":1913:1918   */\n      dup2\n        /* \"#utility.yul\":1906:1918   */\n      swap1\n      pop\n        /* \"#utility.yul\":1864:1924   */\n      swap2\n      swap1\n      pop\n      jump\t// out\n        /* \"#utility.yul\":1930:2094   */\n    tag_36:\n        /* \"#utility.yul\":1991:2000   */\n      0x00\n        /* \"#utility.yul\":2024:2088   */\n      tag_55\n        /* \"#utility.yul\":2042:2087   */\n      tag_56\n        /* \"#utility.yul\":2051:2086   */\n      tag_57\n        /* \"#utility.yul\":2080:2085   */\n      dup5\n        /* \"#utility.yul\":2051:2086   */\n      tag_34\n      jump\t// in\n    tag_57:\n        /* \"#utility.yul\":2042:2087   */\n      tag_35\n      jump\t// in\n    tag_56:\n        /* \"#utility.yul\":2024:2088   */\n      tag_29\n      jump\t// in\n    tag_55:\n        /* \"#utility.yul\":2011:2088   */\n      swap1\n      pop\n        /* \"#utility.yul\":1930:2094   */\n      swap2\n      swap1\n      pop\n      jump\t// out\n        /* \"#utility.yul\":2100:2253   */\n    tag_37:\n        /* \"#utility.yul\":2198:2246   */\n      tag_59\n        /* \"#utility.yul\":2240:2245   */\n      dup2\n        /* \"#utility.yul\":2198:2246   */\n      tag_36\n      jump\t// in\n    tag_59:\n        /* \"#utility.yul\":2193:2196   */\n      dup3\n        /* \"#utility.yul\":2186:2247   */\n      mstore\n        /* \"#utility.yul\":2100:2253   */\n      pop\n      pop\n      jump\t// out\n        /* \"#utility.yul\":2259:2503   */\n    tag_27:\n        /* \"#utility.yul\":2363:2367   */\n      0x00\n        /* \"#utility.yul\":2401:2403   */\n      0x20\n        /* \"#utility.yul\":2390:2399   */\n      dup3\n        /* \"#utility.yul\":2386:2404   */\n      add\n        /* \"#utility.yul\":2378:2404   */\n      swap1\n      pop\n        /* \"#utility.yul\":2414:2496   */\n      tag_61\n        /* \"#utility.yul\":2493:2494   */\n      0x00\n        /* \"#utility.yul\":2482:2491   */\n      dup4\n        /* \"#utility.yul\":2478:2495   */\n      add\n        /* \"#utility.yul\":2469:2475   */\n      dup5\n        /* \"#utility.yul\":2414:2496   */\n      tag_37\n      jump\t// in\n    tag_61:\n        /* \"#utility.yul\":2259:2503   */\n      swap3\n      swap2\n      pop\n      pop\n      jump\t// out\n\n    auxdata: 0xa26469706673582212203837139f0bcebd372dc0f6d59f81fe1c777cf5537211aab650219dd09853ccb764736f6c634300081e0033\n}\n",
				"bytecode": {
					"linkReferences": {},
					"object": "6080604052348015600e575f5ffd5b5061028a8061001c5f395ff3fe608060405234801561000f575f5ffd5b506004361061004a575f3560e01c806314418cd81461004e57806355d6fe7d1461005857806384b18ddd14610062578063d909b4031461006c575b5f5ffd5b61005661008a565b005b61006061009a565b005b61006a6100dc565b005b61007461011b565b604051610081919061013b565b60405180910390f35b5f61009857610097610154565b5b565b5f6100da576040517f08c379a00000000000000000000000000000000000000000000000000000000081526004016100d1906101db565b60405180910390fd5b565b6103e96040517f110b3655000000000000000000000000000000000000000000000000000000008152600401610112919061023b565b60405180910390fd5b5f602a905090565b5f819050919050565b61013581610123565b82525050565b5f60208201905061014e5f83018461012c565b92915050565b7f4e487b71000000000000000000000000000000000000000000000000000000005f52600160045260245ffd5b5f82825260208201905092915050565b7f72657175697265206661696c65640000000000000000000000000000000000005f82015250565b5f6101c5600e83610181565b91506101d082610191565b602082019050919050565b5f6020820190508181035f8301526101f2816101b9565b9050919050565b5f819050919050565b5f819050919050565b5f61022561022061021b846101f9565b610202565b610123565b9050919050565b6102358161020b565b82525050565b5f60208201905061024e5f83018461022c565b9291505056fea26469706673582212203837139f0bcebd372dc0f6d59f81fe1c777cf5537211aab650219dd09853ccb764736f6c634300081e0033",
					"opcodes": "PUSH1 0x80 PUSH1 0x40 MSTORE CALLVALUE DUP1 ISZERO PUSH1 0xE JUMPI PUSH0 PUSH0 REVERT JUMPDEST POP PUSH2 0x28A DUP1 PUSH2 0x1C PUSH0 CODECOPY PUSH0 RETURN INVALID PUSH1 0x80 PUSH1 0x40 MSTORE CALLVALUE DUP1 ISZERO PUSH2 0xF JUMPI PUSH0 PUSH0 REVERT JUMPDEST POP PUSH1 0x4 CALLDATASIZE LT PUSH2 0x4A JUMPI PUSH0 CALLDATALOAD PUSH1 0xE0 SHR DUP1 PUSH4 0x14418CD8 EQ PUSH2 0x4E JUMPI DUP1 PUSH4 0x55D6FE7D EQ PUSH2 0x58 JUMPI DUP1 PUSH4 0x84B18DDD EQ PUSH2 0x62 JUMPI DUP1 PUSH4 0xD909B403 EQ PUSH2 0x6C JUMPI JUMPDEST PUSH0 PUSH0 REVERT JUMPDEST PUSH2 0x56 PUSH2 0x8A JUMP JUMPDEST STOP JUMPDEST PUSH2 0x60 PUSH2 0x9A JUMP JUMPDEST STOP JUMPDEST PUSH2 0x6A PUSH2 0xDC JUMP JUMPDEST STOP JUMPDEST PUSH2 0x74 PUSH2 0x11B JUMP JUMPDEST PUSH1 0x40 MLOAD PUSH2 0x81 SWAP2 SWAP1 PUSH2 0x13B JUMP JUMPDEST PUSH1 0x40 MLOAD DUP1 SWAP2 SUB SWAP1 RETURN JUMPDEST PUSH0 PUSH2 0x98 JUMPI PUSH2 0x97 PUSH2 0x154 JUMP JUMPDEST JUMPDEST JUMP JUMPDEST PUSH0 PUSH2 0xDA JUMPI PUSH1 0x40 MLOAD PUSH32 0x8C379A000000000000000000000000000000000000000000000000000000000 DUP2 MSTORE PUSH1 0x4 ADD PUSH2 0xD1 SWAP1 PUSH2 0x1DB JUMP JUMPDEST PUSH1 0x40 MLOAD DUP1 SWAP2 SUB SWAP1 REVERT JUMPDEST JUMP JUMPDEST PUSH2 0x3E9 PUSH1 0x40 MLOAD PUSH32 0x110B365500000000000000000000000000000000000000000000000000000000 DUP2 MSTORE PUSH1 0x4 ADD PUSH2 0x112 SWAP2 SWAP1 PUSH2 0x23B JUMP JUMPDEST PUSH1 0x40 MLOAD DUP1 SWAP2 SUB SWAP1 REVERT JUMPDEST PUSH0 PUSH1 0x2A SWAP1 POP SWAP1 JUMP JUMPDEST PUSH0 DUP2 SWAP1 POP SWAP2 SWAP1 POP JUMP JUMPDEST PUSH2 0x135 DUP2 PUSH2 0x123 JUMP JUMPDEST DUP3 MSTORE POP POP JUMP JUMPDEST PUSH0 PUSH1 0x20 DUP3 ADD SWAP1 POP PUSH2 0x14E PUSH0 DUP4 ADD DUP5 PUSH2 0x12C JUMP JUMPDEST SWAP3 SWAP2 POP POP JUMP JUMPDEST PUSH32 0x4E487B7100000000000000000000000000000000000000000000000000000000 PUSH0 MSTORE PUSH1 0x1 PUSH1 0x4 MSTORE PUSH1 0x24 PUSH0 REVERT JUMPDEST PUSH0 DUP3 DUP3 MSTORE PUSH1 0x20 DUP3 ADD SWAP1 POP SWAP3 SWAP2 POP POP JUMP JUMPDEST PUSH32 0x72657175697265206661696C6564000000000000000000000000000000000000 PUSH0 DUP3 ADD MSTORE POP JUMP JUMPDEST PUSH0 PUSH2 0x1C5 PUSH1 0xE DUP4 PUSH2 0x181 JUMP JUMPDEST SWAP2 POP PUSH2 0x1D0 DUP3 PUSH2 0x191 JUMP JUMPDEST PUSH1 0x20 DUP3 ADD SWAP1 POP SWAP2 SWAP1 POP JUMP JUMPDEST PUSH0 PUSH1 0x20 DUP3 ADD SWAP1 POP DUP2 DUP2 SUB PUSH0 DUP4 ADD MSTORE PUSH2 0x1F2 DUP2 PUSH2 0x1B9 JUMP JUMPDEST SWAP1 POP SWAP2 SWAP1 POP JUMP JUMPDEST PUSH0 DUP2 SWAP1 POP SWAP2 SWAP1 POP JUMP JUMPDEST PUSH0 DUP2 SWAP1 POP SWAP2 SWAP1 POP JUMP JUMPDEST PUSH0 PUSH2 0x225 PUSH2 0x220 PUSH2 0x21B DUP5 PUSH2 0x1F9 JUMP JUMPDEST PUSH2 0x202 JUMP JUMPDEST PUSH2 0x123 JUMP JUMPDEST SWAP1 POP SWAP2 SWAP1 POP JUMP JUMPDEST PUSH2 0x235 DUP2 PUSH2 0x20B JUMP JUMPDEST DUP3 MSTORE POP POP JUMP JUMPDEST PUSH0 PUSH1 0x20 DUP3 ADD SWAP1 POP PUSH2 0x24E PUSH0 DUP4 ADD DUP5 PUSH2 0x22C JUMP JUMPDEST SWAP3 SWAP2 POP POP JUMP INVALID LOG2 PUSH5 0x6970667358 0x22 SLT KECCAK256 CODESIZE CALLDATACOPY SGT SWAP16 SIGNEXTEND 0xCE 0xBD CALLDATACOPY 0x2D 0xC0 0xF6 0xD5 SWAP16 DUP2 INVALID SHR PUSH24 0x7CF5537211AAB650219DD09853CCB764736F6C634300081E STOP CALLER "
				},
				"gasEstimates": {
					"creation": {
						"codeDepositCost": "130000",
						"executionCost": "175",
						"totalCost": "130175"
					},
					"external": {
						"failWithCustomError()": "479",
						"failWithPanic()": "164",
						"failWithRequire()": "443",
						"ok()": "376"
					}
				},
				"methodIdentifiers": {
					"failWithCustomError()": "84b18ddd",
					"failWithPanic()": "14418cd8",
					"failWithRequire()": "55d6fe7d",
					"ok()": "d909b403"
				}
			},
			"storageLayout": {
				"storage": [],
				"types": null
			},
			"userdoc": {
				"kind": "user",
				"methods": {},
				"version": 1
			}
		}
	}
}