{
	"8.1SimpleToken.sol": {
		"SimpleToken": {
			"abi": [
				{
					"inputs": [],
					"stateMutability": "nonpayable",
					"type": "constructor"
				},
				{
					"inputs": [
						{
							"internalType": "address",
							"name": "spender",
							"type": "address"
						},
						{
							"internalType": "uint256",
							"name": "amount",
							"type": "uint256"
						}
					],
					"name": "approve",
					"outputs": [
						{
							"internalType": "bool",
							"name": "",
							"type": "bool"
						}
					],
					"stateMutability": "nonpayable",
					"type": "function"
				},
				{
					"inputs": [
						{
							"internalType": "address",
							"name": "account",
							"type": "address"
						}
					],
					"name": "balanceOf",
					"outputs": [
						{
							"internalType": "uint256",
							"name": "",
							"type": "uint256"
						}
					],
					"stateMutability": "view",
					"type": "function"
				},
				{
					"inputs": [
						{
							"internalType": "address",
							"name": "to",
							"type": "address"
						},
						{
							"internalType": "uint256",
							"name": "amount",
							"type": "uint256"
						}
					],
					"name": "transfer",
					"outputs": [
						{
							"internalType": "bool",
							"name": "",
							"type": "bool"
						}
					],
					"stateMutability": "nonpayable",
					"type": "function"
				},
				{
					"inputs": [
						{
							"internalType": "address",
							"name": "from",
							"type": "address"
						},
						{
							"internalType": "address",
							"name": "to",
							"type": "address"
						},
						{
							"internalType": "uint256",
							"name": "amount",
							"type": "uint256"
						}
					],
					"name": "transferFrom",
					"outputs": [
						{
							"internalType": "bool",
							"name": "",
							"type": "bool"
						}
					],
					"stateMutability": "nonpayable",
					"type": "function"
				}
			],
			"devdoc": {
				"kind": "dev",
				"methods": {},
				"version": 1
			},
			"evm": {
				"assembly": "    /* \"8.1SimpleToken.sol\":390:1665  contract SimpleToken is IERC20 {... */\n  mstore(0x40, 0x80)\n    /* \"8.1SimpleToken.sol\":555:629  constructor() {... */\n  callvalue\n  dup1\n  iszero\n  tag_1\n  jumpi\n  revert(0x00, 0x00)\ntag_1:\n  pop\n    /* \"8.1SimpleToken.sol\":603:622  10000000 * 10 ** 18 */\n  0x084595161401484a000000\n    /* \"8.1SimpleToken.sol\":579:588  _balances */\n  0x00\n    /* \"8.1SimpleToken.sol\":579:600  _balances[msg.sender] */\n  0x00\n    /* \"8.1SimpleToken.sol\":589:599  msg.sender */\n  caller\n    /* \"8.1SimpleToken.sol\":579:600  _balances[msg.sender] */\n  0xffffffffffffffffffffffffffffffffffffffff\n  and\n  0xffffffffffffffffffffffffffffffffffffffff\n  and\n  dup2\n  mstore\n  0x20\n  add\n  swap1\n  dup2\n  mstore\n  0x20\n  add\n  0x00\n  keccak256\n    /* \"8.1SimpleToken.sol\":579:622  _balances[msg.sender] = 10000000 * 10 ** 18 */\n  dup2\n  swap1\n  sstore\n  pop\n    /* \"8.1SimpleToken.sol\":390:1665  contract SimpleToken is IERC20 {... */\n  dataSize(sub_0)\n  dup1\n  dataOffset(sub_0)\n  0x00\n  codecopy\n  0x00\n  return\nstop\n\nsub_0: assembly {\n        /* \"8.1SimpleToken.sol\":390:1665  contract SimpleToken is IERC20 {... */\n      mstore(0x40, 0x80)\n      callvalue\n      dup1\n      iszero\n      tag_1\n      jumpi\n      revert(0x00, 0x00)\n    tag_1:\n      pop\n      jumpi(tag_2, lt(calldatasize, 0x04))\n      shr(0xe0, calldataload(0x00))\n      dup1\n      0x095ea7b3\n      eq\n      tag_3\n      jumpi\n      dup1\n      0x23b872dd\n      eq\n      tag_4\n      jumpi\n      dup1\n      0x70a08231\n      eq\n      tag_5\n      jumpi\n      dup1\n      0xa9059cbb\n      eq\n      tag_6\n      jumpi\n    tag_2:\n      revert(0x00, 0x00)\n        /* \"8.1SimpleToken.sol\":893:1125  function approve(address spender, uint256 amount) external returns(bool){... */\n    tag_3:\n      tag_7\n      0x04\n      dup1\n      calldatasize\n      sub\n      dup2\n      add\n      swap1\n      tag_8\n      swap2\n      swap1\n      tag_9\n      jump\t// in\n    tag_8:\n      tag_10\n      jump\t// in\n    tag_7:\n      mload(0x40)\n      tag_11\n      swap2\n      swap1\n      tag_12\n      jump\t// in\n    tag_11:\n      mload(0x40)\n      dup1\n      swap2\n      sub\n      swap1\n      return\n        /* \"8.1SimpleToken.sol\":1245:1662  function transferFrom(address from, address to, uint256 amount) external returns(bool){... */\n    tag_4:\n      tag_13\n      0x04\n      dup1\n      calldatasize\n      sub\n      dup2\n      add\n      swap1\n      tag_14\n      swap2\n      swap1\n      tag_15\n      jump\t// in\n    tag_14:\n      tag_16\n      jump\t// in\n    tag_13:\n      mload(0x40)\n      tag_17\n      swap2\n      swap1\n      tag_12\n      jump\t// in\n    tag_17:\n      mload(0x40)\n      dup1\n      swap2\n      sub\n      swap1\n      return\n        /* \"8.1SimpleToken.sol\":1131:1239  function balanceOf(address account) external view returns(uint256){... */\n    tag_5:\n      tag_18\n      0x04\n      dup1\n      calldatasize\n      sub\n      dup2\n      add\n      swap1\n      tag_19\n      swap2\n      swap1\n      tag_20\n      jump\t// in\n    tag_19:\n      tag_21\n      jump\t// in\n    tag_18:\n      mload(0x40)\n      tag_22\n      swap2\n      swap1\n      tag_23\n      jump\t// in\n    tag_22:\n      mload(0x40)\n      dup1\n      swap2\n      sub\n      swap1\n      return\n        /* \"8.1SimpleToken.sol\":635:887  function transfer(address to, uint256 amount) external returns(bool){... */\n    tag_6:\n      tag_24\n      0x04\n      dup1\n      calldatasize\n      sub\n      dup2\n      add\n      swap1\n      tag_25\n      swap2\n      swap1\n      tag_9\n      jump\t// in\n    tag_25:\n      tag_26\n      jump\t// in\n    tag_24:\n      mload(0x40)\n      tag_27\n      swap2\n      swap1\n      tag_12\n      jump\t// in\n    tag_27:\n      mload(0x40)\n      dup1\n      swap2\n      sub\n      swap1\n      return\n        /* \"8.1SimpleToken.sol\":893:1125  function approve(address spender, uint256 amount) external returns(bool){... */\n    tag_10:\n        /* \"8.1SimpleToken.sol\":960:964  bool */\n      0x00\n        /* \"8.1SimpleToken.sol\":1008:1014  amount */\n      dup2\n        /* \"8.1SimpleToken.sol\":983:992  _balances */\n      0x00\n        /* \"8.1SimpleToken.sol\":983:1004  _balances[msg.sender] */\n      0x00\n        /* \"8.1SimpleToken.sol\":993:1003  msg.sender */\n      caller\n        /* \"8.1SimpleToken.sol\":983:1004  _balances[msg.sender] */\n      0xffffffffffffffffffffffffffffffffffffffff\n      and\n      0xffffffffffffffffffffffffffffffffffffffff\n      and\n      dup2\n      mstore\n      0x20\n      add\n      swap1\n      dup2\n      mstore\n      0x20\n      add\n      0x00\n      keccak256\n      sload\n        /* \"8.1SimpleToken.sol\":983:1014  _balances[msg.sender] >= amount */\n      lt\n      iszero\n        /* \"8.1SimpleToken.sol\":975:1046  require(_balances[msg.sender] >= amount, \"[approve]insuffcient amount\") */\n      tag_29\n      jumpi\n      mload(0x40)\n      0x08c379a000000000000000000000000000000000000000000000000000000000\n      dup2\n      mstore\n      0x04\n      add\n      tag_30\n      swap1\n      tag_31\n      jump\t// in\n    tag_30:\n      mload(0x40)\n      dup1\n      swap2\n      sub\n      swap1\n      revert\n    tag_29:\n        /* \"8.1SimpleToken.sol\":1091:1097  amount */\n      dup2\n        /* \"8.1SimpleToken.sol\":1056:1067  _allowences */\n      0x01\n        /* \"8.1SimpleToken.sol\":1056:1079  _allowences[msg.sender] */\n      0x00\n        /* \"8.1SimpleToken.sol\":1068:1078  msg.sender */\n      caller\n        /* \"8.1SimpleToken.sol\":1056:1079  _allowences[msg.sender] */\n      0xffffffffffffffffffffffffffffffffffffffff\n      and\n      0xffffffffffffffffffffffffffffffffffffffff\n      and\n      dup2\n      mstore\n      0x20\n      add\n      swap1\n      dup2\n      mstore\n      0x20\n      add\n      0x00\n      keccak256\n        /* \"8.1SimpleToken.sol\":1056:1088  _allowences[msg.sender][spender] */\n      0x00\n        /* \"8.1SimpleToken.sol\":1080:1087  spender */\n      dup6\n        /* \"8.1SimpleToken.sol\":1056:1088  _allowences[msg.sender][spender] */\n      0xffffffffffffffffffffffffffffffffffffffff\n      and\n      0xffffffffffffffffffffffffffffffffffffffff\n      and\n      dup2\n      mstore\n      0x20\n      add\n      swap1\n      dup2\n      mstore\n      0x20\n      add\n      0x00\n      keccak256\n        /* \"8.1SimpleToken.sol\":1056:1097  _allowences[msg.sender][spender] = amount */\n      dup2\n      swap1\n      sstore\n      pop\n        /* \"8.1SimpleToken.sol\":1114:1118  true */\n      0x01\n        /* \"8.1SimpleToken.sol\":1107:1118  return true */\n      swap1\n      pop\n        /* \"8.1SimpleToken.sol\":893:1125  function approve(address spender, uint256 amount) external returns(bool){... */\n      swap3\n      swap2\n      pop\n      pop\n      jump\t// out\n        /* \"8.1SimpleToken.sol\":1245:1662  function transferFrom(address from, address to, uint256 amount) external returns(bool){... */\n    tag_16:\n        /* \"8.1SimpleToken.sol\":1326:1330  bool */\n      0x00\n        /* \"8.1SimpleToken.sol\":1382:1388  amount */\n      dup2\n        /* \"8.1SimpleToken.sol\":1349:1360  _allowences */\n      0x01\n        /* \"8.1SimpleToken.sol\":1349:1366  _allowences[from] */\n      0x00\n        /* \"8.1SimpleToken.sol\":1361:1365  from */\n      dup7\n        /* \"8.1SimpleToken.sol\":1349:1366  _allowences[from] */\n      0xffffffffffffffffffffffffffffffffffffffff\n      and\n      0xffffffffffffffffffffffffffffffffffffffff\n      and\n      dup2\n      mstore\n      0x20\n      add\n      swap1\n      dup2\n      mstore\n      0x20\n      add\n      0x00\n      keccak256\n        /* \"8.1SimpleToken.sol\":1349:1378  _allowences[from][msg.sender] */\n      0x00\n        /* \"8.1SimpleToken.sol\":1367:1377  msg.sender */\n      caller\n        /* \"8.1SimpleToken.sol\":1349:1378  _allowences[from][msg.sender] */\n      0xffffffffffffffffffffffffffffffffffffffff\n      and\n      0xffffffffffffffffffffffffffffffffffffffff\n      and\n      dup2\n      mstore\n      0x20\n      add\n      swap1\n      dup2\n      mstore\n      0x20\n      add\n      0x00\n      keccak256\n      sload\n        /* \"8.1SimpleToken.sol\":1349:1388  _allowences[from][msg.sender] >= amount */\n      lt\n      iszero\n        /* \"8.1SimpleToken.sol\":1341:1428  require(_allowences[from][msg.sender] >= amount, \"[transferFrom]insuffcient allowence\") */\n      tag_33\n      jumpi\n      mload(0x40)\n      0x08c379a000000000000000000000000000000000000000000000000000000000\n      dup2\n      mstore\n      0x04\n      add\n      tag_34\n      swap1\n      tag_35\n      jump\t// in\n    tag_34:\n      mload(0x40)\n      dup1\n      swap2\n      sub\n      swap1\n      revert\n    tag_33:\n        /* \"8.1SimpleToken.sol\":1465:1471  amount */\n      dup2\n        /* \"8.1SimpleToken.sol\":1446:1455  _balances */\n      0x00\n        /* \"8.1SimpleToken.sol\":1446:1461  _balances[from] */\n      0x00\n        /* \"8.1SimpleToken.sol\":1456:1460  from */\n      dup7\n        /* \"8.1SimpleToken.sol\":1446:1461  _balances[from] */\n      0xffffffffffffffffffffffffffffffffffffffff\n      and\n      0xffffffffffffffffffffffffffffffffffffffff\n      and\n      dup2\n      mstore\n      0x20\n      add\n      swap1\n      dup2\n      mstore\n      0x20\n      add\n      0x00\n      keccak256\n      sload\n        /* \"8.1SimpleToken.sol\":1446:1471  _balances[from] >= amount */\n      lt\n      iszero\n        /* \"8.1SimpleToken.sol\":1438:1508  require(_balances[from] >= amount, \"[transferFrom]insuffcient amount\") */\n      tag_36\n      jumpi\n      mload(0x40)\n      0x08c379a000000000000000000000000000000000000000000000000000000000\n      dup2\n      mstore\n      0x04\n      add\n      tag_37\n      swap1\n      tag_38\n      jump\t// in\n    tag_37:\n      mload(0x40)\n      dup1\n      swap2\n      sub\n      swap1\n      revert\n    tag_36:\n        /* \"8.1SimpleToken.sol\":1560:1566  amount */\n      dup2\n        /* \"8.1SimpleToken.sol\":1527:1538  _allowences */\n      0x01\n        /* \"8.1SimpleToken.sol\":1527:1544  _allowences[from] */\n      0x00\n        /* \"8.1SimpleToken.sol\":1539:1543  from */\n      dup7\n        /* \"8.1SimpleToken.sol\":1527:1544  _allowences[from] */\n      0xffffffffffffffffffffffffffffffffffffffff\n      and\n      0xffffffffffffffffffffffffffffffffffffffff\n      and\n      dup2\n      mstore\n      0x20\n      add\n      swap1\n      dup2\n      mstore\n      0x20\n      add\n      0x00\n      keccak256\n        /* \"8.1SimpleToken.sol\":1527:1556  _allowences[from][msg.sender] */\n      0x00\n        /* \"8.1SimpleToken.sol\":1545:1555  msg.sender */\n      caller\n        /* \"8.1SimpleToken.sol\":1527:1556  _allowences[from][msg.sender] */\n      0xffffffffffffffffffffffffffffffffffffffff\n      and\n      0xffffffffffffffffffffffffffffffffffffffff\n      and\n      dup2\n      mstore\n      0x20\n      add\n      swap1\n      dup2\n      mstore\n      0x20\n      add\n      0x00\n      keccak256\n      0x00\n        /* \"8.1SimpleToken.sol\":1527:1566  _allowences[from][msg.sender] -= amount */\n      dup3\n      dup3\n      sload\n      tag_39\n      swap2\n      swap1\n      tag_40\n      jump\t// in\n    tag_39:\n      swap3\n      pop\n      pop\n      dup2\n      swap1\n      sstore\n      pop\n        /* \"8.1SimpleToken.sol\":1595:1601  amount */\n      dup2\n        /* \"8.1SimpleToken.sol\":1576:1585  _balances */\n      0x00\n        /* \"8.1SimpleToken.sol\":1576:1591  _balances[from] */\n      0x00\n        /* \"8.1SimpleToken.sol\":1586:1590  from */\n      dup7\n        /* \"8.1SimpleToken.sol\":1576:1591  _balances[from] */\n      0xffffffffffffffffffffffffffffffffffffffff\n      and\n      0xffffffffffffffffffffffffffffffffffffffff\n      and\n      dup2\n      mstore\n      0x20\n      add\n      swap1\n      dup2\n      mstore\n      0x20\n      add\n      0x00\n      keccak256\n      0x00\n        /* \"8.1SimpleToken.sol\":1576:1601  _balances[from] -= amount */\n      dup3\n      dup3\n      sload\n      tag_41\n      swap2\n      swap1\n      tag_40\n      jump\t// in\n    tag_41:\n      swap3\n      pop\n      pop\n      dup2\n      swap1\n      sstore\n      pop\n        /* \"8.1SimpleToken.sol\":1628:1634  amount */\n      dup2\n        /* \"8.1SimpleToken.sol\":1611:1620  _balances */\n      0x00\n        /* \"8.1SimpleToken.sol\":1611:1624  _balances[to] */\n      0x00\n        /* \"8.1SimpleToken.sol\":1621:1623  to */\n      dup6\n        /* \"8.1SimpleToken.sol\":1611:1624  _balances[to] */\n      0xffffffffffffffffffffffffffffffffffffffff\n      and\n      0xffffffffffffffffffffffffffffffffffffffff\n      and\n      dup2\n      mstore\n      0x20\n      add\n      swap1\n      dup2\n      mstore\n      0x20\n      add\n      0x00\n      keccak256\n      0x00\n        /* \"8.1SimpleToken.sol\":1611:1634  _balances[to] += amount */\n      dup3\n      dup3\n      sload\n      tag_42\n      swap2\n      swap1\n      tag_43\n      jump\t// in\n    tag_42:\n      swap3\n      pop\n      pop\n      dup2\n      swap1\n      sstore\n      pop\n        /* \"8.1SimpleToken.sol\":1651:1655  true */\n      0x01\n        /* \"8.1SimpleToken.sol\":1644:1655  return true */\n      swap1\n      pop\n        /* \"8.1SimpleToken.sol\":1245:1662  function transferFrom(address from, address to, uint256 amount) external returns(bool){... */\n      swap4\n      swap3\n      pop\n      pop\n      pop\n      jump\t// out\n        /* \"8.1SimpleToken.sol\":1131:1239  function balanceOf(address account) external view returns(uint256){... */\n    tag_21:\n        /* \"8.1SimpleToken.sol\":1189:1196  uint256 */\n      0x00\n        /* \"8.1SimpleToken.sol\":1214:1223  _balances */\n      0x00\n        /* \"8.1SimpleToken.sol\":1214:1232  _balances[account] */\n      0x00\n        /* \"8.1SimpleToken.sol\":1224:1231  account */\n      dup4\n        /* \"8.1SimpleToken.sol\":1214:1232  _balances[account] */\n      0xffffffffffffffffffffffffffffffffffffffff\n      and\n      0xffffffffffffffffffffffffffffffffffffffff\n      and\n      dup2\n      mstore\n      0x20\n      add\n      swap1\n      dup2\n      mstore\n      0x20\n      add\n      0x00\n      keccak256\n      sload\n        /* \"8.1SimpleToken.sol\":1207:1232  return _balances[account] */\n      swap1\n      pop\n        /* \"8.1SimpleToken.sol\":1131:1239  function balanceOf(address account) external view returns(uint256){... */\n      swap2\n      swap1\n      pop\n      jump\t// out\n        /* \"8.1SimpleToken.sol\":635:887  function transfer(address to, uint256 amount) external returns(bool){... */\n    tag_26:\n        /* \"8.1SimpleToken.sol\":698:702  bool */\n      0x00\n        /* \"8.1SimpleToken.sol\":746:752  amount */\n      dup2\n        /* \"8.1SimpleToken.sol\":721:730  _balances */\n      0x00\n        /* \"8.1SimpleToken.sol\":721:742  _balances[msg.sender] */\n      0x00\n        /* \"8.1SimpleToken.sol\":731:741  msg.sender */\n      caller\n        /* \"8.1SimpleToken.sol\":721:742  _balances[msg.sender] */\n      0xffffffffffffffffffffffffffffffffffffffff\n      and\n      0xffffffffffffffffffffffffffffffffffffffff\n      and\n      dup2\n      mstore\n      0x20\n      add\n      swap1\n      dup2\n      mstore\n      0x20\n      add\n      0x00\n      keccak256\n      sload\n        /* \"8.1SimpleToken.sol\":721:752  _balances[msg.sender] >= amount */\n      lt\n      iszero\n        /* \"8.1SimpleToken.sol\":713:785  require(_balances[msg.sender] >= amount, \"[transfer]insuffcient amount\") */\n      tag_46\n      jumpi\n      mload(0x40)\n      0x08c379a000000000000000000000000000000000000000000000000000000000\n      dup2\n      mstore\n      0x04\n      add\n      tag_47\n      swap1\n      tag_48\n      jump\t// in\n    tag_47:\n      mload(0x40)\n      dup1\n      swap2\n      sub\n      swap1\n      revert\n    tag_46:\n        /* \"8.1SimpleToken.sol\":820:826  amount */\n      dup2\n        /* \"8.1SimpleToken.sol\":795:804  _balances */\n      0x00\n        /* \"8.1SimpleToken.sol\":795:816  _balances[msg.sender] */\n      0x00\n        /* \"8.1SimpleToken.sol\":805:815  msg.sender */\n      caller\n        /* \"8.1SimpleToken.sol\":795:816  _balances[msg.sender] */\n      0xffffffffffffffffffffffffffffffffffffffff\n      and\n      0xffffffffffffffffffffffffffffffffffffffff\n      and\n      dup2\n      mstore\n      0x20\n      add\n      swap1\n      dup2\n      mstore\n      0x20\n      add\n      0x00\n      keccak256\n      0x00\n        /* \"8.1SimpleToken.sol\":795:826  _balances[msg.sender] -= amount */\n      dup3\n      dup3\n      sload\n      tag_49\n      swap2\n      swap1\n      tag_40\n      jump\t// in\n    tag_49:\n      swap3\n      pop\n      pop\n      dup2\n      swap1\n      sstore\n      pop\n        /* \"8.1SimpleToken.sol\":853:859  amount */\n      dup2\n        /* \"8.1SimpleToken.sol\":836:845  _balances */\n      0x00\n        /* \"8.1SimpleToken.sol\":836:849  _balances[to] */\n      0x00\n        /* \"8.1SimpleToken.sol\":846:848  to */\n      dup6\n        /* \"8.1SimpleToken.sol\":836:849  _balances[to] */\n      0xffffffffffffffffffffffffffffffffffffffff\n      and\n      0xffffffffffffffffffffffffffffffffffffffff\n      and\n      dup2\n      mstore\n      0x20\n      add\n      swap1\n      dup2\n      mstore\n      0x20\n      add\n      0x00\n      keccak256\n      0x00\n        /* \"8.1SimpleToken.sol\":836:859  _balances[to] += amount */\n      dup3\n      dup3\n      sload\n      tag_50\n      swap2\n      swap1\n      tag_43\n      jump\t// in\n    tag_50:\n      swap3\n      pop\n      pop\n      dup2\n      swap1\n      sstore\n      pop\n        /* \"8.1SimpleToken.sol\":876:880  true */\n      0x01\n        /* \"8.1SimpleToken.sol\":869:880  return true */\n      swap1\n      pop\n        /* \"8.1SimpleToken.sol\":635:887  function transfer(address to, uint256 amount) external returns(bool){... */\n      swap3\n      swap2\n      pop\n      pop\n      jump\t// out\n        /* \"#utility.yul\":88:205   */\n    tag_52:\n        /* \"#utility.yul\":197:198   */\n      0x00\n        /* \"#utility.yul\":194:195   */\n      0x00\n        /* \"#utility.yul\":187:199   */\n      revert\n        /* \"#utility.yul\":334:460   */\n    tag_54:\n        /* \"#utility.yul\":371:378   */\n      0x00\n        /* \"#utility.yul\":411:453   */\n      0xffffffffffffffffffffffffffffffffffffffff\n        /* \"#utility.yul\":404:409   */\n      dup3\n        /* \"#utility.yul\":400:454   */\n      and\n        /* \"#utility.yul\":389:454   */\n      swap1\n      pop\n        /* \"#utility.yul\":334:460   */\n      swap2\n      swap1\n      pop\n      jump\t// out\n        /* \"#utility.yul\":466:562   */\n    tag_55:\n        /* \"#utility.yul\":503:510   */\n      0x00\n        /* \"#utility.yul\":532:556   */\n      tag_80\n        /* \"#utility.yul\":550:555   */\n      dup3\n        /* \"#utility.yul\":532:556   */\n      tag_54\n      jump\t// in\n    tag_80:\n        /* \"#utility.yul\":521:556   */\n      swap1\n      pop\n        /* \"#utility.yul\":466:562   */\n      swap2\n      swap1\n      pop\n      jump\t// out\n        /* \"#utility.yul\":568:690   */\n    tag_56:\n        /* \"#utility.yul\":641:665   */\n      tag_82\n        /* \"#utility.yul\":659:664   */\n      dup2\n        /* \"#utility.yul\":641:665   */\n      tag_55\n      jump\t// in\n    tag_82:\n        /* \"#utility.yul\":634:639   */\n      dup2\n        /* \"#utility.yul\":631:666   */\n      eq\n        /* \"#utility.yul\":621:684   */\n      tag_83\n      jumpi\n        /* \"#utility.yul\":680:681   */\n      0x00\n        /* \"#utility.yul\":677:678   */\n      0x00\n        /* \"#utility.yul\":670:682   */\n      revert\n        /* \"#utility.yul\":621:684   */\n    tag_83:\n        /* \"#utility.yul\":568:690   */\n      pop\n      jump\t// out\n        /* \"#utility.yul\":696:835   */\n    tag_57:\n        /* \"#utility.yul\":742:747   */\n      0x00\n        /* \"#utility.yul\":780:786   */\n      dup2\n        /* \"#utility.yul\":767:787   */\n      calldataload\n        /* \"#utility.yul\":758:787   */\n      swap1\n      pop\n        /* \"#utility.yul\":796:829   */\n      tag_85\n        /* \"#utility.yul\":823:828   */\n      dup2\n        /* \"#utility.yul\":796:829   */\n      tag_56\n      jump\t// in\n    tag_85:\n        /* \"#utility.yul\":696:835   */\n      swap3\n      swap2\n      pop\n      pop\n      jump\t// out\n        /* \"#utility.yul\":841:918   */\n    tag_58:\n        /* \"#utility.yul\":878:885   */\n      0x00\n        /* \"#utility.yul\":907:912   */\n      dup2\n        /* \"#utility.yul\":896:912   */\n      swap1\n      pop\n        /* \"#utility.yul\":841:918   */\n      swap2\n      swap1\n      pop\n      jump\t// out\n        /* \"#utility.yul\":924:1046   */\n    tag_59:\n        /* \"#utility.yul\":997:1021   */\n      tag_88\n        /* \"#utility.yul\":1015:1020   */\n      dup2\n        /* \"#utility.yul\":997:1021   */\n      tag_58\n      jump\t// in\n    tag_88:\n        /* \"#utility.yul\":990:995   */\n      dup2\n        /* \"#utility.yul\":987:1022   */\n      eq\n        /* \"#utility.yul\":977:1040   */\n      tag_89\n      jumpi\n        /* \"#utility.yul\":1036:1037   */\n      0x00\n        /* \"#utility.yul\":1033:1034   */\n      0x00\n        /* \"#utility.yul\":1026:1038   */\n      revert\n        /* \"#utility.yul\":977:1040   */\n    tag_89:\n        /* \"#utility.yul\":924:1046   */\n      pop\n      jump\t// out\n        /* \"#utility.yul\":1052:1191   */\n    tag_60:\n        /* \"#utility.yul\":1098:1103   */\n      0x00\n        /* \"#utility.yul\":1136:1142   */\n      dup2\n        /* \"#utility.yul\":1123:1143   */\n      calldataload\n        /* \"#utility.yul\":1114:1143   */\n      swap1\n      pop\n        /* \"#utility.yul\":1152:1185   */\n      tag_91\n        /* \"#utility.yul\":1179:1184   */\n      dup2\n        /* \"#utility.yul\":1152:1185   */\n      tag_59\n      jump\t// in\n    tag_91:\n        /* \"#utility.yul\":1052:1191   */\n      swap3\n      swap2\n      pop\n      pop\n      jump\t// out\n        /* \"#utility.yul\":1197:1671   */\n    tag_9:\n        /* \"#utility.yul\":1265:1271   */\n      0x00\n        /* \"#utility.yul\":1273:1279   */\n      0x00\n        /* \"#utility.yul\":1322:1324   */\n      0x40\n        /* \"#utility.yul\":1310:1319   */\n      dup4\n        /* \"#utility.yul\":1301:1308   */\n      dup6\n        /* \"#utility.yul\":1297:1320   */\n      sub\n        /* \"#utility.yul\":1293:1325   */\n      slt\n        /* \"#utility.yul\":1290:1409   */\n      iszero\n      tag_93\n      jumpi\n        /* \"#utility.yul\":1328:1407   */\n      tag_94\n      tag_52\n      jump\t// in\n    tag_94:\n        /* \"#utility.yul\":1290:1409   */\n    tag_93:\n        /* \"#utility.yul\":1448:1449   */\n      0x00\n        /* \"#utility.yul\":1473:1526   */\n      tag_95\n        /* \"#utility.yul\":1518:1525   */\n      dup6\n        /* \"#utility.yul\":1509:1515   */\n      dup3\n        /* \"#utility.yul\":1498:1507   */\n      dup7\n        /* \"#utility.yul\":1494:1516   */\n      add\n        /* \"#utility.yul\":1473:1526   */\n      tag_57\n      jump\t// in\n    tag_95:\n        /* \"#utility.yul\":1463:1526   */\n      swap3\n      pop\n        /* \"#utility.yul\":1419:1536   */\n      pop\n        /* \"#utility.yul\":1575:1577   */\n      0x20\n        /* \"#utility.yul\":1601:1654   */\n      tag_96\n        /* \"#utility.yul\":1646:1653   */\n      dup6\n        /* \"#utility.yul\":1637:1643   */\n      dup3\n        /* \"#utility.yul\":1626:1635   */\n      dup7\n        /* \"#utility.yul\":1622:1644   */\n      add\n        /* \"#utility.yul\":1601:1654   */\n      tag_60\n      jump\t// in\n    tag_96:\n        /* \"#utility.yul\":1591:1654   */\n      swap2\n      pop\n        /* \"#utility.yul\":1546:1664   */\n      pop\n        /* \"#utility.yul\":1197:1671   */\n      swap3\n      pop\n      swap3\n      swap1\n      pop\n      jump\t// out\n        /* \"#utility.yul\":1677:1767   */\n    tag_61:\n        /* \"#utility.yul\":1711:1718   */\n      0x00\n        /* \"#utility.yul\":1754:1759   */\n      dup2\n        /* \"#utility.yul\":1747:1760   */\n      iszero\n        /* \"#utility.yul\":1740:1761   */\n      iszero\n        /* \"#utility.yul\":1729:1761   */\n      swap1\n      pop\n        /* \"#utility.yul\":1677:1767   */\n      swap2\n      swap1\n      pop\n      jump\t// out\n        /* \"#utility.yul\":1773:1882   */\n    tag_62:\n        /* \"#utility.yul\":1854:1875   */\n      tag_99\n        /* \"#utility.yul\":1869:1874   */\n      dup2\n        /* \"#utility.yul\":1854:1875   */\n      tag_61\n      jump\t// in\n    tag_99:\n        /* \"#utility.yul\":1849:1852   */\n      dup3\n        /* \"#utility.yul\":1842:1876   */\n      mstore\n        /* \"#utility.yul\":1773:1882   */\n      pop\n      pop\n      jump\t// out\n        /* \"#utility.yul\":1888:2098   */\n    tag_12:\n        /* \"#utility.yul\":1975:1979   */\n      0x00\n        /* \"#utility.yul\":2013:2015   */\n      0x20\n        /* \"#utility.yul\":2002:2011   */\n      dup3\n        /* \"#utility.yul\":1998:2016   */\n      add\n        /* \"#utility.yul\":1990:2016   */\n      swap1\n      pop\n        /* \"#utility.yul\":2026:2091   */\n      tag_101\n        /* \"#utility.yul\":2088:2089   */\n      0x00\n        /* \"#utility.yul\":2077:2086   */\n      dup4\n        /* \"#utility.yul\":2073:2090   */\n      add\n        /* \"#utility.yul\":2064:2070   */\n      dup5\n        /* \"#utility.yul\":2026:2091   */\n      tag_62\n      jump\t// in\n    tag_101:\n        /* \"#utility.yul\":1888:2098   */\n      swap3\n      swap2\n      pop\n      pop\n      jump\t// out\n        /* \"#utility.yul\":2104:2723   */\n    tag_15:\n        /* \"#utility.yul\":2181:2187   */\n      0x00\n        /* \"#utility.yul\":2189:2195   */\n      0x00\n        /* \"#utility.yul\":2197:2203   */\n      0x00\n        /* \"#utility.yul\":2246:2248   */\n      0x60\n        /* \"#utility.yul\":2234:2243   */\n      dup5\n        /* \"#utility.yul\":2225:2232   */\n      dup7\n        /* \"#utility.yul\":2221:2244   */\n      sub\n        /* \"#utility.yul\":2217:2249   */\n      slt\n        /* \"#utility.yul\":2214:2333   */\n      iszero\n      tag_103\n      jumpi\n        /* \"#utility.yul\":2252:2331   */\n      tag_104\n      tag_52\n      jump\t// in\n    tag_104:\n        /* \"#utility.yul\":2214:2333   */\n    tag_103:\n        /* \"#utility.yul\":2372:2373   */\n      0x00\n        /* \"#utility.yul\":2397:2450   */\n      tag_105\n        /* \"#utility.yul\":2442:2449   */\n      dup7\n        /* \"#utility.yul\":2433:2439   */\n      dup3\n        /* \"#utility.yul\":2422:2431   */\n      dup8\n        /* \"#utility.yul\":2418:2440   */\n      add\n        /* \"#utility.yul\":2397:2450   */\n      tag_57\n      jump\t// in\n    tag_105:\n        /* \"#utility.yul\":2387:2450   */\n      swap4\n      pop\n        /* \"#utility.yul\":2343:2460   */\n      pop\n        /* \"#utility.yul\":2499:2501   */\n      0x20\n        /* \"#utility.yul\":2525:2578   */\n      tag_106\n        /* \"#utility.yul\":2570:2577   */\n      dup7\n        /* \"#utility.yul\":2561:2567   */\n      dup3\n        /* \"#utility.yul\":2550:2559   */\n      dup8\n        /* \"#utility.yul\":2546:2568   */\n      add\n        /* \"#utility.yul\":2525:2578   */\n      tag_57\n      jump\t// in\n    tag_106:\n        /* \"#utility.yul\":2515:2578   */\n      swap3\n      pop\n        /* \"#utility.yul\":2470:2588   */\n      pop\n        /* \"#utility.yul\":2627:2629   */\n      0x40\n        /* \"#utility.yul\":2653:2706   */\n      tag_107\n        /* \"#utility.yul\":2698:2705   */\n      dup7\n        /* \"#utility.yul\":2689:2695   */\n      dup3\n        /* \"#utility.yul\":2678:2687   */\n      dup8\n        /* \"#utility.yul\":2674:2696   */\n      add\n        /* \"#utility.yul\":2653:2706   */\n      tag_60\n      jump\t// in\n    tag_107:\n        /* \"#utility.yul\":2643:2706   */\n      swap2\n      pop\n        /* \"#utility.yul\":2598:2716   */\n      pop\n        /* \"#utility.yul\":2104:2723   */\n      swap3\n      pop\n      swap3\n      pop\n      swap3\n      jump\t// out\n        /* \"#utility.yul\":2729:3058   */\n    tag_20:\n        /* \"#utility.yul\":2788:2794   */\n      0x00\n        /* \"#utility.yul\":2837:2839   */\n      0x20\n        /* \"#utility.yul\":2825:2834   */\n      dup3\n        /* \"#utility.yul\":2816:2823   */\n      dup5\n        /* \"#utility.yul\":2812:2835   */\n      sub\n        /* \"#utility.yul\":2808:2840   */\n      slt\n        /* \"#utility.yul\":2805:2924   */\n      iszero\n      tag_109\n      jumpi\n        /* \"#utility.yul\":2843:2922   */\n      tag_110\n      tag_52\n      jump\t// in\n    tag_110:\n        /* \"#utility.yul\":2805:2924   */\n    tag_109:\n        /* \"#utility.yul\":2963:2964   */\n      0x00\n        /* \"#utility.yul\":2988:3041   */\n      tag_111\n        /* \"#utility.yul\":3033:3040   */\n      dup5\n        /* \"#utility.yul\":3024:3030   */\n      dup3\n        /* \"#utility.yul\":3013:3022   */\n      dup6\n        /* \"#utility.yul\":3009:3031   */\n      add\n        /* \"#utility.yul\":2988:3041   */\n      tag_57\n      jump\t// in\n    tag_111:\n        /* \"#utility.yul\":2978:3041   */\n      swap2\n      pop\n        /* \"#utility.yul\":2934:3051   */\n      pop\n        /* \"#utility.yul\":2729:3058   */\n      swap3\n      swap2\n      pop\n      pop\n      jump\t// out\n        /* \"#utility.yul\":3064:3182   */\n    tag_63:\n        /* \"#utility.yul\":3151:3175   */\n      tag_113\n        /* \"#utility.yul\":3169:3174   */\n      dup2\n        /* \"#utility.yul\":3151:3175   */\n      tag_58\n      jump\t// in\n    tag_113:\n        /* \"#utility.yul\":3146:3149   */\n      dup3\n        /* \"#utility.yul\":3139:3176   */\n      mstore\n        /* \"#utility.yul\":3064:3182   */\n      pop\n      pop\n      jump\t// out\n        /* \"#utility.yul\":3188:3410   */\n    tag_23:\n        /* \"#utility.yul\":3281:3285   */\n      0x00\n        /* \"#utility.yul\":3319:3321   */\n      0x20\n        /* \"#utility.yul\":3308:3317   */\n      dup3\n        /* \"#utility.yul\":3304:3322   */\n      add\n        /* \"#utility.yul\":3296:3322   */\n      swap1\n      pop\n        /* \"#utility.yul\":3332:3403   */\n      tag_115\n        /* \"#utility.yul\":3400:3401   */\n      0x00\n        /* \"#utility.yul\":3389:3398   */\n      dup4\n        /* \"#utility.yul\":3385:3402   */\n      add\n        /* \"#utility.yul\":3376:3382   */\n      dup5\n        /* \"#utility.yul\":3332:3403   */\n      tag_63\n      jump\t// in\n    tag_115:\n        /* \"#utility.yul\":3188:3410   */\n      swap3\n      swap2\n      pop\n      pop\n      jump\t// out\n        /* \"#utility.yul\":3416:3585   */\n    tag_64:\n        /* \"#utility.yul\":3500:3511   */\n      0x00\n        /* \"#utility.yul\":3534:3540   */\n      dup3\n        /* \"#utility.yul\":3529:3532   */\n      dup3\n        /* \"#utility.yul\":3522:3541   */\n      mstore\n        /* \"#utility.yul\":3574:3578   */\n      0x20\n        /* \"#utility.yul\":3569:3572   */\n      dup3\n        /* \"#utility.yul\":3565:3579   */\n      add\n        /* \"#utility.yul\":3550:3579   */\n      swap1\n      pop\n        /* \"#utility.yul\":3416:3585   */\n      swap3\n      swap2\n      pop\n      pop\n      jump\t// out\n        /* \"#utility.yul\":3591:3768   */\n    tag_65:\n        /* \"#utility.yul\":3731:3760   */\n      0x5b617070726f76655d696e737566666369656e7420616d6f756e740000000000\n        /* \"#utility.yul\":3727:3728   */\n      0x00\n        /* \"#utility.yul\":3719:3725   */\n      dup3\n        /* \"#utility.yul\":3715:3729   */\n      add\n        /* \"#utility.yul\":3708:3761   */\n      mstore\n        /* \"#utility.yul\":3591:3768   */\n      pop\n      jump\t// out\n        /* \"#utility.yul\":3774:4140   */\n    tag_66:\n        /* \"#utility.yul\":3916:3919   */\n      0x00\n        /* \"#utility.yul\":3937:4004   */\n      tag_119\n        /* \"#utility.yul\":4001:4003   */\n      0x1b\n        /* \"#utility.yul\":3996:3999   */\n      dup4\n        /* \"#utility.yul\":3937:4004   */\n      tag_64\n      jump\t// in\n    tag_119:\n        /* \"#utility.yul\":3930:4004   */\n      swap2\n      pop\n        /* \"#utility.yul\":4013:4106   */\n      tag_120\n        /* \"#utility.yul\":4102:4105   */\n      dup3\n        /* \"#utility.yul\":4013:4106   */\n      tag_65\n      jump\t// in\n    tag_120:\n        /* \"#utility.yul\":4131:4133   */\n      0x20\n        /* \"#utility.yul\":4126:4129   */\n      dup3\n        /* \"#utility.yul\":4122:4134   */\n      add\n        /* \"#utility.yul\":4115:4134   */\n      swap1\n      pop\n        /* \"#utility.yul\":3774:4140   */\n      swap2\n      swap1\n      pop\n      jump\t// out\n        /* \"#utility.yul\":4146:4565   */\n    tag_31:\n        /* \"#utility.yul\":4312:4316   */\n      0x00\n        /* \"#utility.yul\":4350:4352   */\n      0x20\n        /* \"#utility.yul\":4339:4348   */\n      dup3\n        /* \"#utility.yul\":4335:4353   */\n      add\n        /* \"#utility.yul\":4327:4353   */\n      swap1\n      pop\n        /* \"#utility.yul\":4399:4408   */\n      dup2\n        /* \"#utility.yul\":4393:4397   */\n      dup2\n        /* \"#utility.yul\":4389:4409   */\n      sub\n        /* \"#utility.yul\":4385:4386   */\n      0x00\n        /* \"#utility.yul\":4374:4383   */\n      dup4\n        /* \"#utility.yul\":4370:4387   */\n      add\n        /* \"#utility.yul\":4363:4410   */\n      mstore\n        /* \"#utility.yul\":4427:4558   */\n      tag_122\n        /* \"#utility.yul\":4553:4557   */\n      dup2\n        /* \"#utility.yul\":4427:4558   */\n      tag_66\n      jump\t// in\n    tag_122:\n        /* \"#utility.yul\":4419:4558   */\n      swap1\n      pop\n        /* \"#utility.yul\":4146:4565   */\n      swap2\n      swap1\n      pop\n      jump\t// out\n        /* \"#utility.yul\":4571:4793   */\n    tag_67:\n        /* \"#utility.yul\":4711:4745   */\n      0x5b7472616e7366657246726f6d5d696e737566666369656e7420616c6c6f7765\n        /* \"#utility.yul\":4707:4708   */\n      0x00\n        /* \"#utility.yul\":4699:4705   */\n      dup3\n        /* \"#utility.yul\":4695:4709   */\n      add\n        /* \"#utility.yul\":4688:4746   */\n      mstore\n        /* \"#utility.yul\":4780:4785   */\n      0x6e63650000000000000000000000000000000000000000000000000000000000\n        /* \"#utility.yul\":4775:4777   */\n      0x20\n        /* \"#utility.yul\":4767:4773   */\n      dup3\n        /* \"#utility.yul\":4763:4778   */\n      add\n        /* \"#utility.yul\":4756:4786   */\n      mstore\n        /* \"#utility.yul\":4571:4793   */\n      pop\n      jump\t// out\n        /* \"#utility.yul\":4799:5165   */\n    tag_68:\n        /* \"#utility.yul\":4941:4944   */\n      0x00\n        /* \"#utility.yul\":4962:5029   */\n      tag_125\n        /* \"#utility.yul\":5026:5028   */\n      0x23\n        /* \"#utility.yul\":5021:5024   */\n      dup4\n        /* \"#utility.yul\":4962:5029   */\n      tag_64\n      jump\t// in\n    tag_125:\n        /* \"#utility.yul\":4955:5029   */\n      swap2\n      pop\n        /* \"#utility.yul\":5038:5131   */\n      tag_126\n        /* \"#utility.yul\":5127:5130   */\n      dup3\n        /* \"#utility.yul\":5038:5131   */\n      tag_67\n      jump\t// in\n    tag_126:\n        /* \"#utility.yul\":5156:5158   */\n      0x40\n        /* \"#utility.yul\":5151:5154   */\n      dup3\n        /* \"#utility.yul\":5147:5159   */\n      add\n        /* \"#utility.yul\":5140:5159   */\n      swap1\n      pop\n        /* \"#utility.yul\":4799:5165   */\n      swap2\n      swap1\n      pop\n      jump\t// out\n        /* \"#utility.yul\":5171:5590   */\n    tag_35:\n        /* \"#utility.yul\":5337:5341   */\n      0x00\n        /* \"#utility.yul\":5375:5377   */\n      0x20\n        /* \"#utility.yul\":5364:5373   */\n      dup3\n        /* \"#utility.yul\":5360:5378   */\n      add\n        /* \"#utility.yul\":5352:5378   */\n      swap1\n      pop\n        /* \"#utility.yul\":5424:5433   */\n      dup2\n        /* \"#utility.yul\":5418:5422   */\n      dup2\n        /* \"#utility.yul\":5414:5434   */\n      sub\n        /* \"#utility.yul\":5410:5411   */\n      0x00\n        /* \"#utility.yul\":5399:5408   */\n      dup4\n        /* \"#utility.yul\":5395:5412   */\n      add\n        /* \"#utility.yul\":5388:5435   */\n      mstore\n        /* \"#utility.yul\":5452:5583   */\n      tag_128\n        /* \"#utility.yul\":5578:5582   */\n      dup2\n        /* \"#utility.yul\":5452:5583   */\n      tag_68\n      jump\t// in\n    tag_128:\n        /* \"#utility.yul\":5444:5583   */\n      swap1\n      pop\n        /* \"#utility.yul\":5171:5590   */\n      swap2\n      swap1\n      pop\n      jump\t// out\n        /* \"#utility.yul\":5596:5778   */\n    tag_69:\n        /* \"#utility.yul\":5736:5770   */\n      0x5b7472616e7366657246726f6d5d696e737566666369656e7420616d6f756e74\n        /* \"#utility.yul\":5732:5733   */\n      0x00\n        /* \"#utility.yul\":5724:5730   */\n      dup3\n        /* \"#utility.yul\":5720:5734   */\n      add\n        /* \"#utility.yul\":5713:5771   */\n      mstore\n        /* \"#utility.yul\":5596:5778   */\n      pop\n      jump\t// out\n        /* \"#utility.yul\":5784:6150   */\n    tag_70:\n        /* \"#utility.yul\":5926:5929   */\n      0x00\n        /* \"#utility.yul\":5947:6014   */\n      tag_131\n        /* \"#utility.yul\":6011:6013   */\n      0x20\n        /* \"#utility.yul\":6006:6009   */\n      dup4\n        /* \"#utility.yul\":5947:6014   */\n      tag_64\n      jump\t// in\n    tag_131:\n        /* \"#utility.yul\":5940:6014   */\n      swap2\n      pop\n        /* \"#utility.yul\":6023:6116   */\n      tag_132\n        /* \"#utility.yul\":6112:6115   */\n      dup3\n        /* \"#utility.yul\":6023:6116   */\n      tag_69\n      jump\t// in\n    tag_132:\n        /* \"#utility.yul\":6141:6143   */\n      0x20\n        /* \"#utility.yul\":6136:6139   */\n      dup3\n        /* \"#utility.yul\":6132:6144   */\n      add\n        /* \"#utility.yul\":6125:6144   */\n      swap1\n      pop\n        /* \"#utility.yul\":5784:6150   */\n      swap2\n      swap1\n      pop\n      jump\t// out\n        /* \"#utility.yul\":6156:6575   */\n    tag_38:\n        /* \"#utility.yul\":6322:6326   */\n      0x00\n        /* \"#utility.yul\":6360:6362   */\n      0x20\n        /* \"#utility.yul\":6349:6358   */\n      dup3\n        /* \"#utility.yul\":6345:6363   */\n      add\n        /* \"#utility.yul\":6337:6363   */\n      swap1\n      pop\n        /* \"#utility.yul\":6409:6418   */\n      dup2\n        /* \"#utility.yul\":6403:6407   */\n      dup2\n        /* \"#utility.yul\":6399:6419   */\n      sub\n        /* \"#utility.yul\":6395:6396   */\n      0x00\n        /* \"#utility.yul\":6384:6393   */\n      dup4\n        /* \"#utility.yul\":6380:6397   */\n      add\n        /* \"#utility.yul\":6373:6420   */\n      mstore\n        /* \"#utility.yul\":6437:6568   */\n      tag_134\n        /* \"#utility.yul\":6563:6567   */\n      dup2\n        /* \"#utility.yul\":6437:6568   */\n      tag_70\n      jump\t// in\n    tag_134:\n        /* \"#utility.yul\":6429:6568   */\n      swap1\n      pop\n        /* \"#utility.yul\":6156:6575   */\n      swap2\n      swap1\n      pop\n      jump\t// out\n        /* \"#utility.yul\":6581:6761   */\n    tag_71:\n        /* \"#utility.yul\":6629:6706   */\n      0x4e487b7100000000000000000000000000000000000000000000000000000000\n        /* \"#utility.yul\":6626:6627   */\n      0x00\n        /* \"#utility.yul\":6619:6707   */\n      mstore\n        /* \"#utility.yul\":6726:6730   */\n      0x11\n        /* \"#utility.yul\":6723:6724   */\n      0x04\n        /* \"#utility.yul\":6716:6731   */\n      mstore\n        /* \"#utility.yul\":6750:6754   */\n      0x24\n        /* \"#utility.yul\":6747:6748   */\n      0x00\n        /* \"#utility.yul\":6740:6755   */\n      revert\n        /* \"#utility.yul\":6767:6961   */\n    tag_40:\n        /* \"#utility.yul\":6807:6811   */\n      0x00\n        /* \"#utility.yul\":6827:6847   */\n      tag_137\n        /* \"#utility.yul\":6845:6846   */\n      dup3\n        /* \"#utility.yul\":6827:6847   */\n      tag_58\n      jump\t// in\n    tag_137:\n        /* \"#utility.yul\":6822:6847   */\n      swap2\n      pop\n        /* \"#utility.yul\":6861:6881   */\n      tag_138\n        /* \"#utility.yul\":6879:6880   */\n      dup4\n        /* \"#utility.yul\":6861:6881   */\n      tag_58\n      jump\t// in\n    tag_138:\n        /* \"#utility.yul\":6856:6881   */\n      swap3\n      pop\n        /* \"#utility.yul\":6905:6906   */\n      dup3\n        /* \"#utility.yul\":6902:6903   */\n      dup3\n        /* \"#utility.yul\":6898:6907   */\n      sub\n        /* \"#utility.yul\":6890:6907   */\n      swap1\n      pop\n        /* \"#utility.yul\":6929:6930   */\n      dup2\n        /* \"#utility.yul\":6923:6927   */\n      dup2\n        /* \"#utility.yul\":6920:6931   */\n      gt\n        /* \"#utility.yul\":6917:6954   */\n      iszero\n      tag_139\n      jumpi\n        /* \"#utility.yul\":6934:6952   */\n      tag_140\n      tag_71\n      jump\t// in\n    tag_140:\n        /* \"#utility.yul\":6917:6954   */\n    tag_139:\n        /* \"#utility.yul\":6767:6961   */\n      swap3\n      swap2\n      pop\n      pop\n      jump\t// out\n        /* \"#utility.yul\":6967:7158   */\n    tag_43:\n        /* \"#utility.yul\":7007:7010   */\n      0x00\n        /* \"#utility.yul\":7026:7046   */\n      tag_142\n        /* \"#utility.yul\":7044:7045   */\n      dup3\n        /* \"#utility.yul\":7026:7046   */\n      tag_58\n      jump\t// in\n    tag_142:\n        /* \"#utility.yul\":7021:7046   */\n      swap2\n      pop\n        /* \"#utility.yul\":7060:7080   */\n      tag_143\n        /* \"#utility.yul\":7078:7079   */\n      dup4\n        /* \"#utility.yul\":7060:7080   */\n      tag_58\n      jump\t// in\n    tag_143:\n        /* \"#utility.yul\":7055:7080   */\n      swap3\n      pop\n        /* \"#utility.yul\":7103:7104   */\n      dup3\n        /* \"#utility.yul\":7100:7101   */\n      dup3\n        /* \"#utility.yul\":7096:7105   */\n      add\n        /* \"#utility.yul\":7089:7105   */\n      swap1\n      pop\n        /* \"#utility.yul\":7124:7127   */\n      dup1\n        /* \"#utility.yul\":7121:7122   */\n      dup3\n        /* \"#utility.yul\":7118:7128   */\n      gt\n        /* \"#utility.yul\":7115:7151   */\n      iszero\n      tag_144\n      jumpi\n        /* \"#utility.yul\":7131:7149   */\n      tag_145\n      tag_71\n      jump\t// in\n    tag_145:\n        /* \"#utility.yul\":7115:7151   */\n    tag_144:\n        /* \"#utility.yul\":6967:7158   */\n      swap3\n      swap2\n      pop\n      pop\n      jump\t// out\n        /* \"#utility.yul\":7164:7342   */\n    tag_72:\n        /* \"#utility.yul\":7304:7334   */\n      0x5b7472616e736665725d696e737566666369656e7420616d6f756e7400000000\n        /* \"#utility.yul\":7300:7301   */\n      0x00\n        /* \"#utility.yul\":7292:7298   */\n      dup3\n        /* \"#utility.yul\":7288:7302   */\n      add\n        /* \"#utility.yul\":7281:7335   */\n      mstore\n        /* \"#utility.yul\":7164:7342   */\n      pop\n      jump\t// out\n        /* \"#utility.yul\":7348:7714   */\n    tag_73:\n        /* \"#utility.yul\":7490:7493   */\n      0x00\n        /* \"#utility.yul\":7511:7578   */\n      tag_148\n        /* \"#utility.yul\":7575:7577   */\n      0x1c\n        /* \"#utility.yul\":7570:7573   */\n      dup4\n        /* \"#utility.yul\":7511:7578   */\n      tag_64\n      jump\t// in\n    tag_148:\n        /* \"#utility.yul\":7504:7578   */\n      swap2\n      pop\n        /* \"#utility.yul\":7587:7680   */\n      tag_149\n        /* \"#utility.yul\":7676:7679   */\n      dup3\n        /* \"#utility.yul\":7587:7680   */\n      tag_72\n      jump\t// in\n    tag_149:\n        /* \"#utility.yul\":7705:7707   */\n      0x20\n        /* \"#utility.yul\":7700:7703   */\n      dup3\n        /* \"#utility.yul\":7696:7708   */\n      add\n        /* \"#utility.yul\":7689:7708   */\n      swap1\n      pop\n        /* \"#utility.yul\":7348:7714   */\n      swap2\n      swap1\n      pop\n      jump\t// out\n        /* \"#utility.yul\":7720:8139   */\n    tag_48:\n        /* \"#utility.yul\":7886:7890   */\n      0x00\n        /* \"#utility.yul\":7924:7926   */\n      0x20\n        /* \"#utility.yul\":7913:7922   */\n      dup3\n        /* \"#utility.yul\":7909:7927   */\n      add\n        /* \"#utility.yul\":7901:7927   */\n      swap1\n      pop\n        /* \"#utility.yul\":7973:7982   */\n      dup2\n        /* \"#utility.yul\":7967:7971   */\n      dup2\n        /* \"#utility.yul\":7963:7983   */\n      sub\n        /* \"#utility.yul\":7959:7960   */\n      0x00\n        /* \"#utility.yul\":7948:7957   */\n      dup4\n        /* \"#utility.yul\":7944:7961   */\n      add\n        /* \"#utility.yul\":7937:7984   */\n      mstore\n        /* \"#utility.yul\":8001:8132   */\n      tag_151\n        /* \"#utility.yul\":8127:8131   */\n      dup2\n        /* \"#utility.yul\":8001:8132   */\n      tag_73\n      jump\t// in\n    tag_151:\n        /* \"#utility.yul\":7993:8132   */\n      swap1\n      pop\n        /* \"#utility.yul\":7720:8139   */\n      swap2\n      swap1\n      pop\n      jump\t// out\n\n    auxdata: 0xa26469706673582212208c3e20b1fc6e48a48eda9662eb5399be34a36f17469d3cb82d61c4497cc8ba7964736f6c634300081e0033\n}\n",
				"bytecode": {
					"linkReferences": {},
					"object": "6080604052348015600e575f5ffd5b506a084595161401484a0000005f5f3373ffffffffffffffffffffffffffffffffffffffff1673ffffffffffffffffffffffffffffffffffffffff1681526020019081526020015f2081905550610a44806100685f395ff3fe608060405234801561000f575f5ffd5b506004361061004a575f3560e01c8063095ea7b31461004e57806323b872dd1461007e57806370a08231146100ae578063a9059cbb146100de575b5f5ffd5b61006860048036038101906100639190610691565b61010e565b60405161007591906106e9565b60405180910390f35b61009860048036038101906100939190610702565b610215565b6040516100a591906106e9565b60405180910390f35b6100c860048036038101906100c39190610752565b61048d565b6040516100d5919061078c565b60405180910390f35b6100f860048036038101906100f39190610691565b6104d2565b60405161010591906106e9565b60405180910390f35b5f815f5f3373ffffffffffffffffffffffffffffffffffffffff1673ffffffffffffffffffffffffffffffffffffffff1681526020019081526020015f2054101561018e576040517f08c379a0000000000000000000000000000000000000000000000000000000008152600401610185906107ff565b60405180910390fd5b8160015f3373ffffffffffffffffffffffffffffffffffffffff1673ffffffffffffffffffffffffffffffffffffffff1681526020019081526020015f205f8573ffffffffffffffffffffffffffffffffffffffff1673ffffffffffffffffffffffffffffffffffffffff1681526020019081526020015f20819055506001905092915050565b5f8160015f8673ffffffffffffffffffffffffffffffffffffffff1673ffffffffffffffffffffffffffffffffffffffff1681526020019081526020015f205f3373ffffffffffffffffffffffffffffffffffffffff1673ffffffffffffffffffffffffffffffffffffffff1681526020019081526020015f205410156102d1576040517f08c379a00000000000000000000000000000000000000000000000000000000081526004016102c89061088d565b60405180910390fd5b815f5f8673ffffffffffffffffffffffffffffffffffffffff1673ffffffffffffffffffffffffffffffffffffffff1681526020019081526020015f20541015610350576040517f08c379a0000000000000000000000000000000000000000000000000000000008152600401610347906108f5565b60405180910390fd5b8160015f8673ffffffffffffffffffffffffffffffffffffffff1673ffffffffffffffffffffffffffffffffffffffff1681526020019081526020015f205f3373ffffffffffffffffffffffffffffffffffffffff1673ffffffffffffffffffffffffffffffffffffffff1681526020019081526020015f205f8282546103d79190610940565b92505081905550815f5f8673ffffffffffffffffffffffffffffffffffffffff1673ffffffffffffffffffffffffffffffffffffffff1681526020019081526020015f205f8282546104299190610940565b92505081905550815f5f8573ffffffffffffffffffffffffffffffffffffffff1673ffffffffffffffffffffffffffffffffffffffff1681526020019081526020015f205f82825461047b9190610973565b92505081905550600190509392505050565b5f5f5f8373ffffffffffffffffffffffffffffffffffffffff1673ffffffffffffffffffffffffffffffffffffffff1681526020019081526020015f20549050919050565b5f815f5f3373ffffffffffffffffffffffffffffffffffffffff1673ffffffffffffffffffffffffffffffffffffffff1681526020019081526020015f20541015610552576040517f08c379a0000000000000000000000000000000000000000000000000000000008152600401610549906109f0565b60405180910390fd5b815f5f3373ffffffffffffffffffffffffffffffffffffffff1673ffffffffffffffffffffffffffffffffffffffff1681526020019081526020015f205f82825461059d9190610940565b92505081905550815f5f8573ffffffffffffffffffffffffffffffffffffffff1673ffffffffffffffffffffffffffffffffffffffff1681526020019081526020015f205f8282546105ef9190610973565b925050819055506001905092915050565b5f5ffd5b5f73ffffffffffffffffffffffffffffffffffffffff82169050919050565b5f61062d82610604565b9050919050565b61063d81610623565b8114610647575f5ffd5b50565b5f8135905061065881610634565b92915050565b5f819050919050565b6106708161065e565b811461067a575f5ffd5b50565b5f8135905061068b81610667565b92915050565b5f5f604083850312156106a7576106a6610600565b5b5f6106b48582860161064a565b92505060206106c58582860161067d565b9150509250929050565b5f8115159050919050565b6106e3816106cf565b82525050565b5f6020820190506106fc5f8301846106da565b92915050565b5f5f5f6060848603121561071957610718610600565b5b5f6107268682870161064a565b93505060206107378682870161064a565b92505060406107488682870161067d565b9150509250925092565b5f6020828403121561076757610766610600565b5b5f6107748482850161064a565b91505092915050565b6107868161065e565b82525050565b5f60208201905061079f5f83018461077d565b92915050565b5f82825260208201905092915050565b7f5b617070726f76655d696e737566666369656e7420616d6f756e7400000000005f82015250565b5f6107e9601b836107a5565b91506107f4826107b5565b602082019050919050565b5f6020820190508181035f830152610816816107dd565b9050919050565b7f5b7472616e7366657246726f6d5d696e737566666369656e7420616c6c6f77655f8201527f6e63650000000000000000000000000000000000000000000000000000000000602082015250565b5f6108776023836107a5565b91506108828261081d565b604082019050919050565b5f6020820190508181035f8301526108a48161086b565b9050919050565b7f5b7472616e7366657246726f6d5d696e737566666369656e7420616d6f756e745f82015250565b5f6108df6020836107a5565b91506108ea826108ab565b602082019050919050565b5f6020820190508181035f83015261090c816108d3565b9050919050565b7f4e487b71000000000000000000000000000000000000000000000000000000005f52601160045260245ffd5b5f61094a8261065e565b91506109558361065e565b925082820390508181111561096d5761096c610913565b5b92915050565b5f61097d8261065e565b91506109888361065e565b92508282019050808211156109a05761099f610913565b5b92915050565b7f5b7472616e736665725d696e737566666369656e7420616d6f756e74000000005f82015250565b5f6109da601c836107a5565b91506109e5826109a6565b602082019050919050565b5f6020820190508181035f830152610a07816109ce565b905091905056fea26469706673582212208c3e20b1fc6e48a48eda9662eb5399be34a36f17469d3cb82d61c4497cc8ba7964736f6c634300081e0033",
					"opcodes": "PUSH1 0x80 PUSH1 0x40 MSTORE CALLVALUE DUP1 ISZERO PUSH1 0xE JUMPI PUSH0 PUSH0 REVERT JUMPDEST POP PUSH11 0x84595161401484A000000 PUSH0 PUSH0 CALLER PUSH20 0xFFFFFFFFFFFFFFFFFFFFFFFFFFFFFFFFFFFFFFFF AND PUSH20 0xFFFFFFFFFFFFFFFFFFFFFFFFFFFFFFFFFFFFFFFF AND DUP2 MSTORE PUSH1 0x20 ADD SWAP1 DUP2 MSTORE PUSH1 0x20 ADD PUSH0 KECCAK256 DUP2 SWAP1 SSTORE POP PUSH2 0xA44 DUP1 PUSH2 0x68 PUSH0 CODECOPY PUSH0 RETURN INVALID PUSH1 0x80 PUSH1 0x40 MSTORE CALLVALUE DUP1 ISZERO PUSH2 0xF JUMPI PUSH0 PUSH0 REVERT JUMPDEST POP PUSH1 0x4 CALLDATASIZE LT PUSH2 0x4A JUMPI PUSH0 CALLDATALOAD PUSH1 0xE0 SHR DUP1 PUSH4 0x95EA7B3 EQ PUSH2 0x4E JUMPI DUP1 PUSH4 0x23B872DD EQ PUSH2 0x7E JUMPI DUP1 PUSH4 0x70A08231 EQ PUSH2 0xAE JUMPI DUP1 PUSH4 0xA9059CBB EQ PUSH2 0xDE JUMPI JUMPDEST PUSH0 PUSH0 REVERT JUMPDEST PUSH2 0x68 PUSH1 0x4 DUP1 CALLDATASIZE SUB DUP2 ADD SWAP1 PUSH2 0x63 SWAP2 SWAP1 PUSH2 0x691 JUMP JUMPDEST PUSH2 0x10E JUMP JUMPDEST PUSH1 0x40 MLOAD PUSH2 0x75 SWAP2 SWAP1 PUSH2 0x6E9 JUMP JUMPDEST PUSH1 0x40 MLOAD DUP1 SWAP2 SUB SWAP1 RETURN JUMPDEST PUSH2 0x98 PUSH1 0x4 DUP1 CALLDATASIZE SUB DUP2 ADD SWAP1 PUSH2 0x93 SWAP2 SWAP1 PUSH2 0x702 JUMP JUMPDEST PUSH2 0x215 JUMP JUMPDEST PUSH1 0x40 MLOAD PUSH2 0xA5 SWAP2 SWAP1 PUSH2 0x6E9 JUMP JUMPDEST PUSH1 0x40 MLOAD DUP1 SWAP2 SUB SWAP1 RETURN JUMPDEST PUSH2 0xC8 PUSH1 0x4 DUP1 CALLDATASIZE SUB DUP2 ADD SWAP1 PUSH2 0xC3 SWAP2 SWAP1 PUSH2 0x752 JUMP JUMPDEST PUSH2 0x48D JUMP JUMPDEST PUSH1 0x40 MLOAD PUSH2 0xD5 SWAP2 SWAP1 PUSH2 0x78C JUMP JUMPDEST PUSH1 0x40 MLOAD DUP1 SWAP2 SUB SWAP1 RETURN JUMPDEST PUSH2 0xF8 PUSH1 0x4 DUP1 CALLDATASIZE SUB DUP2 ADD SWAP1 PUSH2 0xF3 SWAP2 SWAP1 PUSH2 0x691 JUMP JUMPDEST PUSH2 0x4D2 JUMP JUMPDEST PUSH1 0x40 MLOAD PUSH2 0x105 SWAP2 SWAP1 PUSH2 0x6E9 JUMP JUMPDEST PUSH1 0x40 MLOAD DUP1 SWAP2 SUB SWAP1 RETURN JUMPDEST PUSH0 DUP2 PUSH0 PUSH0 CALLER PUSH20 0xFFFFFFFFFFFFFFFFFFFFFFFFFFFFFFFFFFFFFFFF AND PUSH20 0xFFFFFFFFFFFFFFFFFFFFFFFFFFFFFFFFFFFFFFFF AND DUP2 MSTORE PUSH1 0x20 ADD SWAP1 DUP2 MSTORE PUSH1 0x20 ADD PUSH0 KECCAK256 SLOAD LT ISZERO PUSH2 0x18E JUMPI PUSH1 0x40 MLOAD PUSH32 0x8C379A000000000000000000000000000000000000000000000000000000000 DUP2 MSTORE PUSH1 0x4 ADD PUSH2 0x185 SWAP1 PUSH2 0x7FF JUMP JUMPDEST PUSH1 0x40 MLOAD DUP1 SWAP2 SUB SWAP1 REVERT JUMPDEST DUP2 PUSH1 0x1 PUSH0 CALLER PUSH20 0xFFFFFFFFFFFFFFFFFFFFFFFFFFFFFFFFFFFFFFFF AND PUSH20 0xFFFFFFFFFFFFFFFFFFFFFFFFFFFFFFFFFFFFFFFF AND DUP2 MSTORE PUSH1 0x20 ADD SWAP1 DUP2 MSTORE PUSH1 0x20 ADD PUSH0 KECCAK256 PUSH0 DUP6 PUSH20 0xFFFFFFFFFFFFFFFFFFFFFFFFFFFFFFFFFFFFFFFF AND PUSH20 0xFFFFFFFFFFFFFFFFFFFFFFFFFFFFFFFFFFFFFFFF AND DUP2 MSTORE PUSH1 0x20 ADD SWAP1 DUP2 MSTORE PUSH1 0x20 ADD PUSH0 KECCAK256 DUP2 SWAP1 SSTORE POP PUSH1 0x1 SWAP1 POP SWAP3 SWAP2 POP POP JUMP JUMPDEST PUSH0 DUP2 PUSH1 0x1 PUSH0 DUP7 PUSH20 0xFFFFFFFFFFFFFFFFFFFFFFFFFFFFFFFFFFFFFFFF AND PUSH20 0xFFFFFFFFFFFFFFFFFFFFFFFFFFFFFFFFFFFFFFFF AND DUP2 MSTORE PUSH1 0x20 ADD SWAP1 DUP2 MSTORE PUSH1 0x20 ADD PUSH0 KECCAK256 PUSH0 CALLER PUSH20 0xFFFFFFFFFFFFFFFFFFFFFFFFFFFFFFFFFFFFFFFF AND PUSH20 0xFFFFFFFFFFFFFFFFFFFFFFFFFFFFFFFFFFFFFFFF AND DUP2 MSTORE PUSH1 0x20 ADD SWAP1 DUP2 MSTORE PUSH1 0x20 ADD PUSH0 KECCAK256 SLOAD LT ISZERO PUSH2 0x2D1 JUMPI PUSH1 0x40 MLOAD PUSH32 0x8C379A000000000000000000000000000000000000000000000000000000000 DUP2 MSTORE PUSH1 0x4 ADD PUSH2 0x2C8 SWAP1 PUSH2 0x88D JUMP JUMPDEST PUSH1 0x40 MLOAD DUP1 SWAP2 SUB SWAP1 REVERT JUMPDEST DUP2 PUSH0 PUSH0 DUP7 PUSH20 0xFFFFFFFFFFFFFFFFFFFFFFFFFFFFFFFFFFFFFFFF AND PUSH20 0xFFFFFFFFFFFFFFFFFFFFFFFFFFFFFFFFFFFFFFFF AND DUP2 MSTORE PUSH1 0x20 ADD SWAP1 DUP2 MSTORE PUSH1 0x20 ADD PUSH0 KECCAK256 SLOAD LT ISZERO PUSH2 0x350 JUMPI PUSH1 0x40 MLOAD PUSH32 0x8C379A000000000000000000000000000000000000000000000000000000000 DUP2 MSTORE PUSH1 0x4 ADD PUSH2 0x347 SWAP1 PUSH2 0x8F5 JUMP JUMPDEST PUSH1 0x40 MLOAD DUP1 SWAP2 SUB SWAP1 REVERT JUMPDEST DUP2 PUSH1 0x1 PUSH0 DUP7 PUSH20 0xFFFFFFFFFFFFFFFFFFFFFFFFFFFFFFFFFFFFFFFF AND PUSH20 0xFFFFFFFFFFFFFFFFFFFFFFFFFFFFFFFFFFFFFFFF AND DUP2 MSTORE PUSH1 0x20 ADD SWAP1 DUP2 MSTORE PUSH1 0x20 ADD PUSH0 KECCAK256 PUSH0 CALLER PUSH20 0xFFFFFFFFFFFFFFFFFFFFFFFFFFFFFFFFFFFFFFFF AND PUSH20 0xFFFFFFFFFFFFFFFFFFFFFFFFFFFFFFFFFFFFFFFF AND DUP2 MSTORE PUSH1 0x20 ADD SWAP1 DUP2 MSTORE PUSH1 0x20 ADD PUSH0 KECCAK256 PUSH0 DUP3 DUP3 SLOAD PUSH2 0x3D7 SWAP2 SWAP1 PUSH2 0x940 JUMP JUMPDEST SWAP3 POP POP DUP2 SWAP1 SSTORE POP DUP2 PUSH0 PUSH0 DUP7 PUSH20 0xFFFFFFFFFFFFFFFFFFFFFFFFFFFFFFFFFFFFFFFF AND PUSH20 0xFFFFFFFFFFFFFFFFFFFFFFFFFFFFFFFFFFFFFFFF AND DUP2 MSTORE PUSH1 0x20 ADD SWAP1 DUP2 MSTORE PUSH1 0x20 ADD PUSH0 KECCAK256 PUSH0 DUP3 DUP3 SLOAD PUSH2 0x429 SWAP2 SWAP1 PUSH2 0x940 JUMP JUMPDEST SWAP3 POP POP DUP2 SWAP1 SSTORE POP DUP2 PUSH0 PUSH0 DUP6 PUSH20 0xFFFFFFFFFFFFFFFFFFFFFFFFFFFFFFFFFFFFFFFF AND PUSH20 0xFFFFFFFFFFFFFFFFFFFFFFFFFFFFFFFFFFFFFFFF AND DUP2 MSTORE PUSH1 0x20 ADD SWAP1 DUP2 MSTORE PUSH1 0x20 ADD PUSH0 KECCAK256 PUSH0 DUP3 DUP3 SLOAD PUSH2 0x47B SWAP2 SWAP1 PUSH2 0x973 JUMP JUMPDEST SWAP3 POP POP DUP2 SWAP1 SSTORE POP PUSH1 0x1 SWAP1 POP SWAP4 SWAP3 POP POP POP JUMP JUMPDEST PUSH0 PUSH0 PUSH0 DUP4 PUSH20 0xFFFFFFFFFFFFFFFFFFFFFFFFFFFFFFFFFFFFFFFF AND PUSH20 0xFFFFFFFFFFFFFFFFFFFFFFFFFFFFFFFFFFFFFFFF AND DUP2 MSTORE PUSH1 0x20 ADD SWAP1 DUP2 MSTORE PUSH1 0x20 ADD PUSH0 KECCAK256 SLOAD SWAP1 POP SWAP2 SWAP1 POP JUMP JUMPDEST PUSH0 DUP2 PUSH0 PUSH0 CALLER PUSH20 0xFFFFFFFFFFFFFFFFFFFFFFFFFFFFFFFFFFFFFFFF AND PUSH20 0xFFFFFFFFFFFFFFFFFFFFFFFFFFFFFFFFFFFFFFFF AND DUP2 MSTORE PUSH1 0x20 ADD SWAP1 DUP2 MSTORE PUSH1 0x20 ADD PUSH0 KECCAK256 SLOAD LT ISZERO PUSH2 0x552 JUMPI PUSH1 0x40 MLOAD PUSH32 0x8C379A000000000000000000000000000000000000000000000000000000000 DUP2 MSTORE PUSH1 0x4 ADD PUSH2 0x549 SWAP1 PUSH2 0x9F0 JUMP JUMPDEST PUSH1 0x40 MLOAD DUP1 SWAP2 SUB SWAP1 REVERT JUMPDEST DUP2 PUSH0 PUSH0 CALLER PUSH20 0xFFFFFFFFFFFFFFFFFFFFFFFFFFFFFFFFFFFFFFFF AND PUSH20 0xFFFFFFFFFFFFFFFFFFFFFFFFFFFFFFFFFFFFFFFF AND DUP2 MSTORE PUSH1 0x20 ADD SWAP1 DUP2 MSTORE PUSH1 0x20 ADD PUSH0 KECCAK256 PUSH0 DUP3 DUP3 SLOAD PUSH2 0x59D SWAP2 SWAP1 PUSH2 0x940 JUMP JUMPDEST SWAP3 POP POP DUP2 SWAP1 SSTORE POP DUP2 PUSH0 PUSH0 DUP6 PUSH20 0xFFFFFFFFFFFFFFFFFFFFFFFFFFFFFFFFFFFFFFFF AND PUSH20 0xFFFFFFFFFFFFFFFFFFFFFFFFFFFFFFFFFFFFFFFF AND DUP2 MSTORE PUSH1 0x20 ADD SWAP1 DUP2 MSTORE PUSH1 0x20 ADD PUSH0 KECCAK256 PUSH0 DUP3 DUP3 SLOAD PUSH2 0x5EF SWAP2 SWAP1 PUSH2 0x973 JUMP JUMPDEST SWAP3 POP POP DUP2 SWAP1 SSTORE POP PUSH1 0x1 SWAP1 POP SWAP3 SWAP2 POP POP JUMP JUMPDEST PUSH0 PUSH0 REVERT JUMPDEST PUSH0 PUSH20 0xFFFFFFFFFFFFFFFFFFFFFFFFFFFFFFFFFFFFFFFF DUP3 AND SWAP1 POP SWAP2 SWAP1 POP JUMP JUMPDEST PUSH0 PUSH2 0x62D DUP3 PUSH2 0x604 JUMP JUMPDEST SWAP1 POP SWAP2 SWAP1 POP JUMP JUMPDEST PUSH2 0x63D DUP2 PUSH2 0x623 JUMP JUMPDEST DUP2 EQ PUSH2 0x647 JUMPI PUSH0 PUSH0 REVERT JUMPDEST POP JUMP JUMPDEST PUSH0 DUP2 CALLDATALOAD SWAP1 POP PUSH2 0x658 DUP2 PUSH2 0x634 JUMP JUMPDEST SWAP3 SWAP2 POP POP JUMP JUMPDEST PUSH0 DUP2 SWAP1 POP SWAP2 SWAP1 POP JUMP JUMPDEST PUSH2 0x670 DUP2 PUSH2 0x65E JUMP JUMPDEST DUP2 EQ PUSH2 0x67A JUMPI PUSH0 PUSH0 REVERT JUMPDEST POP JUMP JUMPDEST PUSH0 DUP2 CALLDATALOAD SWAP1 POP PUSH2 0x68B DUP2 PUSH2 0x667 JUMP JUMPDEST SWAP3 SWAP2 POP POP JUMP JUMPDEST PUSH0 PUSH0 PUSH1 0x40 DUP4 DUP6 SUB SLT ISZERO PUSH2 0x6A7 JUMPI PUSH2 0x6A6 PUSH2 0x600 JUMP JUMPDEST JUMPDEST PUSH0 PUSH2 0x6B4 DUP6 DUP3 DUP7 ADD PUSH2 0x64A JUMP JUMPDEST SWAP3 POP POP PUSH1 0x20 PUSH2 0x6C5 DUP6 DUP3 DUP7 ADD PUSH2 0x67D JUMP JUMPDEST SWAP2 POP POP SWAP3 POP SWAP3 SWAP1 POP JUMP JUMPDEST PUSH0 DUP2 ISZERO ISZERO SWAP1 POP SWAP2 SWAP1 POP JUMP JUMPDEST PUSH2 0x6E3 DUP2 PUSH2 0x6CF JUMP JUMPDEST DUP3 MSTORE POP POP JUMP JUMPDEST PUSH0 PUSH1 0x20 DUP3 ADD SWAP1 POP PUSH2 0x6FC PUSH0 DUP4 ADD DUP5 PUSH2 0x6DA JUMP JUMPDEST SWAP3 SWAP2 POP POP JUMP JUMPDEST PUSH0 PUSH0 PUSH0 PUSH1 0x60 DUP5 DUP7 SUB SLT ISZERO PUSH2 0x719 JUMPI PUSH2 0x718 PUSH2 0x600 JUMP JUMPDEST JUMPDEST PUSH0 PUSH2 0x726 DUP7 DUP3 DUP8 ADD PUSH2 0x64A JUMP JUMPDEST SWAP4 POP POP PUSH1 0x20 PUSH2 0x737 DUP7 DUP3 DUP8 ADD PUSH2 0x64A JUMP JUMPDEST SWAP3 POP POP PUSH1 0x40 PUSH2 0x748 DUP7 DUP3 DUP8 ADD PUSH2 0x67D JUMP JUMPDEST SWAP2 POP POP SWAP3 POP SWAP3 POP SWAP3 JUMP JUMPDEST PUSH0 PUSH1 0x20 DUP3 DUP5 SUB SLT ISZERO PUSH2 0x767 JUMPI PUSH2 0x766 PUSH2 0x600 JUMP JUMPDEST JUMPDEST PUSH0 PUSH2 0x774 DUP5 DUP3 DUP6 ADD PUSH2 0x64A JUMP JUMPDEST SWAP2 POP POP SWAP3 SWAP2 POP POP JUMP JUMPDEST PUSH2 0x786 DUP2 PUSH2 0x65E JUMP JUMPDEST DUP3 MSTORE POP POP JUMP JUMPDEST PUSH0 PUSH1 0x20 DUP3 ADD SWAP1 POP PUSH2 0x79F PUSH0 DUP4 ADD DUP5 PUSH2 0x77D JUMP JUMPDEST SWAP3 SWAP2 POP POP JUMP JUMPDEST PUSH0 DUP3 DUP3 MSTORE PUSH1 0x20 DUP3 ADD SWAP1 POP SWAP3 SWAP2 POP POP JUMP JUMPDEST PUSH32 0x5B617070726F76655D696E737566666369656E7420616D6F756E740000000000 PUSH0 DUP3 ADD MSTORE POP JUMP JUMPDEST PUSH0 PUSH2 0x7E9 PUSH1 0x1B DUP4 PUSH2 0x7A5 JUMP JUMPDEST SWAP2 POP PUSH2 0x7F4 DUP3 PUSH2 0x7B5 JUMP JUMPDEST PUSH1 0x20 DUP3 ADD SWAP1 POP SWAP2 SWAP1 POP JUMP JUMPDEST PUSH0 PUSH1 0x20 DUP3 ADD SWAP1 POP DUP2 DUP2 SUB PUSH0 DUP4 ADD MSTORE PUSH2 0x816 DUP2 PUSH2 0x7DD JUMP JUMPDEST SWAP1 POP SWAP2 SWAP1 POP JUMP JUMPDEST PUSH32 0x5B7472616E7366657246726F6D5D696E737566666369656E7420616C6C6F7765 PUSH0 DUP3 ADD MSTORE PUSH32 0x6E63650000000000000000000000000000000000000000000000000000000000 PUSH1 0x20 DUP3 ADD MSTORE POP JUMP JUMPDEST PUSH0 PUSH2 0x877 PUSH1 0x23 DUP4 PUSH2 0x7A5 JUMP JUMPDEST SWAP2 POP PUSH2 0x882 DUP3 PUSH2 0x81D JUMP JUMPDEST PUSH1 0x40 DUP3 ADD SWAP1 POP SWAP2 SWAP1 POP JUMP JUMPDEST PUSH0 PUSH1 0x20 DUP3 ADD SWAP1 POP DUP2 DUP2 SUB PUSH0 DUP4 ADD MSTORE PUSH2 0x8A4 DUP2 PUSH2 0x86B JUMP JUMPDEST SWAP1 POP SWAP2 SWAP1 POP JUMP JUMPDEST PUSH32 0x5B7472616E7366657246726F6D5D696E737566666369656E7420616D6F756E74 PUSH0 DUP3 ADD MSTORE POP JUMP JUMPDEST PUSH0 PUSH2 0x8DF PUSH1 0x20 DUP4 PUSH2 0x7A5 JUMP JUMPDEST SWAP2 POP PUSH2 0x8EA DUP3 PUSH2 0x8AB JUMP JUMPDEST PUSH1 0x20 DUP3 ADD SWAP1 POP SWAP2 SWAP1 POP JUMP JUMPDEST PUSH0 PUSH1 0x20 DUP3 ADD SWAP1 POP DUP2 DUP2 SUB PUSH0 DUP4 ADD MSTORE PUSH2 0x90C DUP2 PUSH2 0x8D3 JUMP JUMPDEST SWAP1 POP SWAP2 SWAP1 POP JUMP JUMPDEST PUSH32 0x4E487B7100000000000000000000000000000000000000000000000000000000 PUSH0 MSTORE PUSH1 0x11 PUSH1 0x4 MSTORE PUSH1 0x24 PUSH0 REVERT JUMPDEST PUSH0 PUSH2 0x94A DUP3 PUSH2 0x65E JUMP JUMPDEST SWAP2 POP PUSH2 0x955 DUP4 PUSH2 0x65E JUMP JUMPDEST SWAP3 POP DUP3 DUP3 SUB SWAP1 POP DUP2 DUP2 GT ISZERO PUSH2 0x96D JUMPI PUSH2 0x96C PUSH2 0x913 JUMP JUMPDEST JUMPDEST SWAP3 SWAP2 POP POP JUMP JUMPDEST PUSH0 PUSH2 0x97D DUP3 PUSH2 0x65E JUMP JUMPDEST SWAP2 POP PUSH2 0x988 DUP4 PUSH2 0x65E JUMP JUMPDEST SWAP3 POP DUP3 DUP3 ADD SWAP1 POP DUP1 DUP3 GT ISZERO PUSH2 0x9A0 JUMPI PUSH2 0x99F PUSH2 0x913 JUMP JUMPDEST JUMPDEST SWAP3 SWAP2 POP POP JUMP JUMPDEST PUSH32 0x5B7472616E736665725D696E737566666369656E7420616D6F756E7400000000 PUSH0 DUP3 ADD MSTORE POP JUMP JUMPDEST PUSH0 PUSH2 0x9DA PUSH1 0x1C DUP4 PUSH2 0x7A5 JUMP JUMPDEST SWAP2 POP PUSH2 0x9E5 DUP3 PUSH2 0x9A6 JUMP JUMPDEST PUSH1 0x20 DUP3 ADD SWAP1 POP SWAP2 SWAP1 POP JUMP JUMPDEST PUSH0 PUSH1 0x20 DUP3 ADD SWAP1 POP DUP2 DUP2 SUB PUSH0 DUP4 ADD MSTORE PUSH2 0xA07 DUP2 PUSH2 0x9CE JUMP JUMPDEST SWAP1 POP SWAP2 SWAP1 POP JUMP INVALID LOG2 PUSH5 0x6970667358 0x22 SLT KECCAK256 DUP13 RETURNDATACOPY KECCAK256 0xB1 0xFC PUSH15 0x48A48EDA9662EB5399BE34A36F1746 SWAP14 EXTCODECOPY 0xB8 0x2D PUSH2 0xC449 PUSH29 0xC8BA7964736F6C634300081E0033000000000000000000000000000000 "
				},
				"gasEstimates": {
					"creation": {
						"codeDepositCost": "525600",
						"executionCost": "22760",
						"totalCost": "548360"
					},
					"external": {
						"approve(address,uint256)": "25296",
						"balanceOf(address)": "2850",
						"transfer(address,uint256)": "infinite",
						"transferFrom(address,address,uint256)": "infinite"
					}
				},
				"methodIdentifiers": {
					"approve(address,uint256)": "095ea7b3",
					"balanceOf(address)": "70a08231",
					"transfer(address,uint256)": "a9059cbb",
					"transferFrom(address,address,uint256)": "23b872dd"
				}
			},
			"storageLayout": {
				"storage": [
					{
						"astId": 44,
						"contract": "8.1SimpleToken.sol:SimpleToken",
						"label": "_balances",
						"offset": 0,
						"slot": "0",
						"type": "t_mapping(t_address,t_uint256)"
					},
					{
						"astId": 50,
						"contract": "8.1SimpleToken.sol:SimpleToken",
						"label": "_allowences",
						"offset": 0,
						"slot": "1",
						"type": "t_mapping(t_address,t_mapping(t_address,t_uint256))"
					}
				],
				"types": {
					"t_address": {
						"encoding": "inplace",
						"label": "address",
						"numberOfBytes": "20"
					},
					"t_mapping(t_address,t_mapping(t_address,t_uint256))": {
						"encoding": "mapping",
						"key": "t_address",
						"label": "mapping(address => mapping(address => uint256))",
						"numberOfBytes": "32",
						"value": "t_mapping(t_address,t_uint256)"
					},
					"t_mapping(t_address,t_uint256)": {
						"encoding": "mapping",
						"key": "t_address",
						"label": "mapping(address => uint256)",
						"numberOfBytes": "32",
						"value": "t_uint256"
					},
					"t_uint256": {
						"encoding": "inplace",
						"label": "uint256",
						"numberOfBytes": "32"
					}
				}
			},
			"userdoc": {
				"kind": "user",
				"methods": {},
				"version": 1
			}
		}
	}
}