{
	"homework01/RomanNumerals.sol": {
		"RomanNumerals": {
			"abi": [
				{
					"inputs": [
						{
							"internalType": "uint256",
							"name": "num",
							"type": "uint256"
						}
					],
					"name": "intToRoman",
					"outputs": [
						{
							"internalType": "string",
							"name": "",
							"type": "string"
						}
					],
					"stateMutability": "pure",
					"type": "function"
				},
				{
					"inputs": [
						{
							"internalType": "string",
							"name": "s",
							"type": "string"
						}
					],
					"name": "romanToInt",
					"outputs": [
						{
							"internalType": "uint256",
							"name": "",
							"type": "uint256"
						}
					],
					"stateMutability": "pure",
					"type": "function"
				}
			],
			"devdoc": {
				"kind": "dev",
				"methods": {},
				"version": 1
			},
			"evm": {
				"assembly": "    /* \"homework01/RomanNumerals.sol\":57:1964  contract RomanNumerals {... */\n  mstore(0x40, 0x80)\n  callvalue\n  dup1\n  iszero\n  tag_1\n  jumpi\n  revert(0x00, 0x00)\ntag_1:\n  pop\n  dataSize(sub_0)\n  dup1\n  dataOffset(sub_0)\n  0x00\n  codecopy\n  0x00\n  return\nstop\n\nsub_0: assembly {\n        /* \"homework01/RomanNumerals.sol\":57:1964  contract RomanNumerals {... */\n      mstore(0x40, 0x80)\n      callvalue\n      dup1\n      iszero\n      tag_1\n      jumpi\n      revert(0x00, 0x00)\n    tag_1:\n      pop\n      jumpi(tag_2, lt(calldatasize, 0x04))\n      shr(0xe0, calldataload(0x00))\n      dup1\n      0x0cbc513a\n      eq\n      tag_3\n      jumpi\n      dup1\n      0xcb159dfe\n      eq\n      tag_4\n      jumpi\n    tag_2:\n      revert(0x00, 0x00)\n        /* \"homework01/RomanNumerals.sol\":121:858  function intToRoman(uint256 num) public pure returns (string memory) {... */\n    tag_3:\n      tag_5\n      0x04\n      dup1\n      calldatasize\n      sub\n      dup2\n      add\n      swap1\n      tag_6\n      swap2\n      swap1\n      tag_7\n      jump\t// in\n    tag_6:\n      tag_8\n      jump\t// in\n    tag_5:\n      mload(0x40)\n      tag_9\n      swap2\n      swap1\n      tag_10\n      jump\t// in\n    tag_9:\n      mload(0x40)\n      dup1\n      swap2\n      sub\n      swap1\n      return\n        /* \"homework01/RomanNumerals.sol\":898:1572  function romanToInt(string memory s) public pure returns (uint256) {... */\n    tag_4:\n      tag_11\n      0x04\n      dup1\n      calldatasize\n      sub\n      dup2\n      add\n      swap1\n      tag_12\n      swap2\n      swap1\n      tag_13\n      jump\t// in\n    tag_12:\n      tag_14\n      jump\t// in\n    tag_11:\n      mload(0x40)\n      tag_15\n      swap2\n      swap1\n      tag_16\n      jump\t// in\n    tag_15:\n      mload(0x40)\n      dup1\n      swap2\n      sub\n      swap1\n      return\n        /* \"homework01/RomanNumerals.sol\":121:858  function intToRoman(uint256 num) public pure returns (string memory) {... */\n    tag_8:\n        /* \"homework01/RomanNumerals.sol\":175:188  string memory */\n      0x60\n        /* \"homework01/RomanNumerals.sol\":214:215  0 */\n      0x00\n        /* \"homework01/RomanNumerals.sol\":208:211  num */\n      dup3\n        /* \"homework01/RomanNumerals.sol\":208:215  num > 0 */\n      gt\n        /* \"homework01/RomanNumerals.sol\":208:229  num > 0 && num < 4000 */\n      dup1\n      iszero\n      tag_18\n      jumpi\n      pop\n        /* \"homework01/RomanNumerals.sol\":225:229  4000 */\n      0x0fa0\n        /* \"homework01/RomanNumerals.sol\":219:222  num */\n      dup3\n        /* \"homework01/RomanNumerals.sol\":219:229  num < 4000 */\n      lt\n        /* \"homework01/RomanNumerals.sol\":208:229  num > 0 && num < 4000 */\n    tag_18:\n        /* \"homework01/RomanNumerals.sol\":200:246  require(num > 0 && num < 4000, \"out of range\") */\n      tag_19\n      jumpi\n      mload(0x40)\n      0x08c379a000000000000000000000000000000000000000000000000000000000\n      dup2\n      mstore\n      0x04\n      add\n      tag_20\n      swap1\n      tag_21\n      jump\t// in\n    tag_20:\n      mload(0x40)\n      dup1\n      swap2\n      sub\n      swap1\n      revert\n    tag_19:\n        /* \"homework01/RomanNumerals.sol\":257:282  uint256[13] memory values */\n      0x00\n        /* \"homework01/RomanNumerals.sol\":257:406  uint256[13] memory values = [... */\n      mload(0x40)\n      dup1\n      0x01a0\n      add\n      0x40\n      mstore\n      dup1\n        /* \"homework01/RomanNumerals.sol\":307:311  1000 */\n      0x03e8\n        /* \"homework01/RomanNumerals.sol\":257:406  uint256[13] memory values = [... */\n      dup2\n      mstore\n      0x20\n      add\n        /* \"homework01/RomanNumerals.sol\":314:317  900 */\n      0x0384\n        /* \"homework01/RomanNumerals.sol\":257:406  uint256[13] memory values = [... */\n      dup2\n      mstore\n      0x20\n      add\n        /* \"homework01/RomanNumerals.sol\":319:322  500 */\n      0x01f4\n        /* \"homework01/RomanNumerals.sol\":257:406  uint256[13] memory values = [... */\n      dup2\n      mstore\n      0x20\n      add\n        /* \"homework01/RomanNumerals.sol\":324:327  400 */\n      0x0190\n        /* \"homework01/RomanNumerals.sol\":257:406  uint256[13] memory values = [... */\n      dup2\n      mstore\n      0x20\n      add\n        /* \"homework01/RomanNumerals.sol\":341:344  100 */\n      0x64\n        /* \"homework01/RomanNumerals.sol\":257:406  uint256[13] memory values = [... */\n      dup2\n      mstore\n      0x20\n      add\n        /* \"homework01/RomanNumerals.sol\":346:348  90 */\n      0x5a\n        /* \"homework01/RomanNumerals.sol\":257:406  uint256[13] memory values = [... */\n      dup2\n      mstore\n      0x20\n      add\n        /* \"homework01/RomanNumerals.sol\":350:352  50 */\n      0x32\n        /* \"homework01/RomanNumerals.sol\":257:406  uint256[13] memory values = [... */\n      dup2\n      mstore\n      0x20\n      add\n        /* \"homework01/RomanNumerals.sol\":354:356  40 */\n      0x28\n        /* \"homework01/RomanNumerals.sol\":257:406  uint256[13] memory values = [... */\n      dup2\n      mstore\n      0x20\n      add\n        /* \"homework01/RomanNumerals.sol\":370:372  10 */\n      0x0a\n        /* \"homework01/RomanNumerals.sol\":257:406  uint256[13] memory values = [... */\n      dup2\n      mstore\n      0x20\n      add\n        /* \"homework01/RomanNumerals.sol\":374:375  9 */\n      0x09\n        /* \"homework01/RomanNumerals.sol\":257:406  uint256[13] memory values = [... */\n      dup2\n      mstore\n      0x20\n      add\n        /* \"homework01/RomanNumerals.sol\":377:378  5 */\n      0x05\n        /* \"homework01/RomanNumerals.sol\":257:406  uint256[13] memory values = [... */\n      dup2\n      mstore\n      0x20\n      add\n        /* \"homework01/RomanNumerals.sol\":380:381  4 */\n      0x04\n        /* \"homework01/RomanNumerals.sol\":257:406  uint256[13] memory values = [... */\n      dup2\n      mstore\n      0x20\n      add\n        /* \"homework01/RomanNumerals.sol\":395:396  1 */\n      0x01\n        /* \"homework01/RomanNumerals.sol\":257:406  uint256[13] memory values = [... */\n      dup2\n      mstore\n      pop\n      swap1\n      pop\n        /* \"homework01/RomanNumerals.sol\":417:442  string[13] memory symbols */\n      0x00\n        /* \"homework01/RomanNumerals.sol\":417:574  string[13] memory symbols = [... */\n      mload(0x40)\n      dup1\n      0x01a0\n      add\n      0x40\n      mstore\n      dup1\n      mload(0x40)\n      dup1\n      0x40\n      add\n      0x40\n      mstore\n      dup1\n      0x01\n      dup2\n      mstore\n      0x20\n      add\n      0x4d00000000000000000000000000000000000000000000000000000000000000\n      dup2\n      mstore\n      pop\n      dup2\n      mstore\n      0x20\n      add\n      mload(0x40)\n      dup1\n      0x40\n      add\n      0x40\n      mstore\n      dup1\n      0x02\n      dup2\n      mstore\n      0x20\n      add\n      0x434d000000000000000000000000000000000000000000000000000000000000\n      dup2\n      mstore\n      pop\n      dup2\n      mstore\n      0x20\n      add\n      mload(0x40)\n      dup1\n      0x40\n      add\n      0x40\n      mstore\n      dup1\n      0x01\n      dup2\n      mstore\n      0x20\n      add\n      0x4400000000000000000000000000000000000000000000000000000000000000\n      dup2\n      mstore\n      pop\n      dup2\n      mstore\n      0x20\n      add\n      mload(0x40)\n      dup1\n      0x40\n      add\n      0x40\n      mstore\n      dup1\n      0x02\n      dup2\n      mstore\n      0x20\n      add\n      0x4344000000000000000000000000000000000000000000000000000000000000\n      dup2\n      mstore\n      pop\n      dup2\n      mstore\n      0x20\n      add\n      mload(0x40)\n      dup1\n      0x40\n      add\n      0x40\n      mstore\n      dup1\n      0x01\n      dup2\n      mstore\n      0x20\n      add\n      0x4300000000000000000000000000000000000000000000000000000000000000\n      dup2\n      mstore\n      pop\n      dup2\n      mstore\n      0x20\n      add\n      mload(0x40)\n      dup1\n      0x40\n      add\n      0x40\n      mstore\n      dup1\n      0x02\n      dup2\n      mstore\n      0x20\n      add\n      0x5843000000000000000000000000000000000000000000000000000000000000\n      dup2\n      mstore\n      pop\n      dup2\n      mstore\n      0x20\n      add\n      mload(0x40)\n      dup1\n      0x40\n      add\n      0x40\n      mstore\n      dup1\n      0x01\n      dup2\n      mstore\n      0x20\n      add\n      0x4c00000000000000000000000000000000000000000000000000000000000000\n      dup2\n      mstore\n      pop\n      dup2\n      mstore\n      0x20\n      add\n      mload(0x40)\n      dup1\n      0x40\n      add\n      0x40\n      mstore\n      dup1\n      0x02\n      dup2\n      mstore\n      0x20\n      add\n      0x584c000000000000000000000000000000000000000000000000000000000000\n      dup2\n      mstore\n      pop\n      dup2\n      mstore\n      0x20\n      add\n      mload(0x40)\n      dup1\n      0x40\n      add\n      0x40\n      mstore\n      dup1\n      0x01\n      dup2\n      mstore\n      0x20\n      add\n      0x5800000000000000000000000000000000000000000000000000000000000000\n      dup2\n      mstore\n      pop\n      dup2\n      mstore\n      0x20\n      add\n      mload(0x40)\n      dup1\n      0x40\n      add\n      0x40\n      mstore\n      dup1\n      0x02\n      dup2\n      mstore\n      0x20\n      add\n      0x4958000000000000000000000000000000000000000000000000000000000000\n      dup2\n      mstore\n      pop\n      dup2\n      mstore\n      0x20\n      add\n      mload(0x40)\n      dup1\n      0x40\n      add\n      0x40\n      mstore\n      dup1\n      0x01\n      dup2\n      mstore\n      0x20\n      add\n      0x5600000000000000000000000000000000000000000000000000000000000000\n      dup2\n      mstore\n      pop\n      dup2\n      mstore\n      0x20\n      add\n      mload(0x40)\n      dup1\n      0x40\n      add\n      0x40\n      mstore\n      dup1\n      0x02\n      dup2\n      mstore\n      0x20\n      add\n      0x4956000000000000000000000000000000000000000000000000000000000000\n      dup2\n      mstore\n      pop\n      dup2\n      mstore\n      0x20\n      add\n      mload(0x40)\n      dup1\n      0x40\n      add\n      0x40\n      mstore\n      dup1\n      0x01\n      dup2\n      mstore\n      0x20\n      add\n      0x4900000000000000000000000000000000000000000000000000000000000000\n      dup2\n      mstore\n      pop\n      dup2\n      mstore\n      pop\n      swap1\n      pop\n        /* \"homework01/RomanNumerals.sol\":585:604  bytes memory result */\n      0x60\n        /* \"homework01/RomanNumerals.sol\":620:629  uint256 i */\n      0x00\n        /* \"homework01/RomanNumerals.sol\":632:633  0 */\n      0x00\n        /* \"homework01/RomanNumerals.sol\":620:633  uint256 i = 0 */\n      swap1\n      pop\n        /* \"homework01/RomanNumerals.sol\":615:820  for (uint256 i = 0; i < values.length; i++) {... */\n    tag_22:\n        /* \"homework01/RomanNumerals.sol\":639:652  values.length */\n      0x0d\n        /* \"homework01/RomanNumerals.sol\":635:636  i */\n      dup2\n        /* \"homework01/RomanNumerals.sol\":635:652  i < values.length */\n      lt\n        /* \"homework01/RomanNumerals.sol\":615:820  for (uint256 i = 0; i < values.length; i++) {... */\n      iszero\n      tag_23\n      jumpi\n        /* \"homework01/RomanNumerals.sol\":673:810  while (num >= values[i]) {... */\n    tag_25:\n        /* \"homework01/RomanNumerals.sol\":687:693  values */\n      dup4\n        /* \"homework01/RomanNumerals.sol\":694:695  i */\n      dup2\n        /* \"homework01/RomanNumerals.sol\":687:696  values[i] */\n      0x0d\n      dup2\n      lt\n      tag_27\n      jumpi\n      tag_28\n      tag_29\n      jump\t// in\n    tag_28:\n    tag_27:\n      0x20\n      mul\n      add\n      mload\n        /* \"homework01/RomanNumerals.sol\":680:683  num */\n      dup7\n        /* \"homework01/RomanNumerals.sol\":680:696  num >= values[i] */\n      lt\n        /* \"homework01/RomanNumerals.sol\":673:810  while (num >= values[i]) {... */\n      tag_26\n      jumpi\n        /* \"homework01/RomanNumerals.sol\":723:729  values */\n      dup4\n        /* \"homework01/RomanNumerals.sol\":730:731  i */\n      dup2\n        /* \"homework01/RomanNumerals.sol\":723:732  values[i] */\n      0x0d\n      dup2\n      lt\n      tag_30\n      jumpi\n      tag_31\n      tag_29\n      jump\t// in\n    tag_31:\n    tag_30:\n      0x20\n      mul\n      add\n      mload\n        /* \"homework01/RomanNumerals.sol\":716:732  num -= values[i] */\n      dup7\n      tag_32\n      swap2\n      swap1\n      tag_33\n      jump\t// in\n    tag_32:\n      swap6\n      pop\n        /* \"homework01/RomanNumerals.sol\":776:782  result */\n      dup2\n        /* \"homework01/RomanNumerals.sol\":784:791  symbols */\n      dup4\n        /* \"homework01/RomanNumerals.sol\":792:793  i */\n      dup3\n        /* \"homework01/RomanNumerals.sol\":784:794  symbols[i] */\n      0x0d\n      dup2\n      lt\n      tag_34\n      jumpi\n      tag_35\n      tag_29\n      jump\t// in\n    tag_35:\n    tag_34:\n      0x20\n      mul\n      add\n      mload\n        /* \"homework01/RomanNumerals.sol\":759:795  abi.encodePacked(result, symbols[i]) */\n      add(0x20, mload(0x40))\n      tag_36\n      swap3\n      swap2\n      swap1\n      tag_37\n      jump\t// in\n    tag_36:\n      mload(0x40)\n      0x20\n      dup2\n      dup4\n      sub\n      sub\n      dup2\n      mstore\n      swap1\n      0x40\n      mstore\n        /* \"homework01/RomanNumerals.sol\":750:795  result = abi.encodePacked(result, symbols[i]) */\n      swap2\n      pop\n        /* \"homework01/RomanNumerals.sol\":673:810  while (num >= values[i]) {... */\n      jump(tag_25)\n    tag_26:\n        /* \"homework01/RomanNumerals.sol\":654:657  i++ */\n      dup1\n      dup1\n      0x01\n      add\n      swap2\n      pop\n      pop\n        /* \"homework01/RomanNumerals.sol\":615:820  for (uint256 i = 0; i < values.length; i++) {... */\n      jump(tag_22)\n    tag_23:\n      pop\n        /* \"homework01/RomanNumerals.sol\":844:850  result */\n      dup1\n        /* \"homework01/RomanNumerals.sol\":830:851  return string(result) */\n      swap4\n      pop\n      pop\n      pop\n      pop\n        /* \"homework01/RomanNumerals.sol\":121:858  function intToRoman(uint256 num) public pure returns (string memory) {... */\n      swap2\n      swap1\n      pop\n      jump\t// out\n        /* \"homework01/RomanNumerals.sol\":898:1572  function romanToInt(string memory s) public pure returns (uint256) {... */\n    tag_14:\n        /* \"homework01/RomanNumerals.sol\":956:963  uint256 */\n      0x00\n        /* \"homework01/RomanNumerals.sol\":975:989  bytes memory b */\n      0x00\n        /* \"homework01/RomanNumerals.sol\":998:999  s */\n      dup3\n        /* \"homework01/RomanNumerals.sol\":975:1000  bytes memory b = bytes(s) */\n      swap1\n      pop\n        /* \"homework01/RomanNumerals.sol\":1029:1030  0 */\n      0x00\n        /* \"homework01/RomanNumerals.sol\":1018:1019  b */\n      dup2\n        /* \"homework01/RomanNumerals.sol\":1018:1026  b.length */\n      mload\n        /* \"homework01/RomanNumerals.sol\":1018:1030  b.length > 0 */\n      gt\n        /* \"homework01/RomanNumerals.sol\":1010:1047  require(b.length > 0, \"empty string\") */\n      tag_39\n      jumpi\n      mload(0x40)\n      0x08c379a000000000000000000000000000000000000000000000000000000000\n      dup2\n      mstore\n      0x04\n      add\n      tag_40\n      swap1\n      tag_41\n      jump\t// in\n    tag_40:\n      mload(0x40)\n      dup1\n      swap2\n      sub\n      swap1\n      revert\n    tag_39:\n        /* \"homework01/RomanNumerals.sol\":1058:1071  uint256 total */\n      0x00\n        /* \"homework01/RomanNumerals.sol\":1074:1075  0 */\n      0x00\n        /* \"homework01/RomanNumerals.sol\":1058:1075  uint256 total = 0 */\n      swap1\n      pop\n        /* \"homework01/RomanNumerals.sol\":1085:1094  uint256 i */\n      0x00\n        /* \"homework01/RomanNumerals.sol\":1097:1098  0 */\n      0x00\n        /* \"homework01/RomanNumerals.sol\":1085:1098  uint256 i = 0 */\n      swap1\n      pop\n        /* \"homework01/RomanNumerals.sol\":1109:1482  while (i < b.length) {... */\n    tag_42:\n        /* \"homework01/RomanNumerals.sol\":1120:1121  b */\n      dup3\n        /* \"homework01/RomanNumerals.sol\":1120:1128  b.length */\n      mload\n        /* \"homework01/RomanNumerals.sol\":1116:1117  i */\n      dup2\n        /* \"homework01/RomanNumerals.sol\":1116:1128  i < b.length */\n      lt\n        /* \"homework01/RomanNumerals.sol\":1109:1482  while (i < b.length) {... */\n      iszero\n      tag_43\n      jumpi\n        /* \"homework01/RomanNumerals.sol\":1144:1156  uint256 curr */\n      0x00\n        /* \"homework01/RomanNumerals.sol\":1159:1171  _value(b[i]) */\n      tag_44\n        /* \"homework01/RomanNumerals.sol\":1166:1167  b */\n      dup5\n        /* \"homework01/RomanNumerals.sol\":1168:1169  i */\n      dup4\n        /* \"homework01/RomanNumerals.sol\":1166:1170  b[i] */\n      dup2\n      mload\n      dup2\n      lt\n      tag_45\n      jumpi\n      tag_46\n      tag_29\n      jump\t// in\n    tag_46:\n    tag_45:\n      0x20\n      add\n      add\n      mload\n      0xf8\n      shr\n      0xf8\n      shl\n        /* \"homework01/RomanNumerals.sol\":1159:1165  _value */\n      tag_47\n        /* \"homework01/RomanNumerals.sol\":1159:1171  _value(b[i]) */\n      jump\t// in\n    tag_44:\n        /* \"homework01/RomanNumerals.sol\":1144:1171  uint256 curr = _value(b[i]) */\n      swap1\n      pop\n        /* \"homework01/RomanNumerals.sol\":1198:1199  b */\n      dup4\n        /* \"homework01/RomanNumerals.sol\":1198:1206  b.length */\n      mload\n        /* \"homework01/RomanNumerals.sol\":1194:1195  1 */\n      0x01\n        /* \"homework01/RomanNumerals.sol\":1190:1191  i */\n      dup4\n        /* \"homework01/RomanNumerals.sol\":1190:1195  i + 1 */\n      tag_48\n      swap2\n      swap1\n      tag_49\n      jump\t// in\n    tag_48:\n        /* \"homework01/RomanNumerals.sol\":1190:1206  i + 1 < b.length */\n      lt\n        /* \"homework01/RomanNumerals.sol\":1186:1427  if (i + 1 < b.length) {... */\n      iszero\n      tag_50\n      jumpi\n        /* \"homework01/RomanNumerals.sol\":1226:1238  uint256 next */\n      0x00\n        /* \"homework01/RomanNumerals.sol\":1241:1257  _value(b[i + 1]) */\n      tag_51\n        /* \"homework01/RomanNumerals.sol\":1248:1249  b */\n      dup6\n        /* \"homework01/RomanNumerals.sol\":1254:1255  1 */\n      0x01\n        /* \"homework01/RomanNumerals.sol\":1250:1251  i */\n      dup6\n        /* \"homework01/RomanNumerals.sol\":1250:1255  i + 1 */\n      tag_52\n      swap2\n      swap1\n      tag_49\n      jump\t// in\n    tag_52:\n        /* \"homework01/RomanNumerals.sol\":1248:1256  b[i + 1] */\n      dup2\n      mload\n      dup2\n      lt\n      tag_53\n      jumpi\n      tag_54\n      tag_29\n      jump\t// in\n    tag_54:\n    tag_53:\n      0x20\n      add\n      add\n      mload\n      0xf8\n      shr\n      0xf8\n      shl\n        /* \"homework01/RomanNumerals.sol\":1241:1247  _value */\n      tag_47\n        /* \"homework01/RomanNumerals.sol\":1241:1257  _value(b[i + 1]) */\n      jump\t// in\n    tag_51:\n        /* \"homework01/RomanNumerals.sol\":1226:1257  uint256 next = _value(b[i + 1]) */\n      swap1\n      pop\n        /* \"homework01/RomanNumerals.sol\":1286:1290  next */\n      dup1\n        /* \"homework01/RomanNumerals.sol\":1279:1283  curr */\n      dup3\n        /* \"homework01/RomanNumerals.sol\":1279:1290  curr < next */\n      lt\n        /* \"homework01/RomanNumerals.sol\":1275:1413  if (curr < next) {... */\n      iszero\n      tag_55\n      jumpi\n        /* \"homework01/RomanNumerals.sol\":1331:1335  curr */\n      dup2\n        /* \"homework01/RomanNumerals.sol\":1324:1328  next */\n      dup2\n        /* \"homework01/RomanNumerals.sol\":1324:1335  next - curr */\n      tag_56\n      swap2\n      swap1\n      tag_33\n      jump\t// in\n    tag_56:\n        /* \"homework01/RomanNumerals.sol\":1314:1336  total += (next - curr) */\n      dup5\n      tag_57\n      swap2\n      swap1\n      tag_49\n      jump\t// in\n    tag_57:\n      swap4\n      pop\n        /* \"homework01/RomanNumerals.sol\":1363:1364  2 */\n      0x02\n        /* \"homework01/RomanNumerals.sol\":1358:1364  i += 2 */\n      dup4\n      tag_58\n      swap2\n      swap1\n      tag_49\n      jump\t// in\n    tag_58:\n      swap3\n      pop\n        /* \"homework01/RomanNumerals.sol\":1386:1394  continue */\n      pop\n      pop\n      jump(tag_42)\n        /* \"homework01/RomanNumerals.sol\":1275:1413  if (curr < next) {... */\n    tag_55:\n        /* \"homework01/RomanNumerals.sol\":1208:1427  {... */\n      pop\n        /* \"homework01/RomanNumerals.sol\":1186:1427  if (i + 1 < b.length) {... */\n    tag_50:\n        /* \"homework01/RomanNumerals.sol\":1450:1454  curr */\n      dup1\n        /* \"homework01/RomanNumerals.sol\":1441:1454  total += curr */\n      dup4\n      tag_59\n      swap2\n      swap1\n      tag_49\n      jump\t// in\n    tag_59:\n      swap3\n      pop\n        /* \"homework01/RomanNumerals.sol\":1468:1471  i++ */\n      dup2\n      dup1\n      tag_60\n      swap1\n      tag_61\n      jump\t// in\n    tag_60:\n      swap3\n      pop\n      pop\n        /* \"homework01/RomanNumerals.sol\":1130:1482  {... */\n      pop\n        /* \"homework01/RomanNumerals.sol\":1109:1482  while (i < b.length) {... */\n      jump(tag_42)\n    tag_43:\n        /* \"homework01/RomanNumerals.sol\":1508:1509  0 */\n      0x00\n        /* \"homework01/RomanNumerals.sol\":1500:1505  total */\n      dup3\n        /* \"homework01/RomanNumerals.sol\":1500:1509  total > 0 */\n      gt\n        /* \"homework01/RomanNumerals.sol\":1500:1525  total > 0 && total < 4000 */\n      dup1\n      iszero\n      tag_62\n      jumpi\n      pop\n        /* \"homework01/RomanNumerals.sol\":1521:1525  4000 */\n      0x0fa0\n        /* \"homework01/RomanNumerals.sol\":1513:1518  total */\n      dup3\n        /* \"homework01/RomanNumerals.sol\":1513:1525  total < 4000 */\n      lt\n        /* \"homework01/RomanNumerals.sol\":1500:1525  total > 0 && total < 4000 */\n    tag_62:\n        /* \"homework01/RomanNumerals.sol\":1492:1543  require(total > 0 && total < 4000, \"invalid roman\") */\n      tag_63\n      jumpi\n      mload(0x40)\n      0x08c379a000000000000000000000000000000000000000000000000000000000\n      dup2\n      mstore\n      0x04\n      add\n      tag_64\n      swap1\n      tag_65\n      jump\t// in\n    tag_64:\n      mload(0x40)\n      dup1\n      swap2\n      sub\n      swap1\n      revert\n    tag_63:\n        /* \"homework01/RomanNumerals.sol\":1560:1565  total */\n      dup2\n        /* \"homework01/RomanNumerals.sol\":1553:1565  return total */\n      swap4\n      pop\n      pop\n      pop\n      pop\n        /* \"homework01/RomanNumerals.sol\":898:1572  function romanToInt(string memory s) public pure returns (uint256) {... */\n      swap2\n      swap1\n      pop\n      jump\t// out\n        /* \"homework01/RomanNumerals.sol\":1626:1962  function _value(bytes1 c) internal pure returns (uint256) {... */\n    tag_47:\n        /* \"homework01/RomanNumerals.sol\":1675:1682  uint256 */\n      0x00\n        /* \"homework01/RomanNumerals.sol\":1698:1706  c == \"I\" */\n      0x4900000000000000000000000000000000000000000000000000000000000000\n        /* \"homework01/RomanNumerals.sol\":1698:1699  c */\n      dup3\n        /* \"homework01/RomanNumerals.sol\":1698:1706  c == \"I\" */\n      not(0xffffffffffffffffffffffffffffffffffffffffffffffffffffffffffffff)\n      and\n      sub\n        /* \"homework01/RomanNumerals.sol\":1694:1716  if (c == \"I\") return 1 */\n      tag_67\n      jumpi\n        /* \"homework01/RomanNumerals.sol\":1715:1716  1 */\n      0x01\n        /* \"homework01/RomanNumerals.sol\":1708:1716  return 1 */\n      swap1\n      pop\n      jump(tag_66)\n        /* \"homework01/RomanNumerals.sol\":1694:1716  if (c == \"I\") return 1 */\n    tag_67:\n        /* \"homework01/RomanNumerals.sol\":1730:1738  c == \"V\" */\n      0x5600000000000000000000000000000000000000000000000000000000000000\n        /* \"homework01/RomanNumerals.sol\":1730:1731  c */\n      dup3\n        /* \"homework01/RomanNumerals.sol\":1730:1738  c == \"V\" */\n      not(0xffffffffffffffffffffffffffffffffffffffffffffffffffffffffffffff)\n      and\n      sub\n        /* \"homework01/RomanNumerals.sol\":1726:1748  if (c == \"V\") return 5 */\n      tag_68\n      jumpi\n        /* \"homework01/RomanNumerals.sol\":1747:1748  5 */\n      0x05\n        /* \"homework01/RomanNumerals.sol\":1740:1748  return 5 */\n      swap1\n      pop\n      jump(tag_66)\n        /* \"homework01/RomanNumerals.sol\":1726:1748  if (c == \"V\") return 5 */\n    tag_68:\n        /* \"homework01/RomanNumerals.sol\":1762:1770  c == \"X\" */\n      0x5800000000000000000000000000000000000000000000000000000000000000\n        /* \"homework01/RomanNumerals.sol\":1762:1763  c */\n      dup3\n        /* \"homework01/RomanNumerals.sol\":1762:1770  c == \"X\" */\n      not(0xffffffffffffffffffffffffffffffffffffffffffffffffffffffffffffff)\n      and\n      sub\n        /* \"homework01/RomanNumerals.sol\":1758:1781  if (c == \"X\") return 10 */\n      tag_69\n      jumpi\n        /* \"homework01/RomanNumerals.sol\":1779:1781  10 */\n      0x0a\n        /* \"homework01/RomanNumerals.sol\":1772:1781  return 10 */\n      swap1\n      pop\n      jump(tag_66)\n        /* \"homework01/RomanNumerals.sol\":1758:1781  if (c == \"X\") return 10 */\n    tag_69:\n        /* \"homework01/RomanNumerals.sol\":1795:1803  c == \"L\" */\n      0x4c00000000000000000000000000000000000000000000000000000000000000\n        /* \"homework01/RomanNumerals.sol\":1795:1796  c */\n      dup3\n        /* \"homework01/RomanNumerals.sol\":1795:1803  c == \"L\" */\n      not(0xffffffffffffffffffffffffffffffffffffffffffffffffffffffffffffff)\n      and\n      sub\n        /* \"homework01/RomanNumerals.sol\":1791:1814  if (c == \"L\") return 50 */\n      tag_70\n      jumpi\n        /* \"homework01/RomanNumerals.sol\":1812:1814  50 */\n      0x32\n        /* \"homework01/RomanNumerals.sol\":1805:1814  return 50 */\n      swap1\n      pop\n      jump(tag_66)\n        /* \"homework01/RomanNumerals.sol\":1791:1814  if (c == \"L\") return 50 */\n    tag_70:\n        /* \"homework01/RomanNumerals.sol\":1828:1836  c == \"C\" */\n      0x4300000000000000000000000000000000000000000000000000000000000000\n        /* \"homework01/RomanNumerals.sol\":1828:1829  c */\n      dup3\n        /* \"homework01/RomanNumerals.sol\":1828:1836  c == \"C\" */\n      not(0xffffffffffffffffffffffffffffffffffffffffffffffffffffffffffffff)\n      and\n      sub\n        /* \"homework01/RomanNumerals.sol\":1824:1848  if (c == \"C\") return 100 */\n      tag_71\n      jumpi\n        /* \"homework01/RomanNumerals.sol\":1845:1848  100 */\n      0x64\n        /* \"homework01/RomanNumerals.sol\":1838:1848  return 100 */\n      swap1\n      pop\n      jump(tag_66)\n        /* \"homework01/RomanNumerals.sol\":1824:1848  if (c == \"C\") return 100 */\n    tag_71:\n        /* \"homework01/RomanNumerals.sol\":1862:1870  c == \"D\" */\n      0x4400000000000000000000000000000000000000000000000000000000000000\n        /* \"homework01/RomanNumerals.sol\":1862:1863  c */\n      dup3\n        /* \"homework01/RomanNumerals.sol\":1862:1870  c == \"D\" */\n      not(0xffffffffffffffffffffffffffffffffffffffffffffffffffffffffffffff)\n      and\n      sub\n        /* \"homework01/RomanNumerals.sol\":1858:1882  if (c == \"D\") return 500 */\n      tag_72\n      jumpi\n        /* \"homework01/RomanNumerals.sol\":1879:1882  500 */\n      0x01f4\n        /* \"homework01/RomanNumerals.sol\":1872:1882  return 500 */\n      swap1\n      pop\n      jump(tag_66)\n        /* \"homework01/RomanNumerals.sol\":1858:1882  if (c == \"D\") return 500 */\n    tag_72:\n        /* \"homework01/RomanNumerals.sol\":1896:1904  c == \"M\" */\n      0x4d00000000000000000000000000000000000000000000000000000000000000\n        /* \"homework01/RomanNumerals.sol\":1896:1897  c */\n      dup3\n        /* \"homework01/RomanNumerals.sol\":1896:1904  c == \"M\" */\n      not(0xffffffffffffffffffffffffffffffffffffffffffffffffffffffffffffff)\n      and\n      sub\n        /* \"homework01/RomanNumerals.sol\":1892:1917  if (c == \"M\") return 1000 */\n      tag_73\n      jumpi\n        /* \"homework01/RomanNumerals.sol\":1913:1917  1000 */\n      0x03e8\n        /* \"homework01/RomanNumerals.sol\":1906:1917  return 1000 */\n      swap1\n      pop\n      jump(tag_66)\n        /* \"homework01/RomanNumerals.sol\":1892:1917  if (c == \"M\") return 1000 */\n    tag_73:\n        /* \"homework01/RomanNumerals.sol\":1927:1955  revert(\"invalid roman char\") */\n      mload(0x40)\n      0x08c379a000000000000000000000000000000000000000000000000000000000\n      dup2\n      mstore\n      0x04\n      add\n      tag_74\n      swap1\n      tag_75\n      jump\t// in\n    tag_74:\n      mload(0x40)\n      dup1\n      swap2\n      sub\n      swap1\n      revert\n        /* \"homework01/RomanNumerals.sol\":1626:1962  function _value(bytes1 c) internal pure returns (uint256) {... */\n    tag_66:\n      swap2\n      swap1\n      pop\n      jump\t// out\n        /* \"#utility.yul\":7:82   */\n    tag_76:\n        /* \"#utility.yul\":40:46   */\n      0x00\n        /* \"#utility.yul\":73:75   */\n      0x40\n        /* \"#utility.yul\":67:76   */\n      mload\n        /* \"#utility.yul\":57:76   */\n      swap1\n      pop\n        /* \"#utility.yul\":7:82   */\n      swap1\n      jump\t// out\n        /* \"#utility.yul\":88:205   */\n    tag_77:\n        /* \"#utility.yul\":197:198   */\n      0x00\n        /* \"#utility.yul\":194:195   */\n      0x00\n        /* \"#utility.yul\":187:199   */\n      revert\n        /* \"#utility.yul\":211:328   */\n    tag_78:\n        /* \"#utility.yul\":320:321   */\n      0x00\n        /* \"#utility.yul\":317:318   */\n      0x00\n        /* \"#utility.yul\":310:322   */\n      revert\n        /* \"#utility.yul\":334:411   */\n    tag_79:\n        /* \"#utility.yul\":371:378   */\n      0x00\n        /* \"#utility.yul\":400:405   */\n      dup2\n        /* \"#utility.yul\":389:405   */\n      swap1\n      pop\n        /* \"#utility.yul\":334:411   */\n      swap2\n      swap1\n      pop\n      jump\t// out\n        /* \"#utility.yul\":417:539   */\n    tag_80:\n        /* \"#utility.yul\":490:514   */\n      tag_117\n        /* \"#utility.yul\":508:513   */\n      dup2\n        /* \"#utility.yul\":490:514   */\n      tag_79\n      jump\t// in\n    tag_117:\n        /* \"#utility.yul\":483:488   */\n      dup2\n        /* \"#utility.yul\":480:515   */\n      eq\n        /* \"#utility.yul\":470:533   */\n      tag_118\n      jumpi\n        /* \"#utility.yul\":529:530   */\n      0x00\n        /* \"#utility.yul\":526:527   */\n      0x00\n        /* \"#utility.yul\":519:531   */\n      revert\n        /* \"#utility.yul\":470:533   */\n    tag_118:\n        /* \"#utility.yul\":417:539   */\n      pop\n      jump\t// out\n        /* \"#utility.yul\":545:684   */\n    tag_81:\n        /* \"#utility.yul\":591:596   */\n      0x00\n        /* \"#utility.yul\":629:635   */\n      dup2\n        /* \"#utility.yul\":616:636   */\n      calldataload\n        /* \"#utility.yul\":607:636   */\n      swap1\n      pop\n        /* \"#utility.yul\":645:678   */\n      tag_120\n        /* \"#utility.yul\":672:677   */\n      dup2\n        /* \"#utility.yul\":645:678   */\n      tag_80\n      jump\t// in\n    tag_120:\n        /* \"#utility.yul\":545:684   */\n      swap3\n      swap2\n      pop\n      pop\n      jump\t// out\n        /* \"#utility.yul\":690:1019   */\n    tag_7:\n        /* \"#utility.yul\":749:755   */\n      0x00\n        /* \"#utility.yul\":798:800   */\n      0x20\n        /* \"#utility.yul\":786:795   */\n      dup3\n        /* \"#utility.yul\":777:784   */\n      dup5\n        /* \"#utility.yul\":773:796   */\n      sub\n        /* \"#utility.yul\":769:801   */\n      slt\n        /* \"#utility.yul\":766:885   */\n      iszero\n      tag_122\n      jumpi\n        /* \"#utility.yul\":804:883   */\n      tag_123\n      tag_77\n      jump\t// in\n    tag_123:\n        /* \"#utility.yul\":766:885   */\n    tag_122:\n        /* \"#utility.yul\":924:925   */\n      0x00\n        /* \"#utility.yul\":949:1002   */\n      tag_124\n        /* \"#utility.yul\":994:1001   */\n      dup5\n        /* \"#utility.yul\":985:991   */\n      dup3\n        /* \"#utility.yul\":974:983   */\n      dup6\n        /* \"#utility.yul\":970:992   */\n      add\n        /* \"#utility.yul\":949:1002   */\n      tag_81\n      jump\t// in\n    tag_124:\n        /* \"#utility.yul\":939:1002   */\n      swap2\n      pop\n        /* \"#utility.yul\":895:1012   */\n      pop\n        /* \"#utility.yul\":690:1019   */\n      swap3\n      swap2\n      pop\n      pop\n      jump\t// out\n        /* \"#utility.yul\":1025:1124   */\n    tag_82:\n        /* \"#utility.yul\":1077:1083   */\n      0x00\n        /* \"#utility.yul\":1111:1116   */\n      dup2\n        /* \"#utility.yul\":1105:1117   */\n      mload\n        /* \"#utility.yul\":1095:1117   */\n      swap1\n      pop\n        /* \"#utility.yul\":1025:1124   */\n      swap2\n      swap1\n      pop\n      jump\t// out\n        /* \"#utility.yul\":1130:1299   */\n    tag_83:\n        /* \"#utility.yul\":1214:1225   */\n      0x00\n        /* \"#utility.yul\":1248:1254   */\n      dup3\n        /* \"#utility.yul\":1243:1246   */\n      dup3\n        /* \"#utility.yul\":1236:1255   */\n      mstore\n        /* \"#utility.yul\":1288:1292   */\n      0x20\n        /* \"#utility.yul\":1283:1286   */\n      dup3\n        /* \"#utility.yul\":1279:1293   */\n      add\n        /* \"#utility.yul\":1264:1293   */\n      swap1\n      pop\n        /* \"#utility.yul\":1130:1299   */\n      swap3\n      swap2\n      pop\n      pop\n      jump\t// out\n        /* \"#utility.yul\":1305:1444   */\n    tag_84:\n        /* \"#utility.yul\":1394:1400   */\n      dup3\n        /* \"#utility.yul\":1389:1392   */\n      dup2\n        /* \"#utility.yul\":1384:1387   */\n      dup4\n        /* \"#utility.yul\":1378:1401   */\n      mcopy\n        /* \"#utility.yul\":1435:1436   */\n      0x00\n        /* \"#utility.yul\":1426:1432   */\n      dup4\n        /* \"#utility.yul\":1421:1424   */\n      dup4\n        /* \"#utility.yul\":1417:1433   */\n      add\n        /* \"#utility.yul\":1410:1437   */\n      mstore\n        /* \"#utility.yul\":1305:1444   */\n      pop\n      pop\n      pop\n      jump\t// out\n        /* \"#utility.yul\":1450:1552   */\n    tag_85:\n        /* \"#utility.yul\":1491:1497   */\n      0x00\n        /* \"#utility.yul\":1542:1544   */\n      0x1f\n        /* \"#utility.yul\":1538:1545   */\n      not\n        /* \"#utility.yul\":1533:1535   */\n      0x1f\n        /* \"#utility.yul\":1526:1531   */\n      dup4\n        /* \"#utility.yul\":1522:1536   */\n      add\n        /* \"#utility.yul\":1518:1546   */\n      and\n        /* \"#utility.yul\":1508:1546   */\n      swap1\n      pop\n        /* \"#utility.yul\":1450:1552   */\n      swap2\n      swap1\n      pop\n      jump\t// out\n        /* \"#utility.yul\":1558:1935   */\n    tag_86:\n        /* \"#utility.yul\":1646:1649   */\n      0x00\n        /* \"#utility.yul\":1674:1713   */\n      tag_130\n        /* \"#utility.yul\":1707:1712   */\n      dup3\n        /* \"#utility.yul\":1674:1713   */\n      tag_82\n      jump\t// in\n    tag_130:\n        /* \"#utility.yul\":1729:1800   */\n      tag_131\n        /* \"#utility.yul\":1793:1799   */\n      dup2\n        /* \"#utility.yul\":1788:1791   */\n      dup6\n        /* \"#utility.yul\":1729:1800   */\n      tag_83\n      jump\t// in\n    tag_131:\n        /* \"#utility.yul\":1722:1800   */\n      swap4\n      pop\n        /* \"#utility.yul\":1809:1874   */\n      tag_132\n        /* \"#utility.yul\":1867:1873   */\n      dup2\n        /* \"#utility.yul\":1862:1865   */\n      dup6\n        /* \"#utility.yul\":1855:1859   */\n      0x20\n        /* \"#utility.yul\":1848:1853   */\n      dup7\n        /* \"#utility.yul\":1844:1860   */\n      add\n        /* \"#utility.yul\":1809:1874   */\n      tag_84\n      jump\t// in\n    tag_132:\n        /* \"#utility.yul\":1899:1928   */\n      tag_133\n        /* \"#utility.yul\":1921:1927   */\n      dup2\n        /* \"#utility.yul\":1899:1928   */\n      tag_85\n      jump\t// in\n    tag_133:\n        /* \"#utility.yul\":1894:1897   */\n      dup5\n        /* \"#utility.yul\":1890:1929   */\n      add\n        /* \"#utility.yul\":1883:1929   */\n      swap2\n      pop\n        /* \"#utility.yul\":1650:1935   */\n      pop\n        /* \"#utility.yul\":1558:1935   */\n      swap3\n      swap2\n      pop\n      pop\n      jump\t// out\n        /* \"#utility.yul\":1941:2254   */\n    tag_10:\n        /* \"#utility.yul\":2054:2058   */\n      0x00\n        /* \"#utility.yul\":2092:2094   */\n      0x20\n        /* \"#utility.yul\":2081:2090   */\n      dup3\n        /* \"#utility.yul\":2077:2095   */\n      add\n        /* \"#utility.yul\":2069:2095   */\n      swap1\n      pop\n        /* \"#utility.yul\":2141:2150   */\n      dup2\n        /* \"#utility.yul\":2135:2139   */\n      dup2\n        /* \"#utility.yul\":2131:2151   */\n      sub\n        /* \"#utility.yul\":2127:2128   */\n      0x00\n        /* \"#utility.yul\":2116:2125   */\n      dup4\n        /* \"#utility.yul\":2112:2129   */\n      add\n        /* \"#utility.yul\":2105:2152   */\n      mstore\n        /* \"#utility.yul\":2169:2247   */\n      tag_135\n        /* \"#utility.yul\":2242:2246   */\n      dup2\n        /* \"#utility.yul\":2233:2239   */\n      dup5\n        /* \"#utility.yul\":2169:2247   */\n      tag_86\n      jump\t// in\n    tag_135:\n        /* \"#utility.yul\":2161:2247   */\n      swap1\n      pop\n        /* \"#utility.yul\":1941:2254   */\n      swap3\n      swap2\n      pop\n      pop\n      jump\t// out\n        /* \"#utility.yul\":2260:2377   */\n    tag_87:\n        /* \"#utility.yul\":2369:2370   */\n      0x00\n        /* \"#utility.yul\":2366:2367   */\n      0x00\n        /* \"#utility.yul\":2359:2371   */\n      revert\n        /* \"#utility.yul\":2383:2500   */\n    tag_88:\n        /* \"#utility.yul\":2492:2493   */\n      0x00\n        /* \"#utility.yul\":2489:2490   */\n      0x00\n        /* \"#utility.yul\":2482:2494   */\n      revert\n        /* \"#utility.yul\":2506:2686   */\n    tag_89:\n        /* \"#utility.yul\":2554:2631   */\n      0x4e487b7100000000000000000000000000000000000000000000000000000000\n        /* \"#utility.yul\":2551:2552   */\n      0x00\n        /* \"#utility.yul\":2544:2632   */\n      mstore\n        /* \"#utility.yul\":2651:2655   */\n      0x41\n        /* \"#utility.yul\":2648:2649   */\n      0x04\n        /* \"#utility.yul\":2641:2656   */\n      mstore\n        /* \"#utility.yul\":2675:2679   */\n      0x24\n        /* \"#utility.yul\":2672:2673   */\n      0x00\n        /* \"#utility.yul\":2665:2680   */\n      revert\n        /* \"#utility.yul\":2692:2973   */\n    tag_90:\n        /* \"#utility.yul\":2775:2802   */\n      tag_140\n        /* \"#utility.yul\":2797:2801   */\n      dup3\n        /* \"#utility.yul\":2775:2802   */\n      tag_85\n      jump\t// in\n    tag_140:\n        /* \"#utility.yul\":2767:2773   */\n      dup2\n        /* \"#utility.yul\":2763:2803   */\n      add\n        /* \"#utility.yul\":2905:2911   */\n      dup2\n        /* \"#utility.yul\":2893:2903   */\n      dup2\n        /* \"#utility.yul\":2890:2912   */\n      lt\n        /* \"#utility.yul\":2869:2887   */\n      0xffffffffffffffff\n        /* \"#utility.yul\":2857:2867   */\n      dup3\n        /* \"#utility.yul\":2854:2888   */\n      gt\n        /* \"#utility.yul\":2851:2913   */\n      or\n        /* \"#utility.yul\":2848:2936   */\n      iszero\n      tag_141\n      jumpi\n        /* \"#utility.yul\":2916:2934   */\n      tag_142\n      tag_89\n      jump\t// in\n    tag_142:\n        /* \"#utility.yul\":2848:2936   */\n    tag_141:\n        /* \"#utility.yul\":2956:2966   */\n      dup1\n        /* \"#utility.yul\":2952:2954   */\n      0x40\n        /* \"#utility.yul\":2945:2967   */\n      mstore\n        /* \"#utility.yul\":2735:2973   */\n      pop\n        /* \"#utility.yul\":2692:2973   */\n      pop\n      pop\n      jump\t// out\n        /* \"#utility.yul\":2979:3108   */\n    tag_91:\n        /* \"#utility.yul\":3013:3019   */\n      0x00\n        /* \"#utility.yul\":3040:3060   */\n      tag_144\n      tag_76\n      jump\t// in\n    tag_144:\n        /* \"#utility.yul\":3030:3060   */\n      swap1\n      pop\n        /* \"#utility.yul\":3069:3102   */\n      tag_145\n        /* \"#utility.yul\":3097:3101   */\n      dup3\n        /* \"#utility.yul\":3089:3095   */\n      dup3\n        /* \"#utility.yul\":3069:3102   */\n      tag_90\n      jump\t// in\n    tag_145:\n        /* \"#utility.yul\":2979:3108   */\n      swap2\n      swap1\n      pop\n      jump\t// out\n        /* \"#utility.yul\":3114:3422   */\n    tag_92:\n        /* \"#utility.yul\":3176:3180   */\n      0x00\n        /* \"#utility.yul\":3266:3284   */\n      0xffffffffffffffff\n        /* \"#utility.yul\":3258:3264   */\n      dup3\n        /* \"#utility.yul\":3255:3285   */\n      gt\n        /* \"#utility.yul\":3252:3308   */\n      iszero\n      tag_147\n      jumpi\n        /* \"#utility.yul\":3288:3306   */\n      tag_148\n      tag_89\n      jump\t// in\n    tag_148:\n        /* \"#utility.yul\":3252:3308   */\n    tag_147:\n        /* \"#utility.yul\":3326:3355   */\n      tag_149\n        /* \"#utility.yul\":3348:3354   */\n      dup3\n        /* \"#utility.yul\":3326:3355   */\n      tag_85\n      jump\t// in\n    tag_149:\n        /* \"#utility.yul\":3318:3355   */\n      swap1\n      pop\n        /* \"#utility.yul\":3410:3414   */\n      0x20\n        /* \"#utility.yul\":3404:3408   */\n      dup2\n        /* \"#utility.yul\":3400:3415   */\n      add\n        /* \"#utility.yul\":3392:3415   */\n      swap1\n      pop\n        /* \"#utility.yul\":3114:3422   */\n      swap2\n      swap1\n      pop\n      jump\t// out\n        /* \"#utility.yul\":3428:3576   */\n    tag_93:\n        /* \"#utility.yul\":3526:3532   */\n      dup3\n        /* \"#utility.yul\":3521:3524   */\n      dup2\n        /* \"#utility.yul\":3516:3519   */\n      dup4\n        /* \"#utility.yul\":3503:3533   */\n      calldatacopy\n        /* \"#utility.yul\":3567:3568   */\n      0x00\n        /* \"#utility.yul\":3558:3564   */\n      dup4\n        /* \"#utility.yul\":3553:3556   */\n      dup4\n        /* \"#utility.yul\":3549:3565   */\n      add\n        /* \"#utility.yul\":3542:3569   */\n      mstore\n        /* \"#utility.yul\":3428:3576   */\n      pop\n      pop\n      pop\n      jump\t// out\n        /* \"#utility.yul\":3582:4007   */\n    tag_94:\n        /* \"#utility.yul\":3660:3665   */\n      0x00\n        /* \"#utility.yul\":3685:3751   */\n      tag_152\n        /* \"#utility.yul\":3701:3750   */\n      tag_153\n        /* \"#utility.yul\":3743:3749   */\n      dup5\n        /* \"#utility.yul\":3701:3750   */\n      tag_92\n      jump\t// in\n    tag_153:\n        /* \"#utility.yul\":3685:3751   */\n      tag_91\n      jump\t// in\n    tag_152:\n        /* \"#utility.yul\":3676:3751   */\n      swap1\n      pop\n        /* \"#utility.yul\":3774:3780   */\n      dup3\n        /* \"#utility.yul\":3767:3772   */\n      dup2\n        /* \"#utility.yul\":3760:3781   */\n      mstore\n        /* \"#utility.yul\":3812:3816   */\n      0x20\n        /* \"#utility.yul\":3805:3810   */\n      dup2\n        /* \"#utility.yul\":3801:3817   */\n      add\n        /* \"#utility.yul\":3850:3853   */\n      dup5\n        /* \"#utility.yul\":3841:3847   */\n      dup5\n        /* \"#utility.yul\":3836:3839   */\n      dup5\n        /* \"#utility.yul\":3832:3848   */\n      add\n        /* \"#utility.yul\":3829:3854   */\n      gt\n        /* \"#utility.yul\":3826:3938   */\n      iszero\n      tag_154\n      jumpi\n        /* \"#utility.yul\":3857:3936   */\n      tag_155\n      tag_88\n      jump\t// in\n    tag_155:\n        /* \"#utility.yul\":3826:3938   */\n    tag_154:\n        /* \"#utility.yul\":3947:4001   */\n      tag_156\n        /* \"#utility.yul\":3994:4000   */\n      dup5\n        /* \"#utility.yul\":3989:3992   */\n      dup3\n        /* \"#utility.yul\":3984:3987   */\n      dup6\n        /* \"#utility.yul\":3947:4001   */\n      tag_93\n      jump\t// in\n    tag_156:\n        /* \"#utility.yul\":3666:4007   */\n      pop\n        /* \"#utility.yul\":3582:4007   */\n      swap4\n      swap3\n      pop\n      pop\n      pop\n      jump\t// out\n        /* \"#utility.yul\":4027:4367   */\n    tag_95:\n        /* \"#utility.yul\":4083:4088   */\n      0x00\n        /* \"#utility.yul\":4132:4135   */\n      dup3\n        /* \"#utility.yul\":4125:4129   */\n      0x1f\n        /* \"#utility.yul\":4117:4123   */\n      dup4\n        /* \"#utility.yul\":4113:4130   */\n      add\n        /* \"#utility.yul\":4109:4136   */\n      slt\n        /* \"#utility.yul\":4099:4221   */\n      tag_158\n      jumpi\n        /* \"#utility.yul\":4140:4219   */\n      tag_159\n      tag_87\n      jump\t// in\n    tag_159:\n        /* \"#utility.yul\":4099:4221   */\n    tag_158:\n        /* \"#utility.yul\":4257:4263   */\n      dup2\n        /* \"#utility.yul\":4244:4264   */\n      calldataload\n        /* \"#utility.yul\":4282:4361   */\n      tag_160\n        /* \"#utility.yul\":4357:4360   */\n      dup5\n        /* \"#utility.yul\":4349:4355   */\n      dup3\n        /* \"#utility.yul\":4342:4346   */\n      0x20\n        /* \"#utility.yul\":4334:4340   */\n      dup7\n        /* \"#utility.yul\":4330:4347   */\n      add\n        /* \"#utility.yul\":4282:4361   */\n      tag_94\n      jump\t// in\n    tag_160:\n        /* \"#utility.yul\":4273:4361   */\n      swap2\n      pop\n        /* \"#utility.yul\":4089:4367   */\n      pop\n        /* \"#utility.yul\":4027:4367   */\n      swap3\n      swap2\n      pop\n      pop\n      jump\t// out\n        /* \"#utility.yul\":4373:4882   */\n    tag_13:\n        /* \"#utility.yul\":4442:4448   */\n      0x00\n        /* \"#utility.yul\":4491:4493   */\n      0x20\n        /* \"#utility.yul\":4479:4488   */\n      dup3\n        /* \"#utility.yul\":4470:4477   */\n      dup5\n        /* \"#utility.yul\":4466:4489   */\n      sub\n        /* \"#utility.yul\":4462:4494   */\n      slt\n        /* \"#utility.yul\":4459:4578   */\n      iszero\n      tag_162\n      jumpi\n        /* \"#utility.yul\":4497:4576   */\n      tag_163\n      tag_77\n      jump\t// in\n    tag_163:\n        /* \"#utility.yul\":4459:4578   */\n    tag_162:\n        /* \"#utility.yul\":4645:4646   */\n      0x00\n        /* \"#utility.yul\":4634:4643   */\n      dup3\n        /* \"#utility.yul\":4630:4647   */\n      add\n        /* \"#utility.yul\":4617:4648   */\n      calldataload\n        /* \"#utility.yul\":4675:4693   */\n      0xffffffffffffffff\n        /* \"#utility.yul\":4667:4673   */\n      dup2\n        /* \"#utility.yul\":4664:4694   */\n      gt\n        /* \"#utility.yul\":4661:4778   */\n      iszero\n      tag_164\n      jumpi\n        /* \"#utility.yul\":4697:4776   */\n      tag_165\n      tag_78\n      jump\t// in\n    tag_165:\n        /* \"#utility.yul\":4661:4778   */\n    tag_164:\n        /* \"#utility.yul\":4802:4865   */\n      tag_166\n        /* \"#utility.yul\":4857:4864   */\n      dup5\n        /* \"#utility.yul\":4848:4854   */\n      dup3\n        /* \"#utility.yul\":4837:4846   */\n      dup6\n        /* \"#utility.yul\":4833:4855   */\n      add\n        /* \"#utility.yul\":4802:4865   */\n      tag_95\n      jump\t// in\n    tag_166:\n        /* \"#utility.yul\":4792:4865   */\n      swap2\n      pop\n        /* \"#utility.yul\":4588:4875   */\n      pop\n        /* \"#utility.yul\":4373:4882   */\n      swap3\n      swap2\n      pop\n      pop\n      jump\t// out\n        /* \"#utility.yul\":4888:5006   */\n    tag_96:\n        /* \"#utility.yul\":4975:4999   */\n      tag_168\n        /* \"#utility.yul\":4993:4998   */\n      dup2\n        /* \"#utility.yul\":4975:4999   */\n      tag_79\n      jump\t// in\n    tag_168:\n        /* \"#utility.yul\":4970:4973   */\n      dup3\n        /* \"#utility.yul\":4963:5000   */\n      mstore\n        /* \"#utility.yul\":4888:5006   */\n      pop\n      pop\n      jump\t// out\n        /* \"#utility.yul\":5012:5234   */\n    tag_16:\n        /* \"#utility.yul\":5105:5109   */\n      0x00\n        /* \"#utility.yul\":5143:5145   */\n      0x20\n        /* \"#utility.yul\":5132:5141   */\n      dup3\n        /* \"#utility.yul\":5128:5146   */\n      add\n        /* \"#utility.yul\":5120:5146   */\n      swap1\n      pop\n        /* \"#utility.yul\":5156:5227   */\n      tag_170\n        /* \"#utility.yul\":5224:5225   */\n      0x00\n        /* \"#utility.yul\":5213:5222   */\n      dup4\n        /* \"#utility.yul\":5209:5226   */\n      add\n        /* \"#utility.yul\":5200:5206   */\n      dup5\n        /* \"#utility.yul\":5156:5227   */\n      tag_96\n      jump\t// in\n    tag_170:\n        /* \"#utility.yul\":5012:5234   */\n      swap3\n      swap2\n      pop\n      pop\n      jump\t// out\n        /* \"#utility.yul\":5240:5402   */\n    tag_97:\n        /* \"#utility.yul\":5380:5394   */\n      0x6f7574206f662072616e67650000000000000000000000000000000000000000\n        /* \"#utility.yul\":5376:5377   */\n      0x00\n        /* \"#utility.yul\":5368:5374   */\n      dup3\n        /* \"#utility.yul\":5364:5378   */\n      add\n        /* \"#utility.yul\":5357:5395   */\n      mstore\n        /* \"#utility.yul\":5240:5402   */\n      pop\n      jump\t// out\n        /* \"#utility.yul\":5408:5774   */\n    tag_98:\n        /* \"#utility.yul\":5550:5553   */\n      0x00\n        /* \"#utility.yul\":5571:5638   */\n      tag_173\n        /* \"#utility.yul\":5635:5637   */\n      0x0c\n        /* \"#utility.yul\":5630:5633   */\n      dup4\n        /* \"#utility.yul\":5571:5638   */\n      tag_83\n      jump\t// in\n    tag_173:\n        /* \"#utility.yul\":5564:5638   */\n      swap2\n      pop\n        /* \"#utility.yul\":5647:5740   */\n      tag_174\n        /* \"#utility.yul\":5736:5739   */\n      dup3\n        /* \"#utility.yul\":5647:5740   */\n      tag_97\n      jump\t// in\n    tag_174:\n        /* \"#utility.yul\":5765:5767   */\n      0x20\n        /* \"#utility.yul\":5760:5763   */\n      dup3\n        /* \"#utility.yul\":5756:5768   */\n      add\n        /* \"#utility.yul\":5749:5768   */\n      swap1\n      pop\n        /* \"#utility.yul\":5408:5774   */\n      swap2\n      swap1\n      pop\n      jump\t// out\n        /* \"#utility.yul\":5780:6199   */\n    tag_21:\n        /* \"#utility.yul\":5946:5950   */\n      0x00\n        /* \"#utility.yul\":5984:5986   */\n      0x20\n        /* \"#utility.yul\":5973:5982   */\n      dup3\n        /* \"#utility.yul\":5969:5987   */\n      add\n        /* \"#utility.yul\":5961:5987   */\n      swap1\n      pop\n        /* \"#utility.yul\":6033:6042   */\n      dup2\n        /* \"#utility.yul\":6027:6031   */\n      dup2\n        /* \"#utility.yul\":6023:6043   */\n      sub\n        /* \"#utility.yul\":6019:6020   */\n      0x00\n        /* \"#utility.yul\":6008:6017   */\n      dup4\n        /* \"#utility.yul\":6004:6021   */\n      add\n        /* \"#utility.yul\":5997:6044   */\n      mstore\n        /* \"#utility.yul\":6061:6192   */\n      tag_176\n        /* \"#utility.yul\":6187:6191   */\n      dup2\n        /* \"#utility.yul\":6061:6192   */\n      tag_98\n      jump\t// in\n    tag_176:\n        /* \"#utility.yul\":6053:6192   */\n      swap1\n      pop\n        /* \"#utility.yul\":5780:6199   */\n      swap2\n      swap1\n      pop\n      jump\t// out\n        /* \"#utility.yul\":6205:6385   */\n    tag_29:\n        /* \"#utility.yul\":6253:6330   */\n      0x4e487b7100000000000000000000000000000000000000000000000000000000\n        /* \"#utility.yul\":6250:6251   */\n      0x00\n        /* \"#utility.yul\":6243:6331   */\n      mstore\n        /* \"#utility.yul\":6350:6354   */\n      0x32\n        /* \"#utility.yul\":6347:6348   */\n      0x04\n        /* \"#utility.yul\":6340:6355   */\n      mstore\n        /* \"#utility.yul\":6374:6378   */\n      0x24\n        /* \"#utility.yul\":6371:6372   */\n      0x00\n        /* \"#utility.yul\":6364:6379   */\n      revert\n        /* \"#utility.yul\":6391:6571   */\n    tag_99:\n        /* \"#utility.yul\":6439:6516   */\n      0x4e487b7100000000000000000000000000000000000000000000000000000000\n        /* \"#utility.yul\":6436:6437   */\n      0x00\n        /* \"#utility.yul\":6429:6517   */\n      mstore\n        /* \"#utility.yul\":6536:6540   */\n      0x11\n        /* \"#utility.yul\":6533:6534   */\n      0x04\n        /* \"#utility.yul\":6526:6541   */\n      mstore\n        /* \"#utility.yul\":6560:6564   */\n      0x24\n        /* \"#utility.yul\":6557:6558   */\n      0x00\n        /* \"#utility.yul\":6550:6565   */\n      revert\n        /* \"#utility.yul\":6577:6771   */\n    tag_33:\n        /* \"#utility.yul\":6617:6621   */\n      0x00\n        /* \"#utility.yul\":6637:6657   */\n      tag_180\n        /* \"#utility.yul\":6655:6656   */\n      dup3\n        /* \"#utility.yul\":6637:6657   */\n      tag_79\n      jump\t// in\n    tag_180:\n        /* \"#utility.yul\":6632:6657   */\n      swap2\n      pop\n        /* \"#utility.yul\":6671:6691   */\n      tag_181\n        /* \"#utility.yul\":6689:6690   */\n      dup4\n        /* \"#utility.yul\":6671:6691   */\n      tag_79\n      jump\t// in\n    tag_181:\n        /* \"#utility.yul\":6666:6691   */\n      swap3\n      pop\n        /* \"#utility.yul\":6715:6716   */\n      dup3\n        /* \"#utility.yul\":6712:6713   */\n      dup3\n        /* \"#utility.yul\":6708:6717   */\n      sub\n        /* \"#utility.yul\":6700:6717   */\n      swap1\n      pop\n        /* \"#utility.yul\":6739:6740   */\n      dup2\n        /* \"#utility.yul\":6733:6737   */\n      dup2\n        /* \"#utility.yul\":6730:6741   */\n      gt\n        /* \"#utility.yul\":6727:6764   */\n      iszero\n      tag_182\n      jumpi\n        /* \"#utility.yul\":6744:6762   */\n      tag_183\n      tag_99\n      jump\t// in\n    tag_183:\n        /* \"#utility.yul\":6727:6764   */\n    tag_182:\n        /* \"#utility.yul\":6577:6771   */\n      swap3\n      swap2\n      pop\n      pop\n      jump\t// out\n        /* \"#utility.yul\":6777:6875   */\n    tag_100:\n        /* \"#utility.yul\":6828:6834   */\n      0x00\n        /* \"#utility.yul\":6862:6867   */\n      dup2\n        /* \"#utility.yul\":6856:6868   */\n      mload\n        /* \"#utility.yul\":6846:6868   */\n      swap1\n      pop\n        /* \"#utility.yul\":6777:6875   */\n      swap2\n      swap1\n      pop\n      jump\t// out\n        /* \"#utility.yul\":6881:7028   */\n    tag_101:\n        /* \"#utility.yul\":6982:6993   */\n      0x00\n        /* \"#utility.yul\":7019:7022   */\n      dup2\n        /* \"#utility.yul\":7004:7022   */\n      swap1\n      pop\n        /* \"#utility.yul\":6881:7028   */\n      swap3\n      swap2\n      pop\n      pop\n      jump\t// out\n        /* \"#utility.yul\":7034:7420   */\n    tag_102:\n        /* \"#utility.yul\":7138:7141   */\n      0x00\n        /* \"#utility.yul\":7166:7204   */\n      tag_187\n        /* \"#utility.yul\":7198:7203   */\n      dup3\n        /* \"#utility.yul\":7166:7204   */\n      tag_100\n      jump\t// in\n    tag_187:\n        /* \"#utility.yul\":7220:7308   */\n      tag_188\n        /* \"#utility.yul\":7301:7307   */\n      dup2\n        /* \"#utility.yul\":7296:7299   */\n      dup6\n        /* \"#utility.yul\":7220:7308   */\n      tag_101\n      jump\t// in\n    tag_188:\n        /* \"#utility.yul\":7213:7308   */\n      swap4\n      pop\n        /* \"#utility.yul\":7317:7382   */\n      tag_189\n        /* \"#utility.yul\":7375:7381   */\n      dup2\n        /* \"#utility.yul\":7370:7373   */\n      dup6\n        /* \"#utility.yul\":7363:7367   */\n      0x20\n        /* \"#utility.yul\":7356:7361   */\n      dup7\n        /* \"#utility.yul\":7352:7368   */\n      add\n        /* \"#utility.yul\":7317:7382   */\n      tag_84\n      jump\t// in\n    tag_189:\n        /* \"#utility.yul\":7407:7413   */\n      dup1\n        /* \"#utility.yul\":7402:7405   */\n      dup5\n        /* \"#utility.yul\":7398:7414   */\n      add\n        /* \"#utility.yul\":7391:7414   */\n      swap2\n      pop\n        /* \"#utility.yul\":7142:7420   */\n      pop\n        /* \"#utility.yul\":7034:7420   */\n      swap3\n      swap2\n      pop\n      pop\n      jump\t// out\n        /* \"#utility.yul\":7426:7574   */\n    tag_103:\n        /* \"#utility.yul\":7528:7539   */\n      0x00\n        /* \"#utility.yul\":7565:7568   */\n      dup2\n        /* \"#utility.yul\":7550:7568   */\n      swap1\n      pop\n        /* \"#utility.yul\":7426:7574   */\n      swap3\n      swap2\n      pop\n      pop\n      jump\t// out\n        /* \"#utility.yul\":7580:7970   */\n    tag_104:\n        /* \"#utility.yul\":7686:7689   */\n      0x00\n        /* \"#utility.yul\":7714:7753   */\n      tag_192\n        /* \"#utility.yul\":7747:7752   */\n      dup3\n        /* \"#utility.yul\":7714:7753   */\n      tag_82\n      jump\t// in\n    tag_192:\n        /* \"#utility.yul\":7769:7858   */\n      tag_193\n        /* \"#utility.yul\":7851:7857   */\n      dup2\n        /* \"#utility.yul\":7846:7849   */\n      dup6\n        /* \"#utility.yul\":7769:7858   */\n      tag_103\n      jump\t// in\n    tag_193:\n        /* \"#utility.yul\":7762:7858   */\n      swap4\n      pop\n        /* \"#utility.yul\":7867:7932   */\n      tag_194\n        /* \"#utility.yul\":7925:7931   */\n      dup2\n        /* \"#utility.yul\":7920:7923   */\n      dup6\n        /* \"#utility.yul\":7913:7917   */\n      0x20\n        /* \"#utility.yul\":7906:7911   */\n      dup7\n        /* \"#utility.yul\":7902:7918   */\n      add\n        /* \"#utility.yul\":7867:7932   */\n      tag_84\n      jump\t// in\n    tag_194:\n        /* \"#utility.yul\":7957:7963   */\n      dup1\n        /* \"#utility.yul\":7952:7955   */\n      dup5\n        /* \"#utility.yul\":7948:7964   */\n      add\n        /* \"#utility.yul\":7941:7964   */\n      swap2\n      pop\n        /* \"#utility.yul\":7690:7970   */\n      pop\n        /* \"#utility.yul\":7580:7970   */\n      swap3\n      swap2\n      pop\n      pop\n      jump\t// out\n        /* \"#utility.yul\":7976:8407   */\n    tag_37:\n        /* \"#utility.yul\":8154:8157   */\n      0x00\n        /* \"#utility.yul\":8176:8269   */\n      tag_196\n        /* \"#utility.yul\":8265:8268   */\n      dup3\n        /* \"#utility.yul\":8256:8262   */\n      dup6\n        /* \"#utility.yul\":8176:8269   */\n      tag_102\n      jump\t// in\n    tag_196:\n        /* \"#utility.yul\":8169:8269   */\n      swap2\n      pop\n        /* \"#utility.yul\":8286:8381   */\n      tag_197\n        /* \"#utility.yul\":8377:8380   */\n      dup3\n        /* \"#utility.yul\":8368:8374   */\n      dup5\n        /* \"#utility.yul\":8286:8381   */\n      tag_104\n      jump\t// in\n    tag_197:\n        /* \"#utility.yul\":8279:8381   */\n      swap2\n      pop\n        /* \"#utility.yul\":8398:8401   */\n      dup2\n        /* \"#utility.yul\":8391:8401   */\n      swap1\n      pop\n        /* \"#utility.yul\":7976:8407   */\n      swap4\n      swap3\n      pop\n      pop\n      pop\n      jump\t// out\n        /* \"#utility.yul\":8413:8575   */\n    tag_105:\n        /* \"#utility.yul\":8553:8567   */\n      0x656d70747920737472696e670000000000000000000000000000000000000000\n        /* \"#utility.yul\":8549:8550   */\n      0x00\n        /* \"#utility.yul\":8541:8547   */\n      dup3\n        /* \"#utility.yul\":8537:8551   */\n      add\n        /* \"#utility.yul\":8530:8568   */\n      mstore\n        /* \"#utility.yul\":8413:8575   */\n      pop\n      jump\t// out\n        /* \"#utility.yul\":8581:8947   */\n    tag_106:\n        /* \"#utility.yul\":8723:8726   */\n      0x00\n        /* \"#utility.yul\":8744:8811   */\n      tag_200\n        /* \"#utility.yul\":8808:8810   */\n      0x0c\n        /* \"#utility.yul\":8803:8806   */\n      dup4\n        /* \"#utility.yul\":8744:8811   */\n      tag_83\n      jump\t// in\n    tag_200:\n        /* \"#utility.yul\":8737:8811   */\n      swap2\n      pop\n        /* \"#utility.yul\":8820:8913   */\n      tag_201\n        /* \"#utility.yul\":8909:8912   */\n      dup3\n        /* \"#utility.yul\":8820:8913   */\n      tag_105\n      jump\t// in\n    tag_201:\n        /* \"#utility.yul\":8938:8940   */\n      0x20\n        /* \"#utility.yul\":8933:8936   */\n      dup3\n        /* \"#utility.yul\":8929:8941   */\n      add\n        /* \"#utility.yul\":8922:8941   */\n      swap1\n      pop\n        /* \"#utility.yul\":8581:8947   */\n      swap2\n      swap1\n      pop\n      jump\t// out\n        /* \"#utility.yul\":8953:9372   */\n    tag_41:\n        /* \"#utility.yul\":9119:9123   */\n      0x00\n        /* \"#utility.yul\":9157:9159   */\n      0x20\n        /* \"#utility.yul\":9146:9155   */\n      dup3\n        /* \"#utility.yul\":9142:9160   */\n      add\n        /* \"#utility.yul\":9134:9160   */\n      swap1\n      pop\n        /* \"#utility.yul\":9206:9215   */\n      dup2\n        /* \"#utility.yul\":9200:9204   */\n      dup2\n        /* \"#utility.yul\":9196:9216   */\n      sub\n        /* \"#utility.yul\":9192:9193   */\n      0x00\n        /* \"#utility.yul\":9181:9190   */\n      dup4\n        /* \"#utility.yul\":9177:9194   */\n      add\n        /* \"#utility.yul\":9170:9217   */\n      mstore\n        /* \"#utility.yul\":9234:9365   */\n      tag_203\n        /* \"#utility.yul\":9360:9364   */\n      dup2\n        /* \"#utility.yul\":9234:9365   */\n      tag_106\n      jump\t// in\n    tag_203:\n        /* \"#utility.yul\":9226:9365   */\n      swap1\n      pop\n        /* \"#utility.yul\":8953:9372   */\n      swap2\n      swap1\n      pop\n      jump\t// out\n        /* \"#utility.yul\":9378:9569   */\n    tag_49:\n        /* \"#utility.yul\":9418:9421   */\n      0x00\n        /* \"#utility.yul\":9437:9457   */\n      tag_205\n        /* \"#utility.yul\":9455:9456   */\n      dup3\n        /* \"#utility.yul\":9437:9457   */\n      tag_79\n      jump\t// in\n    tag_205:\n        /* \"#utility.yul\":9432:9457   */\n      swap2\n      pop\n        /* \"#utility.yul\":9471:9491   */\n      tag_206\n        /* \"#utility.yul\":9489:9490   */\n      dup4\n        /* \"#utility.yul\":9471:9491   */\n      tag_79\n      jump\t// in\n    tag_206:\n        /* \"#utility.yul\":9466:9491   */\n      swap3\n      pop\n        /* \"#utility.yul\":9514:9515   */\n      dup3\n        /* \"#utility.yul\":9511:9512   */\n      dup3\n        /* \"#utility.yul\":9507:9516   */\n      add\n        /* \"#utility.yul\":9500:9516   */\n      swap1\n      pop\n        /* \"#utility.yul\":9535:9538   */\n      dup1\n        /* \"#utility.yul\":9532:9533   */\n      dup3\n        /* \"#utility.yul\":9529:9539   */\n      gt\n        /* \"#utility.yul\":9526:9562   */\n      iszero\n      tag_207\n      jumpi\n        /* \"#utility.yul\":9542:9560   */\n      tag_208\n      tag_99\n      jump\t// in\n    tag_208:\n        /* \"#utility.yul\":9526:9562   */\n    tag_207:\n        /* \"#utility.yul\":9378:9569   */\n      swap3\n      swap2\n      pop\n      pop\n      jump\t// out\n        /* \"#utility.yul\":9575:9808   */\n    tag_61:\n        /* \"#utility.yul\":9614:9617   */\n      0x00\n        /* \"#utility.yul\":9637:9661   */\n      tag_210\n        /* \"#utility.yul\":9655:9660   */\n      dup3\n        /* \"#utility.yul\":9637:9661   */\n      tag_79\n      jump\t// in\n    tag_210:\n        /* \"#utility.yul\":9628:9661   */\n      swap2\n      pop\n        /* \"#utility.yul\":9683:9749   */\n      0xffffffffffffffffffffffffffffffffffffffffffffffffffffffffffffffff\n        /* \"#utility.yul\":9676:9681   */\n      dup3\n        /* \"#utility.yul\":9673:9750   */\n      sub\n        /* \"#utility.yul\":9670:9773   */\n      tag_211\n      jumpi\n        /* \"#utility.yul\":9753:9771   */\n      tag_212\n      tag_99\n      jump\t// in\n    tag_212:\n        /* \"#utility.yul\":9670:9773   */\n    tag_211:\n        /* \"#utility.yul\":9800:9801   */\n      0x01\n        /* \"#utility.yul\":9793:9798   */\n      dup3\n        /* \"#utility.yul\":9789:9802   */\n      add\n        /* \"#utility.yul\":9782:9802   */\n      swap1\n      pop\n        /* \"#utility.yul\":9575:9808   */\n      swap2\n      swap1\n      pop\n      jump\t// out\n        /* \"#utility.yul\":9814:9977   */\n    tag_107:\n        /* \"#utility.yul\":9954:9969   */\n      0x696e76616c696420726f6d616e00000000000000000000000000000000000000\n        /* \"#utility.yul\":9950:9951   */\n      0x00\n        /* \"#utility.yul\":9942:9948   */\n      dup3\n        /* \"#utility.yul\":9938:9952   */\n      add\n        /* \"#utility.yul\":9931:9970   */\n      mstore\n        /* \"#utility.yul\":9814:9977   */\n      pop\n      jump\t// out\n        /* \"#utility.yul\":9983:10349   */\n    tag_108:\n        /* \"#utility.yul\":10125:10128   */\n      0x00\n        /* \"#utility.yul\":10146:10213   */\n      tag_215\n        /* \"#utility.yul\":10210:10212   */\n      0x0d\n        /* \"#utility.yul\":10205:10208   */\n      dup4\n        /* \"#utility.yul\":10146:10213   */\n      tag_83\n      jump\t// in\n    tag_215:\n        /* \"#utility.yul\":10139:10213   */\n      swap2\n      pop\n        /* \"#utility.yul\":10222:10315   */\n      tag_216\n        /* \"#utility.yul\":10311:10314   */\n      dup3\n        /* \"#utility.yul\":10222:10315   */\n      tag_107\n      jump\t// in\n    tag_216:\n        /* \"#utility.yul\":10340:10342   */\n      0x20\n        /* \"#utility.yul\":10335:10338   */\n      dup3\n        /* \"#utility.yul\":10331:10343   */\n      add\n        /* \"#utility.yul\":10324:10343   */\n      swap1\n      pop\n        /* \"#utility.yul\":9983:10349   */\n      swap2\n      swap1\n      pop\n      jump\t// out\n        /* \"#utility.yul\":10355:10774   */\n    tag_65:\n        /* \"#utility.yul\":10521:10525   */\n      0x00\n        /* \"#utility.yul\":10559:10561   */\n      0x20\n        /* \"#utility.yul\":10548:10557   */\n      dup3\n        /* \"#utility.yul\":10544:10562   */\n      add\n        /* \"#utility.yul\":10536:10562   */\n      swap1\n      pop\n        /* \"#utility.yul\":10608:10617   */\n      dup2\n        /* \"#utility.yul\":10602:10606   */\n      dup2\n        /* \"#utility.yul\":10598:10618   */\n      sub\n        /* \"#utility.yul\":10594:10595   */\n      0x00\n        /* \"#utility.yul\":10583:10592   */\n      dup4\n        /* \"#utility.yul\":10579:10596   */\n      add\n        /* \"#utility.yul\":10572:10619   */\n      mstore\n        /* \"#utility.yul\":10636:10767   */\n      tag_218\n        /* \"#utility.yul\":10762:10766   */\n      dup2\n        /* \"#utility.yul\":10636:10767   */\n      tag_108\n      jump\t// in\n    tag_218:\n        /* \"#utility.yul\":10628:10767   */\n      swap1\n      pop\n        /* \"#utility.yul\":10355:10774   */\n      swap2\n      swap1\n      pop\n      jump\t// out\n        /* \"#utility.yul\":10780:10948   */\n    tag_109:\n        /* \"#utility.yul\":10920:10940   */\n      0x696e76616c696420726f6d616e20636861720000000000000000000000000000\n        /* \"#utility.yul\":10916:10917   */\n      0x00\n        /* \"#utility.yul\":10908:10914   */\n      dup3\n        /* \"#utility.yul\":10904:10918   */\n      add\n        /* \"#utility.yul\":10897:10941   */\n      mstore\n        /* \"#utility.yul\":10780:10948   */\n      pop\n      jump\t// out\n        /* \"#utility.yul\":10954:11320   */\n    tag_110:\n        /* \"#utility.yul\":11096:11099   */\n      0x00\n        /* \"#utility.yul\":11117:11184   */\n      tag_221\n        /* \"#utility.yul\":11181:11183   */\n      0x12\n        /* \"#utility.yul\":11176:11179   */\n      dup4\n        /* \"#utility.yul\":11117:11184   */\n      tag_83\n      jump\t// in\n    tag_221:\n        /* \"#utility.yul\":11110:11184   */\n      swap2\n      pop\n        /* \"#utility.yul\":11193:11286   */\n      tag_222\n        /* \"#utility.yul\":11282:11285   */\n      dup3\n        /* \"#utility.yul\":11193:11286   */\n      tag_109\n      jump\t// in\n    tag_222:\n        /* \"#utility.yul\":11311:11313   */\n      0x20\n        /* \"#utility.yul\":11306:11309   */\n      dup3\n        /* \"#utility.yul\":11302:11314   */\n      add\n        /* \"#utility.yul\":11295:11314   */\n      swap1\n      pop\n        /* \"#utility.yul\":10954:11320   */\n      swap2\n      swap1\n      pop\n      jump\t// out\n        /* \"#utility.yul\":11326:11745   */\n    tag_75:\n        /* \"#utility.yul\":11492:11496   */\n      0x00\n        /* \"#utility.yul\":11530:11532   */\n      0x20\n        /* \"#utility.yul\":11519:11528   */\n      dup3\n        /* \"#utility.yul\":11515:11533   */\n      add\n        /* \"#utility.yul\":11507:11533   */\n      swap1\n      pop\n        /* \"#utility.yul\":11579:11588   */\n      dup2\n        /* \"#utility.yul\":11573:11577   */\n      dup2\n        /* \"#utility.yul\":11569:11589   */\n      sub\n        /* \"#utility.yul\":11565:11566   */\n      0x00\n        /* \"#utility.yul\":11554:11563   */\n      dup4\n        /* \"#utility.yul\":11550:11567   */\n      add\n        /* \"#utility.yul\":11543:11590   */\n      mstore\n        /* \"#utility.yul\":11607:11738   */\n      tag_224\n        /* \"#utility.yul\":11733:11737   */\n      dup2\n        /* \"#utility.yul\":11607:11738   */\n      tag_110\n      jump\t// in\n    tag_224:\n        /* \"#utility.yul\":11599:11738   */\n      swap1\n      pop\n        /* \"#utility.yul\":11326:11745   */\n      swap2\n      swap1\n      pop\n      jump\t// out\n\n    auxdata: 0xa2646970667358221220fb0f66c74bc4150723857b6d1389c2aa05470fa7f5fc68c174bf7fa7e677102864736f6c634300081e0033\n}\n",
				"bytecode": {
					"linkReferences": {},
					"object": "6080604052348015600e575f5ffd5b50610f298061001c5f395ff3fe608060405234801561000f575f5ffd5b5060043610610034575f3560e01c80630cbc513a14610038578063cb159dfe14610068575b5f5ffd5b610052600480360381019061004d9190610955565b610098565b60405161005f91906109f0565b60405180910390f35b610082600480360381019061007d9190610b3c565b61050e565b60405161008f9190610b92565b60405180910390f35b60605f821180156100aa5750610fa082105b6100e9576040517f08c379a00000000000000000000000000000000000000000000000000000000081526004016100e090610bf5565b60405180910390fd5b5f604051806101a001604052806103e8815260200161038481526020016101f48152602001610190815260200160648152602001605a81526020016032815260200160288152602001600a8152602001600981526020016005815260200160048152602001600181525090505f604051806101a001604052806040518060400160405280600181526020017f4d0000000000000000000000000000000000000000000000000000000000000081525081526020016040518060400160405280600281526020017f434d00000000000000000000000000000000000000000000000000000000000081525081526020016040518060400160405280600181526020017f440000000000000000000000000000000000000000000000000000000000000081525081526020016040518060400160405280600281526020017f434400000000000000000000000000000000000000000000000000000000000081525081526020016040518060400160405280600181526020017f430000000000000000000000000000000000000000000000000000000000000081525081526020016040518060400160405280600281526020017f584300000000000000000000000000000000000000000000000000000000000081525081526020016040518060400160405280600181526020017f4c0000000000000000000000000000000000000000000000000000000000000081525081526020016040518060400160405280600281526020017f584c00000000000000000000000000000000000000000000000000000000000081525081526020016040518060400160405280600181526020017f580000000000000000000000000000000000000000000000000000000000000081525081526020016040518060400160405280600281526020017f495800000000000000000000000000000000000000000000000000000000000081525081526020016040518060400160405280600181526020017f560000000000000000000000000000000000000000000000000000000000000081525081526020016040518060400160405280600281526020017f495600000000000000000000000000000000000000000000000000000000000081525081526020016040518060400160405280600181526020017f4900000000000000000000000000000000000000000000000000000000000000815250815250905060605f5f90505b600d811015610502575b8381600d811061048557610484610c13565b5b602002015186106104f5578381600d81106104a3576104a2610c13565b5b6020020151866104b39190610c6d565b9550818382600d81106104c9576104c8610c13565b5b60200201516040516020016104df929190610d1e565b6040516020818303038152906040529150610472565b8080600101915050610468565b50809350505050919050565b5f5f8290505f815111610556576040517f08c379a000000000000000000000000000000000000000000000000000000000815260040161054d90610d8b565b60405180910390fd5b5f5f90505f5f90505b8251811015610636575f61058f84838151811061057f5761057e610c13565b5b602001015160f81c60f81b610690565b905083516001836105a09190610da9565b1015610614575f6105d9856001856105b89190610da9565b815181106105c9576105c8610c13565b5b602001015160f81c60f81b610690565b9050808210156106125781816105ef9190610c6d565b846105fa9190610da9565b93506002836106099190610da9565b9250505061055f565b505b80836106209190610da9565b9250818061062d90610ddc565b9250505061055f565b5f821180156106465750610fa082105b610685576040517f08c379a000000000000000000000000000000000000000000000000000000000815260040161067c90610e6d565b60405180910390fd5b819350505050919050565b5f7f4900000000000000000000000000000000000000000000000000000000000000827effffffffffffffffffffffffffffffffffffffffffffffffffffffffffffff1916036106e3576001905061090c565b7f5600000000000000000000000000000000000000000000000000000000000000827effffffffffffffffffffffffffffffffffffffffffffffffffffffffffffff191603610735576005905061090c565b7f5800000000000000000000000000000000000000000000000000000000000000827effffffffffffffffffffffffffffffffffffffffffffffffffffffffffffff19160361078757600a905061090c565b7f4c00000000000000000000000000000000000000000000000000000000000000827effffffffffffffffffffffffffffffffffffffffffffffffffffffffffffff1916036107d9576032905061090c565b7f4300000000000000000000000000000000000000000000000000000000000000827effffffffffffffffffffffffffffffffffffffffffffffffffffffffffffff19160361082b576064905061090c565b7f4400000000000000000000000000000000000000000000000000000000000000827effffffffffffffffffffffffffffffffffffffffffffffffffffffffffffff19160361087e576101f4905061090c565b7f4d00000000000000000000000000000000000000000000000000000000000000827effffffffffffffffffffffffffffffffffffffffffffffffffffffffffffff1916036108d1576103e8905061090c565b6040517f08c379a000000000000000000000000000000000000000000000000000000000815260040161090390610ed5565b60405180910390fd5b919050565b5f604051905090565b5f5ffd5b5f5ffd5b5f819050919050565b61093481610922565b811461093e575f5ffd5b50565b5f8135905061094f8161092b565b92915050565b5f6020828403121561096a5761096961091a565b5b5f61097784828501610941565b91505092915050565b5f81519050919050565b5f82825260208201905092915050565b8281835e5f83830152505050565b5f601f19601f8301169050919050565b5f6109c282610980565b6109cc818561098a565b93506109dc81856020860161099a565b6109e5816109a8565b840191505092915050565b5f6020820190508181035f830152610a0881846109b8565b905092915050565b5f5ffd5b5f5ffd5b7f4e487b71000000000000000000000000000000000000000000000000000000005f52604160045260245ffd5b610a4e826109a8565b810181811067ffffffffffffffff82111715610a6d57610a6c610a18565b5b80604052505050565b5f610a7f610911565b9050610a8b8282610a45565b919050565b5f67ffffffffffffffff821115610aaa57610aa9610a18565b5b610ab3826109a8565b9050602081019050919050565b828183375f83830152505050565b5f610ae0610adb84610a90565b610a76565b905082815260208101848484011115610afc57610afb610a14565b5b610b07848285610ac0565b509392505050565b5f82601f830112610b2357610b22610a10565b5b8135610b33848260208601610ace565b91505092915050565b5f60208284031215610b5157610b5061091a565b5b5f82013567ffffffffffffffff811115610b6e57610b6d61091e565b5b610b7a84828501610b0f565b91505092915050565b610b8c81610922565b82525050565b5f602082019050610ba55f830184610b83565b92915050565b7f6f7574206f662072616e676500000000000000000000000000000000000000005f82015250565b5f610bdf600c8361098a565b9150610bea82610bab565b602082019050919050565b5f6020820190508181035f830152610c0c81610bd3565b9050919050565b7f4e487b71000000000000000000000000000000000000000000000000000000005f52603260045260245ffd5b7f4e487b71000000000000000000000000000000000000000000000000000000005f52601160045260245ffd5b5f610c7782610922565b9150610c8283610922565b9250828203905081811115610c9a57610c99610c40565b5b92915050565b5f81519050919050565b5f81905092915050565b5f610cbe82610ca0565b610cc88185610caa565b9350610cd881856020860161099a565b80840191505092915050565b5f81905092915050565b5f610cf882610980565b610d028185610ce4565b9350610d1281856020860161099a565b80840191505092915050565b5f610d298285610cb4565b9150610d358284610cee565b91508190509392505050565b7f656d70747920737472696e6700000000000000000000000000000000000000005f82015250565b5f610d75600c8361098a565b9150610d8082610d41565b602082019050919050565b5f6020820190508181035f830152610da281610d69565b9050919050565b5f610db382610922565b9150610dbe83610922565b9250828201905080821115610dd657610dd5610c40565b5b92915050565b5f610de682610922565b91507fffffffffffffffffffffffffffffffffffffffffffffffffffffffffffffffff8203610e1857610e17610c40565b5b600182019050919050565b7f696e76616c696420726f6d616e000000000000000000000000000000000000005f82015250565b5f610e57600d8361098a565b9150610e6282610e23565b602082019050919050565b5f6020820190508181035f830152610e8481610e4b565b9050919050565b7f696e76616c696420726f6d616e206368617200000000000000000000000000005f82015250565b5f610ebf60128361098a565b9150610eca82610e8b565b602082019050919050565b5f6020820190508181035f830152610eec81610eb3565b905091905056fea2646970667358221220fb0f66c74bc4150723857b6d1389c2aa05470fa7f5fc68c174bf7fa7e677102864736f6c634300081e0033",
					"opcodes": "PUSH1 0x80 PUSH1 0x40 MSTORE CALLVALUE DUP1 ISZERO PUSH1 0xE JUMPI PUSH0 PUSH0 REVERT JUMPDEST POP PUSH2 0xF29 DUP1 PUSH2 0x1C PUSH0 CODECOPY PUSH0 RETURN INVALID PUSH1 0x80 PUSH1 0x40 MSTORE CALLVALUE DUP1 ISZERO PUSH2 0xF JUMPI PUSH0 PUSH0 REVERT JUMPDEST POP PUSH1 0x4 CALLDATASIZE LT PUSH2 0x34 JUMPI PUSH0 CALLDATALOAD PUSH1 0xE0 SHR DUP1 PUSH4 0xCBC513A EQ PUSH2 0x38 JUMPI DUP1 PUSH4 0xCB159DFE EQ PUSH2 0x68 JUMPI JUMPDEST PUSH0 PUSH0 REVERT JUMPDEST PUSH2 0x52 PUSH1 0x4 DUP1 CALLDATASIZE SUB DUP2 ADD SWAP1 PUSH2 0x4D SWAP2 SWAP1 PUSH2 0x955 JUMP JUMPDEST PUSH2 0x98 JUMP JUMPDEST PUSH1 0x40 MLOAD PUSH2 0x5F SWAP2 SWAP1 PUSH2 0x9F0 JUMP JUMPDEST PUSH1 0x40 MLOAD DUP1 SWAP2 SUB SWAP1 RETURN JUMPDEST PUSH2 0x82 PUSH1 0x4 DUP1 CALLDATASIZE SUB DUP2 ADD SWAP1 PUSH2 0x7D SWAP2 SWAP1 PUSH2 0xB3C JUMP JUMPDEST PUSH2 0x50E JUMP JUMPDEST PUSH1 0x40 MLOAD PUSH2 0x8F SWAP2 SWAP1 PUSH2 0xB92 JUMP JUMPDEST PUSH1 0x40 MLOAD DUP1 SWAP2 SUB SWAP1 RETURN JUMPDEST PUSH1 0x60 PUSH0 DUP3 GT DUP1 ISZERO PUSH2 0xAA JUMPI POP PUSH2 0xFA0 DUP3 LT JUMPDEST PUSH2 0xE9 JUMPI PUSH1 0x40 MLOAD PUSH32 0x8C379A000000000000000000000000000000000000000000000000000000000 DUP2 MSTORE PUSH1 0x4 ADD PUSH2 0xE0 SWAP1 PUSH2 0xBF5 JUMP JUMPDEST PUSH1 0x40 MLOAD DUP1 SWAP2 SUB SWAP1 REVERT JUMPDEST PUSH0 PUSH1 0x40 MLOAD DUP1 PUSH2 0x1A0 ADD PUSH1 0x40 MSTORE DUP1 PUSH2 0x3E8 DUP2 MSTORE PUSH1 0x20 ADD PUSH2 0x384 DUP2 MSTORE PUSH1 0x20 ADD PUSH2 0x1F4 DUP2 MSTORE PUSH1 0x20 ADD PUSH2 0x190 DUP2 MSTORE PUSH1 0x20 ADD PUSH1 0x64 DUP2 MSTORE PUSH1 0x20 ADD PUSH1 0x5A DUP2 MSTORE PUSH1 0x20 ADD PUSH1 0x32 DUP2 MSTORE PUSH1 0x20 ADD PUSH1 0x28 DUP2 MSTORE PUSH1 0x20 ADD PUSH1 0xA DUP2 MSTORE PUSH1 0x20 ADD PUSH1 0x9 DUP2 MSTORE PUSH1 0x20 ADD PUSH1 0x5 DUP2 MSTORE PUSH1 0x20 ADD PUSH1 0x4 DUP2 MSTORE PUSH1 0x20 ADD PUSH1 0x1 DUP2 MSTORE POP SWAP1 POP PUSH0 PUSH1 0x40 MLOAD DUP1 PUSH2 0x1A0 ADD PUSH1 0x40 MSTORE DUP1 PUSH1 0x40 MLOAD DUP1 PUSH1 0x40 ADD PUSH1 0x40 MSTORE DUP1 PUSH1 0x1 DUP2 MSTORE PUSH1 0x20 ADD PUSH32 0x4D00000000000000000000000000000000000000000000000000000000000000 DUP2 MSTORE POP DUP2 MSTORE PUSH1 0x20 ADD PUSH1 0x40 MLOAD DUP1 PUSH1 0x40 ADD PUSH1 0x40 MSTORE DUP1 PUSH1 0x2 DUP2 MSTORE PUSH1 0x20 ADD PUSH32 0x434D000000000000000000000000000000000000000000000000000000000000 DUP2 MSTORE POP DUP2 MSTORE PUSH1 0x20 ADD PUSH1 0x40 MLOAD DUP1 PUSH1 0x40 ADD PUSH1 0x40 MSTORE DUP1 PUSH1 0x1 DUP2 MSTORE PUSH1 0x20 ADD PUSH32 0x4400000000000000000000000000000000000000000000000000000000000000 DUP2 MSTORE POP DUP2 MSTORE PUSH1 0x20 ADD PUSH1 0x40 MLOAD DUP1 PUSH1 0x40 ADD PUSH1 0x40 MSTORE DUP1 PUSH1 0x2 DUP2 MSTORE PUSH1 0x20 ADD PUSH32 0x4344000000000000000000000000000000000000000000000000000000000000 DUP2 MSTORE POP DUP2 MSTORE PUSH1 0x20 ADD PUSH1 0x40 MLOAD DUP1 PUSH1 0x40 ADD PUSH1 0x40 MSTORE DUP1 PUSH1 0x1 DUP2 MSTORE PUSH1 0x20 ADD PUSH32 0x4300000000000000000000000000000000000000000000000000000000000000 DUP2 MSTORE POP DUP2 MSTORE PUSH1 0x20 ADD PUSH1 0x40 MLOAD DUP1 PUSH1 0x40 ADD PUSH1 0x40 MSTORE DUP1 PUSH1 0x2 DUP2 MSTORE PUSH1 0x20 ADD PUSH32 0x5843000000000000000000000000000000000000000000000000000000000000 DUP2 MSTORE POP DUP2 MSTORE PUSH1 0x20 ADD PUSH1 0x40 MLOAD DUP1 PUSH1 0x40 ADD PUSH1 0x40 MSTORE DUP1 PUSH1 0x1 DUP2 MSTORE PUSH1 0x20 ADD PUSH32 0x4C00000000000000000000000000000000000000000000000000000000000000 DUP2 MSTORE POP DUP2 MSTORE PUSH1 0x20 ADD PUSH1 0x40 MLOAD DUP1 PUSH1 0x40 ADD PUSH1 0x40 MSTORE DUP1 PUSH1 0x2 DUP2 MSTORE PUSH1 0x20 ADD PUSH32 0x584C000000000000000000000000000000000000000000000000000000000000 DUP2 MSTORE POP DUP2 MSTORE PUSH1 0x20 ADD PUSH1 0x40 MLOAD DUP1 PUSH1 0x40 ADD PUSH1 0x40 MSTORE DUP1 PUSH1 0x1 DUP2 MSTORE PUSH1 0x20 ADD PUSH32 0x5800000000000000000000000000000000000000000000000000000000000000 DUP2 MSTORE POP DUP2 MSTORE PUSH1 0x20 ADD PUSH1 0x40 MLOAD DUP1 PUSH1 0x40 ADD PUSH1 0x40 MSTORE DUP1 PUSH1 0x2 DUP2 MSTORE PUSH1 0x20 ADD PUSH32 0x4958000000000000000000000000000000000000000000000000000000000000 DUP2 MSTORE POP DUP2 MSTORE PUSH1 0x20 ADD PUSH1 0x40 MLOAD DUP1 PUSH1 0x40 ADD PUSH1 0x40 MSTORE DUP1 PUSH1 0x1 DUP2 MSTORE PUSH1 0x20 ADD PUSH32 0x5600000000000000000000000000000000000000000000000000000000000000 DUP2 MSTORE POP DUP2 MSTORE PUSH1 0x20 ADD PUSH1 0x40 MLOAD DUP1 PUSH1 0x40 ADD PUSH1 0x40 MSTORE DUP1 PUSH1 0x2 DUP2 MSTORE PUSH1 0x20 ADD PUSH32 0x4956000000000000000000000000000000000000000000000000000000000000 DUP2 MSTORE POP DUP2 MSTORE PUSH1 0x20 ADD PUSH1 0x40 MLOAD DUP1 PUSH1 0x40 ADD PUSH1 0x40 MSTORE DUP1 PUSH1 0x1 DUP2 MSTORE PUSH1 0x20 ADD PUSH32 0x4900000000000000000000000000000000000000000000000000000000000000 DUP2 MSTORE POP DUP2 MSTORE POP SWAP1 POP PUSH1 0x60 PUSH0 PUSH0 SWAP1 POP JUMPDEST PUSH1 0xD DUP2 LT ISZERO PUSH2 0x502 JUMPI JUMPDEST DUP4 DUP2 PUSH1 0xD DUP2 LT PUSH2 0x485 JUMPI PUSH2 0x484 PUSH2 0xC13 JUMP JUMPDEST JUMPDEST PUSH1 0x20 MUL ADD MLOAD DUP7 LT PUSH2 0x4F5 JUMPI DUP4 DUP2 PUSH1 0xD DUP2 LT PUSH2 0x4A3 JUMPI PUSH2 0x4A2 PUSH2 0xC13 JUMP JUMPDEST JUMPDEST PUSH1 0x20 MUL ADD MLOAD DUP7 PUSH2 0x4B3 SWAP2 SWAP1 PUSH2 0xC6D JUMP JUMPDEST SWAP6 POP DUP2 DUP4 DUP3 PUSH1 0xD DUP2 LT PUSH2 0x4C9 JUMPI PUSH2 0x4C8 PUSH2 0xC13 JUMP JUMPDEST JUMPDEST PUSH1 0x20 MUL ADD MLOAD PUSH1 0x40 MLOAD PUSH1 0x20 ADD PUSH2 0x4DF SWAP3 SWAP2 SWAP1 PUSH2 0xD1E JUMP JUMPDEST PUSH1 0x40 MLOAD PUSH1 0x20 DUP2 DUP4 SUB SUB DUP2 MSTORE SWAP1 PUSH1 0x40 MSTORE SWAP2 POP PUSH2 0x472 JUMP JUMPDEST DUP1 DUP1 PUSH1 0x1 ADD SWAP2 POP POP PUSH2 0x468 JUMP JUMPDEST POP DUP1 SWAP4 POP POP POP POP SWAP2 SWAP1 POP JUMP JUMPDEST PUSH0 PUSH0 DUP3 SWAP1 POP PUSH0 DUP2 MLOAD GT PUSH2 0x556 JUMPI PUSH1 0x40 MLOAD PUSH32 0x8C379A000000000000000000000000000000000000000000000000000000000 DUP2 MSTORE PUSH1 0x4 ADD PUSH2 0x54D SWAP1 PUSH2 0xD8B JUMP JUMPDEST PUSH1 0x40 MLOAD DUP1 SWAP2 SUB SWAP1 REVERT JUMPDEST PUSH0 PUSH0 SWAP1 POP PUSH0 PUSH0 SWAP1 POP JUMPDEST DUP3 MLOAD DUP2 LT ISZERO PUSH2 0x636 JUMPI PUSH0 PUSH2 0x58F DUP5 DUP4 DUP2 MLOAD DUP2 LT PUSH2 0x57F JUMPI PUSH2 0x57E PUSH2 0xC13 JUMP JUMPDEST JUMPDEST PUSH1 0x20 ADD ADD MLOAD PUSH1 0xF8 SHR PUSH1 0xF8 SHL PUSH2 0x690 JUMP JUMPDEST SWAP1 POP DUP4 MLOAD PUSH1 0x1 DUP4 PUSH2 0x5A0 SWAP2 SWAP1 PUSH2 0xDA9 JUMP JUMPDEST LT ISZERO PUSH2 0x614 JUMPI PUSH0 PUSH2 0x5D9 DUP6 PUSH1 0x1 DUP6 PUSH2 0x5B8 SWAP2 SWAP1 PUSH2 0xDA9 JUMP JUMPDEST DUP2 MLOAD DUP2 LT PUSH2 0x5C9 JUMPI PUSH2 0x5C8 PUSH2 0xC13 JUMP JUMPDEST JUMPDEST PUSH1 0x20 ADD ADD MLOAD PUSH1 0xF8 SHR PUSH1 0xF8 SHL PUSH2 0x690 JUMP JUMPDEST SWAP1 POP DUP1 DUP3 LT ISZERO PUSH2 0x612 JUMPI DUP2 DUP2 PUSH2 0x5EF SWAP2 SWAP1 PUSH2 0xC6D JUMP JUMPDEST DUP5 PUSH2 0x5FA SWAP2 SWAP1 PUSH2 0xDA9 JUMP JUMPDEST SWAP4 POP PUSH1 0x2 DUP4 PUSH2 0x609 SWAP2 SWAP1 PUSH2 0xDA9 JUMP JUMPDEST SWAP3 POP POP POP PUSH2 0x55F JUMP JUMPDEST POP JUMPDEST DUP1 DUP4 PUSH2 0x620 SWAP2 SWAP1 PUSH2 0xDA9 JUMP JUMPDEST SWAP3 POP DUP2 DUP1 PUSH2 0x62D SWAP1 PUSH2 0xDDC JUMP JUMPDEST SWAP3 POP POP POP PUSH2 0x55F JUMP JUMPDEST PUSH0 DUP3 GT DUP1 ISZERO PUSH2 0x646 JUMPI POP PUSH2 0xFA0 DUP3 LT JUMPDEST PUSH2 0x685 JUMPI PUSH1 0x40 MLOAD PUSH32 0x8C379A000000000000000000000000000000000000000000000000000000000 DUP2 MSTORE PUSH1 0x4 ADD PUSH2 0x67C SWAP1 PUSH2 0xE6D JUMP JUMPDEST PUSH1 0x40 MLOAD DUP1 SWAP2 SUB SWAP1 REVERT JUMPDEST DUP2 SWAP4 POP POP POP POP SWAP2 SWAP1 POP JUMP JUMPDEST PUSH0 PUSH32 0x4900000000000000000000000000000000000000000000000000000000000000 DUP3 PUSH31 0xFFFFFFFFFFFFFFFFFFFFFFFFFFFFFFFFFFFFFFFFFFFFFFFFFFFFFFFFFFFFFF NOT AND SUB PUSH2 0x6E3 JUMPI PUSH1 0x1 SWAP1 POP PUSH2 0x90C JUMP JUMPDEST PUSH32 0x5600000000000000000000000000000000000000000000000000000000000000 DUP3 PUSH31 0xFFFFFFFFFFFFFFFFFFFFFFFFFFFFFFFFFFFFFFFFFFFFFFFFFFFFFFFFFFFFFF NOT AND SUB PUSH2 0x735 JUMPI PUSH1 0x5 SWAP1 POP PUSH2 0x90C JUMP JUMPDEST PUSH32 0x5800000000000000000000000000000000000000000000000000000000000000 DUP3 PUSH31 0xFFFFFFFFFFFFFFFFFFFFFFFFFFFFFFFFFFFFFFFFFFFFFFFFFFFFFFFFFFFFFF NOT AND SUB PUSH2 0x787 JUMPI PUSH1 0xA SWAP1 POP PUSH2 0x90C JUMP JUMPDEST PUSH32 0x4C00000000000000000000000000000000000000000000000000000000000000 DUP3 PUSH31 0xFFFFFFFFFFFFFFFFFFFFFFFFFFFFFFFFFFFFFFFFFFFFFFFFFFFFFFFFFFFFFF NOT AND SUB PUSH2 0x7D9 JUMPI PUSH1 0x32 SWAP1 POP PUSH2 0x90C JUMP JUMPDEST PUSH32 0x4300000000000000000000000000000000000000000000000000000000000000 DUP3 PUSH31 0xFFFFFFFFFFFFFFFFFFFFFFFFFFFFFFFFFFFFFFFFFFFFFFFFFFFFFFFFFFFFFF NOT AND SUB PUSH2 0x82B JUMPI PUSH1 0x64 SWAP1 POP PUSH2 0x90C JUMP JUMPDEST PUSH32 0x4400000000000000000000000000000000000000000000000000000000000000 DUP3 PUSH31 0xFFFFFFFFFFFFFFFFFFFFFFFFFFFFFFFFFFFFFFFFFFFFFFFFFFFFFFFFFFFFFF NOT AND SUB PUSH2 0x87E JUMPI PUSH2 0x1F4 SWAP1 POP PUSH2 0x90C JUMP JUMPDEST PUSH32 0x4D00000000000000000000000000000000000000000000000000000000000000 DUP3 PUSH31 0xFFFFFFFFFFFFFFFFFFFFFFFFFFFFFFFFFFFFFFFFFFFFFFFFFFFFFFFFFFFFFF NOT AND SUB PUSH2 0x8D1 JUMPI PUSH2 0x3E8 SWAP1 POP PUSH2 0x90C JUMP JUMPDEST PUSH1 0x40 MLOAD PUSH32 0x8C379A000000000000000000000000000000000000000000000000000000000 DUP2 MSTORE PUSH1 0x4 ADD PUSH2 0x903 SWAP1 PUSH2 0xED5 JUMP JUMPDEST PUSH1 0x40 MLOAD DUP1 SWAP2 SUB SWAP1 REVERT JUMPDEST SWAP2 SWAP1 POP JUMP JUMPDEST PUSH0 PUSH1 0x40 MLOAD SWAP1 POP SWAP1 JUMP JUMPDEST PUSH0 PUSH0 REVERT JUMPDEST PUSH0 PUSH0 REVERT JUMPDEST PUSH0 DUP2 SWAP1 POP SWAP2 SWAP1 POP JUMP JUMPDEST PUSH2 0x934 DUP2 PUSH2 0x922 JUMP JUMPDEST DUP2 EQ PUSH2 0x93E JUMPI PUSH0 PUSH0 REVERT JUMPDEST POP JUMP JUMPDEST PUSH0 DUP2 CALLDATALOAD SWAP1 POP PUSH2 0x94F DUP2 PUSH2 0x92B JUMP JUMPDEST SWAP3 SWAP2 POP POP JUMP JUMPDEST PUSH0 PUSH1 0x20 DUP3 DUP5 SUB SLT ISZERO PUSH2 0x96A JUMPI PUSH2 0x969 PUSH2 0x91A JUMP JUMPDEST JUMPDEST PUSH0 PUSH2 0x977 DUP5 DUP3 DUP6 ADD PUSH2 0x941 JUMP JUMPDEST SWAP2 POP POP SWAP3 SWAP2 POP POP JUMP JUMPDEST PUSH0 DUP2 MLOAD SWAP1 POP SWAP2 SWAP1 POP JUMP JUMPDEST PUSH0 DUP3 DUP3 MSTORE PUSH1 0x20 DUP3 ADD SWAP1 POP SWAP3 SWAP2 POP POP JUMP JUMPDEST DUP3 DUP2 DUP4 MCOPY PUSH0 DUP4 DUP4 ADD MSTORE POP POP POP JUMP JUMPDEST PUSH0 PUSH1 0x1F NOT PUSH1 0x1F DUP4 ADD AND SWAP1 POP SWAP2 SWAP1 POP JUMP JUMPDEST PUSH0 PUSH2 0x9C2 DUP3 PUSH2 0x980 JUMP JUMPDEST PUSH2 0x9CC DUP2 DUP6 PUSH2 0x98A JUMP JUMPDEST SWAP4 POP PUSH2 0x9DC DUP2 DUP6 PUSH1 0x20 DUP7 ADD PUSH2 0x99A JUMP JUMPDEST PUSH2 0x9E5 DUP2 PUSH2 0x9A8 JUMP JUMPDEST DUP5 ADD SWAP2 POP POP SWAP3 SWAP2 POP POP JUMP JUMPDEST PUSH0 PUSH1 0x20 DUP3 ADD SWAP1 POP DUP2 DUP2 SUB PUSH0 DUP4 ADD MSTORE PUSH2 0xA08 DUP2 DUP5 PUSH2 0x9B8 JUMP JUMPDEST SWAP1 POP SWAP3 SWAP2 POP POP JUMP JUMPDEST PUSH0 PUSH0 REVERT JUMPDEST PUSH0 PUSH0 REVERT JUMPDEST PUSH32 0x4E487B7100000000000000000000000000000000000000000000000000000000 PUSH0 MSTORE PUSH1 0x41 PUSH1 0x4 MSTORE PUSH1 0x24 PUSH0 REVERT JUMPDEST PUSH2 0xA4E DUP3 PUSH2 0x9A8 JUMP JUMPDEST DUP2 ADD DUP2 DUP2 LT PUSH8 0xFFFFFFFFFFFFFFFF DUP3 GT OR ISZERO PUSH2 0xA6D JUMPI PUSH2 0xA6C PUSH2 0xA18 JUMP JUMPDEST JUMPDEST DUP1 PUSH1 0x40 MSTORE POP POP POP JUMP JUMPDEST PUSH0 PUSH2 0xA7F PUSH2 0x911 JUMP JUMPDEST SWAP1 POP PUSH2 0xA8B DUP3 DUP3 PUSH2 0xA45 JUMP JUMPDEST SWAP2 SWAP1 POP JUMP JUMPDEST PUSH0 PUSH8 0xFFFFFFFFFFFFFFFF DUP3 GT ISZERO PUSH2 0xAAA JUMPI PUSH2 0xAA9 PUSH2 0xA18 JUMP JUMPDEST JUMPDEST PUSH2 0xAB3 DUP3 PUSH2 0x9A8 JUMP JUMPDEST SWAP1 POP PUSH1 0x20 DUP2 ADD SWAP1 POP SWAP2 SWAP1 POP JUMP JUMPDEST DUP3 DUP2 DUP4 CALLDATACOPY PUSH0 DUP4 DUP4 ADD MSTORE POP POP POP JUMP JUMPDEST PUSH0 PUSH2 0xAE0 PUSH2 0xADB DUP5 PUSH2 0xA90 JUMP JUMPDEST PUSH2 0xA76 JUMP JUMPDEST SWAP1 POP DUP3 DUP2 MSTORE PUSH1 0x20 DUP2 ADD DUP5 DUP5 DUP5 ADD GT ISZERO PUSH2 0xAFC JUMPI PUSH2 0xAFB PUSH2 0xA14 JUMP JUMPDEST JUMPDEST PUSH2 0xB07 DUP5 DUP3 DUP6 PUSH2 0xAC0 JUMP JUMPDEST POP SWAP4 SWAP3 POP POP POP JUMP JUMPDEST PUSH0 DUP3 PUSH1 0x1F DUP4 ADD SLT PUSH2 0xB23 JUMPI PUSH2 0xB22 PUSH2 0xA10 JUMP JUMPDEST JUMPDEST DUP2 CALLDATALOAD PUSH2 0xB33 DUP5 DUP3 PUSH1 0x20 DUP7 ADD PUSH2 0xACE JUMP JUMPDEST SWAP2 POP POP SWAP3 SWAP2 POP POP JUMP JUMPDEST PUSH0 PUSH1 0x20 DUP3 DUP5 SUB SLT ISZERO PUSH2 0xB51 JUMPI PUSH2 0xB50 PUSH2 0x91A JUMP JUMPDEST JUMPDEST PUSH0 DUP3 ADD CALLDATALOAD PUSH8 0xFFFFFFFFFFFFFFFF DUP2 GT ISZERO PUSH2 0xB6E JUMPI PUSH2 0xB6D PUSH2 0x91E JUMP JUMPDEST JUMPDEST PUSH2 0xB7A DUP5 DUP3 DUP6 ADD PUSH2 0xB0F JUMP JUMPDEST SWAP2 POP POP SWAP3 SWAP2 POP POP JUMP JUMPDEST PUSH2 0xB8C DUP2 PUSH2 0x922 JUMP JUMPDEST DUP3 MSTORE POP POP JUMP JUMPDEST PUSH0 PUSH1 0x20 DUP3 ADD SWAP1 POP PUSH2 0xBA5 PUSH0 DUP4 ADD DUP5 PUSH2 0xB83 JUMP JUMPDEST SWAP3 SWAP2 POP POP JUMP JUMPDEST PUSH32 0x6F7574206F662072616E67650000000000000000000000000000000000000000 PUSH0 DUP3 ADD MSTORE POP JUMP JUMPDEST PUSH0 PUSH2 0xBDF PUSH1 0xC DUP4 PUSH2 0x98A JUMP JUMPDEST SWAP2 POP PUSH2 0xBEA DUP3 PUSH2 0xBAB JUMP JUMPDEST PUSH1 0x20 DUP3 ADD SWAP1 POP SWAP2 SWAP1 POP JUMP JUMPDEST PUSH0 PUSH1 0x20 DUP3 ADD SWAP1 POP DUP2 DUP2 SUB PUSH0 DUP4 ADD MSTORE PUSH2 0xC0C DUP2 PUSH2 0xBD3 JUMP JUMPDEST SWAP1 POP SWAP2 SWAP1 POP JUMP JUMPDEST PUSH32 0x4E487B7100000000000000000000000000000000000000000000000000000000 PUSH0 MSTORE PUSH1 0x32 PUSH1 0x4 MSTORE PUSH1 0x24 PUSH0 REVERT JUMPDEST PUSH32 0x4E487B7100000000000000000000000000000000000000000000000000000000 PUSH0 MSTORE PUSH1 0x11 PUSH1 0x4 MSTORE PUSH1 0x24 PUSH0 REVERT JUMPDEST PUSH0 PUSH2 0xC77 DUP3 PUSH2 0x922 JUMP JUMPDEST SWAP2 POP PUSH2 0xC82 DUP4 PUSH2 0x922 JUMP JUMPDEST SWAP3 POP DUP3 DUP3 SUB SWAP1 POP DUP2 DUP2 GT ISZERO PUSH2 0xC9A JUMPI PUSH2 0xC99 PUSH2 0xC40 JUMP JUMPDEST JUMPDEST SWAP3 SWAP2 POP POP JUMP JUMPDEST PUSH0 DUP2 MLOAD SWAP1 POP SWAP2 SWAP1 POP JUMP JUMPDEST PUSH0 DUP2 SWAP1 POP SWAP3 SWAP2 POP POP JUMP JUMPDEST PUSH0 PUSH2 0xCBE DUP3 PUSH2 0xCA0 JUMP JUMPDEST PUSH2 0xCC8 DUP2 DUP6 PUSH2 0xCAA JUMP JUMPDEST SWAP4 POP PUSH2 0xCD8 DUP2 DUP6 PUSH1 0x20 DUP7 ADD PUSH2 0x99A JUMP JUMPDEST DUP1 DUP5 ADD SWAP2 POP POP SWAP3 SWAP2 POP POP JUMP JUMPDEST PUSH0 DUP2 SWAP1 POP SWAP3 SWAP2 POP POP JUMP JUMPDEST PUSH0 PUSH2 0xCF8 DUP3 PUSH2 0x980 JUMP JUMPDEST PUSH2 0xD02 DUP2 DUP6 PUSH2 0xCE4 JUMP JUMPDEST SWAP4 POP PUSH2 0xD12 DUP2 DUP6 PUSH1 0x20 DUP7 ADD PUSH2 0x99A JUMP JUMPDEST DUP1 DUP5 ADD SWAP2 POP POP SWAP3 SWAP2 POP POP JUMP JUMPDEST PUSH0 PUSH2 0xD29 DUP3 DUP6 PUSH2 0xCB4 JUMP JUMPDEST SWAP2 POP PUSH2 0xD35 DUP3 DUP5 PUSH2 0xCEE JUMP JUMPDEST SWAP2 POP DUP2 SWAP1 POP SWAP4 SWAP3 POP POP POP JUMP JUMPDEST PUSH32 0x656D70747920737472696E670000000000000000000000000000000000000000 PUSH0 DUP3 ADD MSTORE POP JUMP JUMPDEST PUSH0 PUSH2 0xD75 PUSH1 0xC DUP4 PUSH2 0x98A JUMP JUMPDEST SWAP2 POP PUSH2 0xD80 DUP3 PUSH2 0xD41 JUMP JUMPDEST PUSH1 0x20 DUP3 ADD SWAP1 POP SWAP2 SWAP1 POP JUMP JUMPDEST PUSH0 PUSH1 0x20 DUP3 ADD SWAP1 POP DUP2 DUP2 SUB PUSH0 DUP4 ADD MSTORE PUSH2 0xDA2 DUP2 PUSH2 0xD69 JUMP JUMPDEST SWAP1 POP SWAP2 SWAP1 POP JUMP JUMPDEST PUSH0 PUSH2 0xDB3 DUP3 PUSH2 0x922 JUMP JUMPDEST SWAP2 POP PUSH2 0xDBE DUP4 PUSH2 0x922 JUMP JUMPDEST SWAP3 POP DUP3 DUP3 ADD SWAP1 POP DUP1 DUP3 GT ISZERO PUSH2 0xDD6 JUMPI PUSH2 0xDD5 PUSH2 0xC40 JUMP JUMPDEST JUMPDEST SWAP3 SWAP2 POP POP JUMP JUMPDEST PUSH0 PUSH2 0xDE6 DUP3 PUSH2 0x922 JUMP JUMPDEST SWAP2 POP PUSH32 0xFFFFFFFFFFFFFFFFFFFFFFFFFFFFFFFFFFFFFFFFFFFFFFFFFFFFFFFFFFFFFFFF DUP3 SUB PUSH2 0xE18 JUMPI PUSH2 0xE17 PUSH2 0xC40 JUMP JUMPDEST JUMPDEST PUSH1 0x1 DUP3 ADD SWAP1 POP SWAP2 SWAP1 POP JUMP JUMPDEST PUSH32 0x696E76616C696420726F6D616E00000000000000000000000000000000000000 PUSH0 DUP3 ADD MSTORE POP JUMP JUMPDEST PUSH0 PUSH2 0xE57 PUSH1 0xD DUP4 PUSH2 0x98A JUMP JUMPDEST SWAP2 POP PUSH2 0xE62 DUP3 PUSH2 0xE23 JUMP JUMPDEST PUSH1 0x20 DUP3 ADD SWAP1 POP SWAP2 SWAP1 POP JUMP JUMPDEST PUSH0 PUSH1 0x20 DUP3 ADD SWAP1 POP DUP2 DUP2 SUB PUSH0 DUP4 ADD MSTORE PUSH2 0xE84 DUP2 PUSH2 0xE4B JUMP JUMPDEST SWAP1 POP SWAP2 SWAP1 POP JUMP JUMPDEST PUSH32 0x696E76616C696420726F6D616E20636861720000000000000000000000000000 PUSH0 DUP3 ADD MSTORE POP JUMP JUMPDEST PUSH0 PUSH2 0xEBF PUSH1 0x12 DUP4 PUSH2 0x98A JUMP JUMPDEST SWAP2 POP PUSH2 0xECA DUP3 PUSH2 0xE8B JUMP JUMPDEST PUSH1 0x20 DUP3 ADD SWAP1 POP SWAP2 SWAP1 POP JUMP JUMPDEST PUSH0 PUSH1 0x20 DUP3 ADD SWAP1 POP DUP2 DUP2 SUB PUSH0 DUP4 ADD MSTORE PUSH2 0xEEC DUP2 PUSH2 0xEB3 JUMP JUMPDEST SWAP1 POP SWAP2 SWAP1 POP JUMP INVALID LOG2 PUSH5 0x6970667358 0x22 SLT KECCAK256 EXTSTATICCALL 0xF PUSH7 0xC74BC415072385 PUSH28 0x6D1389C2AA05470FA7F5FC68C174BF7FA7E677102864736F6C634300 ADDMOD 0x1E STOP CALLER "
				},
				"gasEstimates": {
					"creation": {
						"codeDepositCost": "776200",
						"executionCost": "810",
						"totalCost": "777010"
					},
					"external": {
						"intToRoman(uint256)": "infinite",
						"romanToInt(string)": "infinite"
					},
					"internal": {
						"_value(bytes1)": "infinite"
					}
				},
				"methodIdentifiers": {
					"intToRoman(uint256)": "0cbc513a",
					"romanToInt(string)": "cb159dfe"
				}
			},
			"storageLayout": {
				"storage": [],
				"types": null
			},
			"userdoc": {
				"kind": "user",
				"methods": {},
				"version": 1
			}
		}
	}
}