{
	"5.1MyToken.sol": {
		"MyToken": {
			"abi": [
				{
					"inputs": [
						{
							"internalType": "string",
							"name": "_name",
							"type": "string"
						},
						{
							"internalType": "string",
							"name": "_sybol",
							"type": "string"
						},
						{
							"internalType": "uint8",
							"name": "_decimals",
							"type": "uint8"
						},
						{
							"internalType": "uint256",
							"name": "_supplies",
							"type": "uint256"
						}
					],
					"stateMutability": "nonpayable",
					"type": "constructor"
				},
				{
					"anonymous": false,
					"inputs": [
						{
							"indexed": true,
							"internalType": "address",
							"name": "owner",
							"type": "address"
						},
						{
							"indexed": true,
							"internalType": "address",
							"name": "spender",
							"type": "address"
						},
						{
							"indexed": false,
							"internalType": "uint256",
							"name": "value",
							"type": "uint256"
						}
					],
					"name": "Approval",
					"type": "event"
				},
				{
					"anonymous": false,
					"inputs": [
						{
							"indexed": true,
							"internalType": "address",
							"name": "from",
							"type": "address"
						},
						{
							"indexed": true,
							"internalType": "address",
							"name": "to",
							"type": "address"
						},
						{
							"indexed": false,
							"internalType": "uint256",
							"name": "value",
							"type": "uint256"
						}
					],
					"name": "Transfer",
					"type": "event"
				},
				{
					"inputs": [
						{
							"internalType": "address",
							"name": "",
							"type": "address"
						},
						{
							"internalType": "address",
							"name": "",
							"type": "address"
						}
					],
					"name": "allowences",
					"outputs": [
						{
							"internalType": "uint256",
							"name": "",
							"type": "uint256"
						}
					],
					"stateMutability": "view",
					"type": "function"
				},
				{
					"inputs": [
						{
							"internalType": "address",
							"name": "spender",
							"type": "address"
						},
						{
							"internalType": "uint256",
							"name": "amount",
							"type": "uint256"
						}
					],
					"name": "approve",
					"outputs": [
						{
							"internalType": "bool",
							"name": "",
							"type": "bool"
						}
					],
					"stateMutability": "nonpayable",
					"type": "function"
				},
				{
					"inputs": [
						{
							"internalType": "address",
							"name": "",
							"type": "address"
						}
					],
					"name": "balanceOf",
					"outputs": [
						{
							"internalType": "uint256",
							"name": "",
							"type": "uint256"
						}
					],
					"stateMutability": "view",
					"type": "function"
				},
				{
					"inputs": [
						{
							"internalType": "uint256",
							"name": "amount",
							"type": "uint256"
						}
					],
					"name": "burn",
					"outputs": [
						{
							"internalType": "bool",
							"name": "",
							"type": "bool"
						}
					],
					"stateMutability": "nonpayable",
					"type": "function"
				},
				{
					"inputs": [],
					"name": "decimals",
					"outputs": [
						{
							"internalType": "uint8",
							"name": "",
							"type": "uint8"
						}
					],
					"stateMutability": "view",
					"type": "function"
				},
				{
					"inputs": [
						{
							"internalType": "address",
							"name": "to",
							"type": "address"
						},
						{
							"internalType": "uint256",
							"name": "amount",
							"type": "uint256"
						}
					],
					"name": "mint",
					"outputs": [
						{
							"internalType": "bool",
							"name": "",
							"type": "bool"
						}
					],
					"stateMutability": "nonpayable",
					"type": "function"
				},
				{
					"inputs": [],
					"name": "name",
					"outputs": [
						{
							"internalType": "string",
							"name": "",
							"type": "string"
						}
					],
					"stateMutability": "view",
					"type": "function"
				},
				{
					"inputs": [],
					"name": "owner",
					"outputs": [
						{
							"internalType": "address",
							"name": "",
							"type": "address"
						}
					],
					"stateMutability": "view",
					"type": "function"
				},
				{
					"inputs": [],
					"name": "showMyBalance",
					"outputs": [
						{
							"internalType": "uint256",
							"name": "",
							"type": "uint256"
						}
					],
					"stateMutability": "view",
					"type": "function"
				},
				{
					"inputs": [],
					"name": "switchEnable",
					"outputs": [],
					"stateMutability": "nonpayable",
					"type": "function"
				},
				{
					"inputs": [],
					"name": "sybol",
					"outputs": [
						{
							"internalType": "string",
							"name": "",
							"type": "string"
						}
					],
					"stateMutability": "view",
					"type": "function"
				},
				{
					"inputs": [],
					"name": "totalSupply",
					"outputs": [
						{
							"internalType": "uint256",
							"name": "",
							"type": "uint256"
						}
					],
					"stateMutability": "view",
					"type": "function"
				},
				{
					"inputs": [
						{
							"internalType": "address",
							"name": "to",
							"type": "address"
						},
						{
							"internalType": "uint256",
							"name": "amount",
							"type": "uint256"
						}
					],
					"name": "transfer",
					"outputs": [
						{
							"internalType": "bool",
							"name": "",
							"type": "bool"
						}
					],
					"stateMutability": "nonpayable",
					"type": "function"
				},
				{
					"inputs": [],
					"name": "transferEnable",
					"outputs": [
						{
							"internalType": "bool",
							"name": "",
							"type": "bool"
						}
					],
					"stateMutability": "view",
					"type": "function"
				},
				{
					"inputs": [
						{
							"internalType": "address",
							"name": "from",
							"type": "address"
						},
						{
							"internalType": "address",
							"name": "to",
							"type": "address"
						},
						{
							"internalType": "uint256",
							"name": "amount",
							"type": "uint256"
						}
					],
					"name": "transferFrom",
					"outputs": [
						{
							"internalType": "bool",
							"name": "",
							"type": "bool"
						}
					],
					"stateMutability": "nonpayable",
					"type": "function"
				}
			],
			"devdoc": {
				"kind": "dev",
				"methods": {},
				"version": 1
			},
			"evm": {
				"assembly": "    /* \"5.1MyToken.sol\":57:3422  contract MyToken {... */\n  mstore(0x40, 0xa0)\n    /* \"5.1MyToken.sol\":543:923  constructor(string memory _name, string memory _sybol, uint8 _decimals, uint256 _supplies) {... */\n  callvalue\n  dup1\n  iszero\n  tag_1\n  jumpi\n  revert(0x00, 0x00)\ntag_1:\n  pop\n  mload(0x40)\n  sub(codesize, bytecodeSize)\n  dup1\n  bytecodeSize\n  dup4\n  codecopy\n  dup2\n  dup2\n  add\n  0x40\n  mstore\n  dup2\n  add\n  swap1\n  tag_2\n  swap2\n  swap1\n  tag_3\n  jump\t// in\ntag_2:\n    /* \"5.1MyToken.sol\":651:656  _name */\n  dup4\n    /* \"5.1MyToken.sol\":644:648  name */\n  0x00\n    /* \"5.1MyToken.sol\":644:656  name = _name */\n  swap1\n  dup2\n  tag_6\n  swap2\n  swap1\n  tag_7\n  jump\t// in\ntag_6:\n  pop\n    /* \"5.1MyToken.sol\":674:680  _sybol */\n  dup3\n    /* \"5.1MyToken.sol\":666:671  sybol */\n  0x01\n    /* \"5.1MyToken.sol\":666:680  sybol = _sybol */\n  swap1\n  dup2\n  tag_8\n  swap2\n  swap1\n  tag_7\n  jump\t// in\ntag_8:\n  pop\n    /* \"5.1MyToken.sol\":701:710  _decimals */\n  dup2\n    /* \"5.1MyToken.sol\":690:698  decimals */\n  0x02\n  0x00\n    /* \"5.1MyToken.sol\":690:710  decimals = _decimals */\n  0x0100\n  exp\n  dup2\n  sload\n  dup2\n  0xff\n  mul\n  not\n  and\n  swap1\n  dup4\n  0xff\n  and\n  mul\n  or\n  swap1\n  sstore\n  pop\n    /* \"5.1MyToken.sol\":750:759  _decimals */\n  dup2\n    /* \"5.1MyToken.sol\":746:748  10 */\n  0x0a\n    /* \"5.1MyToken.sol\":746:759  10**_decimals */\n  tag_9\n  swap2\n  swap1\n  tag_10\n  jump\t// in\ntag_9:\n    /* \"5.1MyToken.sol\":734:743  _supplies */\n  dup2\n    /* \"5.1MyToken.sol\":734:759  _supplies * 10**_decimals */\n  tag_11\n  swap2\n  swap1\n  tag_12\n  jump\t// in\ntag_11:\n    /* \"5.1MyToken.sol\":720:731  totalSupply */\n  0x03\n    /* \"5.1MyToken.sol\":720:759  totalSupply = _supplies * 10**_decimals */\n  dup2\n  swap1\n  sstore\n  pop\n    /* \"5.1MyToken.sol\":787:791  true */\n  0x01\n    /* \"5.1MyToken.sol\":770:784  transferEnable */\n  0x04\n  0x00\n    /* \"5.1MyToken.sol\":770:791  transferEnable = true */\n  0x0100\n  exp\n  dup2\n  sload\n  dup2\n  0xff\n  mul\n  not\n  and\n  swap1\n  dup4\n  iszero\n  iszero\n  mul\n  or\n  swap1\n  sstore\n  pop\n    /* \"5.1MyToken.sol\":809:819  msg.sender */\n  caller\n    /* \"5.1MyToken.sol\":801:819  owner = msg.sender */\n  0xffffffffffffffffffffffffffffffffffffffff\n  and\n  0x80\n  dup2\n  0xffffffffffffffffffffffffffffffffffffffff\n  and\n  dup2\n  mstore\n  pop\n  pop\n    /* \"5.1MyToken.sol\":849:860  totalSupply */\n  sload(0x03)\n    /* \"5.1MyToken.sol\":830:839  balanceOf */\n  0x05\n    /* \"5.1MyToken.sol\":830:846  balanceOf[owner] */\n  0x00\n    /* \"5.1MyToken.sol\":840:845  owner */\n  mload(0x80)\n    /* \"5.1MyToken.sol\":830:846  balanceOf[owner] */\n  0xffffffffffffffffffffffffffffffffffffffff\n  and\n  0xffffffffffffffffffffffffffffffffffffffff\n  and\n  dup2\n  mstore\n  0x20\n  add\n  swap1\n  dup2\n  mstore\n  0x20\n  add\n  0x00\n  keccak256\n    /* \"5.1MyToken.sol\":830:860  balanceOf[owner] = totalSupply */\n  dup2\n  swap1\n  sstore\n  pop\n    /* \"5.1MyToken.sol\":897:902  owner */\n  mload(0x80)\n    /* \"5.1MyToken.sol\":876:916  Transfer(address(0), owner, totalSupply) */\n  0xffffffffffffffffffffffffffffffffffffffff\n  and\n    /* \"5.1MyToken.sol\":893:894  0 */\n  0x00\n    /* \"5.1MyToken.sol\":876:916  Transfer(address(0), owner, totalSupply) */\n  0xffffffffffffffffffffffffffffffffffffffff\n  and\n  0xddf252ad1be2c89b69c2b068fc378daa952ba7f163c4a11628f55a4df523b3ef\n    /* \"5.1MyToken.sol\":904:915  totalSupply */\n  sload(0x03)\n    /* \"5.1MyToken.sol\":876:916  Transfer(address(0), owner, totalSupply) */\n  mload(0x40)\n  tag_13\n  swap2\n  swap1\n  tag_14\n  jump\t// in\ntag_13:\n  mload(0x40)\n  dup1\n  swap2\n  sub\n  swap1\n  log3\n    /* \"5.1MyToken.sol\":543:923  constructor(string memory _name, string memory _sybol, uint8 _decimals, uint256 _supplies) {... */\n  pop\n  pop\n  pop\n  pop\n    /* \"5.1MyToken.sol\":57:3422  contract MyToken {... */\n  jump(tag_15)\n    /* \"#utility.yul\":7:82   */\ntag_16:\n    /* \"#utility.yul\":40:46   */\n  0x00\n    /* \"#utility.yul\":73:75   */\n  0x40\n    /* \"#utility.yul\":67:76   */\n  mload\n    /* \"#utility.yul\":57:76   */\n  swap1\n  pop\n    /* \"#utility.yul\":7:82   */\n  swap1\n  jump\t// out\n    /* \"#utility.yul\":88:205   */\ntag_17:\n    /* \"#utility.yul\":197:198   */\n  0x00\n    /* \"#utility.yul\":194:195   */\n  0x00\n    /* \"#utility.yul\":187:199   */\n  revert\n    /* \"#utility.yul\":211:328   */\ntag_18:\n    /* \"#utility.yul\":320:321   */\n  0x00\n    /* \"#utility.yul\":317:318   */\n  0x00\n    /* \"#utility.yul\":310:322   */\n  revert\n    /* \"#utility.yul\":334:451   */\ntag_19:\n    /* \"#utility.yul\":443:444   */\n  0x00\n    /* \"#utility.yul\":440:441   */\n  0x00\n    /* \"#utility.yul\":433:445   */\n  revert\n    /* \"#utility.yul\":457:574   */\ntag_20:\n    /* \"#utility.yul\":566:567   */\n  0x00\n    /* \"#utility.yul\":563:564   */\n  0x00\n    /* \"#utility.yul\":556:568   */\n  revert\n    /* \"#utility.yul\":580:682   */\ntag_21:\n    /* \"#utility.yul\":621:627   */\n  0x00\n    /* \"#utility.yul\":672:674   */\n  0x1f\n    /* \"#utility.yul\":668:675   */\n  not\n    /* \"#utility.yul\":663:665   */\n  0x1f\n    /* \"#utility.yul\":656:661   */\n  dup4\n    /* \"#utility.yul\":652:666   */\n  add\n    /* \"#utility.yul\":648:676   */\n  and\n    /* \"#utility.yul\":638:676   */\n  swap1\n  pop\n    /* \"#utility.yul\":580:682   */\n  swap2\n  swap1\n  pop\n  jump\t// out\n    /* \"#utility.yul\":688:868   */\ntag_22:\n    /* \"#utility.yul\":736:813   */\n  0x4e487b7100000000000000000000000000000000000000000000000000000000\n    /* \"#utility.yul\":733:734   */\n  0x00\n    /* \"#utility.yul\":726:814   */\n  mstore\n    /* \"#utility.yul\":833:837   */\n  0x41\n    /* \"#utility.yul\":830:831   */\n  0x04\n    /* \"#utility.yul\":823:838   */\n  mstore\n    /* \"#utility.yul\":857:861   */\n  0x24\n    /* \"#utility.yul\":854:855   */\n  0x00\n    /* \"#utility.yul\":847:862   */\n  revert\n    /* \"#utility.yul\":874:1155   */\ntag_23:\n    /* \"#utility.yul\":957:984   */\n  tag_67\n    /* \"#utility.yul\":979:983   */\n  dup3\n    /* \"#utility.yul\":957:984   */\n  tag_21\n  jump\t// in\ntag_67:\n    /* \"#utility.yul\":949:955   */\n  dup2\n    /* \"#utility.yul\":945:985   */\n  add\n    /* \"#utility.yul\":1087:1093   */\n  dup2\n    /* \"#utility.yul\":1075:1085   */\n  dup2\n    /* \"#utility.yul\":1072:1094   */\n  lt\n    /* \"#utility.yul\":1051:1069   */\n  0xffffffffffffffff\n    /* \"#utility.yul\":1039:1049   */\n  dup3\n    /* \"#utility.yul\":1036:1070   */\n  gt\n    /* \"#utility.yul\":1033:1095   */\n  or\n    /* \"#utility.yul\":1030:1118   */\n  iszero\n  tag_68\n  jumpi\n    /* \"#utility.yul\":1098:1116   */\n  tag_69\n  tag_22\n  jump\t// in\ntag_69:\n    /* \"#utility.yul\":1030:1118   */\ntag_68:\n    /* \"#utility.yul\":1138:1148   */\n  dup1\n    /* \"#utility.yul\":1134:1136   */\n  0x40\n    /* \"#utility.yul\":1127:1149   */\n  mstore\n    /* \"#utility.yul\":917:1155   */\n  pop\n    /* \"#utility.yul\":874:1155   */\n  pop\n  pop\n  jump\t// out\n    /* \"#utility.yul\":1161:1290   */\ntag_24:\n    /* \"#utility.yul\":1195:1201   */\n  0x00\n    /* \"#utility.yul\":1222:1242   */\n  tag_71\n  tag_16\n  jump\t// in\ntag_71:\n    /* \"#utility.yul\":1212:1242   */\n  swap1\n  pop\n    /* \"#utility.yul\":1251:1284   */\n  tag_72\n    /* \"#utility.yul\":1279:1283   */\n  dup3\n    /* \"#utility.yul\":1271:1277   */\n  dup3\n    /* \"#utility.yul\":1251:1284   */\n  tag_23\n  jump\t// in\ntag_72:\n    /* \"#utility.yul\":1161:1290   */\n  swap2\n  swap1\n  pop\n  jump\t// out\n    /* \"#utility.yul\":1296:1604   */\ntag_25:\n    /* \"#utility.yul\":1358:1362   */\n  0x00\n    /* \"#utility.yul\":1448:1466   */\n  0xffffffffffffffff\n    /* \"#utility.yul\":1440:1446   */\n  dup3\n    /* \"#utility.yul\":1437:1467   */\n  gt\n    /* \"#utility.yul\":1434:1490   */\n  iszero\n  tag_74\n  jumpi\n    /* \"#utility.yul\":1470:1488   */\n  tag_75\n  tag_22\n  jump\t// in\ntag_75:\n    /* \"#utility.yul\":1434:1490   */\ntag_74:\n    /* \"#utility.yul\":1508:1537   */\n  tag_76\n    /* \"#utility.yul\":1530:1536   */\n  dup3\n    /* \"#utility.yul\":1508:1537   */\n  tag_21\n  jump\t// in\ntag_76:\n    /* \"#utility.yul\":1500:1537   */\n  swap1\n  pop\n    /* \"#utility.yul\":1592:1596   */\n  0x20\n    /* \"#utility.yul\":1586:1590   */\n  dup2\n    /* \"#utility.yul\":1582:1597   */\n  add\n    /* \"#utility.yul\":1574:1597   */\n  swap1\n  pop\n    /* \"#utility.yul\":1296:1604   */\n  swap2\n  swap1\n  pop\n  jump\t// out\n    /* \"#utility.yul\":1610:1749   */\ntag_26:\n    /* \"#utility.yul\":1699:1705   */\n  dup3\n    /* \"#utility.yul\":1694:1697   */\n  dup2\n    /* \"#utility.yul\":1689:1692   */\n  dup4\n    /* \"#utility.yul\":1683:1706   */\n  mcopy\n    /* \"#utility.yul\":1740:1741   */\n  0x00\n    /* \"#utility.yul\":1731:1737   */\n  dup4\n    /* \"#utility.yul\":1726:1729   */\n  dup4\n    /* \"#utility.yul\":1722:1738   */\n  add\n    /* \"#utility.yul\":1715:1742   */\n  mstore\n    /* \"#utility.yul\":1610:1749   */\n  pop\n  pop\n  pop\n  jump\t// out\n    /* \"#utility.yul\":1755:2189   */\ntag_27:\n    /* \"#utility.yul\":1844:1849   */\n  0x00\n    /* \"#utility.yul\":1869:1935   */\n  tag_79\n    /* \"#utility.yul\":1885:1934   */\n  tag_80\n    /* \"#utility.yul\":1927:1933   */\n  dup5\n    /* \"#utility.yul\":1885:1934   */\n  tag_25\n  jump\t// in\ntag_80:\n    /* \"#utility.yul\":1869:1935   */\n  tag_24\n  jump\t// in\ntag_79:\n    /* \"#utility.yul\":1860:1935   */\n  swap1\n  pop\n    /* \"#utility.yul\":1958:1964   */\n  dup3\n    /* \"#utility.yul\":1951:1956   */\n  dup2\n    /* \"#utility.yul\":1944:1965   */\n  mstore\n    /* \"#utility.yul\":1996:2000   */\n  0x20\n    /* \"#utility.yul\":1989:1994   */\n  dup2\n    /* \"#utility.yul\":1985:2001   */\n  add\n    /* \"#utility.yul\":2034:2037   */\n  dup5\n    /* \"#utility.yul\":2025:2031   */\n  dup5\n    /* \"#utility.yul\":2020:2023   */\n  dup5\n    /* \"#utility.yul\":2016:2032   */\n  add\n    /* \"#utility.yul\":2013:2038   */\n  gt\n    /* \"#utility.yul\":2010:2122   */\n  iszero\n  tag_81\n  jumpi\n    /* \"#utility.yul\":2041:2120   */\n  tag_82\n  tag_20\n  jump\t// in\ntag_82:\n    /* \"#utility.yul\":2010:2122   */\ntag_81:\n    /* \"#utility.yul\":2131:2183   */\n  tag_83\n    /* \"#utility.yul\":2176:2182   */\n  dup5\n    /* \"#utility.yul\":2171:2174   */\n  dup3\n    /* \"#utility.yul\":2166:2169   */\n  dup6\n    /* \"#utility.yul\":2131:2183   */\n  tag_26\n  jump\t// in\ntag_83:\n    /* \"#utility.yul\":1850:2189   */\n  pop\n    /* \"#utility.yul\":1755:2189   */\n  swap4\n  swap3\n  pop\n  pop\n  pop\n  jump\t// out\n    /* \"#utility.yul\":2209:2564   */\ntag_28:\n    /* \"#utility.yul\":2276:2281   */\n  0x00\n    /* \"#utility.yul\":2325:2328   */\n  dup3\n    /* \"#utility.yul\":2318:2322   */\n  0x1f\n    /* \"#utility.yul\":2310:2316   */\n  dup4\n    /* \"#utility.yul\":2306:2323   */\n  add\n    /* \"#utility.yul\":2302:2329   */\n  slt\n    /* \"#utility.yul\":2292:2414   */\n  tag_85\n  jumpi\n    /* \"#utility.yul\":2333:2412   */\n  tag_86\n  tag_19\n  jump\t// in\ntag_86:\n    /* \"#utility.yul\":2292:2414   */\ntag_85:\n    /* \"#utility.yul\":2443:2449   */\n  dup2\n    /* \"#utility.yul\":2437:2450   */\n  mload\n    /* \"#utility.yul\":2468:2558   */\n  tag_87\n    /* \"#utility.yul\":2554:2557   */\n  dup5\n    /* \"#utility.yul\":2546:2552   */\n  dup3\n    /* \"#utility.yul\":2539:2543   */\n  0x20\n    /* \"#utility.yul\":2531:2537   */\n  dup7\n    /* \"#utility.yul\":2527:2544   */\n  add\n    /* \"#utility.yul\":2468:2558   */\n  tag_27\n  jump\t// in\ntag_87:\n    /* \"#utility.yul\":2459:2558   */\n  swap2\n  pop\n    /* \"#utility.yul\":2282:2564   */\n  pop\n    /* \"#utility.yul\":2209:2564   */\n  swap3\n  swap2\n  pop\n  pop\n  jump\t// out\n    /* \"#utility.yul\":2570:2656   */\ntag_29:\n    /* \"#utility.yul\":2605:2612   */\n  0x00\n    /* \"#utility.yul\":2645:2649   */\n  0xff\n    /* \"#utility.yul\":2638:2643   */\n  dup3\n    /* \"#utility.yul\":2634:2650   */\n  and\n    /* \"#utility.yul\":2623:2650   */\n  swap1\n  pop\n    /* \"#utility.yul\":2570:2656   */\n  swap2\n  swap1\n  pop\n  jump\t// out\n    /* \"#utility.yul\":2662:2780   */\ntag_30:\n    /* \"#utility.yul\":2733:2755   */\n  tag_90\n    /* \"#utility.yul\":2749:2754   */\n  dup2\n    /* \"#utility.yul\":2733:2755   */\n  tag_29\n  jump\t// in\ntag_90:\n    /* \"#utility.yul\":2726:2731   */\n  dup2\n    /* \"#utility.yul\":2723:2756   */\n  eq\n    /* \"#utility.yul\":2713:2774   */\n  tag_91\n  jumpi\n    /* \"#utility.yul\":2770:2771   */\n  0x00\n    /* \"#utility.yul\":2767:2768   */\n  0x00\n    /* \"#utility.yul\":2760:2772   */\n  revert\n    /* \"#utility.yul\":2713:2774   */\ntag_91:\n    /* \"#utility.yul\":2662:2780   */\n  pop\n  jump\t// out\n    /* \"#utility.yul\":2786:2925   */\ntag_31:\n    /* \"#utility.yul\":2841:2846   */\n  0x00\n    /* \"#utility.yul\":2872:2878   */\n  dup2\n    /* \"#utility.yul\":2866:2879   */\n  mload\n    /* \"#utility.yul\":2857:2879   */\n  swap1\n  pop\n    /* \"#utility.yul\":2888:2919   */\n  tag_93\n    /* \"#utility.yul\":2913:2918   */\n  dup2\n    /* \"#utility.yul\":2888:2919   */\n  tag_30\n  jump\t// in\ntag_93:\n    /* \"#utility.yul\":2786:2925   */\n  swap3\n  swap2\n  pop\n  pop\n  jump\t// out\n    /* \"#utility.yul\":2931:3008   */\ntag_32:\n    /* \"#utility.yul\":2968:2975   */\n  0x00\n    /* \"#utility.yul\":2997:3002   */\n  dup2\n    /* \"#utility.yul\":2986:3002   */\n  swap1\n  pop\n    /* \"#utility.yul\":2931:3008   */\n  swap2\n  swap1\n  pop\n  jump\t// out\n    /* \"#utility.yul\":3014:3136   */\ntag_33:\n    /* \"#utility.yul\":3087:3111   */\n  tag_96\n    /* \"#utility.yul\":3105:3110   */\n  dup2\n    /* \"#utility.yul\":3087:3111   */\n  tag_32\n  jump\t// in\ntag_96:\n    /* \"#utility.yul\":3080:3085   */\n  dup2\n    /* \"#utility.yul\":3077:3112   */\n  eq\n    /* \"#utility.yul\":3067:3130   */\n  tag_97\n  jumpi\n    /* \"#utility.yul\":3126:3127   */\n  0x00\n    /* \"#utility.yul\":3123:3124   */\n  0x00\n    /* \"#utility.yul\":3116:3128   */\n  revert\n    /* \"#utility.yul\":3067:3130   */\ntag_97:\n    /* \"#utility.yul\":3014:3136   */\n  pop\n  jump\t// out\n    /* \"#utility.yul\":3142:3285   */\ntag_34:\n    /* \"#utility.yul\":3199:3204   */\n  0x00\n    /* \"#utility.yul\":3230:3236   */\n  dup2\n    /* \"#utility.yul\":3224:3237   */\n  mload\n    /* \"#utility.yul\":3215:3237   */\n  swap1\n  pop\n    /* \"#utility.yul\":3246:3279   */\n  tag_99\n    /* \"#utility.yul\":3273:3278   */\n  dup2\n    /* \"#utility.yul\":3246:3279   */\n  tag_33\n  jump\t// in\ntag_99:\n    /* \"#utility.yul\":3142:3285   */\n  swap3\n  swap2\n  pop\n  pop\n  jump\t// out\n    /* \"#utility.yul\":3291:4453   */\ntag_3:\n    /* \"#utility.yul\":3406:3412   */\n  0x00\n    /* \"#utility.yul\":3414:3420   */\n  0x00\n    /* \"#utility.yul\":3422:3428   */\n  0x00\n    /* \"#utility.yul\":3430:3436   */\n  0x00\n    /* \"#utility.yul\":3479:3482   */\n  0x80\n    /* \"#utility.yul\":3467:3476   */\n  dup6\n    /* \"#utility.yul\":3458:3465   */\n  dup8\n    /* \"#utility.yul\":3454:3477   */\n  sub\n    /* \"#utility.yul\":3450:3483   */\n  slt\n    /* \"#utility.yul\":3447:3567   */\n  iszero\n  tag_101\n  jumpi\n    /* \"#utility.yul\":3486:3565   */\n  tag_102\n  tag_17\n  jump\t// in\ntag_102:\n    /* \"#utility.yul\":3447:3567   */\ntag_101:\n    /* \"#utility.yul\":3627:3628   */\n  0x00\n    /* \"#utility.yul\":3616:3625   */\n  dup6\n    /* \"#utility.yul\":3612:3629   */\n  add\n    /* \"#utility.yul\":3606:3630   */\n  mload\n    /* \"#utility.yul\":3657:3675   */\n  0xffffffffffffffff\n    /* \"#utility.yul\":3649:3655   */\n  dup2\n    /* \"#utility.yul\":3646:3676   */\n  gt\n    /* \"#utility.yul\":3643:3760   */\n  iszero\n  tag_103\n  jumpi\n    /* \"#utility.yul\":3679:3758   */\n  tag_104\n  tag_18\n  jump\t// in\ntag_104:\n    /* \"#utility.yul\":3643:3760   */\ntag_103:\n    /* \"#utility.yul\":3784:3858   */\n  tag_105\n    /* \"#utility.yul\":3850:3857   */\n  dup8\n    /* \"#utility.yul\":3841:3847   */\n  dup3\n    /* \"#utility.yul\":3830:3839   */\n  dup9\n    /* \"#utility.yul\":3826:3848   */\n  add\n    /* \"#utility.yul\":3784:3858   */\n  tag_28\n  jump\t// in\ntag_105:\n    /* \"#utility.yul\":3774:3858   */\n  swap5\n  pop\n    /* \"#utility.yul\":3577:3868   */\n  pop\n    /* \"#utility.yul\":3928:3930   */\n  0x20\n    /* \"#utility.yul\":3917:3926   */\n  dup6\n    /* \"#utility.yul\":3913:3931   */\n  add\n    /* \"#utility.yul\":3907:3932   */\n  mload\n    /* \"#utility.yul\":3959:3977   */\n  0xffffffffffffffff\n    /* \"#utility.yul\":3951:3957   */\n  dup2\n    /* \"#utility.yul\":3948:3978   */\n  gt\n    /* \"#utility.yul\":3945:4062   */\n  iszero\n  tag_106\n  jumpi\n    /* \"#utility.yul\":3981:4060   */\n  tag_107\n  tag_18\n  jump\t// in\ntag_107:\n    /* \"#utility.yul\":3945:4062   */\ntag_106:\n    /* \"#utility.yul\":4086:4160   */\n  tag_108\n    /* \"#utility.yul\":4152:4159   */\n  dup8\n    /* \"#utility.yul\":4143:4149   */\n  dup3\n    /* \"#utility.yul\":4132:4141   */\n  dup9\n    /* \"#utility.yul\":4128:4150   */\n  add\n    /* \"#utility.yul\":4086:4160   */\n  tag_28\n  jump\t// in\ntag_108:\n    /* \"#utility.yul\":4076:4160   */\n  swap4\n  pop\n    /* \"#utility.yul\":3878:4170   */\n  pop\n    /* \"#utility.yul\":4209:4211   */\n  0x40\n    /* \"#utility.yul\":4235:4297   */\n  tag_109\n    /* \"#utility.yul\":4289:4296   */\n  dup8\n    /* \"#utility.yul\":4280:4286   */\n  dup3\n    /* \"#utility.yul\":4269:4278   */\n  dup9\n    /* \"#utility.yul\":4265:4287   */\n  add\n    /* \"#utility.yul\":4235:4297   */\n  tag_31\n  jump\t// in\ntag_109:\n    /* \"#utility.yul\":4225:4297   */\n  swap3\n  pop\n    /* \"#utility.yul\":4180:4307   */\n  pop\n    /* \"#utility.yul\":4346:4348   */\n  0x60\n    /* \"#utility.yul\":4372:4436   */\n  tag_110\n    /* \"#utility.yul\":4428:4435   */\n  dup8\n    /* \"#utility.yul\":4419:4425   */\n  dup3\n    /* \"#utility.yul\":4408:4417   */\n  dup9\n    /* \"#utility.yul\":4404:4426   */\n  add\n    /* \"#utility.yul\":4372:4436   */\n  tag_34\n  jump\t// in\ntag_110:\n    /* \"#utility.yul\":4362:4436   */\n  swap2\n  pop\n    /* \"#utility.yul\":4317:4446   */\n  pop\n    /* \"#utility.yul\":3291:4453   */\n  swap3\n  swap6\n  swap2\n  swap5\n  pop\n  swap3\n  pop\n  jump\t// out\n    /* \"#utility.yul\":4459:4558   */\ntag_35:\n    /* \"#utility.yul\":4511:4517   */\n  0x00\n    /* \"#utility.yul\":4545:4550   */\n  dup2\n    /* \"#utility.yul\":4539:4551   */\n  mload\n    /* \"#utility.yul\":4529:4551   */\n  swap1\n  pop\n    /* \"#utility.yul\":4459:4558   */\n  swap2\n  swap1\n  pop\n  jump\t// out\n    /* \"#utility.yul\":4564:4744   */\ntag_36:\n    /* \"#utility.yul\":4612:4689   */\n  0x4e487b7100000000000000000000000000000000000000000000000000000000\n    /* \"#utility.yul\":4609:4610   */\n  0x00\n    /* \"#utility.yul\":4602:4690   */\n  mstore\n    /* \"#utility.yul\":4709:4713   */\n  0x22\n    /* \"#utility.yul\":4706:4707   */\n  0x04\n    /* \"#utility.yul\":4699:4714   */\n  mstore\n    /* \"#utility.yul\":4733:4737   */\n  0x24\n    /* \"#utility.yul\":4730:4731   */\n  0x00\n    /* \"#utility.yul\":4723:4738   */\n  revert\n    /* \"#utility.yul\":4750:5070   */\ntag_37:\n    /* \"#utility.yul\":4794:4800   */\n  0x00\n    /* \"#utility.yul\":4831:4832   */\n  0x02\n    /* \"#utility.yul\":4825:4829   */\n  dup3\n    /* \"#utility.yul\":4821:4833   */\n  div\n    /* \"#utility.yul\":4811:4833   */\n  swap1\n  pop\n    /* \"#utility.yul\":4878:4879   */\n  0x01\n    /* \"#utility.yul\":4872:4876   */\n  dup3\n    /* \"#utility.yul\":4868:4880   */\n  and\n    /* \"#utility.yul\":4899:4917   */\n  dup1\n    /* \"#utility.yul\":4889:4970   */\n  tag_114\n  jumpi\n    /* \"#utility.yul\":4955:4959   */\n  0x7f\n    /* \"#utility.yul\":4947:4953   */\n  dup3\n    /* \"#utility.yul\":4943:4960   */\n  and\n    /* \"#utility.yul\":4933:4960   */\n  swap2\n  pop\n    /* \"#utility.yul\":4889:4970   */\ntag_114:\n    /* \"#utility.yul\":5017:5019   */\n  0x20\n    /* \"#utility.yul\":5009:5015   */\n  dup3\n    /* \"#utility.yul\":5006:5020   */\n  lt\n    /* \"#utility.yul\":4986:5004   */\n  dup2\n    /* \"#utility.yul\":4983:5021   */\n  sub\n    /* \"#utility.yul\":4980:5064   */\n  tag_115\n  jumpi\n    /* \"#utility.yul\":5036:5054   */\n  tag_116\n  tag_36\n  jump\t// in\ntag_116:\n    /* \"#utility.yul\":4980:5064   */\ntag_115:\n    /* \"#utility.yul\":4801:5070   */\n  pop\n    /* \"#utility.yul\":4750:5070   */\n  swap2\n  swap1\n  pop\n  jump\t// out\n    /* \"#utility.yul\":5076:5217   */\ntag_38:\n    /* \"#utility.yul\":5125:5129   */\n  0x00\n    /* \"#utility.yul\":5148:5151   */\n  dup2\n    /* \"#utility.yul\":5140:5151   */\n  swap1\n  pop\n    /* \"#utility.yul\":5171:5174   */\n  dup2\n    /* \"#utility.yul\":5168:5169   */\n  0x00\n    /* \"#utility.yul\":5161:5175   */\n  mstore\n    /* \"#utility.yul\":5205:5209   */\n  0x20\n    /* \"#utility.yul\":5202:5203   */\n  0x00\n    /* \"#utility.yul\":5192:5210   */\n  keccak256\n    /* \"#utility.yul\":5184:5210   */\n  swap1\n  pop\n    /* \"#utility.yul\":5076:5217   */\n  swap2\n  swap1\n  pop\n  jump\t// out\n    /* \"#utility.yul\":5223:5316   */\ntag_39:\n    /* \"#utility.yul\":5260:5266   */\n  0x00\n    /* \"#utility.yul\":5307:5309   */\n  0x20\n    /* \"#utility.yul\":5302:5304   */\n  0x1f\n    /* \"#utility.yul\":5295:5300   */\n  dup4\n    /* \"#utility.yul\":5291:5305   */\n  add\n    /* \"#utility.yul\":5287:5310   */\n  div\n    /* \"#utility.yul\":5277:5310   */\n  swap1\n  pop\n    /* \"#utility.yul\":5223:5316   */\n  swap2\n  swap1\n  pop\n  jump\t// out\n    /* \"#utility.yul\":5322:5429   */\ntag_40:\n    /* \"#utility.yul\":5366:5374   */\n  0x00\n    /* \"#utility.yul\":5416:5421   */\n  dup3\n    /* \"#utility.yul\":5410:5414   */\n  dup3\n    /* \"#utility.yul\":5406:5422   */\n  shl\n    /* \"#utility.yul\":5385:5422   */\n  swap1\n  pop\n    /* \"#utility.yul\":5322:5429   */\n  swap3\n  swap2\n  pop\n  pop\n  jump\t// out\n    /* \"#utility.yul\":5435:5828   */\ntag_41:\n    /* \"#utility.yul\":5504:5510   */\n  0x00\n    /* \"#utility.yul\":5554:5555   */\n  0x08\n    /* \"#utility.yul\":5542:5552   */\n  dup4\n    /* \"#utility.yul\":5538:5556   */\n  mul\n    /* \"#utility.yul\":5577:5674   */\n  tag_121\n    /* \"#utility.yul\":5607:5673   */\n  0xffffffffffffffffffffffffffffffffffffffffffffffffffffffffffffffff\n    /* \"#utility.yul\":5596:5605   */\n  dup3\n    /* \"#utility.yul\":5577:5674   */\n  tag_40\n  jump\t// in\ntag_121:\n    /* \"#utility.yul\":5695:5734   */\n  tag_122\n    /* \"#utility.yul\":5725:5733   */\n  dup7\n    /* \"#utility.yul\":5714:5723   */\n  dup4\n    /* \"#utility.yul\":5695:5734   */\n  tag_40\n  jump\t// in\ntag_122:\n    /* \"#utility.yul\":5683:5734   */\n  swap6\n  pop\n    /* \"#utility.yul\":5767:5771   */\n  dup1\n    /* \"#utility.yul\":5763:5772   */\n  not\n    /* \"#utility.yul\":5756:5761   */\n  dup5\n    /* \"#utility.yul\":5752:5773   */\n  and\n    /* \"#utility.yul\":5743:5773   */\n  swap4\n  pop\n    /* \"#utility.yul\":5816:5820   */\n  dup1\n    /* \"#utility.yul\":5806:5814   */\n  dup7\n    /* \"#utility.yul\":5802:5821   */\n  and\n    /* \"#utility.yul\":5795:5800   */\n  dup5\n    /* \"#utility.yul\":5792:5822   */\n  or\n    /* \"#utility.yul\":5782:5822   */\n  swap3\n  pop\n    /* \"#utility.yul\":5511:5828   */\n  pop\n  pop\n    /* \"#utility.yul\":5435:5828   */\n  swap4\n  swap3\n  pop\n  pop\n  pop\n  jump\t// out\n    /* \"#utility.yul\":5834:5894   */\ntag_42:\n    /* \"#utility.yul\":5862:5865   */\n  0x00\n    /* \"#utility.yul\":5883:5888   */\n  dup2\n    /* \"#utility.yul\":5876:5888   */\n  swap1\n  pop\n    /* \"#utility.yul\":5834:5894   */\n  swap2\n  swap1\n  pop\n  jump\t// out\n    /* \"#utility.yul\":5900:6042   */\ntag_43:\n    /* \"#utility.yul\":5950:5959   */\n  0x00\n    /* \"#utility.yul\":5983:6036   */\n  tag_125\n    /* \"#utility.yul\":6001:6035   */\n  tag_126\n    /* \"#utility.yul\":6010:6034   */\n  tag_127\n    /* \"#utility.yul\":6028:6033   */\n  dup5\n    /* \"#utility.yul\":6010:6034   */\n  tag_32\n  jump\t// in\ntag_127:\n    /* \"#utility.yul\":6001:6035   */\n  tag_42\n  jump\t// in\ntag_126:\n    /* \"#utility.yul\":5983:6036   */\n  tag_32\n  jump\t// in\ntag_125:\n    /* \"#utility.yul\":5970:6036   */\n  swap1\n  pop\n    /* \"#utility.yul\":5900:6042   */\n  swap2\n  swap1\n  pop\n  jump\t// out\n    /* \"#utility.yul\":6048:6123   */\ntag_44:\n    /* \"#utility.yul\":6091:6094   */\n  0x00\n    /* \"#utility.yul\":6112:6117   */\n  dup2\n    /* \"#utility.yul\":6105:6117   */\n  swap1\n  pop\n    /* \"#utility.yul\":6048:6123   */\n  swap2\n  swap1\n  pop\n  jump\t// out\n    /* \"#utility.yul\":6129:6398   */\ntag_45:\n    /* \"#utility.yul\":6239:6278   */\n  tag_130\n    /* \"#utility.yul\":6270:6277   */\n  dup4\n    /* \"#utility.yul\":6239:6278   */\n  tag_43\n  jump\t// in\ntag_130:\n    /* \"#utility.yul\":6300:6391   */\n  tag_131\n    /* \"#utility.yul\":6349:6390   */\n  tag_132\n    /* \"#utility.yul\":6373:6389   */\n  dup3\n    /* \"#utility.yul\":6349:6390   */\n  tag_44\n  jump\t// in\ntag_132:\n    /* \"#utility.yul\":6341:6347   */\n  dup5\n    /* \"#utility.yul\":6334:6338   */\n  dup5\n    /* \"#utility.yul\":6328:6339   */\n  sload\n    /* \"#utility.yul\":6300:6391   */\n  tag_41\n  jump\t// in\ntag_131:\n    /* \"#utility.yul\":6294:6298   */\n  dup3\n    /* \"#utility.yul\":6287:6392   */\n  sstore\n    /* \"#utility.yul\":6205:6398   */\n  pop\n    /* \"#utility.yul\":6129:6398   */\n  pop\n  pop\n  pop\n  jump\t// out\n    /* \"#utility.yul\":6404:6477   */\ntag_46:\n    /* \"#utility.yul\":6449:6452   */\n  0x00\n    /* \"#utility.yul\":6470:6471   */\n  0x00\n    /* \"#utility.yul\":6463:6471   */\n  swap1\n  pop\n    /* \"#utility.yul\":6404:6477   */\n  swap1\n  jump\t// out\n    /* \"#utility.yul\":6483:6672   */\ntag_47:\n    /* \"#utility.yul\":6560:6592   */\n  tag_135\n  tag_46\n  jump\t// in\ntag_135:\n    /* \"#utility.yul\":6601:6666   */\n  tag_136\n    /* \"#utility.yul\":6659:6665   */\n  dup2\n    /* \"#utility.yul\":6651:6657   */\n  dup5\n    /* \"#utility.yul\":6645:6649   */\n  dup5\n    /* \"#utility.yul\":6601:6666   */\n  tag_45\n  jump\t// in\ntag_136:\n    /* \"#utility.yul\":6536:6672   */\n  pop\n    /* \"#utility.yul\":6483:6672   */\n  pop\n  pop\n  jump\t// out\n    /* \"#utility.yul\":6678:6864   */\ntag_48:\n    /* \"#utility.yul\":6738:6858   */\ntag_138:\n    /* \"#utility.yul\":6755:6758   */\n  dup2\n    /* \"#utility.yul\":6748:6753   */\n  dup2\n    /* \"#utility.yul\":6745:6759   */\n  lt\n    /* \"#utility.yul\":6738:6858   */\n  iszero\n  tag_140\n  jumpi\n    /* \"#utility.yul\":6809:6848   */\n  tag_141\n    /* \"#utility.yul\":6846:6847   */\n  0x00\n    /* \"#utility.yul\":6839:6844   */\n  dup3\n    /* \"#utility.yul\":6809:6848   */\n  tag_47\n  jump\t// in\ntag_141:\n    /* \"#utility.yul\":6782:6783   */\n  0x01\n    /* \"#utility.yul\":6775:6780   */\n  dup2\n    /* \"#utility.yul\":6771:6784   */\n  add\n    /* \"#utility.yul\":6762:6784   */\n  swap1\n  pop\n    /* \"#utility.yul\":6738:6858   */\n  jump(tag_138)\ntag_140:\n    /* \"#utility.yul\":6678:6864   */\n  pop\n  pop\n  jump\t// out\n    /* \"#utility.yul\":6870:7413   */\ntag_49:\n    /* \"#utility.yul\":6971:6973   */\n  0x1f\n    /* \"#utility.yul\":6966:6969   */\n  dup3\n    /* \"#utility.yul\":6963:6974   */\n  gt\n    /* \"#utility.yul\":6960:7406   */\n  iszero\n  tag_143\n  jumpi\n    /* \"#utility.yul\":7005:7043   */\n  tag_144\n    /* \"#utility.yul\":7037:7042   */\n  dup2\n    /* \"#utility.yul\":7005:7043   */\n  tag_38\n  jump\t// in\ntag_144:\n    /* \"#utility.yul\":7089:7118   */\n  tag_145\n    /* \"#utility.yul\":7107:7117   */\n  dup5\n    /* \"#utility.yul\":7089:7118   */\n  tag_39\n  jump\t// in\ntag_145:\n    /* \"#utility.yul\":7079:7087   */\n  dup2\n    /* \"#utility.yul\":7075:7119   */\n  add\n    /* \"#utility.yul\":7272:7274   */\n  0x20\n    /* \"#utility.yul\":7260:7270   */\n  dup6\n    /* \"#utility.yul\":7257:7275   */\n  lt\n    /* \"#utility.yul\":7254:7303   */\n  iszero\n  tag_146\n  jumpi\n    /* \"#utility.yul\":7293:7301   */\n  dup2\n    /* \"#utility.yul\":7278:7301   */\n  swap1\n  pop\n    /* \"#utility.yul\":7254:7303   */\ntag_146:\n    /* \"#utility.yul\":7316:7396   */\n  tag_147\n    /* \"#utility.yul\":7372:7394   */\n  tag_148\n    /* \"#utility.yul\":7390:7393   */\n  dup6\n    /* \"#utility.yul\":7372:7394   */\n  tag_39\n  jump\t// in\ntag_148:\n    /* \"#utility.yul\":7362:7370   */\n  dup4\n    /* \"#utility.yul\":7358:7395   */\n  add\n    /* \"#utility.yul\":7345:7356   */\n  dup3\n    /* \"#utility.yul\":7316:7396   */\n  tag_48\n  jump\t// in\ntag_147:\n    /* \"#utility.yul\":6975:7406   */\n  pop\n  pop\n    /* \"#utility.yul\":6960:7406   */\ntag_143:\n    /* \"#utility.yul\":6870:7413   */\n  pop\n  pop\n  pop\n  jump\t// out\n    /* \"#utility.yul\":7419:7536   */\ntag_50:\n    /* \"#utility.yul\":7473:7481   */\n  0x00\n    /* \"#utility.yul\":7523:7528   */\n  dup3\n    /* \"#utility.yul\":7517:7521   */\n  dup3\n    /* \"#utility.yul\":7513:7529   */\n  shr\n    /* \"#utility.yul\":7492:7529   */\n  swap1\n  pop\n    /* \"#utility.yul\":7419:7536   */\n  swap3\n  swap2\n  pop\n  pop\n  jump\t// out\n    /* \"#utility.yul\":7542:7711   */\ntag_51:\n    /* \"#utility.yul\":7586:7592   */\n  0x00\n    /* \"#utility.yul\":7619:7670   */\n  tag_151\n    /* \"#utility.yul\":7667:7668   */\n  0x00\n    /* \"#utility.yul\":7663:7669   */\n  not\n    /* \"#utility.yul\":7655:7660   */\n  dup5\n    /* \"#utility.yul\":7652:7653   */\n  0x08\n    /* \"#utility.yul\":7648:7661   */\n  mul\n    /* \"#utility.yul\":7619:7670   */\n  tag_50\n  jump\t// in\ntag_151:\n    /* \"#utility.yul\":7615:7671   */\n  not\n    /* \"#utility.yul\":7700:7704   */\n  dup1\n    /* \"#utility.yul\":7694:7698   */\n  dup4\n    /* \"#utility.yul\":7690:7705   */\n  and\n    /* \"#utility.yul\":7680:7705   */\n  swap2\n  pop\n    /* \"#utility.yul\":7593:7711   */\n  pop\n    /* \"#utility.yul\":7542:7711   */\n  swap3\n  swap2\n  pop\n  pop\n  jump\t// out\n    /* \"#utility.yul\":7716:8011   */\ntag_52:\n    /* \"#utility.yul\":7792:7796   */\n  0x00\n    /* \"#utility.yul\":7938:7967   */\n  tag_153\n    /* \"#utility.yul\":7963:7966   */\n  dup4\n    /* \"#utility.yul\":7957:7961   */\n  dup4\n    /* \"#utility.yul\":7938:7967   */\n  tag_51\n  jump\t// in\ntag_153:\n    /* \"#utility.yul\":7930:7967   */\n  swap2\n  pop\n    /* \"#utility.yul\":8000:8003   */\n  dup3\n    /* \"#utility.yul\":7997:7998   */\n  0x02\n    /* \"#utility.yul\":7993:8004   */\n  mul\n    /* \"#utility.yul\":7987:7991   */\n  dup3\n    /* \"#utility.yul\":7984:8005   */\n  or\n    /* \"#utility.yul\":7976:8005   */\n  swap1\n  pop\n    /* \"#utility.yul\":7716:8011   */\n  swap3\n  swap2\n  pop\n  pop\n  jump\t// out\n    /* \"#utility.yul\":8016:9411   */\ntag_7:\n    /* \"#utility.yul\":8133:8170   */\n  tag_155\n    /* \"#utility.yul\":8166:8169   */\n  dup3\n    /* \"#utility.yul\":8133:8170   */\n  tag_35\n  jump\t// in\ntag_155:\n    /* \"#utility.yul\":8235:8253   */\n  0xffffffffffffffff\n    /* \"#utility.yul\":8227:8233   */\n  dup2\n    /* \"#utility.yul\":8224:8254   */\n  gt\n    /* \"#utility.yul\":8221:8277   */\n  iszero\n  tag_156\n  jumpi\n    /* \"#utility.yul\":8257:8275   */\n  tag_157\n  tag_22\n  jump\t// in\ntag_157:\n    /* \"#utility.yul\":8221:8277   */\ntag_156:\n    /* \"#utility.yul\":8301:8339   */\n  tag_158\n    /* \"#utility.yul\":8333:8337   */\n  dup3\n    /* \"#utility.yul\":8327:8338   */\n  sload\n    /* \"#utility.yul\":8301:8339   */\n  tag_37\n  jump\t// in\ntag_158:\n    /* \"#utility.yul\":8386:8453   */\n  tag_159\n    /* \"#utility.yul\":8446:8452   */\n  dup3\n    /* \"#utility.yul\":8438:8444   */\n  dup3\n    /* \"#utility.yul\":8432:8436   */\n  dup6\n    /* \"#utility.yul\":8386:8453   */\n  tag_49\n  jump\t// in\ntag_159:\n    /* \"#utility.yul\":8480:8481   */\n  0x00\n    /* \"#utility.yul\":8504:8508   */\n  0x20\n    /* \"#utility.yul\":8491:8508   */\n  swap1\n  pop\n    /* \"#utility.yul\":8536:8538   */\n  0x1f\n    /* \"#utility.yul\":8528:8534   */\n  dup4\n    /* \"#utility.yul\":8525:8539   */\n  gt\n    /* \"#utility.yul\":8553:8554   */\n  0x01\n    /* \"#utility.yul\":8548:9166   */\n  dup2\n  eq\n  tag_161\n  jumpi\n    /* \"#utility.yul\":9210:9211   */\n  0x00\n    /* \"#utility.yul\":9227:9233   */\n  dup5\n    /* \"#utility.yul\":9224:9301   */\n  iszero\n  tag_162\n  jumpi\n    /* \"#utility.yul\":9276:9285   */\n  dup3\n    /* \"#utility.yul\":9271:9274   */\n  dup8\n    /* \"#utility.yul\":9267:9286   */\n  add\n    /* \"#utility.yul\":9261:9287   */\n  mload\n    /* \"#utility.yul\":9252:9287   */\n  swap1\n  pop\n    /* \"#utility.yul\":9224:9301   */\ntag_162:\n    /* \"#utility.yul\":9327:9394   */\n  tag_163\n    /* \"#utility.yul\":9387:9393   */\n  dup6\n    /* \"#utility.yul\":9380:9385   */\n  dup3\n    /* \"#utility.yul\":9327:9394   */\n  tag_52\n  jump\t// in\ntag_163:\n    /* \"#utility.yul\":9321:9325   */\n  dup7\n    /* \"#utility.yul\":9314:9395   */\n  sstore\n    /* \"#utility.yul\":9183:9405   */\n  pop\n    /* \"#utility.yul\":8518:9405   */\n  jump(tag_160)\n    /* \"#utility.yul\":8548:9166   */\ntag_161:\n    /* \"#utility.yul\":8600:8604   */\n  0x1f\n    /* \"#utility.yul\":8596:8605   */\n  not\n    /* \"#utility.yul\":8588:8594   */\n  dup5\n    /* \"#utility.yul\":8584:8606   */\n  and\n    /* \"#utility.yul\":8634:8671   */\n  tag_164\n    /* \"#utility.yul\":8666:8670   */\n  dup7\n    /* \"#utility.yul\":8634:8671   */\n  tag_38\n  jump\t// in\ntag_164:\n    /* \"#utility.yul\":8693:8694   */\n  0x00\n    /* \"#utility.yul\":8707:8915   */\ntag_165:\n    /* \"#utility.yul\":8721:8728   */\n  dup3\n    /* \"#utility.yul\":8718:8719   */\n  dup2\n    /* \"#utility.yul\":8715:8729   */\n  lt\n    /* \"#utility.yul\":8707:8915   */\n  iszero\n  tag_167\n  jumpi\n    /* \"#utility.yul\":8800:8809   */\n  dup5\n    /* \"#utility.yul\":8795:8798   */\n  dup10\n    /* \"#utility.yul\":8791:8810   */\n  add\n    /* \"#utility.yul\":8785:8811   */\n  mload\n    /* \"#utility.yul\":8777:8783   */\n  dup3\n    /* \"#utility.yul\":8770:8812   */\n  sstore\n    /* \"#utility.yul\":8851:8852   */\n  0x01\n    /* \"#utility.yul\":8843:8849   */\n  dup3\n    /* \"#utility.yul\":8839:8853   */\n  add\n    /* \"#utility.yul\":8829:8853   */\n  swap2\n  pop\n    /* \"#utility.yul\":8898:8900   */\n  0x20\n    /* \"#utility.yul\":8887:8896   */\n  dup6\n    /* \"#utility.yul\":8883:8901   */\n  add\n    /* \"#utility.yul\":8870:8901   */\n  swap5\n  pop\n    /* \"#utility.yul\":8744:8748   */\n  0x20\n    /* \"#utility.yul\":8741:8742   */\n  dup2\n    /* \"#utility.yul\":8737:8749   */\n  add\n    /* \"#utility.yul\":8732:8749   */\n  swap1\n  pop\n    /* \"#utility.yul\":8707:8915   */\n  jump(tag_165)\ntag_167:\n    /* \"#utility.yul\":8943:8949   */\n  dup7\n    /* \"#utility.yul\":8934:8941   */\n  dup4\n    /* \"#utility.yul\":8931:8950   */\n  lt\n    /* \"#utility.yul\":8928:9107   */\n  iszero\n  tag_168\n  jumpi\n    /* \"#utility.yul\":9001:9010   */\n  dup5\n    /* \"#utility.yul\":8996:8999   */\n  dup10\n    /* \"#utility.yul\":8992:9011   */\n  add\n    /* \"#utility.yul\":8986:9012   */\n  mload\n    /* \"#utility.yul\":9044:9092   */\n  tag_169\n    /* \"#utility.yul\":9086:9090   */\n  0x1f\n    /* \"#utility.yul\":9078:9084   */\n  dup10\n    /* \"#utility.yul\":9074:9091   */\n  and\n    /* \"#utility.yul\":9063:9072   */\n  dup3\n    /* \"#utility.yul\":9044:9092   */\n  tag_51\n  jump\t// in\ntag_169:\n    /* \"#utility.yul\":9036:9042   */\n  dup4\n    /* \"#utility.yul\":9029:9093   */\n  sstore\n    /* \"#utility.yul\":8951:9107   */\n  pop\n    /* \"#utility.yul\":8928:9107   */\ntag_168:\n    /* \"#utility.yul\":9153:9154   */\n  0x01\n    /* \"#utility.yul\":9149:9150   */\n  0x02\n    /* \"#utility.yul\":9141:9147   */\n  dup9\n    /* \"#utility.yul\":9137:9151   */\n  mul\n    /* \"#utility.yul\":9133:9155   */\n  add\n    /* \"#utility.yul\":9127:9131   */\n  dup9\n    /* \"#utility.yul\":9120:9156   */\n  sstore\n    /* \"#utility.yul\":8555:9166   */\n  pop\n  pop\n  pop\n    /* \"#utility.yul\":8518:9405   */\ntag_160:\n  pop\n    /* \"#utility.yul\":8108:9411   */\n  pop\n  pop\n  pop\n    /* \"#utility.yul\":8016:9411   */\n  pop\n  pop\n  jump\t// out\n    /* \"#utility.yul\":9417:9597   */\ntag_53:\n    /* \"#utility.yul\":9465:9542   */\n  0x4e487b7100000000000000000000000000000000000000000000000000000000\n    /* \"#utility.yul\":9462:9463   */\n  0x00\n    /* \"#utility.yul\":9455:9543   */\n  mstore\n    /* \"#utility.yul\":9562:9566   */\n  0x11\n    /* \"#utility.yul\":9559:9560   */\n  0x04\n    /* \"#utility.yul\":9552:9567   */\n  mstore\n    /* \"#utility.yul\":9586:9590   */\n  0x24\n    /* \"#utility.yul\":9583:9584   */\n  0x00\n    /* \"#utility.yul\":9576:9591   */\n  revert\n    /* \"#utility.yul\":9603:9705   */\ntag_54:\n    /* \"#utility.yul\":9645:9653   */\n  0x00\n    /* \"#utility.yul\":9692:9697   */\n  dup2\n    /* \"#utility.yul\":9689:9690   */\n  0x01\n    /* \"#utility.yul\":9685:9698   */\n  shr\n    /* \"#utility.yul\":9664:9698   */\n  swap1\n  pop\n    /* \"#utility.yul\":9603:9705   */\n  swap2\n  swap1\n  pop\n  jump\t// out\n    /* \"#utility.yul\":9711:10559   */\ntag_55:\n    /* \"#utility.yul\":9772:9777   */\n  0x00\n    /* \"#utility.yul\":9779:9783   */\n  0x00\n    /* \"#utility.yul\":9803:9809   */\n  dup3\n    /* \"#utility.yul\":9794:9809   */\n  swap2\n  pop\n    /* \"#utility.yul\":9827:9832   */\n  dup4\n    /* \"#utility.yul\":9818:9832   */\n  swap1\n  pop\n    /* \"#utility.yul\":9841:10553   */\ntag_173:\n    /* \"#utility.yul\":9862:9863   */\n  0x01\n    /* \"#utility.yul\":9852:9860   */\n  dup6\n    /* \"#utility.yul\":9849:9864   */\n  gt\n    /* \"#utility.yul\":9841:10553   */\n  iszero\n  tag_175\n  jumpi\n    /* \"#utility.yul\":9957:9961   */\n  dup1\n    /* \"#utility.yul\":9952:9955   */\n  dup7\n    /* \"#utility.yul\":9948:9962   */\n  div\n    /* \"#utility.yul\":9942:9946   */\n  dup2\n    /* \"#utility.yul\":9939:9963   */\n  gt\n    /* \"#utility.yul\":9936:9986   */\n  iszero\n  tag_176\n  jumpi\n    /* \"#utility.yul\":9966:9984   */\n  tag_177\n  tag_53\n  jump\t// in\ntag_177:\n    /* \"#utility.yul\":9936:9986   */\ntag_176:\n    /* \"#utility.yul\":10016:10017   */\n  0x01\n    /* \"#utility.yul\":10006:10014   */\n  dup6\n    /* \"#utility.yul\":10002:10018   */\n  and\n    /* \"#utility.yul\":9999:10450   */\n  iszero\n  tag_178\n  jumpi\n    /* \"#utility.yul\":10431:10435   */\n  dup1\n    /* \"#utility.yul\":10424:10429   */\n  dup3\n    /* \"#utility.yul\":10420:10436   */\n  mul\n    /* \"#utility.yul\":10411:10436   */\n  swap2\n  pop\n    /* \"#utility.yul\":9999:10450   */\ntag_178:\n    /* \"#utility.yul\":10481:10485   */\n  dup1\n    /* \"#utility.yul\":10475:10479   */\n  dup2\n    /* \"#utility.yul\":10471:10486   */\n  mul\n    /* \"#utility.yul\":10463:10486   */\n  swap1\n  pop\n    /* \"#utility.yul\":10511:10543   */\n  tag_179\n    /* \"#utility.yul\":10534:10542   */\n  dup6\n    /* \"#utility.yul\":10511:10543   */\n  tag_54\n  jump\t// in\ntag_179:\n    /* \"#utility.yul\":10499:10543   */\n  swap5\n  pop\n    /* \"#utility.yul\":9841:10553   */\n  jump(tag_173)\ntag_175:\n    /* \"#utility.yul\":9711:10559   */\n  swap5\n  pop\n  swap5\n  swap3\n  pop\n  pop\n  pop\n  jump\t// out\n    /* \"#utility.yul\":10565:11638   */\ntag_56:\n    /* \"#utility.yul\":10619:10624   */\n  0x00\n    /* \"#utility.yul\":10810:10818   */\n  dup3\n    /* \"#utility.yul\":10800:10840   */\n  tag_181\n  jumpi\n    /* \"#utility.yul\":10831:10832   */\n  0x01\n    /* \"#utility.yul\":10822:10832   */\n  swap1\n  pop\n    /* \"#utility.yul\":10833:10838   */\n  jump(tag_180)\n    /* \"#utility.yul\":10800:10840   */\ntag_181:\n    /* \"#utility.yul\":10859:10863   */\n  dup2\n    /* \"#utility.yul\":10849:10885   */\n  tag_182\n  jumpi\n    /* \"#utility.yul\":10876:10877   */\n  0x00\n    /* \"#utility.yul\":10867:10877   */\n  swap1\n  pop\n    /* \"#utility.yul\":10878:10883   */\n  jump(tag_180)\n    /* \"#utility.yul\":10849:10885   */\ntag_182:\n    /* \"#utility.yul\":10945:10949   */\n  dup2\n    /* \"#utility.yul\":10993:10994   */\n  0x01\n    /* \"#utility.yul\":10988:11015   */\n  dup2\n  eq\n  tag_184\n  jumpi\n    /* \"#utility.yul\":11029:11030   */\n  0x02\n    /* \"#utility.yul\":11024:11215   */\n  dup2\n  eq\n  tag_185\n  jumpi\n    /* \"#utility.yul\":10938:11215   */\n  jump(tag_183)\n    /* \"#utility.yul\":10988:11015   */\ntag_184:\n    /* \"#utility.yul\":11006:11007   */\n  0x01\n    /* \"#utility.yul\":10997:11007   */\n  swap2\n  pop\n    /* \"#utility.yul\":11008:11013   */\n  pop\n  jump(tag_180)\n    /* \"#utility.yul\":11024:11215   */\ntag_185:\n    /* \"#utility.yul\":11069:11072   */\n  0xff\n    /* \"#utility.yul\":11059:11067   */\n  dup5\n    /* \"#utility.yul\":11056:11073   */\n  gt\n    /* \"#utility.yul\":11053:11096   */\n  iszero\n  tag_186\n  jumpi\n    /* \"#utility.yul\":11076:11094   */\n  tag_187\n  tag_53\n  jump\t// in\ntag_187:\n    /* \"#utility.yul\":11053:11096   */\ntag_186:\n    /* \"#utility.yul\":11125:11133   */\n  dup4\n    /* \"#utility.yul\":11122:11123   */\n  0x02\n    /* \"#utility.yul\":11118:11134   */\n  exp\n    /* \"#utility.yul\":11109:11134   */\n  swap2\n  pop\n    /* \"#utility.yul\":11160:11163   */\n  dup5\n    /* \"#utility.yul\":11153:11158   */\n  dup3\n    /* \"#utility.yul\":11150:11164   */\n  gt\n    /* \"#utility.yul\":11147:11187   */\n  iszero\n  tag_188\n  jumpi\n    /* \"#utility.yul\":11167:11185   */\n  tag_189\n  tag_53\n  jump\t// in\ntag_189:\n    /* \"#utility.yul\":11147:11187   */\ntag_188:\n    /* \"#utility.yul\":11200:11205   */\n  pop\n  jump(tag_180)\n    /* \"#utility.yul\":10938:11215   */\ntag_183:\n  pop\n    /* \"#utility.yul\":11324:11326   */\n  0x20\n    /* \"#utility.yul\":11314:11322   */\n  dup4\n    /* \"#utility.yul\":11311:11327   */\n  lt\n    /* \"#utility.yul\":11305:11308   */\n  0x0133\n    /* \"#utility.yul\":11299:11303   */\n  dup4\n    /* \"#utility.yul\":11296:11309   */\n  lt\n    /* \"#utility.yul\":11292:11328   */\n  and\n    /* \"#utility.yul\":11274:11276   */\n  0x4e\n    /* \"#utility.yul\":11264:11272   */\n  dup5\n    /* \"#utility.yul\":11261:11277   */\n  lt\n    /* \"#utility.yul\":11256:11258   */\n  0x0b\n    /* \"#utility.yul\":11250:11254   */\n  dup5\n    /* \"#utility.yul\":11247:11259   */\n  lt\n    /* \"#utility.yul\":11243:11278   */\n  and\n    /* \"#utility.yul\":11227:11338   */\n  or\n    /* \"#utility.yul\":11224:11470   */\n  iszero\n  tag_190\n  jumpi\n    /* \"#utility.yul\":11380:11388   */\n  dup3\n    /* \"#utility.yul\":11374:11378   */\n  dup3\n    /* \"#utility.yul\":11370:11389   */\n  exp\n    /* \"#utility.yul\":11361:11389   */\n  swap1\n  pop\n    /* \"#utility.yul\":11415:11418   */\n  dup4\n    /* \"#utility.yul\":11408:11413   */\n  dup2\n    /* \"#utility.yul\":11405:11419   */\n  gt\n    /* \"#utility.yul\":11402:11442   */\n  iszero\n  tag_191\n  jumpi\n    /* \"#utility.yul\":11422:11440   */\n  tag_192\n  tag_53\n  jump\t// in\ntag_192:\n    /* \"#utility.yul\":11402:11442   */\ntag_191:\n    /* \"#utility.yul\":11455:11460   */\n  jump(tag_180)\n    /* \"#utility.yul\":11224:11470   */\ntag_190:\n    /* \"#utility.yul\":11495:11537   */\n  tag_193\n    /* \"#utility.yul\":11533:11536   */\n  dup5\n    /* \"#utility.yul\":11523:11531   */\n  dup5\n    /* \"#utility.yul\":11517:11521   */\n  dup5\n    /* \"#utility.yul\":11514:11515   */\n  0x01\n    /* \"#utility.yul\":11495:11537   */\n  tag_55\n  jump\t// in\ntag_193:\n    /* \"#utility.yul\":11480:11537   */\n  swap3\n  pop\n  swap1\n  pop\n    /* \"#utility.yul\":11569:11573   */\n  dup2\n    /* \"#utility.yul\":11564:11567   */\n  dup5\n    /* \"#utility.yul\":11560:11574   */\n  div\n    /* \"#utility.yul\":11553:11558   */\n  dup2\n    /* \"#utility.yul\":11550:11575   */\n  gt\n    /* \"#utility.yul\":11547:11598   */\n  iszero\n  tag_194\n  jumpi\n    /* \"#utility.yul\":11578:11596   */\n  tag_195\n  tag_53\n  jump\t// in\ntag_195:\n    /* \"#utility.yul\":11547:11598   */\ntag_194:\n    /* \"#utility.yul\":11627:11631   */\n  dup2\n    /* \"#utility.yul\":11620:11625   */\n  dup2\n    /* \"#utility.yul\":11616:11632   */\n  mul\n    /* \"#utility.yul\":11607:11632   */\n  swap1\n  pop\n    /* \"#utility.yul\":10565:11638   */\ntag_180:\n  swap4\n  swap3\n  pop\n  pop\n  pop\n  jump\t// out\n    /* \"#utility.yul\":11644:11925   */\ntag_10:\n    /* \"#utility.yul\":11702:11707   */\n  0x00\n    /* \"#utility.yul\":11726:11749   */\n  tag_197\n    /* \"#utility.yul\":11744:11748   */\n  dup3\n    /* \"#utility.yul\":11726:11749   */\n  tag_32\n  jump\t// in\ntag_197:\n    /* \"#utility.yul\":11718:11749   */\n  swap2\n  pop\n    /* \"#utility.yul\":11770:11795   */\n  tag_198\n    /* \"#utility.yul\":11786:11794   */\n  dup4\n    /* \"#utility.yul\":11770:11795   */\n  tag_29\n  jump\t// in\ntag_198:\n    /* \"#utility.yul\":11758:11795   */\n  swap3\n  pop\n    /* \"#utility.yul\":11814:11918   */\n  tag_199\n    /* \"#utility.yul\":11851:11917   */\n  0xffffffffffffffffffffffffffffffffffffffffffffffffffffffffffffffff\n    /* \"#utility.yul\":11841:11849   */\n  dup5\n    /* \"#utility.yul\":11835:11839   */\n  dup5\n    /* \"#utility.yul\":11814:11918   */\n  tag_56\n  jump\t// in\ntag_199:\n    /* \"#utility.yul\":11805:11918   */\n  swap1\n  pop\n    /* \"#utility.yul\":11644:11925   */\n  swap3\n  swap2\n  pop\n  pop\n  jump\t// out\n    /* \"#utility.yul\":11931:12341   */\ntag_12:\n    /* \"#utility.yul\":11971:11978   */\n  0x00\n    /* \"#utility.yul\":11994:12014   */\n  tag_201\n    /* \"#utility.yul\":12012:12013   */\n  dup3\n    /* \"#utility.yul\":11994:12014   */\n  tag_32\n  jump\t// in\ntag_201:\n    /* \"#utility.yul\":11989:12014   */\n  swap2\n  pop\n    /* \"#utility.yul\":12028:12048   */\n  tag_202\n    /* \"#utility.yul\":12046:12047   */\n  dup4\n    /* \"#utility.yul\":12028:12048   */\n  tag_32\n  jump\t// in\ntag_202:\n    /* \"#utility.yul\":12023:12048   */\n  swap3\n  pop\n    /* \"#utility.yul\":12083:12084   */\n  dup3\n    /* \"#utility.yul\":12080:12081   */\n  dup3\n    /* \"#utility.yul\":12076:12085   */\n  mul\n    /* \"#utility.yul\":12105:12135   */\n  tag_203\n    /* \"#utility.yul\":12123:12134   */\n  dup2\n    /* \"#utility.yul\":12105:12135   */\n  tag_32\n  jump\t// in\ntag_203:\n    /* \"#utility.yul\":12094:12135   */\n  swap2\n  pop\n    /* \"#utility.yul\":12284:12285   */\n  dup3\n    /* \"#utility.yul\":12275:12282   */\n  dup3\n    /* \"#utility.yul\":12271:12286   */\n  div\n    /* \"#utility.yul\":12268:12269   */\n  dup5\n    /* \"#utility.yul\":12265:12287   */\n  eq\n    /* \"#utility.yul\":12245:12246   */\n  dup4\n    /* \"#utility.yul\":12238:12247   */\n  iszero\n    /* \"#utility.yul\":12218:12301   */\n  or\n    /* \"#utility.yul\":12195:12334   */\n  tag_204\n  jumpi\n    /* \"#utility.yul\":12314:12332   */\n  tag_205\n  tag_53\n  jump\t// in\ntag_205:\n    /* \"#utility.yul\":12195:12334   */\ntag_204:\n    /* \"#utility.yul\":11979:12341   */\n  pop\n    /* \"#utility.yul\":11931:12341   */\n  swap3\n  swap2\n  pop\n  pop\n  jump\t// out\n    /* \"#utility.yul\":12347:12465   */\ntag_57:\n    /* \"#utility.yul\":12434:12458   */\n  tag_207\n    /* \"#utility.yul\":12452:12457   */\n  dup2\n    /* \"#utility.yul\":12434:12458   */\n  tag_32\n  jump\t// in\ntag_207:\n    /* \"#utility.yul\":12429:12432   */\n  dup3\n    /* \"#utility.yul\":12422:12459   */\n  mstore\n    /* \"#utility.yul\":12347:12465   */\n  pop\n  pop\n  jump\t// out\n    /* \"#utility.yul\":12471:12693   */\ntag_14:\n    /* \"#utility.yul\":12564:12568   */\n  0x00\n    /* \"#utility.yul\":12602:12604   */\n  0x20\n    /* \"#utility.yul\":12591:12600   */\n  dup3\n    /* \"#utility.yul\":12587:12605   */\n  add\n    /* \"#utility.yul\":12579:12605   */\n  swap1\n  pop\n    /* \"#utility.yul\":12615:12686   */\n  tag_209\n    /* \"#utility.yul\":12683:12684   */\n  0x00\n    /* \"#utility.yul\":12672:12681   */\n  dup4\n    /* \"#utility.yul\":12668:12685   */\n  add\n    /* \"#utility.yul\":12659:12665   */\n  dup5\n    /* \"#utility.yul\":12615:12686   */\n  tag_57\n  jump\t// in\ntag_209:\n    /* \"#utility.yul\":12471:12693   */\n  swap3\n  swap2\n  pop\n  pop\n  jump\t// out\n    /* \"5.1MyToken.sol\":57:3422  contract MyToken {... */\ntag_15:\n  mload(0x80)\n  codecopy(0x00, dataOffset(sub_0), dataSize(sub_0))\n  0x00\n  assignImmutable(\"0x789bcdf275fa270780a52ae3b79bb1ce0fda7e0aaad87b57b74bb99ac290714a\")\n  return(0x00, dataSize(sub_0))\nstop\n\nsub_0: assembly {\n        /* \"5.1MyToken.sol\":57:3422  contract MyToken {... */\n      mstore(0x40, 0x80)\n      callvalue\n      dup1\n      iszero\n      tag_1\n      jumpi\n      revert(0x00, 0x00)\n    tag_1:\n      pop\n      jumpi(tag_2, lt(calldatasize, 0x04))\n      shr(0xe0, calldataload(0x00))\n      dup1\n      0x42966c68\n      gt\n      tag_18\n      jumpi\n      dup1\n      0x85672f44\n      gt\n      tag_19\n      jumpi\n      dup1\n      0x85672f44\n      eq\n      tag_14\n      jumpi\n      dup1\n      0x8da5cb5b\n      eq\n      tag_15\n      jumpi\n      dup1\n      0xa9059cbb\n      eq\n      tag_16\n      jumpi\n      dup1\n      0xd7295c9a\n      eq\n      tag_17\n      jumpi\n      jump(tag_2)\n    tag_19:\n      dup1\n      0x42966c68\n      eq\n      tag_10\n      jumpi\n      dup1\n      0x52796d42\n      eq\n      tag_11\n      jumpi\n      dup1\n      0x70a08231\n      eq\n      tag_12\n      jumpi\n      dup1\n      0x74c5d7f2\n      eq\n      tag_13\n      jumpi\n      jump(tag_2)\n    tag_18:\n      dup1\n      0x23b872dd\n      gt\n      tag_20\n      jumpi\n      dup1\n      0x23b872dd\n      eq\n      tag_6\n      jumpi\n      dup1\n      0x242654a2\n      eq\n      tag_7\n      jumpi\n      dup1\n      0x313ce567\n      eq\n      tag_8\n      jumpi\n      dup1\n      0x40c10f19\n      eq\n      tag_9\n      jumpi\n      jump(tag_2)\n    tag_20:\n      dup1\n      0x06fdde03\n      eq\n      tag_3\n      jumpi\n      dup1\n      0x095ea7b3\n      eq\n      tag_4\n      jumpi\n      dup1\n      0x18160ddd\n      eq\n      tag_5\n      jumpi\n    tag_2:\n      revert(0x00, 0x00)\n        /* \"5.1MyToken.sol\":81:99  string public name */\n    tag_3:\n      tag_21\n      tag_22\n      jump\t// in\n    tag_21:\n      mload(0x40)\n      tag_23\n      swap2\n      swap1\n      tag_24\n      jump\t// in\n    tag_23:\n      mload(0x40)\n      dup1\n      swap2\n      sub\n      swap1\n      return\n        /* \"5.1MyToken.sol\":1613:1939  function approve(address spender, uint256 amount) public returns (bool) {... */\n    tag_4:\n      tag_25\n      0x04\n      dup1\n      calldatasize\n      sub\n      dup2\n      add\n      swap1\n      tag_26\n      swap2\n      swap1\n      tag_27\n      jump\t// in\n    tag_26:\n      tag_28\n      jump\t// in\n    tag_25:\n      mload(0x40)\n      tag_29\n      swap2\n      swap1\n      tag_30\n      jump\t// in\n    tag_29:\n      mload(0x40)\n      dup1\n      swap2\n      sub\n      swap1\n      return\n        /* \"5.1MyToken.sol\":157:183  uint256 public totalSupply */\n    tag_5:\n      tag_31\n      tag_32\n      jump\t// in\n    tag_31:\n      mload(0x40)\n      tag_33\n      swap2\n      swap1\n      tag_34\n      jump\t// in\n    tag_33:\n      mload(0x40)\n      dup1\n      swap2\n      sub\n      swap1\n      return\n        /* \"5.1MyToken.sol\":1945:2513  function transferFrom(address from, address to, uint256 amount) public enableChecker returns (bool) {... */\n    tag_6:\n      tag_35\n      0x04\n      dup1\n      calldatasize\n      sub\n      dup2\n      add\n      swap1\n      tag_36\n      swap2\n      swap1\n      tag_37\n      jump\t// in\n    tag_36:\n      tag_38\n      jump\t// in\n    tag_35:\n      mload(0x40)\n      tag_39\n      swap2\n      swap1\n      tag_30\n      jump\t// in\n    tag_39:\n      mload(0x40)\n      dup1\n      swap2\n      sub\n      swap1\n      return\n        /* \"5.1MyToken.sol\":190:216  bool public transferEnable */\n    tag_7:\n      tag_40\n      tag_41\n      jump\t// in\n    tag_40:\n      mload(0x40)\n      tag_42\n      swap2\n      swap1\n      tag_30\n      jump\t// in\n    tag_42:\n      mload(0x40)\n      dup1\n      swap2\n      sub\n      swap1\n      return\n        /* \"5.1MyToken.sol\":130:151  uint8 public decimals */\n    tag_8:\n      tag_43\n      tag_44\n      jump\t// in\n    tag_43:\n      mload(0x40)\n      tag_45\n      swap2\n      swap1\n      tag_46\n      jump\t// in\n    tag_45:\n      mload(0x40)\n      dup1\n      swap2\n      sub\n      swap1\n      return\n        /* \"5.1MyToken.sol\":2625:2965  function mint(address to, uint256 amount) public ownerChecker enableChecker returns(bool){... */\n    tag_9:\n      tag_47\n      0x04\n      dup1\n      calldatasize\n      sub\n      dup2\n      add\n      swap1\n      tag_48\n      swap2\n      swap1\n      tag_27\n      jump\t// in\n    tag_48:\n      tag_49\n      jump\t// in\n    tag_47:\n      mload(0x40)\n      tag_50\n      swap2\n      swap1\n      tag_30\n      jump\t// in\n    tag_50:\n      mload(0x40)\n      dup1\n      swap2\n      sub\n      swap1\n      return\n        /* \"5.1MyToken.sol\":3070:3419  function burn(uint256 amount) public enableChecker returns(bool) {... */\n    tag_10:\n      tag_51\n      0x04\n      dup1\n      calldatasize\n      sub\n      dup2\n      add\n      swap1\n      tag_52\n      swap2\n      swap1\n      tag_53\n      jump\t// in\n    tag_52:\n      tag_54\n      jump\t// in\n    tag_51:\n      mload(0x40)\n      tag_55\n      swap2\n      swap1\n      tag_30\n      jump\t// in\n    tag_55:\n      mload(0x40)\n      dup1\n      swap2\n      sub\n      swap1\n      return\n        /* \"5.1MyToken.sol\":2519:2619  function showMyBalance() public view returns (uint256) {... */\n    tag_11:\n      tag_56\n      tag_57\n      jump\t// in\n    tag_56:\n      mload(0x40)\n      tag_58\n      swap2\n      swap1\n      tag_34\n      jump\t// in\n    tag_58:\n      mload(0x40)\n      dup1\n      swap2\n      sub\n      swap1\n      return\n        /* \"5.1MyToken.sol\":260:304  mapping(address => uint256) public balanceOf */\n    tag_12:\n      tag_59\n      0x04\n      dup1\n      calldatasize\n      sub\n      dup2\n      add\n      swap1\n      tag_60\n      swap2\n      swap1\n      tag_61\n      jump\t// in\n    tag_60:\n      tag_62\n      jump\t// in\n    tag_59:\n      mload(0x40)\n      tag_63\n      swap2\n      swap1\n      tag_34\n      jump\t// in\n    tag_63:\n      mload(0x40)\n      dup1\n      swap2\n      sub\n      swap1\n      return\n        /* \"5.1MyToken.sol\":2971:3064  function switchEnable() public ownerChecker {... */\n    tag_13:\n      tag_64\n      tag_65\n      jump\t// in\n    tag_64:\n      stop\n        /* \"5.1MyToken.sol\":105:124  string public sybol */\n    tag_14:\n      tag_66\n      tag_67\n      jump\t// in\n    tag_66:\n      mload(0x40)\n      tag_68\n      swap2\n      swap1\n      tag_24\n      jump\t// in\n    tag_68:\n      mload(0x40)\n      dup1\n      swap2\n      sub\n      swap1\n      return\n        /* \"5.1MyToken.sol\":223:253  address public immutable owner */\n    tag_15:\n      tag_69\n      tag_70\n      jump\t// in\n    tag_69:\n      mload(0x40)\n      tag_71\n      swap2\n      swap1\n      tag_72\n      jump\t// in\n    tag_71:\n      mload(0x40)\n      dup1\n      swap2\n      sub\n      swap1\n      return\n        /* \"5.1MyToken.sol\":1182:1607  function transfer(address to, uint256 amount) public enableChecker returns (bool) {... */\n    tag_16:\n      tag_73\n      0x04\n      dup1\n      calldatasize\n      sub\n      dup2\n      add\n      swap1\n      tag_74\n      swap2\n      swap1\n      tag_27\n      jump\t// in\n    tag_74:\n      tag_75\n      jump\t// in\n    tag_73:\n      mload(0x40)\n      tag_76\n      swap2\n      swap1\n      tag_30\n      jump\t// in\n    tag_76:\n      mload(0x40)\n      dup1\n      swap2\n      sub\n      swap1\n      return\n        /* \"5.1MyToken.sol\":310:375  mapping(address => mapping(address => uint256)) public allowences */\n    tag_17:\n      tag_77\n      0x04\n      dup1\n      calldatasize\n      sub\n      dup2\n      add\n      swap1\n      tag_78\n      swap2\n      swap1\n      tag_79\n      jump\t// in\n    tag_78:\n      tag_80\n      jump\t// in\n    tag_77:\n      mload(0x40)\n      tag_81\n      swap2\n      swap1\n      tag_34\n      jump\t// in\n    tag_81:\n      mload(0x40)\n      dup1\n      swap2\n      sub\n      swap1\n      return\n        /* \"5.1MyToken.sol\":81:99  string public name */\n    tag_22:\n      0x00\n      dup1\n      sload\n      tag_82\n      swap1\n      tag_83\n      jump\t// in\n    tag_82:\n      dup1\n      0x1f\n      add\n      0x20\n      dup1\n      swap2\n      div\n      mul\n      0x20\n      add\n      mload(0x40)\n      swap1\n      dup2\n      add\n      0x40\n      mstore\n      dup1\n      swap3\n      swap2\n      swap1\n      dup2\n      dup2\n      mstore\n      0x20\n      add\n      dup3\n      dup1\n      sload\n      tag_84\n      swap1\n      tag_83\n      jump\t// in\n    tag_84:\n      dup1\n      iszero\n      tag_85\n      jumpi\n      dup1\n      0x1f\n      lt\n      tag_86\n      jumpi\n      0x0100\n      dup1\n      dup4\n      sload\n      div\n      mul\n      dup4\n      mstore\n      swap2\n      0x20\n      add\n      swap2\n      jump(tag_85)\n    tag_86:\n      dup3\n      add\n      swap2\n      swap1\n      0x00\n      mstore\n      keccak256(0x00, 0x20)\n      swap1\n    tag_87:\n      dup2\n      sload\n      dup2\n      mstore\n      swap1\n      0x01\n      add\n      swap1\n      0x20\n      add\n      dup1\n      dup4\n      gt\n      tag_87\n      jumpi\n      dup3\n      swap1\n      sub\n      0x1f\n      and\n      dup3\n      add\n      swap2\n    tag_85:\n      pop\n      pop\n      pop\n      pop\n      pop\n      dup2\n      jump\t// out\n        /* \"5.1MyToken.sol\":1613:1939  function approve(address spender, uint256 amount) public returns (bool) {... */\n    tag_28:\n        /* \"5.1MyToken.sol\":1679:1683  bool */\n      0x00\n        /* \"5.1MyToken.sol\":1722:1723  0 */\n      0x00\n        /* \"5.1MyToken.sol\":1703:1724  spender != address(0) */\n      0xffffffffffffffffffffffffffffffffffffffff\n      and\n        /* \"5.1MyToken.sol\":1703:1710  spender */\n      dup4\n        /* \"5.1MyToken.sol\":1703:1724  spender != address(0) */\n      0xffffffffffffffffffffffffffffffffffffffff\n      and\n      sub\n        /* \"5.1MyToken.sol\":1695:1760  require(spender != address(0), \"can not approve to zero address\") */\n      tag_89\n      jumpi\n      mload(0x40)\n      0x08c379a000000000000000000000000000000000000000000000000000000000\n      dup2\n      mstore\n      0x04\n      add\n      tag_90\n      swap1\n      tag_91\n      jump\t// in\n    tag_90:\n      mload(0x40)\n      dup1\n      swap2\n      sub\n      swap1\n      revert\n    tag_89:\n        /* \"5.1MyToken.sol\":1787:1788  0 */\n      0x00\n        /* \"5.1MyToken.sol\":1778:1784  amount */\n      dup3\n        /* \"5.1MyToken.sol\":1778:1788  amount > 0 */\n      gt\n        /* \"5.1MyToken.sol\":1770:1807  require(amount > 0, \"invalid amount\") */\n      tag_92\n      jumpi\n      mload(0x40)\n      0x08c379a000000000000000000000000000000000000000000000000000000000\n      dup2\n      mstore\n      0x04\n      add\n      tag_93\n      swap1\n      tag_94\n      jump\t// in\n    tag_93:\n      mload(0x40)\n      dup1\n      swap2\n      sub\n      swap1\n      revert\n    tag_92:\n        /* \"5.1MyToken.sol\":1852:1858  amount */\n      dup2\n        /* \"5.1MyToken.sol\":1818:1828  allowences */\n      0x06\n        /* \"5.1MyToken.sol\":1818:1840  allowences[msg.sender] */\n      0x00\n        /* \"5.1MyToken.sol\":1829:1839  msg.sender */\n      caller\n        /* \"5.1MyToken.sol\":1818:1840  allowences[msg.sender] */\n      0xffffffffffffffffffffffffffffffffffffffff\n      and\n      0xffffffffffffffffffffffffffffffffffffffff\n      and\n      dup2\n      mstore\n      0x20\n      add\n      swap1\n      dup2\n      mstore\n      0x20\n      add\n      0x00\n      keccak256\n        /* \"5.1MyToken.sol\":1818:1849  allowences[msg.sender][spender] */\n      0x00\n        /* \"5.1MyToken.sol\":1841:1848  spender */\n      dup6\n        /* \"5.1MyToken.sol\":1818:1849  allowences[msg.sender][spender] */\n      0xffffffffffffffffffffffffffffffffffffffff\n      and\n      0xffffffffffffffffffffffffffffffffffffffff\n      and\n      dup2\n      mstore\n      0x20\n      add\n      swap1\n      dup2\n      mstore\n      0x20\n      add\n      0x00\n      keccak256\n        /* \"5.1MyToken.sol\":1818:1858  allowences[msg.sender][spender] = amount */\n      dup2\n      swap1\n      sstore\n      pop\n        /* \"5.1MyToken.sol\":1895:1902  spender */\n      dup3\n        /* \"5.1MyToken.sol\":1874:1911  Approval(msg.sender, spender, amount) */\n      0xffffffffffffffffffffffffffffffffffffffff\n      and\n        /* \"5.1MyToken.sol\":1883:1893  msg.sender */\n      caller\n        /* \"5.1MyToken.sol\":1874:1911  Approval(msg.sender, spender, amount) */\n      0xffffffffffffffffffffffffffffffffffffffff\n      and\n      0x8c5be1e5ebec7d5bd14f71427d1e84f3dd0314c0f7b2291e5b200ac8c7c3b925\n        /* \"5.1MyToken.sol\":1904:1910  amount */\n      dup5\n        /* \"5.1MyToken.sol\":1874:1911  Approval(msg.sender, spender, amount) */\n      mload(0x40)\n      tag_95\n      swap2\n      swap1\n      tag_34\n      jump\t// in\n    tag_95:\n      mload(0x40)\n      dup1\n      swap2\n      sub\n      swap1\n      log3\n        /* \"5.1MyToken.sol\":1928:1932  true */\n      0x01\n        /* \"5.1MyToken.sol\":1921:1932  return true */\n      swap1\n      pop\n        /* \"5.1MyToken.sol\":1613:1939  function approve(address spender, uint256 amount) public returns (bool) {... */\n      swap3\n      swap2\n      pop\n      pop\n      jump\t// out\n        /* \"5.1MyToken.sol\":157:183  uint256 public totalSupply */\n    tag_32:\n      sload(0x03)\n      dup2\n      jump\t// out\n        /* \"5.1MyToken.sol\":1945:2513  function transferFrom(address from, address to, uint256 amount) public enableChecker returns (bool) {... */\n    tag_38:\n        /* \"5.1MyToken.sol\":2039:2043  bool */\n      0x00\n        /* \"5.1MyToken.sol\":1098:1112  transferEnable */\n      0x04\n      0x00\n      swap1\n      sload\n      swap1\n      0x0100\n      exp\n      swap1\n      div\n      0xff\n      and\n        /* \"5.1MyToken.sol\":1090:1158  require(transferEnable, \"Transfers are not available at this time.\") */\n      tag_97\n      jumpi\n      mload(0x40)\n      0x08c379a000000000000000000000000000000000000000000000000000000000\n      dup2\n      mstore\n      0x04\n      add\n      tag_98\n      swap1\n      tag_99\n      jump\t// in\n    tag_98:\n      mload(0x40)\n      dup1\n      swap2\n      sub\n      swap1\n      revert\n    tag_97:\n        /* \"5.1MyToken.sol\":2079:2080  0 */\n      0x00\n        /* \"5.1MyToken.sol\":2063:2081  from != address(0) */\n      0xffffffffffffffffffffffffffffffffffffffff\n      and\n        /* \"5.1MyToken.sol\":2063:2067  from */\n      dup5\n        /* \"5.1MyToken.sol\":2063:2081  from != address(0) */\n      0xffffffffffffffffffffffffffffffffffffffff\n      and\n      sub\n        /* \"5.1MyToken.sol\":2055:2113  require(from != address(0), \"from cannot be zero address\") */\n      tag_101\n      jumpi\n      mload(0x40)\n      0x08c379a000000000000000000000000000000000000000000000000000000000\n      dup2\n      mstore\n      0x04\n      add\n      tag_102\n      swap1\n      tag_103\n      jump\t// in\n    tag_102:\n      mload(0x40)\n      dup1\n      swap2\n      sub\n      swap1\n      revert\n    tag_101:\n        /* \"5.1MyToken.sol\":2145:2146  0 */\n      0x00\n        /* \"5.1MyToken.sol\":2131:2147  to != address(0) */\n      0xffffffffffffffffffffffffffffffffffffffff\n      and\n        /* \"5.1MyToken.sol\":2131:2133  to */\n      dup4\n        /* \"5.1MyToken.sol\":2131:2147  to != address(0) */\n      0xffffffffffffffffffffffffffffffffffffffff\n      and\n      sub\n        /* \"5.1MyToken.sol\":2123:2177  require(to != address(0), \"to cannot be zero address\") */\n      tag_104\n      jumpi\n      mload(0x40)\n      0x08c379a000000000000000000000000000000000000000000000000000000000\n      dup2\n      mstore\n      0x04\n      add\n      tag_105\n      swap1\n      tag_106\n      jump\t// in\n    tag_105:\n      mload(0x40)\n      dup1\n      swap2\n      sub\n      swap1\n      revert\n    tag_104:\n        /* \"5.1MyToken.sol\":2214:2220  amount */\n      dup2\n        /* \"5.1MyToken.sol\":2195:2204  balanceOf */\n      0x05\n        /* \"5.1MyToken.sol\":2195:2210  balanceOf[from] */\n      0x00\n        /* \"5.1MyToken.sol\":2205:2209  from */\n      dup7\n        /* \"5.1MyToken.sol\":2195:2210  balanceOf[from] */\n      0xffffffffffffffffffffffffffffffffffffffff\n      and\n      0xffffffffffffffffffffffffffffffffffffffff\n      and\n      dup2\n      mstore\n      0x20\n      add\n      swap1\n      dup2\n      mstore\n      0x20\n      add\n      0x00\n      keccak256\n      sload\n        /* \"5.1MyToken.sol\":2195:2220  balanceOf[from] >= amount */\n      lt\n      iszero\n        /* \"5.1MyToken.sol\":2187:2244  require(balanceOf[from] >= amount, \"insuffcient balance\") */\n      tag_107\n      jumpi\n      mload(0x40)\n      0x08c379a000000000000000000000000000000000000000000000000000000000\n      dup2\n      mstore\n      0x04\n      add\n      tag_108\n      swap1\n      tag_109\n      jump\t// in\n    tag_108:\n      mload(0x40)\n      dup1\n      swap2\n      sub\n      swap1\n      revert\n    tag_107:\n        /* \"5.1MyToken.sol\":2294:2300  amount */\n      dup2\n        /* \"5.1MyToken.sol\":2262:2272  allowences */\n      0x06\n        /* \"5.1MyToken.sol\":2262:2278  allowences[from] */\n      0x00\n        /* \"5.1MyToken.sol\":2273:2277  from */\n      dup7\n        /* \"5.1MyToken.sol\":2262:2278  allowences[from] */\n      0xffffffffffffffffffffffffffffffffffffffff\n      and\n      0xffffffffffffffffffffffffffffffffffffffff\n      and\n      dup2\n      mstore\n      0x20\n      add\n      swap1\n      dup2\n      mstore\n      0x20\n      add\n      0x00\n      keccak256\n        /* \"5.1MyToken.sol\":2262:2290  allowences[from][msg.sender] */\n      0x00\n        /* \"5.1MyToken.sol\":2279:2289  msg.sender */\n      caller\n        /* \"5.1MyToken.sol\":2262:2290  allowences[from][msg.sender] */\n      0xffffffffffffffffffffffffffffffffffffffff\n      and\n      0xffffffffffffffffffffffffffffffffffffffff\n      and\n      dup2\n      mstore\n      0x20\n      add\n      swap1\n      dup2\n      mstore\n      0x20\n      add\n      0x00\n      keccak256\n      sload\n        /* \"5.1MyToken.sol\":2262:2300  allowences[from][msg.sender] >= amount */\n      lt\n      iszero\n        /* \"5.1MyToken.sol\":2254:2326  require(allowences[from][msg.sender] >= amount, \"insuffcient allowence\") */\n      tag_110\n      jumpi\n      mload(0x40)\n      0x08c379a000000000000000000000000000000000000000000000000000000000\n      dup2\n      mstore\n      0x04\n      add\n      tag_111\n      swap1\n      tag_112\n      jump\t// in\n    tag_111:\n      mload(0x40)\n      dup1\n      swap2\n      sub\n      swap1\n      revert\n    tag_110:\n        /* \"5.1MyToken.sol\":2356:2362  amount */\n      dup2\n        /* \"5.1MyToken.sol\":2337:2346  balanceOf */\n      0x05\n        /* \"5.1MyToken.sol\":2337:2352  balanceOf[from] */\n      0x00\n        /* \"5.1MyToken.sol\":2347:2351  from */\n      dup7\n        /* \"5.1MyToken.sol\":2337:2352  balanceOf[from] */\n      0xffffffffffffffffffffffffffffffffffffffff\n      and\n      0xffffffffffffffffffffffffffffffffffffffff\n      and\n      dup2\n      mstore\n      0x20\n      add\n      swap1\n      dup2\n      mstore\n      0x20\n      add\n      0x00\n      keccak256\n      0x00\n        /* \"5.1MyToken.sol\":2337:2362  balanceOf[from] -= amount */\n      dup3\n      dup3\n      sload\n      tag_113\n      swap2\n      swap1\n      tag_114\n      jump\t// in\n    tag_113:\n      swap3\n      pop\n      pop\n      dup2\n      swap1\n      sstore\n      pop\n        /* \"5.1MyToken.sol\":2389:2395  amount */\n      dup2\n        /* \"5.1MyToken.sol\":2372:2381  balanceOf */\n      0x05\n        /* \"5.1MyToken.sol\":2372:2385  balanceOf[to] */\n      0x00\n        /* \"5.1MyToken.sol\":2382:2384  to */\n      dup6\n        /* \"5.1MyToken.sol\":2372:2385  balanceOf[to] */\n      0xffffffffffffffffffffffffffffffffffffffff\n      and\n      0xffffffffffffffffffffffffffffffffffffffff\n      and\n      dup2\n      mstore\n      0x20\n      add\n      swap1\n      dup2\n      mstore\n      0x20\n      add\n      0x00\n      keccak256\n      0x00\n        /* \"5.1MyToken.sol\":2372:2395  balanceOf[to] += amount */\n      dup3\n      dup3\n      sload\n      tag_115\n      swap2\n      swap1\n      tag_116\n      jump\t// in\n    tag_115:\n      swap3\n      pop\n      pop\n      dup2\n      swap1\n      sstore\n      pop\n        /* \"5.1MyToken.sol\":2437:2443  amount */\n      dup2\n        /* \"5.1MyToken.sol\":2405:2415  allowences */\n      0x06\n        /* \"5.1MyToken.sol\":2405:2421  allowences[from] */\n      0x00\n        /* \"5.1MyToken.sol\":2416:2420  from */\n      dup7\n        /* \"5.1MyToken.sol\":2405:2421  allowences[from] */\n      0xffffffffffffffffffffffffffffffffffffffff\n      and\n      0xffffffffffffffffffffffffffffffffffffffff\n      and\n      dup2\n      mstore\n      0x20\n      add\n      swap1\n      dup2\n      mstore\n      0x20\n      add\n      0x00\n      keccak256\n        /* \"5.1MyToken.sol\":2405:2433  allowences[from][msg.sender] */\n      0x00\n        /* \"5.1MyToken.sol\":2422:2432  msg.sender */\n      caller\n        /* \"5.1MyToken.sol\":2405:2433  allowences[from][msg.sender] */\n      0xffffffffffffffffffffffffffffffffffffffff\n      and\n      0xffffffffffffffffffffffffffffffffffffffff\n      and\n      dup2\n      mstore\n      0x20\n      add\n      swap1\n      dup2\n      mstore\n      0x20\n      add\n      0x00\n      keccak256\n      0x00\n        /* \"5.1MyToken.sol\":2405:2443  allowences[from][msg.sender] -= amount */\n      dup3\n      dup3\n      sload\n      tag_117\n      swap2\n      swap1\n      tag_114\n      jump\t// in\n    tag_117:\n      swap3\n      pop\n      pop\n      dup2\n      swap1\n      sstore\n      pop\n        /* \"5.1MyToken.sol\":2474:2476  to */\n      dup3\n        /* \"5.1MyToken.sol\":2459:2485  Transfer(from, to, amount) */\n      0xffffffffffffffffffffffffffffffffffffffff\n      and\n        /* \"5.1MyToken.sol\":2468:2472  from */\n      dup5\n        /* \"5.1MyToken.sol\":2459:2485  Transfer(from, to, amount) */\n      0xffffffffffffffffffffffffffffffffffffffff\n      and\n      0xddf252ad1be2c89b69c2b068fc378daa952ba7f163c4a11628f55a4df523b3ef\n        /* \"5.1MyToken.sol\":2478:2484  amount */\n      dup5\n        /* \"5.1MyToken.sol\":2459:2485  Transfer(from, to, amount) */\n      mload(0x40)\n      tag_118\n      swap2\n      swap1\n      tag_34\n      jump\t// in\n    tag_118:\n      mload(0x40)\n      dup1\n      swap2\n      sub\n      swap1\n      log3\n        /* \"5.1MyToken.sol\":2502:2506  true */\n      0x01\n        /* \"5.1MyToken.sol\":2495:2506  return true */\n      swap1\n      pop\n        /* \"5.1MyToken.sol\":1945:2513  function transferFrom(address from, address to, uint256 amount) public enableChecker returns (bool) {... */\n      swap4\n      swap3\n      pop\n      pop\n      pop\n      jump\t// out\n        /* \"5.1MyToken.sol\":190:216  bool public transferEnable */\n    tag_41:\n      0x04\n      0x00\n      swap1\n      sload\n      swap1\n      0x0100\n      exp\n      swap1\n      div\n      0xff\n      and\n      dup2\n      jump\t// out\n        /* \"5.1MyToken.sol\":130:151  uint8 public decimals */\n    tag_44:\n      0x02\n      0x00\n      swap1\n      sload\n      swap1\n      0x0100\n      exp\n      swap1\n      div\n      0xff\n      and\n      dup2\n      jump\t// out\n        /* \"5.1MyToken.sol\":2625:2965  function mint(address to, uint256 amount) public ownerChecker enableChecker returns(bool){... */\n    tag_49:\n        /* \"5.1MyToken.sol\":2709:2713  bool */\n      0x00\n        /* \"5.1MyToken.sol\":985:990  owner */\n      immutable(\"0x789bcdf275fa270780a52ae3b79bb1ce0fda7e0aaad87b57b74bb99ac290714a\")\n        /* \"5.1MyToken.sol\":971:990  msg.sender == owner */\n      0xffffffffffffffffffffffffffffffffffffffff\n      and\n        /* \"5.1MyToken.sol\":971:981  msg.sender */\n      caller\n        /* \"5.1MyToken.sol\":971:990  msg.sender == owner */\n      0xffffffffffffffffffffffffffffffffffffffff\n      and\n      eq\n        /* \"5.1MyToken.sol\":963:1031  require(msg.sender == owner, \"only the owner can do this operation\") */\n      tag_120\n      jumpi\n      mload(0x40)\n      0x08c379a000000000000000000000000000000000000000000000000000000000\n      dup2\n      mstore\n      0x04\n      add\n      tag_121\n      swap1\n      tag_122\n      jump\t// in\n    tag_121:\n      mload(0x40)\n      dup1\n      swap2\n      sub\n      swap1\n      revert\n    tag_120:\n        /* \"5.1MyToken.sol\":1098:1112  transferEnable */\n      0x04\n      0x00\n      swap1\n      sload\n      swap1\n      0x0100\n      exp\n      swap1\n      div\n      0xff\n      and\n        /* \"5.1MyToken.sol\":1090:1158  require(transferEnable, \"Transfers are not available at this time.\") */\n      tag_124\n      jumpi\n      mload(0x40)\n      0x08c379a000000000000000000000000000000000000000000000000000000000\n      dup2\n      mstore\n      0x04\n      add\n      tag_125\n      swap1\n      tag_99\n      jump\t// in\n    tag_125:\n      mload(0x40)\n      dup1\n      swap2\n      sub\n      swap1\n      revert\n    tag_124:\n        /* \"5.1MyToken.sol\":2746:2747  0 */\n      0x00\n        /* \"5.1MyToken.sol\":2732:2748  to != address(0) */\n      0xffffffffffffffffffffffffffffffffffffffff\n      and\n        /* \"5.1MyToken.sol\":2732:2734  to */\n      dup4\n        /* \"5.1MyToken.sol\":2732:2748  to != address(0) */\n      0xffffffffffffffffffffffffffffffffffffffff\n      and\n      sub\n        /* \"5.1MyToken.sol\":2724:2778  require(to != address(0), \"to cannot be zero address\") */\n      tag_127\n      jumpi\n      mload(0x40)\n      0x08c379a000000000000000000000000000000000000000000000000000000000\n      dup2\n      mstore\n      0x04\n      add\n      tag_128\n      swap1\n      tag_106\n      jump\t// in\n    tag_128:\n      mload(0x40)\n      dup1\n      swap2\n      sub\n      swap1\n      revert\n    tag_127:\n        /* \"5.1MyToken.sol\":2805:2806  0 */\n      0x00\n        /* \"5.1MyToken.sol\":2796:2802  amount */\n      dup3\n        /* \"5.1MyToken.sol\":2796:2806  amount > 0 */\n      gt\n        /* \"5.1MyToken.sol\":2788:2825  require(amount > 0, \"invalid amount\") */\n      tag_129\n      jumpi\n      mload(0x40)\n      0x08c379a000000000000000000000000000000000000000000000000000000000\n      dup2\n      mstore\n      0x04\n      add\n      tag_130\n      swap1\n      tag_94\n      jump\t// in\n    tag_130:\n      mload(0x40)\n      dup1\n      swap2\n      sub\n      swap1\n      revert\n    tag_129:\n        /* \"5.1MyToken.sol\":2851:2857  amount */\n      dup2\n        /* \"5.1MyToken.sol\":2836:2847  totalSupply */\n      0x03\n      0x00\n        /* \"5.1MyToken.sol\":2836:2857  totalSupply += amount */\n      dup3\n      dup3\n      sload\n      tag_131\n      swap2\n      swap1\n      tag_116\n      jump\t// in\n    tag_131:\n      swap3\n      pop\n      pop\n      dup2\n      swap1\n      sstore\n      pop\n        /* \"5.1MyToken.sol\":2884:2890  amount */\n      dup2\n        /* \"5.1MyToken.sol\":2867:2876  balanceOf */\n      0x05\n        /* \"5.1MyToken.sol\":2867:2880  balanceOf[to] */\n      0x00\n        /* \"5.1MyToken.sol\":2877:2879  to */\n      dup6\n        /* \"5.1MyToken.sol\":2867:2880  balanceOf[to] */\n      0xffffffffffffffffffffffffffffffffffffffff\n      and\n      0xffffffffffffffffffffffffffffffffffffffff\n      and\n      dup2\n      mstore\n      0x20\n      add\n      swap1\n      dup2\n      mstore\n      0x20\n      add\n      0x00\n      keccak256\n      0x00\n        /* \"5.1MyToken.sol\":2867:2890  balanceOf[to] += amount */\n      dup3\n      dup3\n      sload\n      tag_132\n      swap2\n      swap1\n      tag_116\n      jump\t// in\n    tag_132:\n      swap3\n      pop\n      pop\n      dup2\n      swap1\n      sstore\n      pop\n        /* \"5.1MyToken.sol\":2926:2928  to */\n      dup3\n        /* \"5.1MyToken.sol\":2905:2937  Transfer(address(0), to, amount) */\n      0xffffffffffffffffffffffffffffffffffffffff\n      and\n        /* \"5.1MyToken.sol\":2922:2923  0 */\n      0x00\n        /* \"5.1MyToken.sol\":2905:2937  Transfer(address(0), to, amount) */\n      0xffffffffffffffffffffffffffffffffffffffff\n      and\n      0xddf252ad1be2c89b69c2b068fc378daa952ba7f163c4a11628f55a4df523b3ef\n        /* \"5.1MyToken.sol\":2930:2936  amount */\n      dup5\n        /* \"5.1MyToken.sol\":2905:2937  Transfer(address(0), to, amount) */\n      mload(0x40)\n      tag_133\n      swap2\n      swap1\n      tag_34\n      jump\t// in\n    tag_133:\n      mload(0x40)\n      dup1\n      swap2\n      sub\n      swap1\n      log3\n        /* \"5.1MyToken.sol\":2954:2958  true */\n      0x01\n        /* \"5.1MyToken.sol\":2947:2958  return true */\n      swap1\n      pop\n        /* \"5.1MyToken.sol\":2625:2965  function mint(address to, uint256 amount) public ownerChecker enableChecker returns(bool){... */\n      swap3\n      swap2\n      pop\n      pop\n      jump\t// out\n        /* \"5.1MyToken.sol\":3070:3419  function burn(uint256 amount) public enableChecker returns(bool) {... */\n    tag_54:\n        /* \"5.1MyToken.sol\":3129:3133  bool */\n      0x00\n        /* \"5.1MyToken.sol\":1098:1112  transferEnable */\n      0x04\n      0x00\n      swap1\n      sload\n      swap1\n      0x0100\n      exp\n      swap1\n      div\n      0xff\n      and\n        /* \"5.1MyToken.sol\":1090:1158  require(transferEnable, \"Transfers are not available at this time.\") */\n      tag_135\n      jumpi\n      mload(0x40)\n      0x08c379a000000000000000000000000000000000000000000000000000000000\n      dup2\n      mstore\n      0x04\n      add\n      tag_136\n      swap1\n      tag_99\n      jump\t// in\n    tag_136:\n      mload(0x40)\n      dup1\n      swap2\n      sub\n      swap1\n      revert\n    tag_135:\n        /* \"5.1MyToken.sol\":3162:3163  0 */\n      0x00\n        /* \"5.1MyToken.sol\":3153:3159  amount */\n      dup3\n        /* \"5.1MyToken.sol\":3153:3163  amount > 0 */\n      gt\n        /* \"5.1MyToken.sol\":3145:3182  require(amount > 0, \"invalid amount\") */\n      tag_138\n      jumpi\n      mload(0x40)\n      0x08c379a000000000000000000000000000000000000000000000000000000000\n      dup2\n      mstore\n      0x04\n      add\n      tag_139\n      swap1\n      tag_94\n      jump\t// in\n    tag_139:\n      mload(0x40)\n      dup1\n      swap2\n      sub\n      swap1\n      revert\n    tag_138:\n        /* \"5.1MyToken.sol\":3225:3231  amount */\n      dup2\n        /* \"5.1MyToken.sol\":3200:3209  balanceOf */\n      0x05\n        /* \"5.1MyToken.sol\":3200:3221  balanceOf[msg.sender] */\n      0x00\n        /* \"5.1MyToken.sol\":3210:3220  msg.sender */\n      caller\n        /* \"5.1MyToken.sol\":3200:3221  balanceOf[msg.sender] */\n      0xffffffffffffffffffffffffffffffffffffffff\n      and\n      0xffffffffffffffffffffffffffffffffffffffff\n      and\n      dup2\n      mstore\n      0x20\n      add\n      swap1\n      dup2\n      mstore\n      0x20\n      add\n      0x00\n      keccak256\n      sload\n        /* \"5.1MyToken.sol\":3200:3231  balanceOf[msg.sender] >= amount */\n      lt\n      iszero\n        /* \"5.1MyToken.sol\":3192:3263  require(balanceOf[msg.sender] >= amount, \"insuffcient balance to burn\") */\n      tag_140\n      jumpi\n      mload(0x40)\n      0x08c379a000000000000000000000000000000000000000000000000000000000\n      dup2\n      mstore\n      0x04\n      add\n      tag_141\n      swap1\n      tag_142\n      jump\t// in\n    tag_141:\n      mload(0x40)\n      dup1\n      swap2\n      sub\n      swap1\n      revert\n    tag_140:\n        /* \"5.1MyToken.sol\":3289:3295  amount */\n      dup2\n        /* \"5.1MyToken.sol\":3274:3285  totalSupply */\n      0x03\n      0x00\n        /* \"5.1MyToken.sol\":3274:3295  totalSupply -= amount */\n      dup3\n      dup3\n      sload\n      tag_143\n      swap2\n      swap1\n      tag_114\n      jump\t// in\n    tag_143:\n      swap3\n      pop\n      pop\n      dup2\n      swap1\n      sstore\n      pop\n        /* \"5.1MyToken.sol\":3330:3336  amount */\n      dup2\n        /* \"5.1MyToken.sol\":3305:3314  balanceOf */\n      0x05\n        /* \"5.1MyToken.sol\":3305:3326  balanceOf[msg.sender] */\n      0x00\n        /* \"5.1MyToken.sol\":3315:3325  msg.sender */\n      caller\n        /* \"5.1MyToken.sol\":3305:3326  balanceOf[msg.sender] */\n      0xffffffffffffffffffffffffffffffffffffffff\n      and\n      0xffffffffffffffffffffffffffffffffffffffff\n      and\n      dup2\n      mstore\n      0x20\n      add\n      swap1\n      dup2\n      mstore\n      0x20\n      add\n      0x00\n      keccak256\n      0x00\n        /* \"5.1MyToken.sol\":3305:3336  balanceOf[msg.sender] -= amount */\n      dup3\n      dup3\n      sload\n      tag_144\n      swap2\n      swap1\n      tag_114\n      jump\t// in\n    tag_144:\n      swap3\n      pop\n      pop\n      dup2\n      swap1\n      sstore\n      pop\n        /* \"5.1MyToken.sol\":3380:3381  0 */\n      0x00\n        /* \"5.1MyToken.sol\":3351:3391  Transfer(msg.sender, address(0), amount) */\n      0xffffffffffffffffffffffffffffffffffffffff\n      and\n        /* \"5.1MyToken.sol\":3360:3370  msg.sender */\n      caller\n        /* \"5.1MyToken.sol\":3351:3391  Transfer(msg.sender, address(0), amount) */\n      0xffffffffffffffffffffffffffffffffffffffff\n      and\n      0xddf252ad1be2c89b69c2b068fc378daa952ba7f163c4a11628f55a4df523b3ef\n        /* \"5.1MyToken.sol\":3384:3390  amount */\n      dup5\n        /* \"5.1MyToken.sol\":3351:3391  Transfer(msg.sender, address(0), amount) */\n      mload(0x40)\n      tag_145\n      swap2\n      swap1\n      tag_34\n      jump\t// in\n    tag_145:\n      mload(0x40)\n      dup1\n      swap2\n      sub\n      swap1\n      log3\n        /* \"5.1MyToken.sol\":3408:3412  true */\n      0x01\n        /* \"5.1MyToken.sol\":3401:3412  return true */\n      swap1\n      pop\n        /* \"5.1MyToken.sol\":3070:3419  function burn(uint256 amount) public enableChecker returns(bool) {... */\n      swap2\n      swap1\n      pop\n      jump\t// out\n        /* \"5.1MyToken.sol\":2519:2619  function showMyBalance() public view returns (uint256) {... */\n    tag_57:\n        /* \"5.1MyToken.sol\":2565:2572  uint256 */\n      0x00\n        /* \"5.1MyToken.sol\":2591:2600  balanceOf */\n      0x05\n        /* \"5.1MyToken.sol\":2591:2612  balanceOf[msg.sender] */\n      0x00\n        /* \"5.1MyToken.sol\":2601:2611  msg.sender */\n      caller\n        /* \"5.1MyToken.sol\":2591:2612  balanceOf[msg.sender] */\n      0xffffffffffffffffffffffffffffffffffffffff\n      and\n      0xffffffffffffffffffffffffffffffffffffffff\n      and\n      dup2\n      mstore\n      0x20\n      add\n      swap1\n      dup2\n      mstore\n      0x20\n      add\n      0x00\n      keccak256\n      sload\n        /* \"5.1MyToken.sol\":2584:2612  return balanceOf[msg.sender] */\n      swap1\n      pop\n        /* \"5.1MyToken.sol\":2519:2619  function showMyBalance() public view returns (uint256) {... */\n      swap1\n      jump\t// out\n        /* \"5.1MyToken.sol\":260:304  mapping(address => uint256) public balanceOf */\n    tag_62:\n      mstore(0x20, 0x05)\n      dup1\n      0x00\n      mstore\n      keccak256(0x00, 0x40)\n      0x00\n      swap2\n      pop\n      swap1\n      pop\n      sload\n      dup2\n      jump\t// out\n        /* \"5.1MyToken.sol\":2971:3064  function switchEnable() public ownerChecker {... */\n    tag_65:\n        /* \"5.1MyToken.sol\":985:990  owner */\n      immutable(\"0x789bcdf275fa270780a52ae3b79bb1ce0fda7e0aaad87b57b74bb99ac290714a\")\n        /* \"5.1MyToken.sol\":971:990  msg.sender == owner */\n      0xffffffffffffffffffffffffffffffffffffffff\n      and\n        /* \"5.1MyToken.sol\":971:981  msg.sender */\n      caller\n        /* \"5.1MyToken.sol\":971:990  msg.sender == owner */\n      0xffffffffffffffffffffffffffffffffffffffff\n      and\n      eq\n        /* \"5.1MyToken.sol\":963:1031  require(msg.sender == owner, \"only the owner can do this operation\") */\n      tag_148\n      jumpi\n      mload(0x40)\n      0x08c379a000000000000000000000000000000000000000000000000000000000\n      dup2\n      mstore\n      0x04\n      add\n      tag_149\n      swap1\n      tag_122\n      jump\t// in\n    tag_149:\n      mload(0x40)\n      dup1\n      swap2\n      sub\n      swap1\n      revert\n    tag_148:\n        /* \"5.1MyToken.sol\":3043:3057  transferEnable */\n      0x04\n      0x00\n      swap1\n      sload\n      swap1\n      0x0100\n      exp\n      swap1\n      div\n      0xff\n      and\n        /* \"5.1MyToken.sol\":3042:3057  !transferEnable */\n      iszero\n        /* \"5.1MyToken.sol\":3025:3039  transferEnable */\n      0x04\n      0x00\n        /* \"5.1MyToken.sol\":3025:3057  transferEnable = !transferEnable */\n      0x0100\n      exp\n      dup2\n      sload\n      dup2\n      0xff\n      mul\n      not\n      and\n      swap1\n      dup4\n      iszero\n      iszero\n      mul\n      or\n      swap1\n      sstore\n      pop\n        /* \"5.1MyToken.sol\":2971:3064  function switchEnable() public ownerChecker {... */\n      jump\t// out\n        /* \"5.1MyToken.sol\":105:124  string public sybol */\n    tag_67:\n      0x01\n      dup1\n      sload\n      tag_151\n      swap1\n      tag_83\n      jump\t// in\n    tag_151:\n      dup1\n      0x1f\n      add\n      0x20\n      dup1\n      swap2\n      div\n      mul\n      0x20\n      add\n      mload(0x40)\n      swap1\n      dup2\n      add\n      0x40\n      mstore\n      dup1\n      swap3\n      swap2\n      swap1\n      dup2\n      dup2\n      mstore\n      0x20\n      add\n      dup3\n      dup1\n      sload\n      tag_152\n      swap1\n      tag_83\n      jump\t// in\n    tag_152:\n      dup1\n      iszero\n      tag_153\n      jumpi\n      dup1\n      0x1f\n      lt\n      tag_154\n      jumpi\n      0x0100\n      dup1\n      dup4\n      sload\n      div\n      mul\n      dup4\n      mstore\n      swap2\n      0x20\n      add\n      swap2\n      jump(tag_153)\n    tag_154:\n      dup3\n      add\n      swap2\n      swap1\n      0x00\n      mstore\n      keccak256(0x00, 0x20)\n      swap1\n    tag_155:\n      dup2\n      sload\n      dup2\n      mstore\n      swap1\n      0x01\n      add\n      swap1\n      0x20\n      add\n      dup1\n      dup4\n      gt\n      tag_155\n      jumpi\n      dup3\n      swap1\n      sub\n      0x1f\n      and\n      dup3\n      add\n      swap2\n    tag_153:\n      pop\n      pop\n      pop\n      pop\n      pop\n      dup2\n      jump\t// out\n        /* \"5.1MyToken.sol\":223:253  address public immutable owner */\n    tag_70:\n      immutable(\"0x789bcdf275fa270780a52ae3b79bb1ce0fda7e0aaad87b57b74bb99ac290714a\")\n      dup2\n      jump\t// out\n        /* \"5.1MyToken.sol\":1182:1607  function transfer(address to, uint256 amount) public enableChecker returns (bool) {... */\n    tag_75:\n        /* \"5.1MyToken.sol\":1258:1262  bool */\n      0x00\n        /* \"5.1MyToken.sol\":1098:1112  transferEnable */\n      0x04\n      0x00\n      swap1\n      sload\n      swap1\n      0x0100\n      exp\n      swap1\n      div\n      0xff\n      and\n        /* \"5.1MyToken.sol\":1090:1158  require(transferEnable, \"Transfers are not available at this time.\") */\n      tag_157\n      jumpi\n      mload(0x40)\n      0x08c379a000000000000000000000000000000000000000000000000000000000\n      dup2\n      mstore\n      0x04\n      add\n      tag_158\n      swap1\n      tag_99\n      jump\t// in\n    tag_158:\n      mload(0x40)\n      dup1\n      swap2\n      sub\n      swap1\n      revert\n    tag_157:\n        /* \"5.1MyToken.sol\":1296:1297  0 */\n      0x00\n        /* \"5.1MyToken.sol\":1282:1298  to != address(0) */\n      0xffffffffffffffffffffffffffffffffffffffff\n      and\n        /* \"5.1MyToken.sol\":1282:1284  to */\n      dup4\n        /* \"5.1MyToken.sol\":1282:1298  to != address(0) */\n      0xffffffffffffffffffffffffffffffffffffffff\n      and\n      sub\n        /* \"5.1MyToken.sol\":1274:1335  require(to != address(0), \"can not transfer to zero address\") */\n      tag_160\n      jumpi\n      mload(0x40)\n      0x08c379a000000000000000000000000000000000000000000000000000000000\n      dup2\n      mstore\n      0x04\n      add\n      tag_161\n      swap1\n      tag_162\n      jump\t// in\n    tag_161:\n      mload(0x40)\n      dup1\n      swap2\n      sub\n      swap1\n      revert\n    tag_160:\n        /* \"5.1MyToken.sol\":1362:1363  0 */\n      0x00\n        /* \"5.1MyToken.sol\":1353:1359  amount */\n      dup3\n        /* \"5.1MyToken.sol\":1353:1363  amount > 0 */\n      gt\n        /* \"5.1MyToken.sol\":1345:1382  require(amount > 0, \"invalid amount\") */\n      tag_163\n      jumpi\n      mload(0x40)\n      0x08c379a000000000000000000000000000000000000000000000000000000000\n      dup2\n      mstore\n      0x04\n      add\n      tag_164\n      swap1\n      tag_94\n      jump\t// in\n    tag_164:\n      mload(0x40)\n      dup1\n      swap2\n      sub\n      swap1\n      revert\n    tag_163:\n        /* \"5.1MyToken.sol\":1425:1431  amount */\n      dup2\n        /* \"5.1MyToken.sol\":1400:1409  balanceOf */\n      0x05\n        /* \"5.1MyToken.sol\":1400:1421  balanceOf[msg.sender] */\n      0x00\n        /* \"5.1MyToken.sol\":1410:1420  msg.sender */\n      caller\n        /* \"5.1MyToken.sol\":1400:1421  balanceOf[msg.sender] */\n      0xffffffffffffffffffffffffffffffffffffffff\n      and\n      0xffffffffffffffffffffffffffffffffffffffff\n      and\n      dup2\n      mstore\n      0x20\n      add\n      swap1\n      dup2\n      mstore\n      0x20\n      add\n      0x00\n      keccak256\n      sload\n        /* \"5.1MyToken.sol\":1400:1431  balanceOf[msg.sender] >= amount */\n      lt\n      iszero\n        /* \"5.1MyToken.sol\":1392:1455  require(balanceOf[msg.sender] >= amount, \"insuffcient balance\") */\n      tag_165\n      jumpi\n      mload(0x40)\n      0x08c379a000000000000000000000000000000000000000000000000000000000\n      dup2\n      mstore\n      0x04\n      add\n      tag_166\n      swap1\n      tag_109\n      jump\t// in\n    tag_166:\n      mload(0x40)\n      dup1\n      swap2\n      sub\n      swap1\n      revert\n    tag_165:\n        /* \"5.1MyToken.sol\":1483:1489  amount */\n      dup2\n        /* \"5.1MyToken.sol\":1466:1475  balanceOf */\n      0x05\n        /* \"5.1MyToken.sol\":1466:1479  balanceOf[to] */\n      0x00\n        /* \"5.1MyToken.sol\":1476:1478  to */\n      dup6\n        /* \"5.1MyToken.sol\":1466:1479  balanceOf[to] */\n      0xffffffffffffffffffffffffffffffffffffffff\n      and\n      0xffffffffffffffffffffffffffffffffffffffff\n      and\n      dup2\n      mstore\n      0x20\n      add\n      swap1\n      dup2\n      mstore\n      0x20\n      add\n      0x00\n      keccak256\n      0x00\n        /* \"5.1MyToken.sol\":1466:1489  balanceOf[to] += amount */\n      dup3\n      dup3\n      sload\n      tag_167\n      swap2\n      swap1\n      tag_116\n      jump\t// in\n    tag_167:\n      swap3\n      pop\n      pop\n      dup2\n      swap1\n      sstore\n      pop\n        /* \"5.1MyToken.sol\":1524:1530  amount */\n      dup2\n        /* \"5.1MyToken.sol\":1499:1508  balanceOf */\n      0x05\n        /* \"5.1MyToken.sol\":1499:1520  balanceOf[msg.sender] */\n      0x00\n        /* \"5.1MyToken.sol\":1509:1519  msg.sender */\n      caller\n        /* \"5.1MyToken.sol\":1499:1520  balanceOf[msg.sender] */\n      0xffffffffffffffffffffffffffffffffffffffff\n      and\n      0xffffffffffffffffffffffffffffffffffffffff\n      and\n      dup2\n      mstore\n      0x20\n      add\n      swap1\n      dup2\n      mstore\n      0x20\n      add\n      0x00\n      keccak256\n      0x00\n        /* \"5.1MyToken.sol\":1499:1530  balanceOf[msg.sender] -= amount */\n      dup3\n      dup3\n      sload\n      tag_168\n      swap2\n      swap1\n      tag_114\n      jump\t// in\n    tag_168:\n      swap3\n      pop\n      pop\n      dup2\n      swap1\n      sstore\n      pop\n        /* \"5.1MyToken.sol\":1568:1570  to */\n      dup3\n        /* \"5.1MyToken.sol\":1547:1579  Transfer(msg.sender, to, amount) */\n      0xffffffffffffffffffffffffffffffffffffffff\n      and\n        /* \"5.1MyToken.sol\":1556:1566  msg.sender */\n      caller\n        /* \"5.1MyToken.sol\":1547:1579  Transfer(msg.sender, to, amount) */\n      0xffffffffffffffffffffffffffffffffffffffff\n      and\n      0xddf252ad1be2c89b69c2b068fc378daa952ba7f163c4a11628f55a4df523b3ef\n        /* \"5.1MyToken.sol\":1572:1578  amount */\n      dup5\n        /* \"5.1MyToken.sol\":1547:1579  Transfer(msg.sender, to, amount) */\n      mload(0x40)\n      tag_169\n      swap2\n      swap1\n      tag_34\n      jump\t// in\n    tag_169:\n      mload(0x40)\n      dup1\n      swap2\n      sub\n      swap1\n      log3\n        /* \"5.1MyToken.sol\":1596:1600  true */\n      0x01\n        /* \"5.1MyToken.sol\":1589:1600  return true */\n      swap1\n      pop\n        /* \"5.1MyToken.sol\":1182:1607  function transfer(address to, uint256 amount) public enableChecker returns (bool) {... */\n      swap3\n      swap2\n      pop\n      pop\n      jump\t// out\n        /* \"5.1MyToken.sol\":310:375  mapping(address => mapping(address => uint256)) public allowences */\n    tag_80:\n      mstore(0x20, 0x06)\n      dup2\n      0x00\n      mstore\n      mstore(0x20, keccak256(0x00, 0x40))\n      dup1\n      0x00\n      mstore\n      keccak256(0x00, 0x40)\n      0x00\n      swap2\n      pop\n      swap2\n      pop\n      pop\n      sload\n      dup2\n      jump\t// out\n        /* \"#utility.yul\":7:106   */\n    tag_170:\n        /* \"#utility.yul\":59:65   */\n      0x00\n        /* \"#utility.yul\":93:98   */\n      dup2\n        /* \"#utility.yul\":87:99   */\n      mload\n        /* \"#utility.yul\":77:99   */\n      swap1\n      pop\n        /* \"#utility.yul\":7:106   */\n      swap2\n      swap1\n      pop\n      jump\t// out\n        /* \"#utility.yul\":112:281   */\n    tag_171:\n        /* \"#utility.yul\":196:207   */\n      0x00\n        /* \"#utility.yul\":230:236   */\n      dup3\n        /* \"#utility.yul\":225:228   */\n      dup3\n        /* \"#utility.yul\":218:237   */\n      mstore\n        /* \"#utility.yul\":270:274   */\n      0x20\n        /* \"#utility.yul\":265:268   */\n      dup3\n        /* \"#utility.yul\":261:275   */\n      add\n        /* \"#utility.yul\":246:275   */\n      swap1\n      pop\n        /* \"#utility.yul\":112:281   */\n      swap3\n      swap2\n      pop\n      pop\n      jump\t// out\n        /* \"#utility.yul\":287:426   */\n    tag_172:\n        /* \"#utility.yul\":376:382   */\n      dup3\n        /* \"#utility.yul\":371:374   */\n      dup2\n        /* \"#utility.yul\":366:369   */\n      dup4\n        /* \"#utility.yul\":360:383   */\n      mcopy\n        /* \"#utility.yul\":417:418   */\n      0x00\n        /* \"#utility.yul\":408:414   */\n      dup4\n        /* \"#utility.yul\":403:406   */\n      dup4\n        /* \"#utility.yul\":399:415   */\n      add\n        /* \"#utility.yul\":392:419   */\n      mstore\n        /* \"#utility.yul\":287:426   */\n      pop\n      pop\n      pop\n      jump\t// out\n        /* \"#utility.yul\":432:534   */\n    tag_173:\n        /* \"#utility.yul\":473:479   */\n      0x00\n        /* \"#utility.yul\":524:526   */\n      0x1f\n        /* \"#utility.yul\":520:527   */\n      not\n        /* \"#utility.yul\":515:517   */\n      0x1f\n        /* \"#utility.yul\":508:513   */\n      dup4\n        /* \"#utility.yul\":504:518   */\n      add\n        /* \"#utility.yul\":500:528   */\n      and\n        /* \"#utility.yul\":490:528   */\n      swap1\n      pop\n        /* \"#utility.yul\":432:534   */\n      swap2\n      swap1\n      pop\n      jump\t// out\n        /* \"#utility.yul\":540:917   */\n    tag_174:\n        /* \"#utility.yul\":628:631   */\n      0x00\n        /* \"#utility.yul\":656:695   */\n      tag_219\n        /* \"#utility.yul\":689:694   */\n      dup3\n        /* \"#utility.yul\":656:695   */\n      tag_170\n      jump\t// in\n    tag_219:\n        /* \"#utility.yul\":711:782   */\n      tag_220\n        /* \"#utility.yul\":775:781   */\n      dup2\n        /* \"#utility.yul\":770:773   */\n      dup6\n        /* \"#utility.yul\":711:782   */\n      tag_171\n      jump\t// in\n    tag_220:\n        /* \"#utility.yul\":704:782   */\n      swap4\n      pop\n        /* \"#utility.yul\":791:856   */\n      tag_221\n        /* \"#utility.yul\":849:855   */\n      dup2\n        /* \"#utility.yul\":844:847   */\n      dup6\n        /* \"#utility.yul\":837:841   */\n      0x20\n        /* \"#utility.yul\":830:835   */\n      dup7\n        /* \"#utility.yul\":826:842   */\n      add\n        /* \"#utility.yul\":791:856   */\n      tag_172\n      jump\t// in\n    tag_221:\n        /* \"#utility.yul\":881:910   */\n      tag_222\n        /* \"#utility.yul\":903:909   */\n      dup2\n        /* \"#utility.yul\":881:910   */\n      tag_173\n      jump\t// in\n    tag_222:\n        /* \"#utility.yul\":876:879   */\n      dup5\n        /* \"#utility.yul\":872:911   */\n      add\n        /* \"#utility.yul\":865:911   */\n      swap2\n      pop\n        /* \"#utility.yul\":632:917   */\n      pop\n        /* \"#utility.yul\":540:917   */\n      swap3\n      swap2\n      pop\n      pop\n      jump\t// out\n        /* \"#utility.yul\":923:1236   */\n    tag_24:\n        /* \"#utility.yul\":1036:1040   */\n      0x00\n        /* \"#utility.yul\":1074:1076   */\n      0x20\n        /* \"#utility.yul\":1063:1072   */\n      dup3\n        /* \"#utility.yul\":1059:1077   */\n      add\n        /* \"#utility.yul\":1051:1077   */\n      swap1\n      pop\n        /* \"#utility.yul\":1123:1132   */\n      dup2\n        /* \"#utility.yul\":1117:1121   */\n      dup2\n        /* \"#utility.yul\":1113:1133   */\n      sub\n        /* \"#utility.yul\":1109:1110   */\n      0x00\n        /* \"#utility.yul\":1098:1107   */\n      dup4\n        /* \"#utility.yul\":1094:1111   */\n      add\n        /* \"#utility.yul\":1087:1134   */\n      mstore\n        /* \"#utility.yul\":1151:1229   */\n      tag_224\n        /* \"#utility.yul\":1224:1228   */\n      dup2\n        /* \"#utility.yul\":1215:1221   */\n      dup5\n        /* \"#utility.yul\":1151:1229   */\n      tag_174\n      jump\t// in\n    tag_224:\n        /* \"#utility.yul\":1143:1229   */\n      swap1\n      pop\n        /* \"#utility.yul\":923:1236   */\n      swap3\n      swap2\n      pop\n      pop\n      jump\t// out\n        /* \"#utility.yul\":1323:1440   */\n    tag_176:\n        /* \"#utility.yul\":1432:1433   */\n      0x00\n        /* \"#utility.yul\":1429:1430   */\n      0x00\n        /* \"#utility.yul\":1422:1434   */\n      revert\n        /* \"#utility.yul\":1569:1695   */\n    tag_178:\n        /* \"#utility.yul\":1606:1613   */\n      0x00\n        /* \"#utility.yul\":1646:1688   */\n      0xffffffffffffffffffffffffffffffffffffffff\n        /* \"#utility.yul\":1639:1644   */\n      dup3\n        /* \"#utility.yul\":1635:1689   */\n      and\n        /* \"#utility.yul\":1624:1689   */\n      swap1\n      pop\n        /* \"#utility.yul\":1569:1695   */\n      swap2\n      swap1\n      pop\n      jump\t// out\n        /* \"#utility.yul\":1701:1797   */\n    tag_179:\n        /* \"#utility.yul\":1738:1745   */\n      0x00\n        /* \"#utility.yul\":1767:1791   */\n      tag_230\n        /* \"#utility.yul\":1785:1790   */\n      dup3\n        /* \"#utility.yul\":1767:1791   */\n      tag_178\n      jump\t// in\n    tag_230:\n        /* \"#utility.yul\":1756:1791   */\n      swap1\n      pop\n        /* \"#utility.yul\":1701:1797   */\n      swap2\n      swap1\n      pop\n      jump\t// out\n        /* \"#utility.yul\":1803:1925   */\n    tag_180:\n        /* \"#utility.yul\":1876:1900   */\n      tag_232\n        /* \"#utility.yul\":1894:1899   */\n      dup2\n        /* \"#utility.yul\":1876:1900   */\n      tag_179\n      jump\t// in\n    tag_232:\n        /* \"#utility.yul\":1869:1874   */\n      dup2\n        /* \"#utility.yul\":1866:1901   */\n      eq\n        /* \"#utility.yul\":1856:1919   */\n      tag_233\n      jumpi\n        /* \"#utility.yul\":1915:1916   */\n      0x00\n        /* \"#utility.yul\":1912:1913   */\n      0x00\n        /* \"#utility.yul\":1905:1917   */\n      revert\n        /* \"#utility.yul\":1856:1919   */\n    tag_233:\n        /* \"#utility.yul\":1803:1925   */\n      pop\n      jump\t// out\n        /* \"#utility.yul\":1931:2070   */\n    tag_181:\n        /* \"#utility.yul\":1977:1982   */\n      0x00\n        /* \"#utility.yul\":2015:2021   */\n      dup2\n        /* \"#utility.yul\":2002:2022   */\n      calldataload\n        /* \"#utility.yul\":1993:2022   */\n      swap1\n      pop\n        /* \"#utility.yul\":2031:2064   */\n      tag_235\n        /* \"#utility.yul\":2058:2063   */\n      dup2\n        /* \"#utility.yul\":2031:2064   */\n      tag_180\n      jump\t// in\n    tag_235:\n        /* \"#utility.yul\":1931:2070   */\n      swap3\n      swap2\n      pop\n      pop\n      jump\t// out\n        /* \"#utility.yul\":2076:2153   */\n    tag_182:\n        /* \"#utility.yul\":2113:2120   */\n      0x00\n        /* \"#utility.yul\":2142:2147   */\n      dup2\n        /* \"#utility.yul\":2131:2147   */\n      swap1\n      pop\n        /* \"#utility.yul\":2076:2153   */\n      swap2\n      swap1\n      pop\n      jump\t// out\n        /* \"#utility.yul\":2159:2281   */\n    tag_183:\n        /* \"#utility.yul\":2232:2256   */\n      tag_238\n        /* \"#utility.yul\":2250:2255   */\n      dup2\n        /* \"#utility.yul\":2232:2256   */\n      tag_182\n      jump\t// in\n    tag_238:\n        /* \"#utility.yul\":2225:2230   */\n      dup2\n        /* \"#utility.yul\":2222:2257   */\n      eq\n        /* \"#utility.yul\":2212:2275   */\n      tag_239\n      jumpi\n        /* \"#utility.yul\":2271:2272   */\n      0x00\n        /* \"#utility.yul\":2268:2269   */\n      0x00\n        /* \"#utility.yul\":2261:2273   */\n      revert\n        /* \"#utility.yul\":2212:2275   */\n    tag_239:\n        /* \"#utility.yul\":2159:2281   */\n      pop\n      jump\t// out\n        /* \"#utility.yul\":2287:2426   */\n    tag_184:\n        /* \"#utility.yul\":2333:2338   */\n      0x00\n        /* \"#utility.yul\":2371:2377   */\n      dup2\n        /* \"#utility.yul\":2358:2378   */\n      calldataload\n        /* \"#utility.yul\":2349:2378   */\n      swap1\n      pop\n        /* \"#utility.yul\":2387:2420   */\n      tag_241\n        /* \"#utility.yul\":2414:2419   */\n      dup2\n        /* \"#utility.yul\":2387:2420   */\n      tag_183\n      jump\t// in\n    tag_241:\n        /* \"#utility.yul\":2287:2426   */\n      swap3\n      swap2\n      pop\n      pop\n      jump\t// out\n        /* \"#utility.yul\":2432:2906   */\n    tag_27:\n        /* \"#utility.yul\":2500:2506   */\n      0x00\n        /* \"#utility.yul\":2508:2514   */\n      0x00\n        /* \"#utility.yul\":2557:2559   */\n      0x40\n        /* \"#utility.yul\":2545:2554   */\n      dup4\n        /* \"#utility.yul\":2536:2543   */\n      dup6\n        /* \"#utility.yul\":2532:2555   */\n      sub\n        /* \"#utility.yul\":2528:2560   */\n      slt\n        /* \"#utility.yul\":2525:2644   */\n      iszero\n      tag_243\n      jumpi\n        /* \"#utility.yul\":2563:2642   */\n      tag_244\n      tag_176\n      jump\t// in\n    tag_244:\n        /* \"#utility.yul\":2525:2644   */\n    tag_243:\n        /* \"#utility.yul\":2683:2684   */\n      0x00\n        /* \"#utility.yul\":2708:2761   */\n      tag_245\n        /* \"#utility.yul\":2753:2760   */\n      dup6\n        /* \"#utility.yul\":2744:2750   */\n      dup3\n        /* \"#utility.yul\":2733:2742   */\n      dup7\n        /* \"#utility.yul\":2729:2751   */\n      add\n        /* \"#utility.yul\":2708:2761   */\n      tag_181\n      jump\t// in\n    tag_245:\n        /* \"#utility.yul\":2698:2761   */\n      swap3\n      pop\n        /* \"#utility.yul\":2654:2771   */\n      pop\n        /* \"#utility.yul\":2810:2812   */\n      0x20\n        /* \"#utility.yul\":2836:2889   */\n      tag_246\n        /* \"#utility.yul\":2881:2888   */\n      dup6\n        /* \"#utility.yul\":2872:2878   */\n      dup3\n        /* \"#utility.yul\":2861:2870   */\n      dup7\n        /* \"#utility.yul\":2857:2879   */\n      add\n        /* \"#utility.yul\":2836:2889   */\n      tag_184\n      jump\t// in\n    tag_246:\n        /* \"#utility.yul\":2826:2889   */\n      swap2\n      pop\n        /* \"#utility.yul\":2781:2899   */\n      pop\n        /* \"#utility.yul\":2432:2906   */\n      swap3\n      pop\n      swap3\n      swap1\n      pop\n      jump\t// out\n        /* \"#utility.yul\":2912:3002   */\n    tag_185:\n        /* \"#utility.yul\":2946:2953   */\n      0x00\n        /* \"#utility.yul\":2989:2994   */\n      dup2\n        /* \"#utility.yul\":2982:2995   */\n      iszero\n        /* \"#utility.yul\":2975:2996   */\n      iszero\n        /* \"#utility.yul\":2964:2996   */\n      swap1\n      pop\n        /* \"#utility.yul\":2912:3002   */\n      swap2\n      swap1\n      pop\n      jump\t// out\n        /* \"#utility.yul\":3008:3117   */\n    tag_186:\n        /* \"#utility.yul\":3089:3110   */\n      tag_249\n        /* \"#utility.yul\":3104:3109   */\n      dup2\n        /* \"#utility.yul\":3089:3110   */\n      tag_185\n      jump\t// in\n    tag_249:\n        /* \"#utility.yul\":3084:3087   */\n      dup3\n        /* \"#utility.yul\":3077:3111   */\n      mstore\n        /* \"#utility.yul\":3008:3117   */\n      pop\n      pop\n      jump\t// out\n        /* \"#utility.yul\":3123:3333   */\n    tag_30:\n        /* \"#utility.yul\":3210:3214   */\n      0x00\n        /* \"#utility.yul\":3248:3250   */\n      0x20\n        /* \"#utility.yul\":3237:3246   */\n      dup3\n        /* \"#utility.yul\":3233:3251   */\n      add\n        /* \"#utility.yul\":3225:3251   */\n      swap1\n      pop\n        /* \"#utility.yul\":3261:3326   */\n      tag_251\n        /* \"#utility.yul\":3323:3324   */\n      0x00\n        /* \"#utility.yul\":3312:3321   */\n      dup4\n        /* \"#utility.yul\":3308:3325   */\n      add\n        /* \"#utility.yul\":3299:3305   */\n      dup5\n        /* \"#utility.yul\":3261:3326   */\n      tag_186\n      jump\t// in\n    tag_251:\n        /* \"#utility.yul\":3123:3333   */\n      swap3\n      swap2\n      pop\n      pop\n      jump\t// out\n        /* \"#utility.yul\":3339:3457   */\n    tag_187:\n        /* \"#utility.yul\":3426:3450   */\n      tag_253\n        /* \"#utility.yul\":3444:3449   */\n      dup2\n        /* \"#utility.yul\":3426:3450   */\n      tag_182\n      jump\t// in\n    tag_253:\n        /* \"#utility.yul\":3421:3424   */\n      dup3\n        /* \"#utility.yul\":3414:3451   */\n      mstore\n        /* \"#utility.yul\":3339:3457   */\n      pop\n      pop\n      jump\t// out\n        /* \"#utility.yul\":3463:3685   */\n    tag_34:\n        /* \"#utility.yul\":3556:3560   */\n      0x00\n        /* \"#utility.yul\":3594:3596   */\n      0x20\n        /* \"#utility.yul\":3583:3592   */\n      dup3\n        /* \"#utility.yul\":3579:3597   */\n      add\n        /* \"#utility.yul\":3571:3597   */\n      swap1\n      pop\n        /* \"#utility.yul\":3607:3678   */\n      tag_255\n        /* \"#utility.yul\":3675:3676   */\n      0x00\n        /* \"#utility.yul\":3664:3673   */\n      dup4\n        /* \"#utility.yul\":3660:3677   */\n      add\n        /* \"#utility.yul\":3651:3657   */\n      dup5\n        /* \"#utility.yul\":3607:3678   */\n      tag_187\n      jump\t// in\n    tag_255:\n        /* \"#utility.yul\":3463:3685   */\n      swap3\n      swap2\n      pop\n      pop\n      jump\t// out\n        /* \"#utility.yul\":3691:4310   */\n    tag_37:\n        /* \"#utility.yul\":3768:3774   */\n      0x00\n        /* \"#utility.yul\":3776:3782   */\n      0x00\n        /* \"#utility.yul\":3784:3790   */\n      0x00\n        /* \"#utility.yul\":3833:3835   */\n      0x60\n        /* \"#utility.yul\":3821:3830   */\n      dup5\n        /* \"#utility.yul\":3812:3819   */\n      dup7\n        /* \"#utility.yul\":3808:3831   */\n      sub\n        /* \"#utility.yul\":3804:3836   */\n      slt\n        /* \"#utility.yul\":3801:3920   */\n      iszero\n      tag_257\n      jumpi\n        /* \"#utility.yul\":3839:3918   */\n      tag_258\n      tag_176\n      jump\t// in\n    tag_258:\n        /* \"#utility.yul\":3801:3920   */\n    tag_257:\n        /* \"#utility.yul\":3959:3960   */\n      0x00\n        /* \"#utility.yul\":3984:4037   */\n      tag_259\n        /* \"#utility.yul\":4029:4036   */\n      dup7\n        /* \"#utility.yul\":4020:4026   */\n      dup3\n        /* \"#utility.yul\":4009:4018   */\n      dup8\n        /* \"#utility.yul\":4005:4027   */\n      add\n        /* \"#utility.yul\":3984:4037   */\n      tag_181\n      jump\t// in\n    tag_259:\n        /* \"#utility.yul\":3974:4037   */\n      swap4\n      pop\n        /* \"#utility.yul\":3930:4047   */\n      pop\n        /* \"#utility.yul\":4086:4088   */\n      0x20\n        /* \"#utility.yul\":4112:4165   */\n      tag_260\n        /* \"#utility.yul\":4157:4164   */\n      dup7\n        /* \"#utility.yul\":4148:4154   */\n      dup3\n        /* \"#utility.yul\":4137:4146   */\n      dup8\n        /* \"#utility.yul\":4133:4155   */\n      add\n        /* \"#utility.yul\":4112:4165   */\n      tag_181\n      jump\t// in\n    tag_260:\n        /* \"#utility.yul\":4102:4165   */\n      swap3\n      pop\n        /* \"#utility.yul\":4057:4175   */\n      pop\n        /* \"#utility.yul\":4214:4216   */\n      0x40\n        /* \"#utility.yul\":4240:4293   */\n      tag_261\n        /* \"#utility.yul\":4285:4292   */\n      dup7\n        /* \"#utility.yul\":4276:4282   */\n      dup3\n        /* \"#utility.yul\":4265:4274   */\n      dup8\n        /* \"#utility.yul\":4261:4283   */\n      add\n        /* \"#utility.yul\":4240:4293   */\n      tag_184\n      jump\t// in\n    tag_261:\n        /* \"#utility.yul\":4230:4293   */\n      swap2\n      pop\n        /* \"#utility.yul\":4185:4303   */\n      pop\n        /* \"#utility.yul\":3691:4310   */\n      swap3\n      pop\n      swap3\n      pop\n      swap3\n      jump\t// out\n        /* \"#utility.yul\":4316:4402   */\n    tag_188:\n        /* \"#utility.yul\":4351:4358   */\n      0x00\n        /* \"#utility.yul\":4391:4395   */\n      0xff\n        /* \"#utility.yul\":4384:4389   */\n      dup3\n        /* \"#utility.yul\":4380:4396   */\n      and\n        /* \"#utility.yul\":4369:4396   */\n      swap1\n      pop\n        /* \"#utility.yul\":4316:4402   */\n      swap2\n      swap1\n      pop\n      jump\t// out\n        /* \"#utility.yul\":4408:4520   */\n    tag_189:\n        /* \"#utility.yul\":4491:4513   */\n      tag_264\n        /* \"#utility.yul\":4507:4512   */\n      dup2\n        /* \"#utility.yul\":4491:4513   */\n      tag_188\n      jump\t// in\n    tag_264:\n        /* \"#utility.yul\":4486:4489   */\n      dup3\n        /* \"#utility.yul\":4479:4514   */\n      mstore\n        /* \"#utility.yul\":4408:4520   */\n      pop\n      pop\n      jump\t// out\n        /* \"#utility.yul\":4526:4740   */\n    tag_46:\n        /* \"#utility.yul\":4615:4619   */\n      0x00\n        /* \"#utility.yul\":4653:4655   */\n      0x20\n        /* \"#utility.yul\":4642:4651   */\n      dup3\n        /* \"#utility.yul\":4638:4656   */\n      add\n        /* \"#utility.yul\":4630:4656   */\n      swap1\n      pop\n        /* \"#utility.yul\":4666:4733   */\n      tag_266\n        /* \"#utility.yul\":4730:4731   */\n      0x00\n        /* \"#utility.yul\":4719:4728   */\n      dup4\n        /* \"#utility.yul\":4715:4732   */\n      add\n        /* \"#utility.yul\":4706:4712   */\n      dup5\n        /* \"#utility.yul\":4666:4733   */\n      tag_189\n      jump\t// in\n    tag_266:\n        /* \"#utility.yul\":4526:4740   */\n      swap3\n      swap2\n      pop\n      pop\n      jump\t// out\n        /* \"#utility.yul\":4746:5075   */\n    tag_53:\n        /* \"#utility.yul\":4805:4811   */\n      0x00\n        /* \"#utility.yul\":4854:4856   */\n      0x20\n        /* \"#utility.yul\":4842:4851   */\n      dup3\n        /* \"#utility.yul\":4833:4840   */\n      dup5\n        /* \"#utility.yul\":4829:4852   */\n      sub\n        /* \"#utility.yul\":4825:4857   */\n      slt\n        /* \"#utility.yul\":4822:4941   */\n      iszero\n      tag_268\n      jumpi\n        /* \"#utility.yul\":4860:4939   */\n      tag_269\n      tag_176\n      jump\t// in\n    tag_269:\n        /* \"#utility.yul\":4822:4941   */\n    tag_268:\n        /* \"#utility.yul\":4980:4981   */\n      0x00\n        /* \"#utility.yul\":5005:5058   */\n      tag_270\n        /* \"#utility.yul\":5050:5057   */\n      dup5\n        /* \"#utility.yul\":5041:5047   */\n      dup3\n        /* \"#utility.yul\":5030:5039   */\n      dup6\n        /* \"#utility.yul\":5026:5048   */\n      add\n        /* \"#utility.yul\":5005:5058   */\n      tag_184\n      jump\t// in\n    tag_270:\n        /* \"#utility.yul\":4995:5058   */\n      swap2\n      pop\n        /* \"#utility.yul\":4951:5068   */\n      pop\n        /* \"#utility.yul\":4746:5075   */\n      swap3\n      swap2\n      pop\n      pop\n      jump\t// out\n        /* \"#utility.yul\":5081:5410   */\n    tag_61:\n        /* \"#utility.yul\":5140:5146   */\n      0x00\n        /* \"#utility.yul\":5189:5191   */\n      0x20\n        /* \"#utility.yul\":5177:5186   */\n      dup3\n        /* \"#utility.yul\":5168:5175   */\n      dup5\n        /* \"#utility.yul\":5164:5187   */\n      sub\n        /* \"#utility.yul\":5160:5192   */\n      slt\n        /* \"#utility.yul\":5157:5276   */\n      iszero\n      tag_272\n      jumpi\n        /* \"#utility.yul\":5195:5274   */\n      tag_273\n      tag_176\n      jump\t// in\n    tag_273:\n        /* \"#utility.yul\":5157:5276   */\n    tag_272:\n        /* \"#utility.yul\":5315:5316   */\n      0x00\n        /* \"#utility.yul\":5340:5393   */\n      tag_274\n        /* \"#utility.yul\":5385:5392   */\n      dup5\n        /* \"#utility.yul\":5376:5382   */\n      dup3\n        /* \"#utility.yul\":5365:5374   */\n      dup6\n        /* \"#utility.yul\":5361:5383   */\n      add\n        /* \"#utility.yul\":5340:5393   */\n      tag_181\n      jump\t// in\n    tag_274:\n        /* \"#utility.yul\":5330:5393   */\n      swap2\n      pop\n        /* \"#utility.yul\":5286:5403   */\n      pop\n        /* \"#utility.yul\":5081:5410   */\n      swap3\n      swap2\n      pop\n      pop\n      jump\t// out\n        /* \"#utility.yul\":5416:5534   */\n    tag_190:\n        /* \"#utility.yul\":5503:5527   */\n      tag_276\n        /* \"#utility.yul\":5521:5526   */\n      dup2\n        /* \"#utility.yul\":5503:5527   */\n      tag_179\n      jump\t// in\n    tag_276:\n        /* \"#utility.yul\":5498:5501   */\n      dup3\n        /* \"#utility.yul\":5491:5528   */\n      mstore\n        /* \"#utility.yul\":5416:5534   */\n      pop\n      pop\n      jump\t// out\n        /* \"#utility.yul\":5540:5762   */\n    tag_72:\n        /* \"#utility.yul\":5633:5637   */\n      0x00\n        /* \"#utility.yul\":5671:5673   */\n      0x20\n        /* \"#utility.yul\":5660:5669   */\n      dup3\n        /* \"#utility.yul\":5656:5674   */\n      add\n        /* \"#utility.yul\":5648:5674   */\n      swap1\n      pop\n        /* \"#utility.yul\":5684:5755   */\n      tag_278\n        /* \"#utility.yul\":5752:5753   */\n      0x00\n        /* \"#utility.yul\":5741:5750   */\n      dup4\n        /* \"#utility.yul\":5737:5754   */\n      add\n        /* \"#utility.yul\":5728:5734   */\n      dup5\n        /* \"#utility.yul\":5684:5755   */\n      tag_190\n      jump\t// in\n    tag_278:\n        /* \"#utility.yul\":5540:5762   */\n      swap3\n      swap2\n      pop\n      pop\n      jump\t// out\n        /* \"#utility.yul\":5768:6242   */\n    tag_79:\n        /* \"#utility.yul\":5836:5842   */\n      0x00\n        /* \"#utility.yul\":5844:5850   */\n      0x00\n        /* \"#utility.yul\":5893:5895   */\n      0x40\n        /* \"#utility.yul\":5881:5890   */\n      dup4\n        /* \"#utility.yul\":5872:5879   */\n      dup6\n        /* \"#utility.yul\":5868:5891   */\n      sub\n        /* \"#utility.yul\":5864:5896   */\n      slt\n        /* \"#utility.yul\":5861:5980   */\n      iszero\n      tag_280\n      jumpi\n        /* \"#utility.yul\":5899:5978   */\n      tag_281\n      tag_176\n      jump\t// in\n    tag_281:\n        /* \"#utility.yul\":5861:5980   */\n    tag_280:\n        /* \"#utility.yul\":6019:6020   */\n      0x00\n        /* \"#utility.yul\":6044:6097   */\n      tag_282\n        /* \"#utility.yul\":6089:6096   */\n      dup6\n        /* \"#utility.yul\":6080:6086   */\n      dup3\n        /* \"#utility.yul\":6069:6078   */\n      dup7\n        /* \"#utility.yul\":6065:6087   */\n      add\n        /* \"#utility.yul\":6044:6097   */\n      tag_181\n      jump\t// in\n    tag_282:\n        /* \"#utility.yul\":6034:6097   */\n      swap3\n      pop\n        /* \"#utility.yul\":5990:6107   */\n      pop\n        /* \"#utility.yul\":6146:6148   */\n      0x20\n        /* \"#utility.yul\":6172:6225   */\n      tag_283\n        /* \"#utility.yul\":6217:6224   */\n      dup6\n        /* \"#utility.yul\":6208:6214   */\n      dup3\n        /* \"#utility.yul\":6197:6206   */\n      dup7\n        /* \"#utility.yul\":6193:6215   */\n      add\n        /* \"#utility.yul\":6172:6225   */\n      tag_181\n      jump\t// in\n    tag_283:\n        /* \"#utility.yul\":6162:6225   */\n      swap2\n      pop\n        /* \"#utility.yul\":6117:6235   */\n      pop\n        /* \"#utility.yul\":5768:6242   */\n      swap3\n      pop\n      swap3\n      swap1\n      pop\n      jump\t// out\n        /* \"#utility.yul\":6248:6428   */\n    tag_191:\n        /* \"#utility.yul\":6296:6373   */\n      0x4e487b7100000000000000000000000000000000000000000000000000000000\n        /* \"#utility.yul\":6293:6294   */\n      0x00\n        /* \"#utility.yul\":6286:6374   */\n      mstore\n        /* \"#utility.yul\":6393:6397   */\n      0x22\n        /* \"#utility.yul\":6390:6391   */\n      0x04\n        /* \"#utility.yul\":6383:6398   */\n      mstore\n        /* \"#utility.yul\":6417:6421   */\n      0x24\n        /* \"#utility.yul\":6414:6415   */\n      0x00\n        /* \"#utility.yul\":6407:6422   */\n      revert\n        /* \"#utility.yul\":6434:6754   */\n    tag_83:\n        /* \"#utility.yul\":6478:6484   */\n      0x00\n        /* \"#utility.yul\":6515:6516   */\n      0x02\n        /* \"#utility.yul\":6509:6513   */\n      dup3\n        /* \"#utility.yul\":6505:6517   */\n      div\n        /* \"#utility.yul\":6495:6517   */\n      swap1\n      pop\n        /* \"#utility.yul\":6562:6563   */\n      0x01\n        /* \"#utility.yul\":6556:6560   */\n      dup3\n        /* \"#utility.yul\":6552:6564   */\n      and\n        /* \"#utility.yul\":6583:6601   */\n      dup1\n        /* \"#utility.yul\":6573:6654   */\n      tag_286\n      jumpi\n        /* \"#utility.yul\":6639:6643   */\n      0x7f\n        /* \"#utility.yul\":6631:6637   */\n      dup3\n        /* \"#utility.yul\":6627:6644   */\n      and\n        /* \"#utility.yul\":6617:6644   */\n      swap2\n      pop\n        /* \"#utility.yul\":6573:6654   */\n    tag_286:\n        /* \"#utility.yul\":6701:6703   */\n      0x20\n        /* \"#utility.yul\":6693:6699   */\n      dup3\n        /* \"#utility.yul\":6690:6704   */\n      lt\n        /* \"#utility.yul\":6670:6688   */\n      dup2\n        /* \"#utility.yul\":6667:6705   */\n      sub\n        /* \"#utility.yul\":6664:6748   */\n      tag_287\n      jumpi\n        /* \"#utility.yul\":6720:6738   */\n      tag_288\n      tag_191\n      jump\t// in\n    tag_288:\n        /* \"#utility.yul\":6664:6748   */\n    tag_287:\n        /* \"#utility.yul\":6485:6754   */\n      pop\n        /* \"#utility.yul\":6434:6754   */\n      swap2\n      swap1\n      pop\n      jump\t// out\n        /* \"#utility.yul\":6760:6941   */\n    tag_192:\n        /* \"#utility.yul\":6900:6933   */\n      0x63616e206e6f7420617070726f766520746f207a65726f206164647265737300\n        /* \"#utility.yul\":6896:6897   */\n      0x00\n        /* \"#utility.yul\":6888:6894   */\n      dup3\n        /* \"#utility.yul\":6884:6898   */\n      add\n        /* \"#utility.yul\":6877:6934   */\n      mstore\n        /* \"#utility.yul\":6760:6941   */\n      pop\n      jump\t// out\n        /* \"#utility.yul\":6947:7313   */\n    tag_193:\n        /* \"#utility.yul\":7089:7092   */\n      0x00\n        /* \"#utility.yul\":7110:7177   */\n      tag_291\n        /* \"#utility.yul\":7174:7176   */\n      0x1f\n        /* \"#utility.yul\":7169:7172   */\n      dup4\n        /* \"#utility.yul\":7110:7177   */\n      tag_171\n      jump\t// in\n    tag_291:\n        /* \"#utility.yul\":7103:7177   */\n      swap2\n      pop\n        /* \"#utility.yul\":7186:7279   */\n      tag_292\n        /* \"#utility.yul\":7275:7278   */\n      dup3\n        /* \"#utility.yul\":7186:7279   */\n      tag_192\n      jump\t// in\n    tag_292:\n        /* \"#utility.yul\":7304:7306   */\n      0x20\n        /* \"#utility.yul\":7299:7302   */\n      dup3\n        /* \"#utility.yul\":7295:7307   */\n      add\n        /* \"#utility.yul\":7288:7307   */\n      swap1\n      pop\n        /* \"#utility.yul\":6947:7313   */\n      swap2\n      swap1\n      pop\n      jump\t// out\n        /* \"#utility.yul\":7319:7738   */\n    tag_91:\n        /* \"#utility.yul\":7485:7489   */\n      0x00\n        /* \"#utility.yul\":7523:7525   */\n      0x20\n        /* \"#utility.yul\":7512:7521   */\n      dup3\n        /* \"#utility.yul\":7508:7526   */\n      add\n        /* \"#utility.yul\":7500:7526   */\n      swap1\n      pop\n        /* \"#utility.yul\":7572:7581   */\n      dup2\n        /* \"#utility.yul\":7566:7570   */\n      dup2\n        /* \"#utility.yul\":7562:7582   */\n      sub\n        /* \"#utility.yul\":7558:7559   */\n      0x00\n        /* \"#utility.yul\":7547:7556   */\n      dup4\n        /* \"#utility.yul\":7543:7560   */\n      add\n        /* \"#utility.yul\":7536:7583   */\n      mstore\n        /* \"#utility.yul\":7600:7731   */\n      tag_294\n        /* \"#utility.yul\":7726:7730   */\n      dup2\n        /* \"#utility.yul\":7600:7731   */\n      tag_193\n      jump\t// in\n    tag_294:\n        /* \"#utility.yul\":7592:7731   */\n      swap1\n      pop\n        /* \"#utility.yul\":7319:7738   */\n      swap2\n      swap1\n      pop\n      jump\t// out\n        /* \"#utility.yul\":7744:7908   */\n    tag_194:\n        /* \"#utility.yul\":7884:7900   */\n      0x696e76616c696420616d6f756e74000000000000000000000000000000000000\n        /* \"#utility.yul\":7880:7881   */\n      0x00\n        /* \"#utility.yul\":7872:7878   */\n      dup3\n        /* \"#utility.yul\":7868:7882   */\n      add\n        /* \"#utility.yul\":7861:7901   */\n      mstore\n        /* \"#utility.yul\":7744:7908   */\n      pop\n      jump\t// out\n        /* \"#utility.yul\":7914:8280   */\n    tag_195:\n        /* \"#utility.yul\":8056:8059   */\n      0x00\n        /* \"#utility.yul\":8077:8144   */\n      tag_297\n        /* \"#utility.yul\":8141:8143   */\n      0x0e\n        /* \"#utility.yul\":8136:8139   */\n      dup4\n        /* \"#utility.yul\":8077:8144   */\n      tag_171\n      jump\t// in\n    tag_297:\n        /* \"#utility.yul\":8070:8144   */\n      swap2\n      pop\n        /* \"#utility.yul\":8153:8246   */\n      tag_298\n        /* \"#utility.yul\":8242:8245   */\n      dup3\n        /* \"#utility.yul\":8153:8246   */\n      tag_194\n      jump\t// in\n    tag_298:\n        /* \"#utility.yul\":8271:8273   */\n      0x20\n        /* \"#utility.yul\":8266:8269   */\n      dup3\n        /* \"#utility.yul\":8262:8274   */\n      add\n        /* \"#utility.yul\":8255:8274   */\n      swap1\n      pop\n        /* \"#utility.yul\":7914:8280   */\n      swap2\n      swap1\n      pop\n      jump\t// out\n        /* \"#utility.yul\":8286:8705   */\n    tag_94:\n        /* \"#utility.yul\":8452:8456   */\n      0x00\n        /* \"#utility.yul\":8490:8492   */\n      0x20\n        /* \"#utility.yul\":8479:8488   */\n      dup3\n        /* \"#utility.yul\":8475:8493   */\n      add\n        /* \"#utility.yul\":8467:8493   */\n      swap1\n      pop\n        /* \"#utility.yul\":8539:8548   */\n      dup2\n        /* \"#utility.yul\":8533:8537   */\n      dup2\n        /* \"#utility.yul\":8529:8549   */\n      sub\n        /* \"#utility.yul\":8525:8526   */\n      0x00\n        /* \"#utility.yul\":8514:8523   */\n      dup4\n        /* \"#utility.yul\":8510:8527   */\n      add\n        /* \"#utility.yul\":8503:8550   */\n      mstore\n        /* \"#utility.yul\":8567:8698   */\n      tag_300\n        /* \"#utility.yul\":8693:8697   */\n      dup2\n        /* \"#utility.yul\":8567:8698   */\n      tag_195\n      jump\t// in\n    tag_300:\n        /* \"#utility.yul\":8559:8698   */\n      swap1\n      pop\n        /* \"#utility.yul\":8286:8705   */\n      swap2\n      swap1\n      pop\n      jump\t// out\n        /* \"#utility.yul\":8711:8939   */\n    tag_196:\n        /* \"#utility.yul\":8851:8885   */\n      0x5472616e736665727320617265206e6f7420617661696c61626c652061742074\n        /* \"#utility.yul\":8847:8848   */\n      0x00\n        /* \"#utility.yul\":8839:8845   */\n      dup3\n        /* \"#utility.yul\":8835:8849   */\n      add\n        /* \"#utility.yul\":8828:8886   */\n      mstore\n        /* \"#utility.yul\":8920:8931   */\n      0x6869732074696d652e0000000000000000000000000000000000000000000000\n        /* \"#utility.yul\":8915:8917   */\n      0x20\n        /* \"#utility.yul\":8907:8913   */\n      dup3\n        /* \"#utility.yul\":8903:8918   */\n      add\n        /* \"#utility.yul\":8896:8932   */\n      mstore\n        /* \"#utility.yul\":8711:8939   */\n      pop\n      jump\t// out\n        /* \"#utility.yul\":8945:9311   */\n    tag_197:\n        /* \"#utility.yul\":9087:9090   */\n      0x00\n        /* \"#utility.yul\":9108:9175   */\n      tag_303\n        /* \"#utility.yul\":9172:9174   */\n      0x29\n        /* \"#utility.yul\":9167:9170   */\n      dup4\n        /* \"#utility.yul\":9108:9175   */\n      tag_171\n      jump\t// in\n    tag_303:\n        /* \"#utility.yul\":9101:9175   */\n      swap2\n      pop\n        /* \"#utility.yul\":9184:9277   */\n      tag_304\n        /* \"#utility.yul\":9273:9276   */\n      dup3\n        /* \"#utility.yul\":9184:9277   */\n      tag_196\n      jump\t// in\n    tag_304:\n        /* \"#utility.yul\":9302:9304   */\n      0x40\n        /* \"#utility.yul\":9297:9300   */\n      dup3\n        /* \"#utility.yul\":9293:9305   */\n      add\n        /* \"#utility.yul\":9286:9305   */\n      swap1\n      pop\n        /* \"#utility.yul\":8945:9311   */\n      swap2\n      swap1\n      pop\n      jump\t// out\n        /* \"#utility.yul\":9317:9736   */\n    tag_99:\n        /* \"#utility.yul\":9483:9487   */\n      0x00\n        /* \"#utility.yul\":9521:9523   */\n      0x20\n        /* \"#utility.yul\":9510:9519   */\n      dup3\n        /* \"#utility.yul\":9506:9524   */\n      add\n        /* \"#utility.yul\":9498:9524   */\n      swap1\n      pop\n        /* \"#utility.yul\":9570:9579   */\n      dup2\n        /* \"#utility.yul\":9564:9568   */\n      dup2\n        /* \"#utility.yul\":9560:9580   */\n      sub\n        /* \"#utility.yul\":9556:9557   */\n      0x00\n        /* \"#utility.yul\":9545:9554   */\n      dup4\n        /* \"#utility.yul\":9541:9558   */\n      add\n        /* \"#utility.yul\":9534:9581   */\n      mstore\n        /* \"#utility.yul\":9598:9729   */\n      tag_306\n        /* \"#utility.yul\":9724:9728   */\n      dup2\n        /* \"#utility.yul\":9598:9729   */\n      tag_197\n      jump\t// in\n    tag_306:\n        /* \"#utility.yul\":9590:9729   */\n      swap1\n      pop\n        /* \"#utility.yul\":9317:9736   */\n      swap2\n      swap1\n      pop\n      jump\t// out\n        /* \"#utility.yul\":9742:9919   */\n    tag_198:\n        /* \"#utility.yul\":9882:9911   */\n      0x66726f6d2063616e6e6f74206265207a65726f20616464726573730000000000\n        /* \"#utility.yul\":9878:9879   */\n      0x00\n        /* \"#utility.yul\":9870:9876   */\n      dup3\n        /* \"#utility.yul\":9866:9880   */\n      add\n        /* \"#utility.yul\":9859:9912   */\n      mstore\n        /* \"#utility.yul\":9742:9919   */\n      pop\n      jump\t// out\n        /* \"#utility.yul\":9925:10291   */\n    tag_199:\n        /* \"#utility.yul\":10067:10070   */\n      0x00\n        /* \"#utility.yul\":10088:10155   */\n      tag_309\n        /* \"#utility.yul\":10152:10154   */\n      0x1b\n        /* \"#utility.yul\":10147:10150   */\n      dup4\n        /* \"#utility.yul\":10088:10155   */\n      tag_171\n      jump\t// in\n    tag_309:\n        /* \"#utility.yul\":10081:10155   */\n      swap2\n      pop\n        /* \"#utility.yul\":10164:10257   */\n      tag_310\n        /* \"#utility.yul\":10253:10256   */\n      dup3\n        /* \"#utility.yul\":10164:10257   */\n      tag_198\n      jump\t// in\n    tag_310:\n        /* \"#utility.yul\":10282:10284   */\n      0x20\n        /* \"#utility.yul\":10277:10280   */\n      dup3\n        /* \"#utility.yul\":10273:10285   */\n      add\n        /* \"#utility.yul\":10266:10285   */\n      swap1\n      pop\n        /* \"#utility.yul\":9925:10291   */\n      swap2\n      swap1\n      pop\n      jump\t// out\n        /* \"#utility.yul\":10297:10716   */\n    tag_103:\n        /* \"#utility.yul\":10463:10467   */\n      0x00\n        /* \"#utility.yul\":10501:10503   */\n      0x20\n        /* \"#utility.yul\":10490:10499   */\n      dup3\n        /* \"#utility.yul\":10486:10504   */\n      add\n        /* \"#utility.yul\":10478:10504   */\n      swap1\n      pop\n        /* \"#utility.yul\":10550:10559   */\n      dup2\n        /* \"#utility.yul\":10544:10548   */\n      dup2\n        /* \"#utility.yul\":10540:10560   */\n      sub\n        /* \"#utility.yul\":10536:10537   */\n      0x00\n        /* \"#utility.yul\":10525:10534   */\n      dup4\n        /* \"#utility.yul\":10521:10538   */\n      add\n        /* \"#utility.yul\":10514:10561   */\n      mstore\n        /* \"#utility.yul\":10578:10709   */\n      tag_312\n        /* \"#utility.yul\":10704:10708   */\n      dup2\n        /* \"#utility.yul\":10578:10709   */\n      tag_199\n      jump\t// in\n    tag_312:\n        /* \"#utility.yul\":10570:10709   */\n      swap1\n      pop\n        /* \"#utility.yul\":10297:10716   */\n      swap2\n      swap1\n      pop\n      jump\t// out\n        /* \"#utility.yul\":10722:10897   */\n    tag_200:\n        /* \"#utility.yul\":10862:10889   */\n      0x746f2063616e6e6f74206265207a65726f206164647265737300000000000000\n        /* \"#utility.yul\":10858:10859   */\n      0x00\n        /* \"#utility.yul\":10850:10856   */\n      dup3\n        /* \"#utility.yul\":10846:10860   */\n      add\n        /* \"#utility.yul\":10839:10890   */\n      mstore\n        /* \"#utility.yul\":10722:10897   */\n      pop\n      jump\t// out\n        /* \"#utility.yul\":10903:11269   */\n    tag_201:\n        /* \"#utility.yul\":11045:11048   */\n      0x00\n        /* \"#utility.yul\":11066:11133   */\n      tag_315\n        /* \"#utility.yul\":11130:11132   */\n      0x19\n        /* \"#utility.yul\":11125:11128   */\n      dup4\n        /* \"#utility.yul\":11066:11133   */\n      tag_171\n      jump\t// in\n    tag_315:\n        /* \"#utility.yul\":11059:11133   */\n      swap2\n      pop\n        /* \"#utility.yul\":11142:11235   */\n      tag_316\n        /* \"#utility.yul\":11231:11234   */\n      dup3\n        /* \"#utility.yul\":11142:11235   */\n      tag_200\n      jump\t// in\n    tag_316:\n        /* \"#utility.yul\":11260:11262   */\n      0x20\n        /* \"#utility.yul\":11255:11258   */\n      dup3\n        /* \"#utility.yul\":11251:11263   */\n      add\n        /* \"#utility.yul\":11244:11263   */\n      swap1\n      pop\n        /* \"#utility.yul\":10903:11269   */\n      swap2\n      swap1\n      pop\n      jump\t// out\n        /* \"#utility.yul\":11275:11694   */\n    tag_106:\n        /* \"#utility.yul\":11441:11445   */\n      0x00\n        /* \"#utility.yul\":11479:11481   */\n      0x20\n        /* \"#utility.yul\":11468:11477   */\n      dup3\n        /* \"#utility.yul\":11464:11482   */\n      add\n        /* \"#utility.yul\":11456:11482   */\n      swap1\n      pop\n        /* \"#utility.yul\":11528:11537   */\n      dup2\n        /* \"#utility.yul\":11522:11526   */\n      dup2\n        /* \"#utility.yul\":11518:11538   */\n      sub\n        /* \"#utility.yul\":11514:11515   */\n      0x00\n        /* \"#utility.yul\":11503:11512   */\n      dup4\n        /* \"#utility.yul\":11499:11516   */\n      add\n        /* \"#utility.yul\":11492:11539   */\n      mstore\n        /* \"#utility.yul\":11556:11687   */\n      tag_318\n        /* \"#utility.yul\":11682:11686   */\n      dup2\n        /* \"#utility.yul\":11556:11687   */\n      tag_201\n      jump\t// in\n    tag_318:\n        /* \"#utility.yul\":11548:11687   */\n      swap1\n      pop\n        /* \"#utility.yul\":11275:11694   */\n      swap2\n      swap1\n      pop\n      jump\t// out\n        /* \"#utility.yul\":11700:11869   */\n    tag_202:\n        /* \"#utility.yul\":11840:11861   */\n      0x696e737566666369656e742062616c616e636500000000000000000000000000\n        /* \"#utility.yul\":11836:11837   */\n      0x00\n        /* \"#utility.yul\":11828:11834   */\n      dup3\n        /* \"#utility.yul\":11824:11838   */\n      add\n        /* \"#utility.yul\":11817:11862   */\n      mstore\n        /* \"#utility.yul\":11700:11869   */\n      pop\n      jump\t// out\n        /* \"#utility.yul\":11875:12241   */\n    tag_203:\n        /* \"#utility.yul\":12017:12020   */\n      0x00\n        /* \"#utility.yul\":12038:12105   */\n      tag_321\n        /* \"#utility.yul\":12102:12104   */\n      0x13\n        /* \"#utility.yul\":12097:12100   */\n      dup4\n        /* \"#utility.yul\":12038:12105   */\n      tag_171\n      jump\t// in\n    tag_321:\n        /* \"#utility.yul\":12031:12105   */\n      swap2\n      pop\n        /* \"#utility.yul\":12114:12207   */\n      tag_322\n        /* \"#utility.yul\":12203:12206   */\n      dup3\n        /* \"#utility.yul\":12114:12207   */\n      tag_202\n      jump\t// in\n    tag_322:\n        /* \"#utility.yul\":12232:12234   */\n      0x20\n        /* \"#utility.yul\":12227:12230   */\n      dup3\n        /* \"#utility.yul\":12223:12235   */\n      add\n        /* \"#utility.yul\":12216:12235   */\n      swap1\n      pop\n        /* \"#utility.yul\":11875:12241   */\n      swap2\n      swap1\n      pop\n      jump\t// out\n        /* \"#utility.yul\":12247:12666   */\n    tag_109:\n        /* \"#utility.yul\":12413:12417   */\n      0x00\n        /* \"#utility.yul\":12451:12453   */\n      0x20\n        /* \"#utility.yul\":12440:12449   */\n      dup3\n        /* \"#utility.yul\":12436:12454   */\n      add\n        /* \"#utility.yul\":12428:12454   */\n      swap1\n      pop\n        /* \"#utility.yul\":12500:12509   */\n      dup2\n        /* \"#utility.yul\":12494:12498   */\n      dup2\n        /* \"#utility.yul\":12490:12510   */\n      sub\n        /* \"#utility.yul\":12486:12487   */\n      0x00\n        /* \"#utility.yul\":12475:12484   */\n      dup4\n        /* \"#utility.yul\":12471:12488   */\n      add\n        /* \"#utility.yul\":12464:12511   */\n      mstore\n        /* \"#utility.yul\":12528:12659   */\n      tag_324\n        /* \"#utility.yul\":12654:12658   */\n      dup2\n        /* \"#utility.yul\":12528:12659   */\n      tag_203\n      jump\t// in\n    tag_324:\n        /* \"#utility.yul\":12520:12659   */\n      swap1\n      pop\n        /* \"#utility.yul\":12247:12666   */\n      swap2\n      swap1\n      pop\n      jump\t// out\n        /* \"#utility.yul\":12672:12843   */\n    tag_204:\n        /* \"#utility.yul\":12812:12835   */\n      0x696e737566666369656e7420616c6c6f77656e63650000000000000000000000\n        /* \"#utility.yul\":12808:12809   */\n      0x00\n        /* \"#utility.yul\":12800:12806   */\n      dup3\n        /* \"#utility.yul\":12796:12810   */\n      add\n        /* \"#utility.yul\":12789:12836   */\n      mstore\n        /* \"#utility.yul\":12672:12843   */\n      pop\n      jump\t// out\n        /* \"#utility.yul\":12849:13215   */\n    tag_205:\n        /* \"#utility.yul\":12991:12994   */\n      0x00\n        /* \"#utility.yul\":13012:13079   */\n      tag_327\n        /* \"#utility.yul\":13076:13078   */\n      0x15\n        /* \"#utility.yul\":13071:13074   */\n      dup4\n        /* \"#utility.yul\":13012:13079   */\n      tag_171\n      jump\t// in\n    tag_327:\n        /* \"#utility.yul\":13005:13079   */\n      swap2\n      pop\n        /* \"#utility.yul\":13088:13181   */\n      tag_328\n        /* \"#utility.yul\":13177:13180   */\n      dup3\n        /* \"#utility.yul\":13088:13181   */\n      tag_204\n      jump\t// in\n    tag_328:\n        /* \"#utility.yul\":13206:13208   */\n      0x20\n        /* \"#utility.yul\":13201:13204   */\n      dup3\n        /* \"#utility.yul\":13197:13209   */\n      add\n        /* \"#utility.yul\":13190:13209   */\n      swap1\n      pop\n        /* \"#utility.yul\":12849:13215   */\n      swap2\n      swap1\n      pop\n      jump\t// out\n        /* \"#utility.yul\":13221:13640   */\n    tag_112:\n        /* \"#utility.yul\":13387:13391   */\n      0x00\n        /* \"#utility.yul\":13425:13427   */\n      0x20\n        /* \"#utility.yul\":13414:13423   */\n      dup3\n        /* \"#utility.yul\":13410:13428   */\n      add\n        /* \"#utility.yul\":13402:13428   */\n      swap1\n      pop\n        /* \"#utility.yul\":13474:13483   */\n      dup2\n        /* \"#utility.yul\":13468:13472   */\n      dup2\n        /* \"#utility.yul\":13464:13484   */\n      sub\n        /* \"#utility.yul\":13460:13461   */\n      0x00\n        /* \"#utility.yul\":13449:13458   */\n      dup4\n        /* \"#utility.yul\":13445:13462   */\n      add\n        /* \"#utility.yul\":13438:13485   */\n      mstore\n        /* \"#utility.yul\":13502:13633   */\n      tag_330\n        /* \"#utility.yul\":13628:13632   */\n      dup2\n        /* \"#utility.yul\":13502:13633   */\n      tag_205\n      jump\t// in\n    tag_330:\n        /* \"#utility.yul\":13494:13633   */\n      swap1\n      pop\n        /* \"#utility.yul\":13221:13640   */\n      swap2\n      swap1\n      pop\n      jump\t// out\n        /* \"#utility.yul\":13646:13826   */\n    tag_206:\n        /* \"#utility.yul\":13694:13771   */\n      0x4e487b7100000000000000000000000000000000000000000000000000000000\n        /* \"#utility.yul\":13691:13692   */\n      0x00\n        /* \"#utility.yul\":13684:13772   */\n      mstore\n        /* \"#utility.yul\":13791:13795   */\n      0x11\n        /* \"#utility.yul\":13788:13789   */\n      0x04\n        /* \"#utility.yul\":13781:13796   */\n      mstore\n        /* \"#utility.yul\":13815:13819   */\n      0x24\n        /* \"#utility.yul\":13812:13813   */\n      0x00\n        /* \"#utility.yul\":13805:13820   */\n      revert\n        /* \"#utility.yul\":13832:14026   */\n    tag_114:\n        /* \"#utility.yul\":13872:13876   */\n      0x00\n        /* \"#utility.yul\":13892:13912   */\n      tag_333\n        /* \"#utility.yul\":13910:13911   */\n      dup3\n        /* \"#utility.yul\":13892:13912   */\n      tag_182\n      jump\t// in\n    tag_333:\n        /* \"#utility.yul\":13887:13912   */\n      swap2\n      pop\n        /* \"#utility.yul\":13926:13946   */\n      tag_334\n        /* \"#utility.yul\":13944:13945   */\n      dup4\n        /* \"#utility.yul\":13926:13946   */\n      tag_182\n      jump\t// in\n    tag_334:\n        /* \"#utility.yul\":13921:13946   */\n      swap3\n      pop\n        /* \"#utility.yul\":13970:13971   */\n      dup3\n        /* \"#utility.yul\":13967:13968   */\n      dup3\n        /* \"#utility.yul\":13963:13972   */\n      sub\n        /* \"#utility.yul\":13955:13972   */\n      swap1\n      pop\n        /* \"#utility.yul\":13994:13995   */\n      dup2\n        /* \"#utility.yul\":13988:13992   */\n      dup2\n        /* \"#utility.yul\":13985:13996   */\n      gt\n        /* \"#utility.yul\":13982:14019   */\n      iszero\n      tag_335\n      jumpi\n        /* \"#utility.yul\":13999:14017   */\n      tag_336\n      tag_206\n      jump\t// in\n    tag_336:\n        /* \"#utility.yul\":13982:14019   */\n    tag_335:\n        /* \"#utility.yul\":13832:14026   */\n      swap3\n      swap2\n      pop\n      pop\n      jump\t// out\n        /* \"#utility.yul\":14032:14223   */\n    tag_116:\n        /* \"#utility.yul\":14072:14075   */\n      0x00\n        /* \"#utility.yul\":14091:14111   */\n      tag_338\n        /* \"#utility.yul\":14109:14110   */\n      dup3\n        /* \"#utility.yul\":14091:14111   */\n      tag_182\n      jump\t// in\n    tag_338:\n        /* \"#utility.yul\":14086:14111   */\n      swap2\n      pop\n        /* \"#utility.yul\":14125:14145   */\n      tag_339\n        /* \"#utility.yul\":14143:14144   */\n      dup4\n        /* \"#utility.yul\":14125:14145   */\n      tag_182\n      jump\t// in\n    tag_339:\n        /* \"#utility.yul\":14120:14145   */\n      swap3\n      pop\n        /* \"#utility.yul\":14168:14169   */\n      dup3\n        /* \"#utility.yul\":14165:14166   */\n      dup3\n        /* \"#utility.yul\":14161:14170   */\n      add\n        /* \"#utility.yul\":14154:14170   */\n      swap1\n      pop\n        /* \"#utility.yul\":14189:14192   */\n      dup1\n        /* \"#utility.yul\":14186:14187   */\n      dup3\n        /* \"#utility.yul\":14183:14193   */\n      gt\n        /* \"#utility.yul\":14180:14216   */\n      iszero\n      tag_340\n      jumpi\n        /* \"#utility.yul\":14196:14214   */\n      tag_341\n      tag_206\n      jump\t// in\n    tag_341:\n        /* \"#utility.yul\":14180:14216   */\n    tag_340:\n        /* \"#utility.yul\":14032:14223   */\n      swap3\n      swap2\n      pop\n      pop\n      jump\t// out\n        /* \"#utility.yul\":14229:14452   */\n    tag_207:\n        /* \"#utility.yul\":14369:14403   */\n      0x6f6e6c7920746865206f776e65722063616e20646f2074686973206f70657261\n        /* \"#utility.yul\":14365:14366   */\n      0x00\n        /* \"#utility.yul\":14357:14363   */\n      dup3\n        /* \"#utility.yul\":14353:14367   */\n      add\n        /* \"#utility.yul\":14346:14404   */\n      mstore\n        /* \"#utility.yul\":14438:14444   */\n      0x74696f6e00000000000000000000000000000000000000000000000000000000\n        /* \"#utility.yul\":14433:14435   */\n      0x20\n        /* \"#utility.yul\":14425:14431   */\n      dup3\n        /* \"#utility.yul\":14421:14436   */\n      add\n        /* \"#utility.yul\":14414:14445   */\n      mstore\n        /* \"#utility.yul\":14229:14452   */\n      pop\n      jump\t// out\n        /* \"#utility.yul\":14458:14824   */\n    tag_208:\n        /* \"#utility.yul\":14600:14603   */\n      0x00\n        /* \"#utility.yul\":14621:14688   */\n      tag_344\n        /* \"#utility.yul\":14685:14687   */\n      0x24\n        /* \"#utility.yul\":14680:14683   */\n      dup4\n        /* \"#utility.yul\":14621:14688   */\n      tag_171\n      jump\t// in\n    tag_344:\n        /* \"#utility.yul\":14614:14688   */\n      swap2\n      pop\n        /* \"#utility.yul\":14697:14790   */\n      tag_345\n        /* \"#utility.yul\":14786:14789   */\n      dup3\n        /* \"#utility.yul\":14697:14790   */\n      tag_207\n      jump\t// in\n    tag_345:\n        /* \"#utility.yul\":14815:14817   */\n      0x40\n        /* \"#utility.yul\":14810:14813   */\n      dup3\n        /* \"#utility.yul\":14806:14818   */\n      add\n        /* \"#utility.yul\":14799:14818   */\n      swap1\n      pop\n        /* \"#utility.yul\":14458:14824   */\n      swap2\n      swap1\n      pop\n      jump\t// out\n        /* \"#utility.yul\":14830:15249   */\n    tag_122:\n        /* \"#utility.yul\":14996:15000   */\n      0x00\n        /* \"#utility.yul\":15034:15036   */\n      0x20\n        /* \"#utility.yul\":15023:15032   */\n      dup3\n        /* \"#utility.yul\":15019:15037   */\n      add\n        /* \"#utility.yul\":15011:15037   */\n      swap1\n      pop\n        /* \"#utility.yul\":15083:15092   */\n      dup2\n        /* \"#utility.yul\":15077:15081   */\n      dup2\n        /* \"#utility.yul\":15073:15093   */\n      sub\n        /* \"#utility.yul\":15069:15070   */\n      0x00\n        /* \"#utility.yul\":15058:15067   */\n      dup4\n        /* \"#utility.yul\":15054:15071   */\n      add\n        /* \"#utility.yul\":15047:15094   */\n      mstore\n        /* \"#utility.yul\":15111:15242   */\n      tag_347\n        /* \"#utility.yul\":15237:15241   */\n      dup2\n        /* \"#utility.yul\":15111:15242   */\n      tag_208\n      jump\t// in\n    tag_347:\n        /* \"#utility.yul\":15103:15242   */\n      swap1\n      pop\n        /* \"#utility.yul\":14830:15249   */\n      swap2\n      swap1\n      pop\n      jump\t// out\n        /* \"#utility.yul\":15255:15432   */\n    tag_209:\n        /* \"#utility.yul\":15395:15424   */\n      0x696e737566666369656e742062616c616e636520746f206275726e0000000000\n        /* \"#utility.yul\":15391:15392   */\n      0x00\n        /* \"#utility.yul\":15383:15389   */\n      dup3\n        /* \"#utility.yul\":15379:15393   */\n      add\n        /* \"#utility.yul\":15372:15425   */\n      mstore\n        /* \"#utility.yul\":15255:15432   */\n      pop\n      jump\t// out\n        /* \"#utility.yul\":15438:15804   */\n    tag_210:\n        /* \"#utility.yul\":15580:15583   */\n      0x00\n        /* \"#utility.yul\":15601:15668   */\n      tag_350\n        /* \"#utility.yul\":15665:15667   */\n      0x1b\n        /* \"#utility.yul\":15660:15663   */\n      dup4\n        /* \"#utility.yul\":15601:15668   */\n      tag_171\n      jump\t// in\n    tag_350:\n        /* \"#utility.yul\":15594:15668   */\n      swap2\n      pop\n        /* \"#utility.yul\":15677:15770   */\n      tag_351\n        /* \"#utility.yul\":15766:15769   */\n      dup3\n        /* \"#utility.yul\":15677:15770   */\n      tag_209\n      jump\t// in\n    tag_351:\n        /* \"#utility.yul\":15795:15797   */\n      0x20\n        /* \"#utility.yul\":15790:15793   */\n      dup3\n        /* \"#utility.yul\":15786:15798   */\n      add\n        /* \"#utility.yul\":15779:15798   */\n      swap1\n      pop\n        /* \"#utility.yul\":15438:15804   */\n      swap2\n      swap1\n      pop\n      jump\t// out\n        /* \"#utility.yul\":15810:16229   */\n    tag_142:\n        /* \"#utility.yul\":15976:15980   */\n      0x00\n        /* \"#utility.yul\":16014:16016   */\n      0x20\n        /* \"#utility.yul\":16003:16012   */\n      dup3\n        /* \"#utility.yul\":15999:16017   */\n      add\n        /* \"#utility.yul\":15991:16017   */\n      swap1\n      pop\n        /* \"#utility.yul\":16063:16072   */\n      dup2\n        /* \"#utility.yul\":16057:16061   */\n      dup2\n        /* \"#utility.yul\":16053:16073   */\n      sub\n        /* \"#utility.yul\":16049:16050   */\n      0x00\n        /* \"#utility.yul\":16038:16047   */\n      dup4\n        /* \"#utility.yul\":16034:16051   */\n      add\n        /* \"#utility.yul\":16027:16074   */\n      mstore\n        /* \"#utility.yul\":16091:16222   */\n      tag_353\n        /* \"#utility.yul\":16217:16221   */\n      dup2\n        /* \"#utility.yul\":16091:16222   */\n      tag_210\n      jump\t// in\n    tag_353:\n        /* \"#utility.yul\":16083:16222   */\n      swap1\n      pop\n        /* \"#utility.yul\":15810:16229   */\n      swap2\n      swap1\n      pop\n      jump\t// out\n        /* \"#utility.yul\":16235:16417   */\n    tag_211:\n        /* \"#utility.yul\":16375:16409   */\n      0x63616e206e6f74207472616e7366657220746f207a65726f2061646472657373\n        /* \"#utility.yul\":16371:16372   */\n      0x00\n        /* \"#utility.yul\":16363:16369   */\n      dup3\n        /* \"#utility.yul\":16359:16373   */\n      add\n        /* \"#utility.yul\":16352:16410   */\n      mstore\n        /* \"#utility.yul\":16235:16417   */\n      pop\n      jump\t// out\n        /* \"#utility.yul\":16423:16789   */\n    tag_212:\n        /* \"#utility.yul\":16565:16568   */\n      0x00\n        /* \"#utility.yul\":16586:16653   */\n      tag_356\n        /* \"#utility.yul\":16650:16652   */\n      0x20\n        /* \"#utility.yul\":16645:16648   */\n      dup4\n        /* \"#utility.yul\":16586:16653   */\n      tag_171\n      jump\t// in\n    tag_356:\n        /* \"#utility.yul\":16579:16653   */\n      swap2\n      pop\n        /* \"#utility.yul\":16662:16755   */\n      tag_357\n        /* \"#utility.yul\":16751:16754   */\n      dup3\n        /* \"#utility.yul\":16662:16755   */\n      tag_211\n      jump\t// in\n    tag_357:\n        /* \"#utility.yul\":16780:16782   */\n      0x20\n        /* \"#utility.yul\":16775:16778   */\n      dup3\n        /* \"#utility.yul\":16771:16783   */\n      add\n        /* \"#utility.yul\":16764:16783   */\n      swap1\n      pop\n        /* \"#utility.yul\":16423:16789   */\n      swap2\n      swap1\n      pop\n      jump\t// out\n        /* \"#utility.yul\":16795:17214   */\n    tag_162:\n        /* \"#utility.yul\":16961:16965   */\n      0x00\n        /* \"#utility.yul\":16999:17001   */\n      0x20\n        /* \"#utility.yul\":16988:16997   */\n      dup3\n        /* \"#utility.yul\":16984:17002   */\n      add\n        /* \"#utility.yul\":16976:17002   */\n      swap1\n      pop\n        /* \"#utility.yul\":17048:17057   */\n      dup2\n        /* \"#utility.yul\":17042:17046   */\n      dup2\n        /* \"#utility.yul\":17038:17058   */\n      sub\n        /* \"#utility.yul\":17034:17035   */\n      0x00\n        /* \"#utility.yul\":17023:17032   */\n      dup4\n        /* \"#utility.yul\":17019:17036   */\n      add\n        /* \"#utility.yul\":17012:17059   */\n      mstore\n        /* \"#utility.yul\":17076:17207   */\n      tag_359\n        /* \"#utility.yul\":17202:17206   */\n      dup2\n        /* \"#utility.yul\":17076:17207   */\n      tag_212\n      jump\t// in\n    tag_359:\n        /* \"#utility.yul\":17068:17207   */\n      swap1\n      pop\n        /* \"#utility.yul\":16795:17214   */\n      swap2\n      swap1\n      pop\n      jump\t// out\n\n    auxdata: 0xa2646970667358221220d3027ab096ba06489a2ebeb7204556f27e7dbf406c2541f57403e25445e20c9164736f6c634300081e0033\n}\n",
				"bytecode": {
					"linkReferences": {},
					"object": "60a060405234801561000f575f5ffd5b506040516123ac3803806123ac83398181016040528101906100319190610344565b835f908161003f91906105e7565b50826001908161004f91906105e7565b508160025f6101000a81548160ff021916908360ff16021790555081600a6100779190610812565b81610082919061085c565b600381905550600160045f6101000a81548160ff0219169083151502179055503373ffffffffffffffffffffffffffffffffffffffff1660808173ffffffffffffffffffffffffffffffffffffffff168152505060035460055f60805173ffffffffffffffffffffffffffffffffffffffff1673ffffffffffffffffffffffffffffffffffffffff1681526020019081526020015f208190555060805173ffffffffffffffffffffffffffffffffffffffff165f73ffffffffffffffffffffffffffffffffffffffff167fddf252ad1be2c89b69c2b068fc378daa952ba7f163c4a11628f55a4df523b3ef60035460405161017d91906108ac565b60405180910390a3505050506108c5565b5f604051905090565b5f5ffd5b5f5ffd5b5f5ffd5b5f5ffd5b5f601f19601f8301169050919050565b7f4e487b71000000000000000000000000000000000000000000000000000000005f52604160045260245ffd5b6101ed826101a7565b810181811067ffffffffffffffff8211171561020c5761020b6101b7565b5b80604052505050565b5f61021e61018e565b905061022a82826101e4565b919050565b5f67ffffffffffffffff821115610249576102486101b7565b5b610252826101a7565b9050602081019050919050565b8281835e5f83830152505050565b5f61027f61027a8461022f565b610215565b90508281526020810184848401111561029b5761029a6101a3565b5b6102a684828561025f565b509392505050565b5f82601f8301126102c2576102c161019f565b5b81516102d284826020860161026d565b91505092915050565b5f60ff82169050919050565b6102f0816102db565b81146102fa575f5ffd5b50565b5f8151905061030b816102e7565b92915050565b5f819050919050565b61032381610311565b811461032d575f5ffd5b50565b5f8151905061033e8161031a565b92915050565b5f5f5f5f6080858703121561035c5761035b610197565b5b5f85015167ffffffffffffffff8111156103795761037861019b565b5b610385878288016102ae565b945050602085015167ffffffffffffffff8111156103a6576103a561019b565b5b6103b2878288016102ae565b93505060406103c3878288016102fd565b92505060606103d487828801610330565b91505092959194509250565b5f81519050919050565b7f4e487b71000000000000000000000000000000000000000000000000000000005f52602260045260245ffd5b5f600282049050600182168061042e57607f821691505b602082108103610441576104406103ea565b5b50919050565b5f819050815f5260205f209050919050565b5f6020601f8301049050919050565b5f82821b905092915050565b5f600883026104a37fffffffffffffffffffffffffffffffffffffffffffffffffffffffffffffffff82610468565b6104ad8683610468565b95508019841693508086168417925050509392505050565b5f819050919050565b5f6104e86104e36104de84610311565b6104c5565b610311565b9050919050565b5f819050919050565b610501836104ce565b61051561050d826104ef565b848454610474565b825550505050565b5f5f905090565b61052c61051d565b6105378184846104f8565b505050565b5b8181101561055a5761054f5f82610524565b60018101905061053d565b5050565b601f82111561059f5761057081610447565b61057984610459565b81016020851015610588578190505b61059c61059485610459565b83018261053c565b50505b505050565b5f82821c905092915050565b5f6105bf5f19846008026105a4565b1980831691505092915050565b5f6105d783836105b0565b9150826002028217905092915050565b6105f0826103e0565b67ffffffffffffffff811115610609576106086101b7565b5b6106138254610417565b61061e82828561055e565b5f60209050601f83116001811461064f575f841561063d578287015190505b61064785826105cc565b8655506106ae565b601f19841661065d86610447565b5f5b828110156106845784890151825560018201915060208501945060208101905061065f565b868310156106a1578489015161069d601f8916826105b0565b8355505b6001600288020188555050505b505050505050565b7f4e487b71000000000000000000000000000000000000000000000000000000005f52601160045260245ffd5b5f8160011c9050919050565b5f5f8291508390505b600185111561073857808604811115610714576107136106b6565b5b60018516156107235780820291505b8081029050610731856106e3565b94506106f8565b94509492505050565b5f82610750576001905061080b565b8161075d575f905061080b565b8160018114610773576002811461077d576107ac565b600191505061080b565b60ff84111561078f5761078e6106b6565b5b8360020a9150848211156107a6576107a56106b6565b5b5061080b565b5060208310610133831016604e8410600b84101617156107e15782820a9050838111156107dc576107db6106b6565b5b61080b565b6107ee84848460016106ef565b92509050818404811115610805576108046106b6565b5b81810290505b9392505050565b5f61081c82610311565b9150610827836102db565b92506108547fffffffffffffffffffffffffffffffffffffffffffffffffffffffffffffffff8484610741565b905092915050565b5f61086682610311565b915061087183610311565b925082820261087f81610311565b91508282048414831517610896576108956106b6565b5b5092915050565b6108a681610311565b82525050565b5f6020820190506108bf5f83018461089d565b92915050565b608051611ac16108eb5f395f818161098201528181610e2b0152610f6f0152611ac15ff3fe608060405234801561000f575f5ffd5b50600436106100f3575f3560e01c806342966c681161009557806385672f441161006457806385672f44146102875780638da5cb5b146102a5578063a9059cbb146102c3578063d7295c9a146102f3576100f3565b806342966c68146101ff57806352796d421461022f57806370a082311461024d57806374c5d7f21461027d576100f3565b806323b872dd116100d157806323b872dd14610163578063242654a214610193578063313ce567146101b157806340c10f19146101cf576100f3565b806306fdde03146100f7578063095ea7b31461011557806318160ddd14610145575b5f5ffd5b6100ff610323565b60405161010c91906112b5565b60405180910390f35b61012f600480360381019061012a9190611366565b6103ae565b60405161013c91906113be565b60405180910390f35b61014d61054b565b60405161015a91906113e6565b60405180910390f35b61017d600480360381019061017891906113ff565b610551565b60405161018a91906113be565b60405180910390f35b61019b61095b565b6040516101a891906113be565b60405180910390f35b6101b961096d565b6040516101c6919061146a565b60405180910390f35b6101e960048036038101906101e49190611366565b61097f565b6040516101f691906113be565b60405180910390f35b61021960048036038101906102149190611483565b610be6565b60405161022691906113be565b60405180910390f35b610237610dd0565b60405161024491906113e6565b60405180910390f35b610267600480360381019061026291906114ae565b610e14565b60405161027491906113e6565b60405180910390f35b610285610e29565b005b61028f610ee1565b60405161029c91906112b5565b60405180910390f35b6102ad610f6d565b6040516102ba91906114e8565b60405180910390f35b6102dd60048036038101906102d89190611366565b610f91565b6040516102ea91906113be565b60405180910390f35b61030d60048036038101906103089190611501565b611225565b60405161031a91906113e6565b60405180910390f35b5f805461032f9061156c565b80601f016020809104026020016040519081016040528092919081815260200182805461035b9061156c565b80156103a65780601f1061037d576101008083540402835291602001916103a6565b820191905f5260205f20905b81548152906001019060200180831161038957829003601f168201915b505050505081565b5f5f73ffffffffffffffffffffffffffffffffffffffff168373ffffffffffffffffffffffffffffffffffffffff160361041d576040517f08c379a0000000000000000000000000000000000000000000000000000000008152600401610414906115e6565b60405180910390fd5b5f821161045f576040517f08c379a00000000000000000000000000000000000000000000000000000000081526004016104569061164e565b60405180910390fd5b8160065f3373ffffffffffffffffffffffffffffffffffffffff1673ffffffffffffffffffffffffffffffffffffffff1681526020019081526020015f205f8573ffffffffffffffffffffffffffffffffffffffff1673ffffffffffffffffffffffffffffffffffffffff1681526020019081526020015f20819055508273ffffffffffffffffffffffffffffffffffffffff163373ffffffffffffffffffffffffffffffffffffffff167f8c5be1e5ebec7d5bd14f71427d1e84f3dd0314c0f7b2291e5b200ac8c7c3b9258460405161053991906113e6565b60405180910390a36001905092915050565b60035481565b5f60045f9054906101000a900460ff166105a0576040517f08c379a0000000000000000000000000000000000000000000000000000000008152600401610597906116dc565b60405180910390fd5b5f73ffffffffffffffffffffffffffffffffffffffff168473ffffffffffffffffffffffffffffffffffffffff160361060e576040517f08c379a000000000000000000000000000000000000000000000000000000000815260040161060590611744565b60405180910390fd5b5f73ffffffffffffffffffffffffffffffffffffffff168373ffffffffffffffffffffffffffffffffffffffff160361067c576040517f08c379a0000000000000000000000000000000000000000000000000000000008152600401610673906117ac565b60405180910390fd5b8160055f8673ffffffffffffffffffffffffffffffffffffffff1673ffffffffffffffffffffffffffffffffffffffff1681526020019081526020015f205410156106fc576040517f08c379a00000000000000000000000000000000000000000000000000000000081526004016106f390611814565b60405180910390fd5b8160065f8673ffffffffffffffffffffffffffffffffffffffff1673ffffffffffffffffffffffffffffffffffffffff1681526020019081526020015f205f3373ffffffffffffffffffffffffffffffffffffffff1673ffffffffffffffffffffffffffffffffffffffff1681526020019081526020015f205410156107b7576040517f08c379a00000000000000000000000000000000000000000000000000000000081526004016107ae9061187c565b60405180910390fd5b8160055f8673ffffffffffffffffffffffffffffffffffffffff1673ffffffffffffffffffffffffffffffffffffffff1681526020019081526020015f205f82825461080391906118c7565b925050819055508160055f8573ffffffffffffffffffffffffffffffffffffffff1673ffffffffffffffffffffffffffffffffffffffff1681526020019081526020015f205f82825461085691906118fa565b925050819055508160065f8673ffffffffffffffffffffffffffffffffffffffff1673ffffffffffffffffffffffffffffffffffffffff1681526020019081526020015f205f3373ffffffffffffffffffffffffffffffffffffffff1673ffffffffffffffffffffffffffffffffffffffff1681526020019081526020015f205f8282546108e491906118c7565b925050819055508273ffffffffffffffffffffffffffffffffffffffff168473ffffffffffffffffffffffffffffffffffffffff167fddf252ad1be2c89b69c2b068fc378daa952ba7f163c4a11628f55a4df523b3ef8460405161094891906113e6565b60405180910390a3600190509392505050565b60045f9054906101000a900460ff1681565b60025f9054906101000a900460ff1681565b5f7f000000000000000000000000000000000000000000000000000000000000000073ffffffffffffffffffffffffffffffffffffffff163373ffffffffffffffffffffffffffffffffffffffff1614610a0e576040517f08c379a0000000000000000000000000000000000000000000000000000000008152600401610a059061199d565b60405180910390fd5b60045f9054906101000a900460ff16610a5c576040517f08c379a0000000000000000000000000000000000000000000000000000000008152600401610a53906116dc565b60405180910390fd5b5f73ffffffffffffffffffffffffffffffffffffffff168373ffffffffffffffffffffffffffffffffffffffff1603610aca576040517f08c379a0000000000000000000000000000000000000000000000000000000008152600401610ac1906117ac565b60405180910390fd5b5f8211610b0c576040517f08c379a0000000000000000000000000000000000000000000000000000000008152600401610b039061164e565b60405180910390fd5b8160035f828254610b1d91906118fa565b925050819055508160055f8573ffffffffffffffffffffffffffffffffffffffff1673ffffffffffffffffffffffffffffffffffffffff1681526020019081526020015f205f828254610b7091906118fa565b925050819055508273ffffffffffffffffffffffffffffffffffffffff165f73ffffffffffffffffffffffffffffffffffffffff167fddf252ad1be2c89b69c2b068fc378daa952ba7f163c4a11628f55a4df523b3ef84604051610bd491906113e6565b60405180910390a36001905092915050565b5f60045f9054906101000a900460ff16610c35576040517f08c379a0000000000000000000000000000000000000000000000000000000008152600401610c2c906116dc565b60405180910390fd5b5f8211610c77576040517f08c379a0000000000000000000000000000000000000000000000000000000008152600401610c6e9061164e565b60405180910390fd5b8160055f3373ffffffffffffffffffffffffffffffffffffffff1673ffffffffffffffffffffffffffffffffffffffff1681526020019081526020015f20541015610cf7576040517f08c379a0000000000000000000000000000000000000000000000000000000008152600401610cee90611a05565b60405180910390fd5b8160035f828254610d0891906118c7565b925050819055508160055f3373ffffffffffffffffffffffffffffffffffffffff1673ffffffffffffffffffffffffffffffffffffffff1681526020019081526020015f205f828254610d5b91906118c7565b925050819055505f73ffffffffffffffffffffffffffffffffffffffff163373ffffffffffffffffffffffffffffffffffffffff167fddf252ad1be2c89b69c2b068fc378daa952ba7f163c4a11628f55a4df523b3ef84604051610dbf91906113e6565b60405180910390a360019050919050565b5f60055f3373ffffffffffffffffffffffffffffffffffffffff1673ffffffffffffffffffffffffffffffffffffffff1681526020019081526020015f2054905090565b6005602052805f5260405f205f915090505481565b7f000000000000000000000000000000000000000000000000000000000000000073ffffffffffffffffffffffffffffffffffffffff163373ffffffffffffffffffffffffffffffffffffffff1614610eb7576040517f08c379a0000000000000000000000000000000000000000000000000000000008152600401610eae9061199d565b60405180910390fd5b60045f9054906101000a900460ff161560045f6101000a81548160ff021916908315150217905550565b60018054610eee9061156c565b80601f0160208091040260200160405190810160405280929190818152602001828054610f1a9061156c565b8015610f655780601f10610f3c57610100808354040283529160200191610f65565b820191905f5260205f20905b815481529060010190602001808311610f4857829003601f168201915b505050505081565b7f000000000000000000000000000000000000000000000000000000000000000081565b5f60045f9054906101000a900460ff16610fe0576040517f08c379a0000000000000000000000000000000000000000000000000000000008152600401610fd7906116dc565b60405180910390fd5b5f73ffffffffffffffffffffffffffffffffffffffff168373ffffffffffffffffffffffffffffffffffffffff160361104e576040517f08c379a000000000000000000000000000000000000000000000000000000000815260040161104590611a6d565b60405180910390fd5b5f8211611090576040517f08c379a00000000000000000000000000000000000000000000000000000000081526004016110879061164e565b60405180910390fd5b8160055f3373ffffffffffffffffffffffffffffffffffffffff1673ffffffffffffffffffffffffffffffffffffffff1681526020019081526020015f20541015611110576040517f08c379a000000000000000000000000000000000000000000000000000000000815260040161110790611814565b60405180910390fd5b8160055f8573ffffffffffffffffffffffffffffffffffffffff1673ffffffffffffffffffffffffffffffffffffffff1681526020019081526020015f205f82825461115c91906118fa565b925050819055508160055f3373ffffffffffffffffffffffffffffffffffffffff1673ffffffffffffffffffffffffffffffffffffffff1681526020019081526020015f205f8282546111af91906118c7565b925050819055508273ffffffffffffffffffffffffffffffffffffffff163373ffffffffffffffffffffffffffffffffffffffff167fddf252ad1be2c89b69c2b068fc378daa952ba7f163c4a11628f55a4df523b3ef8460405161121391906113e6565b60405180910390a36001905092915050565b6006602052815f5260405f20602052805f5260405f205f91509150505481565b5f81519050919050565b5f82825260208201905092915050565b8281835e5f83830152505050565b5f601f19601f8301169050919050565b5f61128782611245565b611291818561124f565b93506112a181856020860161125f565b6112aa8161126d565b840191505092915050565b5f6020820190508181035f8301526112cd818461127d565b905092915050565b5f5ffd5b5f73ffffffffffffffffffffffffffffffffffffffff82169050919050565b5f611302826112d9565b9050919050565b611312816112f8565b811461131c575f5ffd5b50565b5f8135905061132d81611309565b92915050565b5f819050919050565b61134581611333565b811461134f575f5ffd5b50565b5f813590506113608161133c565b92915050565b5f5f6040838503121561137c5761137b6112d5565b5b5f6113898582860161131f565b925050602061139a85828601611352565b9150509250929050565b5f8115159050919050565b6113b8816113a4565b82525050565b5f6020820190506113d15f8301846113af565b92915050565b6113e081611333565b82525050565b5f6020820190506113f95f8301846113d7565b92915050565b5f5f5f60608486031215611416576114156112d5565b5b5f6114238682870161131f565b93505060206114348682870161131f565b925050604061144586828701611352565b9150509250925092565b5f60ff82169050919050565b6114648161144f565b82525050565b5f60208201905061147d5f83018461145b565b92915050565b5f60208284031215611498576114976112d5565b5b5f6114a584828501611352565b91505092915050565b5f602082840312156114c3576114c26112d5565b5b5f6114d08482850161131f565b91505092915050565b6114e2816112f8565b82525050565b5f6020820190506114fb5f8301846114d9565b92915050565b5f5f60408385031215611517576115166112d5565b5b5f6115248582860161131f565b92505060206115358582860161131f565b9150509250929050565b7f4e487b71000000000000000000000000000000000000000000000000000000005f52602260045260245ffd5b5f600282049050600182168061158357607f821691505b6020821081036115965761159561153f565b5b50919050565b7f63616e206e6f7420617070726f766520746f207a65726f2061646472657373005f82015250565b5f6115d0601f8361124f565b91506115db8261159c565b602082019050919050565b5f6020820190508181035f8301526115fd816115c4565b9050919050565b7f696e76616c696420616d6f756e740000000000000000000000000000000000005f82015250565b5f611638600e8361124f565b915061164382611604565b602082019050919050565b5f6020820190508181035f8301526116658161162c565b9050919050565b7f5472616e736665727320617265206e6f7420617661696c61626c6520617420745f8201527f6869732074696d652e0000000000000000000000000000000000000000000000602082015250565b5f6116c660298361124f565b91506116d18261166c565b604082019050919050565b5f6020820190508181035f8301526116f3816116ba565b9050919050565b7f66726f6d2063616e6e6f74206265207a65726f206164647265737300000000005f82015250565b5f61172e601b8361124f565b9150611739826116fa565b602082019050919050565b5f6020820190508181035f83015261175b81611722565b9050919050565b7f746f2063616e6e6f74206265207a65726f2061646472657373000000000000005f82015250565b5f61179660198361124f565b91506117a182611762565b602082019050919050565b5f6020820190508181035f8301526117c38161178a565b9050919050565b7f696e737566666369656e742062616c616e6365000000000000000000000000005f82015250565b5f6117fe60138361124f565b9150611809826117ca565b602082019050919050565b5f6020820190508181035f83015261182b816117f2565b9050919050565b7f696e737566666369656e7420616c6c6f77656e636500000000000000000000005f82015250565b5f61186660158361124f565b915061187182611832565b602082019050919050565b5f6020820190508181035f8301526118938161185a565b9050919050565b7f4e487b71000000000000000000000000000000000000000000000000000000005f52601160045260245ffd5b5f6118d182611333565b91506118dc83611333565b92508282039050818111156118f4576118f361189a565b5b92915050565b5f61190482611333565b915061190f83611333565b92508282019050808211156119275761192661189a565b5b92915050565b7f6f6e6c7920746865206f776e65722063616e20646f2074686973206f706572615f8201527f74696f6e00000000000000000000000000000000000000000000000000000000602082015250565b5f61198760248361124f565b91506119928261192d565b604082019050919050565b5f6020820190508181035f8301526119b48161197b565b9050919050565b7f696e737566666369656e742062616c616e636520746f206275726e00000000005f82015250565b5f6119ef601b8361124f565b91506119fa826119bb565b602082019050919050565b5f6020820190508181035f830152611a1c816119e3565b9050919050565b7f63616e206e6f74207472616e7366657220746f207a65726f20616464726573735f82015250565b5f611a5760208361124f565b9150611a6282611a23565b602082019050919050565b5f6020820190508181035f830152611a8481611a4b565b905091905056fea2646970667358221220d3027ab096ba06489a2ebeb7204556f27e7dbf406c2541f57403e25445e20c9164736f6c634300081e0033",
					"opcodes": "PUSH1 0xA0 PUSH1 0x40 MSTORE CALLVALUE DUP1 ISZERO PUSH2 0xF JUMPI PUSH0 PUSH0 REVERT JUMPDEST POP PUSH1 0x40 MLOAD PUSH2 0x23AC CODESIZE SUB DUP1 PUSH2 0x23AC DUP4 CODECOPY DUP2 DUP2 ADD PUSH1 0x40 MSTORE DUP2 ADD SWAP1 PUSH2 0x31 SWAP2 SWAP1 PUSH2 0x344 JUMP JUMPDEST DUP4 PUSH0 SWAP1 DUP2 PUSH2 0x3F SWAP2 SWAP1 PUSH2 0x5E7 JUMP JUMPDEST POP DUP3 PUSH1 0x1 SWAP1 DUP2 PUSH2 0x4F SWAP2 SWAP1 PUSH2 0x5E7 JUMP JUMPDEST POP DUP2 PUSH1 0x2 PUSH0 PUSH2 0x100 EXP DUP2 SLOAD DUP2 PUSH1 0xFF MUL NOT AND SWAP1 DUP4 PUSH1 0xFF AND MUL OR SWAP1 SSTORE POP DUP2 PUSH1 0xA PUSH2 0x77 SWAP2 SWAP1 PUSH2 0x812 JUMP JUMPDEST DUP2 PUSH2 0x82 SWAP2 SWAP1 PUSH2 0x85C JUMP JUMPDEST PUSH1 0x3 DUP2 SWAP1 SSTORE POP PUSH1 0x1 PUSH1 0x4 PUSH0 PUSH2 0x100 EXP DUP2 SLOAD DUP2 PUSH1 0xFF MUL NOT AND SWAP1 DUP4 ISZERO ISZERO MUL OR SWAP1 SSTORE POP CALLER PUSH20 0xFFFFFFFFFFFFFFFFFFFFFFFFFFFFFFFFFFFFFFFF AND PUSH1 0x80 DUP2 PUSH20 0xFFFFFFFFFFFFFFFFFFFFFFFFFFFFFFFFFFFFFFFF AND DUP2 MSTORE POP POP PUSH1 0x3 SLOAD PUSH1 0x5 PUSH0 PUSH1 0x80 MLOAD PUSH20 0xFFFFFFFFFFFFFFFFFFFFFFFFFFFFFFFFFFFFFFFF AND PUSH20 0xFFFFFFFFFFFFFFFFFFFFFFFFFFFFFFFFFFFFFFFF AND DUP2 MSTORE PUSH1 0x20 ADD SWAP1 DUP2 MSTORE PUSH1 0x20 ADD PUSH0 KECCAK256 DUP2 SWAP1 SSTORE POP PUSH1 0x80 MLOAD PUSH20 0xFFFFFFFFFFFFFFFFFFFFFFFFFFFFFFFFFFFFFFFF AND PUSH0 PUSH20 0xFFFFFFFFFFFFFFFFFFFFFFFFFFFFFFFFFFFFFFFF AND PUSH32 0xDDF252AD1BE2C89B69C2B068FC378DAA952BA7F163C4A11628F55A4DF523B3EF PUSH1 0x3 SLOAD PUSH1 0x40 MLOAD PUSH2 0x17D SWAP2 SWAP1 PUSH2 0x8AC JUMP JUMPDEST PUSH1 0x40 MLOAD DUP1 SWAP2 SUB SWAP1 LOG3 POP POP POP POP PUSH2 0x8C5 JUMP JUMPDEST PUSH0 PUSH1 0x40 MLOAD SWAP1 POP SWAP1 JUMP JUMPDEST PUSH0 PUSH0 REVERT JUMPDEST PUSH0 PUSH0 REVERT JUMPDEST PUSH0 PUSH0 REVERT JUMPDEST PUSH0 PUSH0 REVERT JUMPDEST PUSH0 PUSH1 0x1F NOT PUSH1 0x1F DUP4 ADD AND SWAP1 POP SWAP2 SWAP1 POP JUMP JUMPDEST PUSH32 0x4E487B7100000000000000000000000000000000000000000000000000000000 PUSH0 MSTORE PUSH1 0x41 PUSH1 0x4 MSTORE PUSH1 0x24 PUSH0 REVERT JUMPDEST PUSH2 0x1ED DUP3 PUSH2 0x1A7 JUMP JUMPDEST DUP2 ADD DUP2 DUP2 LT PUSH8 0xFFFFFFFFFFFFFFFF DUP3 GT OR ISZERO PUSH2 0x20C JUMPI PUSH2 0x20B PUSH2 0x1B7 JUMP JUMPDEST JUMPDEST DUP1 PUSH1 0x40 MSTORE POP POP POP JUMP JUMPDEST PUSH0 PUSH2 0x21E PUSH2 0x18E JUMP JUMPDEST SWAP1 POP PUSH2 0x22A DUP3 DUP3 PUSH2 0x1E4 JUMP JUMPDEST SWAP2 SWAP1 POP JUMP JUMPDEST PUSH0 PUSH8 0xFFFFFFFFFFFFFFFF DUP3 GT ISZERO PUSH2 0x249 JUMPI PUSH2 0x248 PUSH2 0x1B7 JUMP JUMPDEST JUMPDEST PUSH2 0x252 DUP3 PUSH2 0x1A7 JUMP JUMPDEST SWAP1 POP PUSH1 0x20 DUP2 ADD SWAP1 POP SWAP2 SWAP1 POP JUMP JUMPDEST DUP3 DUP2 DUP4 MCOPY PUSH0 DUP4 DUP4 ADD MSTORE POP POP POP JUMP JUMPDEST PUSH0 PUSH2 0x27F PUSH2 0x27A DUP5 PUSH2 0x22F JUMP JUMPDEST PUSH2 0x215 JUMP JUMPDEST SWAP1 POP DUP3 DUP2 MSTORE PUSH1 0x20 DUP2 ADD DUP5 DUP5 DUP5 ADD GT ISZERO PUSH2 0x29B JUMPI PUSH2 0x29A PUSH2 0x1A3 JUMP JUMPDEST JUMPDEST PUSH2 0x2A6 DUP5 DUP3 DUP6 PUSH2 0x25F JUMP JUMPDEST POP SWAP4 SWAP3 POP POP POP JUMP JUMPDEST PUSH0 DUP3 PUSH1 0x1F DUP4 ADD SLT PUSH2 0x2C2 JUMPI PUSH2 0x2C1 PUSH2 0x19F JUMP JUMPDEST JUMPDEST DUP2 MLOAD PUSH2 0x2D2 DUP5 DUP3 PUSH1 0x20 DUP7 ADD PUSH2 0x26D JUMP JUMPDEST SWAP2 POP POP SWAP3 SWAP2 POP POP JUMP JUMPDEST PUSH0 PUSH1 0xFF DUP3 AND SWAP1 POP SWAP2 SWAP1 POP JUMP JUMPDEST PUSH2 0x2F0 DUP2 PUSH2 0x2DB JUMP JUMPDEST DUP2 EQ PUSH2 0x2FA JUMPI PUSH0 PUSH0 REVERT JUMPDEST POP JUMP JUMPDEST PUSH0 DUP2 MLOAD SWAP1 POP PUSH2 0x30B DUP2 PUSH2 0x2E7 JUMP JUMPDEST SWAP3 SWAP2 POP POP JUMP JUMPDEST PUSH0 DUP2 SWAP1 POP SWAP2 SWAP1 POP JUMP JUMPDEST PUSH2 0x323 DUP2 PUSH2 0x311 JUMP JUMPDEST DUP2 EQ PUSH2 0x32D JUMPI PUSH0 PUSH0 REVERT JUMPDEST POP JUMP JUMPDEST PUSH0 DUP2 MLOAD SWAP1 POP PUSH2 0x33E DUP2 PUSH2 0x31A JUMP JUMPDEST SWAP3 SWAP2 POP POP JUMP JUMPDEST PUSH0 PUSH0 PUSH0 PUSH0 PUSH1 0x80 DUP6 DUP8 SUB SLT ISZERO PUSH2 0x35C JUMPI PUSH2 0x35B PUSH2 0x197 JUMP JUMPDEST JUMPDEST PUSH0 DUP6 ADD MLOAD PUSH8 0xFFFFFFFFFFFFFFFF DUP2 GT ISZERO PUSH2 0x379 JUMPI PUSH2 0x378 PUSH2 0x19B JUMP JUMPDEST JUMPDEST PUSH2 0x385 DUP8 DUP3 DUP9 ADD PUSH2 0x2AE JUMP JUMPDEST SWAP5 POP POP PUSH1 0x20 DUP6 ADD MLOAD PUSH8 0xFFFFFFFFFFFFFFFF DUP2 GT ISZERO PUSH2 0x3A6 JUMPI PUSH2 0x3A5 PUSH2 0x19B JUMP JUMPDEST JUMPDEST PUSH2 0x3B2 DUP8 DUP3 DUP9 ADD PUSH2 0x2AE JUMP JUMPDEST SWAP4 POP POP PUSH1 0x40 PUSH2 0x3C3 DUP8 DUP3 DUP9 ADD PUSH2 0x2FD JUMP JUMPDEST SWAP3 POP POP PUSH1 0x60 PUSH2 0x3D4 DUP8 DUP3 DUP9 ADD PUSH2 0x330 JUMP JUMPDEST SWAP2 POP POP SWAP3 SWAP6 SWAP2 SWAP5 POP SWAP3 POP JUMP JUMPDEST PUSH0 DUP2 MLOAD SWAP1 POP SWAP2 SWAP1 POP JUMP JUMPDEST PUSH32 0x4E487B7100000000000000000000000000000000000000000000000000000000 PUSH0 MSTORE PUSH1 0x22 PUSH1 0x4 MSTORE PUSH1 0x24 PUSH0 REVERT JUMPDEST PUSH0 PUSH1 0x2 DUP3 DIV SWAP1 POP PUSH1 0x1 DUP3 AND DUP1 PUSH2 0x42E JUMPI PUSH1 0x7F DUP3 AND SWAP2 POP JUMPDEST PUSH1 0x20 DUP3 LT DUP2 SUB PUSH2 0x441 JUMPI PUSH2 0x440 PUSH2 0x3EA JUMP JUMPDEST JUMPDEST POP SWAP2 SWAP1 POP JUMP JUMPDEST PUSH0 DUP2 SWAP1 POP DUP2 PUSH0 MSTORE PUSH1 0x20 PUSH0 KECCAK256 SWAP1 POP SWAP2 SWAP1 POP JUMP JUMPDEST PUSH0 PUSH1 0x20 PUSH1 0x1F DUP4 ADD DIV SWAP1 POP SWAP2 SWAP1 POP JUMP JUMPDEST PUSH0 DUP3 DUP3 SHL SWAP1 POP SWAP3 SWAP2 POP POP JUMP JUMPDEST PUSH0 PUSH1 0x8 DUP4 MUL PUSH2 0x4A3 PUSH32 0xFFFFFFFFFFFFFFFFFFFFFFFFFFFFFFFFFFFFFFFFFFFFFFFFFFFFFFFFFFFFFFFF DUP3 PUSH2 0x468 JUMP JUMPDEST PUSH2 0x4AD DUP7 DUP4 PUSH2 0x468 JUMP JUMPDEST SWAP6 POP DUP1 NOT DUP5 AND SWAP4 POP DUP1 DUP7 AND DUP5 OR SWAP3 POP POP POP SWAP4 SWAP3 POP POP POP JUMP JUMPDEST PUSH0 DUP2 SWAP1 POP SWAP2 SWAP1 POP JUMP JUMPDEST PUSH0 PUSH2 0x4E8 PUSH2 0x4E3 PUSH2 0x4DE DUP5 PUSH2 0x311 JUMP JUMPDEST PUSH2 0x4C5 JUMP JUMPDEST PUSH2 0x311 JUMP JUMPDEST SWAP1 POP SWAP2 SWAP1 POP JUMP JUMPDEST PUSH0 DUP2 SWAP1 POP SWAP2 SWAP1 POP JUMP JUMPDEST PUSH2 0x501 DUP4 PUSH2 0x4CE JUMP JUMPDEST PUSH2 0x515 PUSH2 0x50D DUP3 PUSH2 0x4EF JUMP JUMPDEST DUP5 DUP5 SLOAD PUSH2 0x474 JUMP JUMPDEST DUP3 SSTORE POP POP POP POP JUMP JUMPDEST PUSH0 PUSH0 SWAP1 POP SWAP1 JUMP JUMPDEST PUSH2 0x52C PUSH2 0x51D JUMP JUMPDEST PUSH2 0x537 DUP2 DUP5 DUP5 PUSH2 0x4F8 JUMP JUMPDEST POP POP POP JUMP JUMPDEST JUMPDEST DUP2 DUP2 LT ISZERO PUSH2 0x55A JUMPI PUSH2 0x54F PUSH0 DUP3 PUSH2 0x524 JUMP JUMPDEST PUSH1 0x1 DUP2 ADD SWAP1 POP PUSH2 0x53D JUMP JUMPDEST POP POP JUMP JUMPDEST PUSH1 0x1F DUP3 GT ISZERO PUSH2 0x59F JUMPI PUSH2 0x570 DUP2 PUSH2 0x447 JUMP JUMPDEST PUSH2 0x579 DUP5 PUSH2 0x459 JUMP JUMPDEST DUP2 ADD PUSH1 0x20 DUP6 LT ISZERO PUSH2 0x588 JUMPI DUP2 SWAP1 POP JUMPDEST PUSH2 0x59C PUSH2 0x594 DUP6 PUSH2 0x459 JUMP JUMPDEST DUP4 ADD DUP3 PUSH2 0x53C JUMP JUMPDEST POP POP JUMPDEST POP POP POP JUMP JUMPDEST PUSH0 DUP3 DUP3 SHR SWAP1 POP SWAP3 SWAP2 POP POP JUMP JUMPDEST PUSH0 PUSH2 0x5BF PUSH0 NOT DUP5 PUSH1 0x8 MUL PUSH2 0x5A4 JUMP JUMPDEST NOT DUP1 DUP4 AND SWAP2 POP POP SWAP3 SWAP2 POP POP JUMP JUMPDEST PUSH0 PUSH2 0x5D7 DUP4 DUP4 PUSH2 0x5B0 JUMP JUMPDEST SWAP2 POP DUP3 PUSH1 0x2 MUL DUP3 OR SWAP1 POP SWAP3 SWAP2 POP POP JUMP JUMPDEST PUSH2 0x5F0 DUP3 PUSH2 0x3E0 JUMP JUMPDEST PUSH8 0xFFFFFFFFFFFFFFFF DUP2 GT ISZERO PUSH2 0x609 JUMPI PUSH2 0x608 PUSH2 0x1B7 JUMP JUMPDEST JUMPDEST PUSH2 0x613 DUP3 SLOAD PUSH2 0x417 JUMP JUMPDEST PUSH2 0x61E DUP3 DUP3 DUP6 PUSH2 0x55E JUMP JUMPDEST PUSH0 PUSH1 0x20 SWAP1 POP PUSH1 0x1F DUP4 GT PUSH1 0x1 DUP2 EQ PUSH2 0x64F JUMPI PUSH0 DUP5 ISZERO PUSH2 0x63D JUMPI DUP3 DUP8 ADD MLOAD SWAP1 POP JUMPDEST PUSH2 0x647 DUP6 DUP3 PUSH2 0x5CC JUMP JUMPDEST DUP7 SSTORE POP PUSH2 0x6AE JUMP JUMPDEST PUSH1 0x1F NOT DUP5 AND PUSH2 0x65D DUP7 PUSH2 0x447 JUMP JUMPDEST PUSH0 JUMPDEST DUP3 DUP2 LT ISZERO PUSH2 0x684 JUMPI DUP5 DUP10 ADD MLOAD DUP3 SSTORE PUSH1 0x1 DUP3 ADD SWAP2 POP PUSH1 0x20 DUP6 ADD SWAP5 POP PUSH1 0x20 DUP2 ADD SWAP1 POP PUSH2 0x65F JUMP JUMPDEST DUP7 DUP4 LT ISZERO PUSH2 0x6A1 JUMPI DUP5 DUP10 ADD MLOAD PUSH2 0x69D PUSH1 0x1F DUP10 AND DUP3 PUSH2 0x5B0 JUMP JUMPDEST DUP4 SSTORE POP JUMPDEST PUSH1 0x1 PUSH1 0x2 DUP9 MUL ADD DUP9 SSTORE POP POP POP JUMPDEST POP POP POP POP POP POP JUMP JUMPDEST PUSH32 0x4E487B7100000000000000000000000000000000000000000000000000000000 PUSH0 MSTORE PUSH1 0x11 PUSH1 0x4 MSTORE PUSH1 0x24 PUSH0 REVERT JUMPDEST PUSH0 DUP2 PUSH1 0x1 SHR SWAP1 POP SWAP2 SWAP1 POP JUMP JUMPDEST PUSH0 PUSH0 DUP3 SWAP2 POP DUP4 SWAP1 POP JUMPDEST PUSH1 0x1 DUP6 GT ISZERO PUSH2 0x738 JUMPI DUP1 DUP7 DIV DUP2 GT ISZERO PUSH2 0x714 JUMPI PUSH2 0x713 PUSH2 0x6B6 JUMP JUMPDEST JUMPDEST PUSH1 0x1 DUP6 AND ISZERO PUSH2 0x723 JUMPI DUP1 DUP3 MUL SWAP2 POP JUMPDEST DUP1 DUP2 MUL SWAP1 POP PUSH2 0x731 DUP6 PUSH2 0x6E3 JUMP JUMPDEST SWAP5 POP PUSH2 0x6F8 JUMP JUMPDEST SWAP5 POP SWAP5 SWAP3 POP POP POP JUMP JUMPDEST PUSH0 DUP3 PUSH2 0x750 JUMPI PUSH1 0x1 SWAP1 POP PUSH2 0x80B JUMP JUMPDEST DUP2 PUSH2 0x75D JUMPI PUSH0 SWAP1 POP PUSH2 0x80B JUMP JUMPDEST DUP2 PUSH1 0x1 DUP2 EQ PUSH2 0x773 JUMPI PUSH1 0x2 DUP2 EQ PUSH2 0x77D JUMPI PUSH2 0x7AC JUMP JUMPDEST PUSH1 0x1 SWAP2 POP POP PUSH2 0x80B JUMP JUMPDEST PUSH1 0xFF DUP5 GT ISZERO PUSH2 0x78F JUMPI PUSH2 0x78E PUSH2 0x6B6 JUMP JUMPDEST JUMPDEST DUP4 PUSH1 0x2 EXP SWAP2 POP DUP5 DUP3 GT ISZERO PUSH2 0x7A6 JUMPI PUSH2 0x7A5 PUSH2 0x6B6 JUMP JUMPDEST JUMPDEST POP PUSH2 0x80B JUMP JUMPDEST POP PUSH1 0x20 DUP4 LT PUSH2 0x133 DUP4 LT AND PUSH1 0x4E DUP5 LT PUSH1 0xB DUP5 LT AND OR ISZERO PUSH2 0x7E1 JUMPI DUP3 DUP3 EXP SWAP1 POP DUP4 DUP2 GT ISZERO PUSH2 0x7DC JUMPI PUSH2 0x7DB PUSH2 0x6B6 JUMP JUMPDEST JUMPDEST PUSH2 0x80B JUMP JUMPDEST PUSH2 0x7EE DUP5 DUP5 DUP5 PUSH1 0x1 PUSH2 0x6EF JUMP JUMPDEST SWAP3 POP SWAP1 POP DUP2 DUP5 DIV DUP2 GT ISZERO PUSH2 0x805 JUMPI PUSH2 0x804 PUSH2 0x6B6 JUMP JUMPDEST JUMPDEST DUP2 DUP2 MUL SWAP1 POP JUMPDEST SWAP4 SWAP3 POP POP POP JUMP JUMPDEST PUSH0 PUSH2 0x81C DUP3 PUSH2 0x311 JUMP JUMPDEST SWAP2 POP PUSH2 0x827 DUP4 PUSH2 0x2DB JUMP JUMPDEST SWAP3 POP PUSH2 0x854 PUSH32 0xFFFFFFFFFFFFFFFFFFFFFFFFFFFFFFFFFFFFFFFFFFFFFFFFFFFFFFFFFFFFFFFF DUP5 DUP5 PUSH2 0x741 JUMP JUMPDEST SWAP1 POP SWAP3 SWAP2 POP POP JUMP JUMPDEST PUSH0 PUSH2 0x866 DUP3 PUSH2 0x311 JUMP JUMPDEST SWAP2 POP PUSH2 0x871 DUP4 PUSH2 0x311 JUMP JUMPDEST SWAP3 POP DUP3 DUP3 MUL PUSH2 0x87F DUP2 PUSH2 0x311 JUMP JUMPDEST SWAP2 POP DUP3 DUP3 DIV DUP5 EQ DUP4 ISZERO OR PUSH2 0x896 JUMPI PUSH2 0x895 PUSH2 0x6B6 JUMP JUMPDEST JUMPDEST POP SWAP3 SWAP2 POP POP JUMP JUMPDEST PUSH2 0x8A6 DUP2 PUSH2 0x311 JUMP JUMPDEST DUP3 MSTORE POP POP JUMP JUMPDEST PUSH0 PUSH1 0x20 DUP3 ADD SWAP1 POP PUSH2 0x8BF PUSH0 DUP4 ADD DUP5 PUSH2 0x89D JUMP JUMPDEST SWAP3 SWAP2 POP POP JUMP JUMPDEST PUSH1 0x80 MLOAD PUSH2 0x1AC1 PUSH2 0x8EB PUSH0 CODECOPY PUSH0 DUP2 DUP2 PUSH2 0x982 ADD MSTORE DUP2 DUP2 PUSH2 0xE2B ADD MSTORE PUSH2 0xF6F ADD MSTORE PUSH2 0x1AC1 PUSH0 RETURN INVALID PUSH1 0x80 PUSH1 0x40 MSTORE CALLVALUE DUP1 ISZERO PUSH2 0xF JUMPI PUSH0 PUSH0 REVERT JUMPDEST POP PUSH1 0x4 CALLDATASIZE LT PUSH2 0xF3 JUMPI PUSH0 CALLDATALOAD PUSH1 0xE0 SHR DUP1 PUSH4 0x42966C68 GT PUSH2 0x95 JUMPI DUP1 PUSH4 0x85672F44 GT PUSH2 0x64 JUMPI DUP1 PUSH4 0x85672F44 EQ PUSH2 0x287 JUMPI DUP1 PUSH4 0x8DA5CB5B EQ PUSH2 0x2A5 JUMPI DUP1 PUSH4 0xA9059CBB EQ PUSH2 0x2C3 JUMPI DUP1 PUSH4 0xD7295C9A EQ PUSH2 0x2F3 JUMPI PUSH2 0xF3 JUMP JUMPDEST DUP1 PUSH4 0x42966C68 EQ PUSH2 0x1FF JUMPI DUP1 PUSH4 0x52796D42 EQ PUSH2 0x22F JUMPI DUP1 PUSH4 0x70A08231 EQ PUSH2 0x24D JUMPI DUP1 PUSH4 0x74C5D7F2 EQ PUSH2 0x27D JUMPI PUSH2 0xF3 JUMP JUMPDEST DUP1 PUSH4 0x23B872DD GT PUSH2 0xD1 JUMPI DUP1 PUSH4 0x23B872DD EQ PUSH2 0x163 JUMPI DUP1 PUSH4 0x242654A2 EQ PUSH2 0x193 JUMPI DUP1 PUSH4 0x313CE567 EQ PUSH2 0x1B1 JUMPI DUP1 PUSH4 0x40C10F19 EQ PUSH2 0x1CF JUMPI PUSH2 0xF3 JUMP JUMPDEST DUP1 PUSH4 0x6FDDE03 EQ PUSH2 0xF7 JUMPI DUP1 PUSH4 0x95EA7B3 EQ PUSH2 0x115 JUMPI DUP1 PUSH4 0x18160DDD EQ PUSH2 0x145 JUMPI JUMPDEST PUSH0 PUSH0 REVERT JUMPDEST PUSH2 0xFF PUSH2 0x323 JUMP JUMPDEST PUSH1 0x40 MLOAD PUSH2 0x10C SWAP2 SWAP1 PUSH2 0x12B5 JUMP JUMPDEST PUSH1 0x40 MLOAD DUP1 SWAP2 SUB SWAP1 RETURN JUMPDEST PUSH2 0x12F PUSH1 0x4 DUP1 CALLDATASIZE SUB DUP2 ADD SWAP1 PUSH2 0x12A SWAP2 SWAP1 PUSH2 0x1366 JUMP JUMPDEST PUSH2 0x3AE JUMP JUMPDEST PUSH1 0x40 MLOAD PUSH2 0x13C SWAP2 SWAP1 PUSH2 0x13BE JUMP JUMPDEST PUSH1 0x40 MLOAD DUP1 SWAP2 SUB SWAP1 RETURN JUMPDEST PUSH2 0x14D PUSH2 0x54B JUMP JUMPDEST PUSH1 0x40 MLOAD PUSH2 0x15A SWAP2 SWAP1 PUSH2 0x13E6 JUMP JUMPDEST PUSH1 0x40 MLOAD DUP1 SWAP2 SUB SWAP1 RETURN JUMPDEST PUSH2 0x17D PUSH1 0x4 DUP1 CALLDATASIZE SUB DUP2 ADD SWAP1 PUSH2 0x178 SWAP2 SWAP1 PUSH2 0x13FF JUMP JUMPDEST PUSH2 0x551 JUMP JUMPDEST PUSH1 0x40 MLOAD PUSH2 0x18A SWAP2 SWAP1 PUSH2 0x13BE JUMP JUMPDEST PUSH1 0x40 MLOAD DUP1 SWAP2 SUB SWAP1 RETURN JUMPDEST PUSH2 0x19B PUSH2 0x95B JUMP JUMPDEST PUSH1 0x40 MLOAD PUSH2 0x1A8 SWAP2 SWAP1 PUSH2 0x13BE JUMP JUMPDEST PUSH1 0x40 MLOAD DUP1 SWAP2 SUB SWAP1 RETURN JUMPDEST PUSH2 0x1B9 PUSH2 0x96D JUMP JUMPDEST PUSH1 0x40 MLOAD PUSH2 0x1C6 SWAP2 SWAP1 PUSH2 0x146A JUMP JUMPDEST PUSH1 0x40 MLOAD DUP1 SWAP2 SUB SWAP1 RETURN JUMPDEST PUSH2 0x1E9 PUSH1 0x4 DUP1 CALLDATASIZE SUB DUP2 ADD SWAP1 PUSH2 0x1E4 SWAP2 SWAP1 PUSH2 0x1366 JUMP JUMPDEST PUSH2 0x97F JUMP JUMPDEST PUSH1 0x40 MLOAD PUSH2 0x1F6 SWAP2 SWAP1 PUSH2 0x13BE JUMP JUMPDEST PUSH1 0x40 MLOAD DUP1 SWAP2 SUB SWAP1 RETURN JUMPDEST PUSH2 0x219 PUSH1 0x4 DUP1 CALLDATASIZE SUB DUP2 ADD SWAP1 PUSH2 0x214 SWAP2 SWAP1 PUSH2 0x1483 JUMP JUMPDEST PUSH2 0xBE6 JUMP JUMPDEST PUSH1 0x40 MLOAD PUSH2 0x226 SWAP2 SWAP1 PUSH2 0x13BE JUMP JUMPDEST PUSH1 0x40 MLOAD DUP1 SWAP2 SUB SWAP1 RETURN JUMPDEST PUSH2 0x237 PUSH2 0xDD0 JUMP JUMPDEST PUSH1 0x40 MLOAD PUSH2 0x244 SWAP2 SWAP1 PUSH2 0x13E6 JUMP JUMPDEST PUSH1 0x40 MLOAD DUP1 SWAP2 SUB SWAP1 RETURN JUMPDEST PUSH2 0x267 PUSH1 0x4 DUP1 CALLDATASIZE SUB DUP2 ADD SWAP1 PUSH2 0x262 SWAP2 SWAP1 PUSH2 0x14AE JUMP JUMPDEST PUSH2 0xE14 JUMP JUMPDEST PUSH1 0x40 MLOAD PUSH2 0x274 SWAP2 SWAP1 PUSH2 0x13E6 JUMP JUMPDEST PUSH1 0x40 MLOAD DUP1 SWAP2 SUB SWAP1 RETURN JUMPDEST PUSH2 0x285 PUSH2 0xE29 JUMP JUMPDEST STOP JUMPDEST PUSH2 0x28F PUSH2 0xEE1 JUMP JUMPDEST PUSH1 0x40 MLOAD PUSH2 0x29C SWAP2 SWAP1 PUSH2 0x12B5 JUMP JUMPDEST PUSH1 0x40 MLOAD DUP1 SWAP2 SUB SWAP1 RETURN JUMPDEST PUSH2 0x2AD PUSH2 0xF6D JUMP JUMPDEST PUSH1 0x40 MLOAD PUSH2 0x2BA SWAP2 SWAP1 PUSH2 0x14E8 JUMP JUMPDEST PUSH1 0x40 MLOAD DUP1 SWAP2 SUB SWAP1 RETURN JUMPDEST PUSH2 0x2DD PUSH1 0x4 DUP1 CALLDATASIZE SUB DUP2 ADD SWAP1 PUSH2 0x2D8 SWAP2 SWAP1 PUSH2 0x1366 JUMP JUMPDEST PUSH2 0xF91 JUMP JUMPDEST PUSH1 0x40 MLOAD PUSH2 0x2EA SWAP2 SWAP1 PUSH2 0x13BE JUMP JUMPDEST PUSH1 0x40 MLOAD DUP1 SWAP2 SUB SWAP1 RETURN JUMPDEST PUSH2 0x30D PUSH1 0x4 DUP1 CALLDATASIZE SUB DUP2 ADD SWAP1 PUSH2 0x308 SWAP2 SWAP1 PUSH2 0x1501 JUMP JUMPDEST PUSH2 0x1225 JUMP JUMPDEST PUSH1 0x40 MLOAD PUSH2 0x31A SWAP2 SWAP1 PUSH2 0x13E6 JUMP JUMPDEST PUSH1 0x40 MLOAD DUP1 SWAP2 SUB SWAP1 RETURN JUMPDEST PUSH0 DUP1 SLOAD PUSH2 0x32F SWAP1 PUSH2 0x156C JUMP JUMPDEST DUP1 PUSH1 0x1F ADD PUSH1 0x20 DUP1 SWAP2 DIV MUL PUSH1 0x20 ADD PUSH1 0x40 MLOAD SWAP1 DUP2 ADD PUSH1 0x40 MSTORE DUP1 SWAP3 SWAP2 SWAP1 DUP2 DUP2 MSTORE PUSH1 0x20 ADD DUP3 DUP1 SLOAD PUSH2 0x35B SWAP1 PUSH2 0x156C JUMP JUMPDEST DUP1 ISZERO PUSH2 0x3A6 JUMPI DUP1 PUSH1 0x1F LT PUSH2 0x37D JUMPI PUSH2 0x100 DUP1 DUP4 SLOAD DIV MUL DUP4 MSTORE SWAP2 PUSH1 0x20 ADD SWAP2 PUSH2 0x3A6 JUMP JUMPDEST DUP3 ADD SWAP2 SWAP1 PUSH0 MSTORE PUSH1 0x20 PUSH0 KECCAK256 SWAP1 JUMPDEST DUP2 SLOAD DUP2 MSTORE SWAP1 PUSH1 0x1 ADD SWAP1 PUSH1 0x20 ADD DUP1 DUP4 GT PUSH2 0x389 JUMPI DUP3 SWAP1 SUB PUSH1 0x1F AND DUP3 ADD SWAP2 JUMPDEST POP POP POP POP POP DUP2 JUMP JUMPDEST PUSH0 PUSH0 PUSH20 0xFFFFFFFFFFFFFFFFFFFFFFFFFFFFFFFFFFFFFFFF AND DUP4 PUSH20 0xFFFFFFFFFFFFFFFFFFFFFFFFFFFFFFFFFFFFFFFF AND SUB PUSH2 0x41D JUMPI PUSH1 0x40 MLOAD PUSH32 0x8C379A000000000000000000000000000000000000000000000000000000000 DUP2 MSTORE PUSH1 0x4 ADD PUSH2 0x414 SWAP1 PUSH2 0x15E6 JUMP JUMPDEST PUSH1 0x40 MLOAD DUP1 SWAP2 SUB SWAP1 REVERT JUMPDEST PUSH0 DUP3 GT PUSH2 0x45F JUMPI PUSH1 0x40 MLOAD PUSH32 0x8C379A000000000000000000000000000000000000000000000000000000000 DUP2 MSTORE PUSH1 0x4 ADD PUSH2 0x456 SWAP1 PUSH2 0x164E JUMP JUMPDEST PUSH1 0x40 MLOAD DUP1 SWAP2 SUB SWAP1 REVERT JUMPDEST DUP2 PUSH1 0x6 PUSH0 CALLER PUSH20 0xFFFFFFFFFFFFFFFFFFFFFFFFFFFFFFFFFFFFFFFF AND PUSH20 0xFFFFFFFFFFFFFFFFFFFFFFFFFFFFFFFFFFFFFFFF AND DUP2 MSTORE PUSH1 0x20 ADD SWAP1 DUP2 MSTORE PUSH1 0x20 ADD PUSH0 KECCAK256 PUSH0 DUP6 PUSH20 0xFFFFFFFFFFFFFFFFFFFFFFFFFFFFFFFFFFFFFFFF AND PUSH20 0xFFFFFFFFFFFFFFFFFFFFFFFFFFFFFFFFFFFFFFFF AND DUP2 MSTORE PUSH1 0x20 ADD SWAP1 DUP2 MSTORE PUSH1 0x20 ADD PUSH0 KECCAK256 DUP2 SWAP1 SSTORE POP DUP3 PUSH20 0xFFFFFFFFFFFFFFFFFFFFFFFFFFFFFFFFFFFFFFFF AND CALLER PUSH20 0xFFFFFFFFFFFFFFFFFFFFFFFFFFFFFFFFFFFFFFFF AND PUSH32 0x8C5BE1E5EBEC7D5BD14F71427D1E84F3DD0314C0F7B2291E5B200AC8C7C3B925 DUP5 PUSH1 0x40 MLOAD PUSH2 0x539 SWAP2 SWAP1 PUSH2 0x13E6 JUMP JUMPDEST PUSH1 0x40 MLOAD DUP1 SWAP2 SUB SWAP1 LOG3 PUSH1 0x1 SWAP1 POP SWAP3 SWAP2 POP POP JUMP JUMPDEST PUSH1 0x3 SLOAD DUP2 JUMP JUMPDEST PUSH0 PUSH1 0x4 PUSH0 SWAP1 SLOAD SWAP1 PUSH2 0x100 EXP SWAP1 DIV PUSH1 0xFF AND PUSH2 0x5A0 JUMPI PUSH1 0x40 MLOAD PUSH32 0x8C379A000000000000000000000000000000000000000000000000000000000 DUP2 MSTORE PUSH1 0x4 ADD PUSH2 0x597 SWAP1 PUSH2 0x16DC JUMP JUMPDEST PUSH1 0x40 MLOAD DUP1 SWAP2 SUB SWAP1 REVERT JUMPDEST PUSH0 PUSH20 0xFFFFFFFFFFFFFFFFFFFFFFFFFFFFFFFFFFFFFFFF AND DUP5 PUSH20 0xFFFFFFFFFFFFFFFFFFFFFFFFFFFFFFFFFFFFFFFF AND SUB PUSH2 0x60E JUMPI PUSH1 0x40 MLOAD PUSH32 0x8C379A000000000000000000000000000000000000000000000000000000000 DUP2 MSTORE PUSH1 0x4 ADD PUSH2 0x605 SWAP1 PUSH2 0x1744 JUMP JUMPDEST PUSH1 0x40 MLOAD DUP1 SWAP2 SUB SWAP1 REVERT JUMPDEST PUSH0 PUSH20 0xFFFFFFFFFFFFFFFFFFFFFFFFFFFFFFFFFFFFFFFF AND DUP4 PUSH20 0xFFFFFFFFFFFFFFFFFFFFFFFFFFFFFFFFFFFFFFFF AND SUB PUSH2 0x67C JUMPI PUSH1 0x40 MLOAD PUSH32 0x8C379A000000000000000000000000000000000000000000000000000000000 DUP2 MSTORE PUSH1 0x4 ADD PUSH2 0x673 SWAP1 PUSH2 0x17AC JUMP JUMPDEST PUSH1 0x40 MLOAD DUP1 SWAP2 SUB SWAP1 REVERT JUMPDEST DUP2 PUSH1 0x5 PUSH0 DUP7 PUSH20 0xFFFFFFFFFFFFFFFFFFFFFFFFFFFFFFFFFFFFFFFF AND PUSH20 0xFFFFFFFFFFFFFFFFFFFFFFFFFFFFFFFFFFFFFFFF AND DUP2 MSTORE PUSH1 0x20 ADD SWAP1 DUP2 MSTORE PUSH1 0x20 ADD PUSH0 KECCAK256 SLOAD LT ISZERO PUSH2 0x6FC JUMPI PUSH1 0x40 MLOAD PUSH32 0x8C379A000000000000000000000000000000000000000000000000000000000 DUP2 MSTORE PUSH1 0x4 ADD PUSH2 0x6F3 SWAP1 PUSH2 0x1814 JUMP JUMPDEST PUSH1 0x40 MLOAD DUP1 SWAP2 SUB SWAP1 REVERT JUMPDEST DUP2 PUSH1 0x6 PUSH0 DUP7 PUSH20 0xFFFFFFFFFFFFFFFFFFFFFFFFFFFFFFFFFFFFFFFF AND PUSH20 0xFFFFFFFFFFFFFFFFFFFFFFFFFFFFFFFFFFFFFFFF AND DUP2 MSTORE PUSH1 0x20 ADD SWAP1 DUP2 MSTORE PUSH1 0x20 ADD PUSH0 KECCAK256 PUSH0 CALLER PUSH20 0xFFFFFFFFFFFFFFFFFFFFFFFFFFFFFFFFFFFFFFFF AND PUSH20 0xFFFFFFFFFFFFFFFFFFFFFFFFFFFFFFFFFFFFFFFF AND DUP2 MSTORE PUSH1 0x20 ADD SWAP1 DUP2 MSTORE PUSH1 0x20 ADD PUSH0 KECCAK256 SLOAD LT ISZERO PUSH2 0x7B7 JUMPI PUSH1 0x40 MLOAD PUSH32 0x8C379A000000000000000000000000000000000000000000000000000000000 DUP2 MSTORE PUSH1 0x4 ADD PUSH2 0x7AE SWAP1 PUSH2 0x187C JUMP JUMPDEST PUSH1 0x40 MLOAD DUP1 SWAP2 SUB SWAP1 REVERT JUMPDEST DUP2 PUSH1 0x5 PUSH0 DUP7 PUSH20 0xFFFFFFFFFFFFFFFFFFFFFFFFFFFFFFFFFFFFFFFF AND PUSH20 0xFFFFFFFFFFFFFFFFFFFFFFFFFFFFFFFFFFFFFFFF AND DUP2 MSTORE PUSH1 0x20 ADD SWAP1 DUP2 MSTORE PUSH1 0x20 ADD PUSH0 KECCAK256 PUSH0 DUP3 DUP3 SLOAD PUSH2 0x803 SWAP2 SWAP1 PUSH2 0x18C7 JUMP JUMPDEST SWAP3 POP POP DUP2 SWAP1 SSTORE POP DUP2 PUSH1 0x5 PUSH0 DUP6 PUSH20 0xFFFFFFFFFFFFFFFFFFFFFFFFFFFFFFFFFFFFFFFF AND PUSH20 0xFFFFFFFFFFFFFFFFFFFFFFFFFFFFFFFFFFFFFFFF AND DUP2 MSTORE PUSH1 0x20 ADD SWAP1 DUP2 MSTORE PUSH1 0x20 ADD PUSH0 KECCAK256 PUSH0 DUP3 DUP3 SLOAD PUSH2 0x856 SWAP2 SWAP1 PUSH2 0x18FA JUMP JUMPDEST SWAP3 POP POP DUP2 SWAP1 SSTORE POP DUP2 PUSH1 0x6 PUSH0 DUP7 PUSH20 0xFFFFFFFFFFFFFFFFFFFFFFFFFFFFFFFFFFFFFFFF AND PUSH20 0xFFFFFFFFFFFFFFFFFFFFFFFFFFFFFFFFFFFFFFFF AND DUP2 MSTORE PUSH1 0x20 ADD SWAP1 DUP2 MSTORE PUSH1 0x20 ADD PUSH0 KECCAK256 PUSH0 CALLER PUSH20 0xFFFFFFFFFFFFFFFFFFFFFFFFFFFFFFFFFFFFFFFF AND PUSH20 0xFFFFFFFFFFFFFFFFFFFFFFFFFFFFFFFFFFFFFFFF AND DUP2 MSTORE PUSH1 0x20 ADD SWAP1 DUP2 MSTORE PUSH1 0x20 ADD PUSH0 KECCAK256 PUSH0 DUP3 DUP3 SLOAD PUSH2 0x8E4 SWAP2 SWAP1 PUSH2 0x18C7 JUMP JUMPDEST SWAP3 POP POP DUP2 SWAP1 SSTORE POP DUP3 PUSH20 0xFFFFFFFFFFFFFFFFFFFFFFFFFFFFFFFFFFFFFFFF AND DUP5 PUSH20 0xFFFFFFFFFFFFFFFFFFFFFFFFFFFFFFFFFFFFFFFF AND PUSH32 0xDDF252AD1BE2C89B69C2B068FC378DAA952BA7F163C4A11628F55A4DF523B3EF DUP5 PUSH1 0x40 MLOAD PUSH2 0x948 SWAP2 SWAP1 PUSH2 0x13E6 JUMP JUMPDEST PUSH1 0x40 MLOAD DUP1 SWAP2 SUB SWAP1 LOG3 PUSH1 0x1 SWAP1 POP SWAP4 SWAP3 POP POP POP JUMP JUMPDEST PUSH1 0x4 PUSH0 SWAP1 SLOAD SWAP1 PUSH2 0x100 EXP SWAP1 DIV PUSH1 0xFF AND DUP2 JUMP JUMPDEST PUSH1 0x2 PUSH0 SWAP1 SLOAD SWAP1 PUSH2 0x100 EXP SWAP1 DIV PUSH1 0xFF AND DUP2 JUMP JUMPDEST PUSH0 PUSH32 0x0 PUSH20 0xFFFFFFFFFFFFFFFFFFFFFFFFFFFFFFFFFFFFFFFF AND CALLER PUSH20 0xFFFFFFFFFFFFFFFFFFFFFFFFFFFFFFFFFFFFFFFF AND EQ PUSH2 0xA0E JUMPI PUSH1 0x40 MLOAD PUSH32 0x8C379A000000000000000000000000000000000000000000000000000000000 DUP2 MSTORE PUSH1 0x4 ADD PUSH2 0xA05 SWAP1 PUSH2 0x199D JUMP JUMPDEST PUSH1 0x40 MLOAD DUP1 SWAP2 SUB SWAP1 REVERT JUMPDEST PUSH1 0x4 PUSH0 SWAP1 SLOAD SWAP1 PUSH2 0x100 EXP SWAP1 DIV PUSH1 0xFF AND PUSH2 0xA5C JUMPI PUSH1 0x40 MLOAD PUSH32 0x8C379A000000000000000000000000000000000000000000000000000000000 DUP2 MSTORE PUSH1 0x4 ADD PUSH2 0xA53 SWAP1 PUSH2 0x16DC JUMP JUMPDEST PUSH1 0x40 MLOAD DUP1 SWAP2 SUB SWAP1 REVERT JUMPDEST PUSH0 PUSH20 0xFFFFFFFFFFFFFFFFFFFFFFFFFFFFFFFFFFFFFFFF AND DUP4 PUSH20 0xFFFFFFFFFFFFFFFFFFFFFFFFFFFFFFFFFFFFFFFF AND SUB PUSH2 0xACA JUMPI PUSH1 0x40 MLOAD PUSH32 0x8C379A000000000000000000000000000000000000000000000000000000000 DUP2 MSTORE PUSH1 0x4 ADD PUSH2 0xAC1 SWAP1 PUSH2 0x17AC JUMP JUMPDEST PUSH1 0x40 MLOAD DUP1 SWAP2 SUB SWAP1 REVERT JUMPDEST PUSH0 DUP3 GT PUSH2 0xB0C JUMPI PUSH1 0x40 MLOAD PUSH32 0x8C379A000000000000000000000000000000000000000000000000000000000 DUP2 MSTORE PUSH1 0x4 ADD PUSH2 0xB03 SWAP1 PUSH2 0x164E JUMP JUMPDEST PUSH1 0x40 MLOAD DUP1 SWAP2 SUB SWAP1 REVERT JUMPDEST DUP2 PUSH1 0x3 PUSH0 DUP3 DUP3 SLOAD PUSH2 0xB1D SWAP2 SWAP1 PUSH2 0x18FA JUMP JUMPDEST SWAP3 POP POP DUP2 SWAP1 SSTORE POP DUP2 PUSH1 0x5 PUSH0 DUP6 PUSH20 0xFFFFFFFFFFFFFFFFFFFFFFFFFFFFFFFFFFFFFFFF AND PUSH20 0xFFFFFFFFFFFFFFFFFFFFFFFFFFFFFFFFFFFFFFFF AND DUP2 MSTORE PUSH1 0x20 ADD SWAP1 DUP2 MSTORE PUSH1 0x20 ADD PUSH0 KECCAK256 PUSH0 DUP3 DUP3 SLOAD PUSH2 0xB70 SWAP2 SWAP1 PUSH2 0x18FA JUMP JUMPDEST SWAP3 POP POP DUP2 SWAP1 SSTORE POP DUP3 PUSH20 0xFFFFFFFFFFFFFFFFFFFFFFFFFFFFFFFFFFFFFFFF AND PUSH0 PUSH20 0xFFFFFFFFFFFFFFFFFFFFFFFFFFFFFFFFFFFFFFFF AND PUSH32 0xDDF252AD1BE2C89B69C2B068FC378DAA952BA7F163C4A11628F55A4DF523B3EF DUP5 PUSH1 0x40 MLOAD PUSH2 0xBD4 SWAP2 SWAP1 PUSH2 0x13E6 JUMP JUMPDEST PUSH1 0x40 MLOAD DUP1 SWAP2 SUB SWAP1 LOG3 PUSH1 0x1 SWAP1 POP SWAP3 SWAP2 POP POP JUMP JUMPDEST PUSH0 PUSH1 0x4 PUSH0 SWAP1 SLOAD SWAP1 PUSH2 0x100 EXP SWAP1 DIV PUSH1 0xFF AND PUSH2 0xC35 JUMPI PUSH1 0x40 MLOAD PUSH32 0x8C379A000000000000000000000000000000000000000000000000000000000 DUP2 MSTORE PUSH1 0x4 ADD PUSH2 0xC2C SWAP1 PUSH2 0x16DC JUMP JUMPDEST PUSH1 0x40 MLOAD DUP1 SWAP2 SUB SWAP1 REVERT JUMPDEST PUSH0 DUP3 GT PUSH2 0xC77 JUMPI PUSH1 0x40 MLOAD PUSH32 0x8C379A000000000000000000000000000000000000000000000000000000000 DUP2 MSTORE PUSH1 0x4 ADD PUSH2 0xC6E SWAP1 PUSH2 0x164E JUMP JUMPDEST PUSH1 0x40 MLOAD DUP1 SWAP2 SUB SWAP1 REVERT JUMPDEST DUP2 PUSH1 0x5 PUSH0 CALLER PUSH20 0xFFFFFFFFFFFFFFFFFFFFFFFFFFFFFFFFFFFFFFFF AND PUSH20 0xFFFFFFFFFFFFFFFFFFFFFFFFFFFFFFFFFFFFFFFF AND DUP2 MSTORE PUSH1 0x20 ADD SWAP1 DUP2 MSTORE PUSH1 0x20 ADD PUSH0 KECCAK256 SLOAD LT ISZERO PUSH2 0xCF7 JUMPI PUSH1 0x40 MLOAD PUSH32 0x8C379A000000000000000000000000000000000000000000000000000000000 DUP2 MSTORE PUSH1 0x4 ADD PUSH2 0xCEE SWAP1 PUSH2 0x1A05 JUMP JUMPDEST PUSH1 0x40 MLOAD DUP1 SWAP2 SUB SWAP1 REVERT JUMPDEST DUP2 PUSH1 0x3 PUSH0 DUP3 DUP3 SLOAD PUSH2 0xD08 SWAP2 SWAP1 PUSH2 0x18C7 JUMP JUMPDEST SWAP3 POP POP DUP2 SWAP1 SSTORE POP DUP2 PUSH1 0x5 PUSH0 CALLER PUSH20 0xFFFFFFFFFFFFFFFFFFFFFFFFFFFFFFFFFFFFFFFF AND PUSH20 0xFFFFFFFFFFFFFFFFFFFFFFFFFFFFFFFFFFFFFFFF AND DUP2 MSTORE PUSH1 0x20 ADD SWAP1 DUP2 MSTORE PUSH1 0x20 ADD PUSH0 KECCAK256 PUSH0 DUP3 DUP3 SLOAD PUSH2 0xD5B SWAP2 SWAP1 PUSH2 0x18C7 JUMP JUMPDEST SWAP3 POP POP DUP2 SWAP1 SSTORE POP PUSH0 PUSH20 0xFFFFFFFFFFFFFFFFFFFFFFFFFFFFFFFFFFFFFFFF AND CALLER PUSH20 0xFFFFFFFFFFFFFFFFFFFFFFFFFFFFFFFFFFFFFFFF AND PUSH32 0xDDF252AD1BE2C89B69C2B068FC378DAA952BA7F163C4A11628F55A4DF523B3EF DUP5 PUSH1 0x40 MLOAD PUSH2 0xDBF SWAP2 SWAP1 PUSH2 0x13E6 JUMP JUMPDEST PUSH1 0x40 MLOAD DUP1 SWAP2 SUB SWAP1 LOG3 PUSH1 0x1 SWAP1 POP SWAP2 SWAP1 POP JUMP JUMPDEST PUSH0 PUSH1 0x5 PUSH0 CALLER PUSH20 0xFFFFFFFFFFFFFFFFFFFFFFFFFFFFFFFFFFFFFFFF AND PUSH20 0xFFFFFFFFFFFFFFFFFFFFFFFFFFFFFFFFFFFFFFFF AND DUP2 MSTORE PUSH1 0x20 ADD SWAP1 DUP2 MSTORE PUSH1 0x20 ADD PUSH0 KECCAK256 SLOAD SWAP1 POP SWAP1 JUMP JUMPDEST PUSH1 0x5 PUSH1 0x20 MSTORE DUP1 PUSH0 MSTORE PUSH1 0x40 PUSH0 KECCAK256 PUSH0 SWAP2 POP SWAP1 POP SLOAD DUP2 JUMP JUMPDEST PUSH32 0x0 PUSH20 0xFFFFFFFFFFFFFFFFFFFFFFFFFFFFFFFFFFFFFFFF AND CALLER PUSH20 0xFFFFFFFFFFFFFFFFFFFFFFFFFFFFFFFFFFFFFFFF AND EQ PUSH2 0xEB7 JUMPI PUSH1 0x40 MLOAD PUSH32 0x8C379A000000000000000000000000000000000000000000000000000000000 DUP2 MSTORE PUSH1 0x4 ADD PUSH2 0xEAE SWAP1 PUSH2 0x199D JUMP JUMPDEST PUSH1 0x40 MLOAD DUP1 SWAP2 SUB SWAP1 REVERT JUMPDEST PUSH1 0x4 PUSH0 SWAP1 SLOAD SWAP1 PUSH2 0x100 EXP SWAP1 DIV PUSH1 0xFF AND ISZERO PUSH1 0x4 PUSH0 PUSH2 0x100 EXP DUP2 SLOAD DUP2 PUSH1 0xFF MUL NOT AND SWAP1 DUP4 ISZERO ISZERO MUL OR SWAP1 SSTORE POP JUMP JUMPDEST PUSH1 0x1 DUP1 SLOAD PUSH2 0xEEE SWAP1 PUSH2 0x156C JUMP JUMPDEST DUP1 PUSH1 0x1F ADD PUSH1 0x20 DUP1 SWAP2 DIV MUL PUSH1 0x20 ADD PUSH1 0x40 MLOAD SWAP1 DUP2 ADD PUSH1 0x40 MSTORE DUP1 SWAP3 SWAP2 SWAP1 DUP2 DUP2 MSTORE PUSH1 0x20 ADD DUP3 DUP1 SLOAD PUSH2 0xF1A SWAP1 PUSH2 0x156C JUMP JUMPDEST DUP1 ISZERO PUSH2 0xF65 JUMPI DUP1 PUSH1 0x1F LT PUSH2 0xF3C JUMPI PUSH2 0x100 DUP1 DUP4 SLOAD DIV MUL DUP4 MSTORE SWAP2 PUSH1 0x20 ADD SWAP2 PUSH2 0xF65 JUMP JUMPDEST DUP3 ADD SWAP2 SWAP1 PUSH0 MSTORE PUSH1 0x20 PUSH0 KECCAK256 SWAP1 JUMPDEST DUP2 SLOAD DUP2 MSTORE SWAP1 PUSH1 0x1 ADD SWAP1 PUSH1 0x20 ADD DUP1 DUP4 GT PUSH2 0xF48 JUMPI DUP3 SWAP1 SUB PUSH1 0x1F AND DUP3 ADD SWAP2 JUMPDEST POP POP POP POP POP DUP2 JUMP JUMPDEST PUSH32 0x0 DUP2 JUMP JUMPDEST PUSH0 PUSH1 0x4 PUSH0 SWAP1 SLOAD SWAP1 PUSH2 0x100 EXP SWAP1 DIV PUSH1 0xFF AND PUSH2 0xFE0 JUMPI PUSH1 0x40 MLOAD PUSH32 0x8C379A000000000000000000000000000000000000000000000000000000000 DUP2 MSTORE PUSH1 0x4 ADD PUSH2 0xFD7 SWAP1 PUSH2 0x16DC JUMP JUMPDEST PUSH1 0x40 MLOAD DUP1 SWAP2 SUB SWAP1 REVERT JUMPDEST PUSH0 PUSH20 0xFFFFFFFFFFFFFFFFFFFFFFFFFFFFFFFFFFFFFFFF AND DUP4 PUSH20 0xFFFFFFFFFFFFFFFFFFFFFFFFFFFFFFFFFFFFFFFF AND SUB PUSH2 0x104E JUMPI PUSH1 0x40 MLOAD PUSH32 0x8C379A000000000000000000000000000000000000000000000000000000000 DUP2 MSTORE PUSH1 0x4 ADD PUSH2 0x1045 SWAP1 PUSH2 0x1A6D JUMP JUMPDEST PUSH1 0x40 MLOAD DUP1 SWAP2 SUB SWAP1 REVERT JUMPDEST PUSH0 DUP3 GT PUSH2 0x1090 JUMPI PUSH1 0x40 MLOAD PUSH32 0x8C379A000000000000000000000000000000000000000000000000000000000 DUP2 MSTORE PUSH1 0x4 ADD PUSH2 0x1087 SWAP1 PUSH2 0x164E JUMP JUMPDEST PUSH1 0x40 MLOAD DUP1 SWAP2 SUB SWAP1 REVERT JUMPDEST DUP2 PUSH1 0x5 PUSH0 CALLER PUSH20 0xFFFFFFFFFFFFFFFFFFFFFFFFFFFFFFFFFFFFFFFF AND PUSH20 0xFFFFFFFFFFFFFFFFFFFFFFFFFFFFFFFFFFFFFFFF AND DUP2 MSTORE PUSH1 0x20 ADD SWAP1 DUP2 MSTORE PUSH1 0x20 ADD PUSH0 KECCAK256 SLOAD LT ISZERO PUSH2 0x1110 JUMPI PUSH1 0x40 MLOAD PUSH32 0x8C379A000000000000000000000000000000000000000000000000000000000 DUP2 MSTORE PUSH1 0x4 ADD PUSH2 0x1107 SWAP1 PUSH2 0x1814 JUMP JUMPDEST PUSH1 0x40 MLOAD DUP1 SWAP2 SUB SWAP1 REVERT JUMPDEST DUP2 PUSH1 0x5 PUSH0 DUP6 PUSH20 0xFFFFFFFFFFFFFFFFFFFFFFFFFFFFFFFFFFFFFFFF AND PUSH20 0xFFFFFFFFFFFFFFFFFFFFFFFFFFFFFFFFFFFFFFFF AND DUP2 MSTORE PUSH1 0x20 ADD SWAP1 DUP2 MSTORE PUSH1 0x20 ADD PUSH0 KECCAK256 PUSH0 DUP3 DUP3 SLOAD PUSH2 0x115C SWAP2 SWAP1 PUSH2 0x18FA JUMP JUMPDEST SWAP3 POP POP DUP2 SWAP1 SSTORE POP DUP2 PUSH1 0x5 PUSH0 CALLER PUSH20 0xFFFFFFFFFFFFFFFFFFFFFFFFFFFFFFFFFFFFFFFF AND PUSH20 0xFFFFFFFFFFFFFFFFFFFFFFFFFFFFFFFFFFFFFFFF AND DUP2 MSTORE PUSH1 0x20 ADD SWAP1 DUP2 MSTORE PUSH1 0x20 ADD PUSH0 KECCAK256 PUSH0 DUP3 DUP3 SLOAD PUSH2 0x11AF SWAP2 SWAP1 PUSH2 0x18C7 JUMP JUMPDEST SWAP3 POP POP DUP2 SWAP1 SSTORE POP DUP3 PUSH20 0xFFFFFFFFFFFFFFFFFFFFFFFFFFFFFFFFFFFFFFFF AND CALLER PUSH20 0xFFFFFFFFFFFFFFFFFFFFFFFFFFFFFFFFFFFFFFFF AND PUSH32 0xDDF252AD1BE2C89B69C2B068FC378DAA952BA7F163C4A11628F55A4DF523B3EF DUP5 PUSH1 0x40 MLOAD PUSH2 0x1213 SWAP2 SWAP1 PUSH2 0x13E6 JUMP JUMPDEST PUSH1 0x40 MLOAD DUP1 SWAP2 SUB SWAP1 LOG3 PUSH1 0x1 SWAP1 POP SWAP3 SWAP2 POP POP JUMP JUMPDEST PUSH1 0x6 PUSH1 0x20 MSTORE DUP2 PUSH0 MSTORE PUSH1 0x40 PUSH0 KECCAK256 PUSH1 0x20 MSTORE DUP1 PUSH0 MSTORE PUSH1 0x40 PUSH0 KECCAK256 PUSH0 SWAP2 POP SWAP2 POP POP SLOAD DUP2 JUMP JUMPDEST PUSH0 DUP2 MLOAD SWAP1 POP SWAP2 SWAP1 POP JUMP JUMPDEST PUSH0 DUP3 DUP3 MSTORE PUSH1 0x20 DUP3 ADD SWAP1 POP SWAP3 SWAP2 POP POP JUMP JUMPDEST DUP3 DUP2 DUP4 MCOPY PUSH0 DUP4 DUP4 ADD MSTORE POP POP POP JUMP JUMPDEST PUSH0 PUSH1 0x1F NOT PUSH1 0x1F DUP4 ADD AND SWAP1 POP SWAP2 SWAP1 POP JUMP JUMPDEST PUSH0 PUSH2 0x1287 DUP3 PUSH2 0x1245 JUMP JUMPDEST PUSH2 0x1291 DUP2 DUP6 PUSH2 0x124F JUMP JUMPDEST SWAP4 POP PUSH2 0x12A1 DUP2 DUP6 PUSH1 0x20 DUP7 ADD PUSH2 0x125F JUMP JUMPDEST PUSH2 0x12AA DUP2 PUSH2 0x126D JUMP JUMPDEST DUP5 ADD SWAP2 POP POP SWAP3 SWAP2 POP POP JUMP JUMPDEST PUSH0 PUSH1 0x20 DUP3 ADD SWAP1 POP DUP2 DUP2 SUB PUSH0 DUP4 ADD MSTORE PUSH2 0x12CD DUP2 DUP5 PUSH2 0x127D JUMP JUMPDEST SWAP1 POP SWAP3 SWAP2 POP POP JUMP JUMPDEST PUSH0 PUSH0 REVERT JUMPDEST PUSH0 PUSH20 0xFFFFFFFFFFFFFFFFFFFFFFFFFFFFFFFFFFFFFFFF DUP3 AND SWAP1 POP SWAP2 SWAP1 POP JUMP JUMPDEST PUSH0 PUSH2 0x1302 DUP3 PUSH2 0x12D9 JUMP JUMPDEST SWAP1 POP SWAP2 SWAP1 POP JUMP JUMPDEST PUSH2 0x1312 DUP2 PUSH2 0x12F8 JUMP JUMPDEST DUP2 EQ PUSH2 0x131C JUMPI PUSH0 PUSH0 REVERT JUMPDEST POP JUMP JUMPDEST PUSH0 DUP2 CALLDATALOAD SWAP1 POP PUSH2 0x132D DUP2 PUSH2 0x1309 JUMP JUMPDEST SWAP3 SWAP2 POP POP JUMP JUMPDEST PUSH0 DUP2 SWAP1 POP SWAP2 SWAP1 POP JUMP JUMPDEST PUSH2 0x1345 DUP2 PUSH2 0x1333 JUMP JUMPDEST DUP2 EQ PUSH2 0x134F JUMPI PUSH0 PUSH0 REVERT JUMPDEST POP JUMP JUMPDEST PUSH0 DUP2 CALLDATALOAD SWAP1 POP PUSH2 0x1360 DUP2 PUSH2 0x133C JUMP JUMPDEST SWAP3 SWAP2 POP POP JUMP JUMPDEST PUSH0 PUSH0 PUSH1 0x40 DUP4 DUP6 SUB SLT ISZERO PUSH2 0x137C JUMPI PUSH2 0x137B PUSH2 0x12D5 JUMP JUMPDEST JUMPDEST PUSH0 PUSH2 0x1389 DUP6 DUP3 DUP7 ADD PUSH2 0x131F JUMP JUMPDEST SWAP3 POP POP PUSH1 0x20 PUSH2 0x139A DUP6 DUP3 DUP7 ADD PUSH2 0x1352 JUMP JUMPDEST SWAP2 POP POP SWAP3 POP SWAP3 SWAP1 POP JUMP JUMPDEST PUSH0 DUP2 ISZERO ISZERO SWAP1 POP SWAP2 SWAP1 POP JUMP JUMPDEST PUSH2 0x13B8 DUP2 PUSH2 0x13A4 JUMP JUMPDEST DUP3 MSTORE POP POP JUMP JUMPDEST PUSH0 PUSH1 0x20 DUP3 ADD SWAP1 POP PUSH2 0x13D1 PUSH0 DUP4 ADD DUP5 PUSH2 0x13AF JUMP JUMPDEST SWAP3 SWAP2 POP POP JUMP JUMPDEST PUSH2 0x13E0 DUP2 PUSH2 0x1333 JUMP JUMPDEST DUP3 MSTORE POP POP JUMP JUMPDEST PUSH0 PUSH1 0x20 DUP3 ADD SWAP1 POP PUSH2 0x13F9 PUSH0 DUP4 ADD DUP5 PUSH2 0x13D7 JUMP JUMPDEST SWAP3 SWAP2 POP POP JUMP JUMPDEST PUSH0 PUSH0 PUSH0 PUSH1 0x60 DUP5 DUP7 SUB SLT ISZERO PUSH2 0x1416 JUMPI PUSH2 0x1415 PUSH2 0x12D5 JUMP JUMPDEST JUMPDEST PUSH0 PUSH2 0x1423 DUP7 DUP3 DUP8 ADD PUSH2 0x131F JUMP JUMPDEST SWAP4 POP POP PUSH1 0x20 PUSH2 0x1434 DUP7 DUP3 DUP8 ADD PUSH2 0x131F JUMP JUMPDEST SWAP3 POP POP PUSH1 0x40 PUSH2 0x1445 DUP7 DUP3 DUP8 ADD PUSH2 0x1352 JUMP JUMPDEST SWAP2 POP POP SWAP3 POP SWAP3 POP SWAP3 JUMP JUMPDEST PUSH0 PUSH1 0xFF DUP3 AND SWAP1 POP SWAP2 SWAP1 POP JUMP JUMPDEST PUSH2 0x1464 DUP2 PUSH2 0x144F JUMP JUMPDEST DUP3 MSTORE POP POP JUMP JUMPDEST PUSH0 PUSH1 0x20 DUP3 ADD SWAP1 POP PUSH2 0x147D PUSH0 DUP4 ADD DUP5 PUSH2 0x145B JUMP JUMPDEST SWAP3 SWAP2 POP POP JUMP JUMPDEST PUSH0 PUSH1 0x20 DUP3 DUP5 SUB SLT ISZERO PUSH2 0x1498 JUMPI PUSH2 0x1497 PUSH2 0x12D5 JUMP JUMPDEST JUMPDEST PUSH0 PUSH2 0x14A5 DUP5 DUP3 DUP6 ADD PUSH2 0x1352 JUMP JUMPDEST SWAP2 POP POP SWAP3 SWAP2 POP POP JUMP JUMPDEST PUSH0 PUSH1 0x20 DUP3 DUP5 SUB SLT ISZERO PUSH2 0x14C3 JUMPI PUSH2 0x14C2 PUSH2 0x12D5 JUMP JUMPDEST JUMPDEST PUSH0 PUSH2 0x14D0 DUP5 DUP3 DUP6 ADD PUSH2 0x131F JUMP JUMPDEST SWAP2 POP POP SWAP3 SWAP2 POP POP JUMP JUMPDEST PUSH2 0x14E2 DUP2 PUSH2 0x12F8 JUMP JUMPDEST DUP3 MSTORE POP POP JUMP JUMPDEST PUSH0 PUSH1 0x20 DUP3 ADD SWAP1 POP PUSH2 0x14FB PUSH0 DUP4 ADD DUP5 PUSH2 0x14D9 JUMP JUMPDEST SWAP3 SWAP2 POP POP JUMP JUMPDEST PUSH0 PUSH0 PUSH1 0x40 DUP4 DUP6 SUB SLT ISZERO PUSH2 0x1517 JUMPI PUSH2 0x1516 PUSH2 0x12D5 JUMP JUMPDEST JUMPDEST PUSH0 PUSH2 0x1524 DUP6 DUP3 DUP7 ADD PUSH2 0x131F JUMP JUMPDEST SWAP3 POP POP PUSH1 0x20 PUSH2 0x1535 DUP6 DUP3 DUP7 ADD PUSH2 0x131F JUMP JUMPDEST SWAP2 POP POP SWAP3 POP SWAP3 SWAP1 POP JUMP JUMPDEST PUSH32 0x4E487B7100000000000000000000000000000000000000000000000000000000 PUSH0 MSTORE PUSH1 0x22 PUSH1 0x4 MSTORE PUSH1 0x24 PUSH0 REVERT JUMPDEST PUSH0 PUSH1 0x2 DUP3 DIV SWAP1 POP PUSH1 0x1 DUP3 AND DUP1 PUSH2 0x1583 JUMPI PUSH1 0x7F DUP3 AND SWAP2 POP JUMPDEST PUSH1 0x20 DUP3 LT DUP2 SUB PUSH2 0x1596 JUMPI PUSH2 0x1595 PUSH2 0x153F JUMP JUMPDEST JUMPDEST POP SWAP2 SWAP1 POP JUMP JUMPDEST PUSH32 0x63616E206E6F7420617070726F766520746F207A65726F206164647265737300 PUSH0 DUP3 ADD MSTORE POP JUMP JUMPDEST PUSH0 PUSH2 0x15D0 PUSH1 0x1F DUP4 PUSH2 0x124F JUMP JUMPDEST SWAP2 POP PUSH2 0x15DB DUP3 PUSH2 0x159C JUMP JUMPDEST PUSH1 0x20 DUP3 ADD SWAP1 POP SWAP2 SWAP1 POP JUMP JUMPDEST PUSH0 PUSH1 0x20 DUP3 ADD SWAP1 POP DUP2 DUP2 SUB PUSH0 DUP4 ADD MSTORE PUSH2 0x15FD DUP2 PUSH2 0x15C4 JUMP JUMPDEST SWAP1 POP SWAP2 SWAP1 POP JUMP JUMPDEST PUSH32 0x696E76616C696420616D6F756E74000000000000000000000000000000000000 PUSH0 DUP3 ADD MSTORE POP JUMP JUMPDEST PUSH0 PUSH2 0x1638 PUSH1 0xE DUP4 PUSH2 0x124F JUMP JUMPDEST SWAP2 POP PUSH2 0x1643 DUP3 PUSH2 0x1604 JUMP JUMPDEST PUSH1 0x20 DUP3 ADD SWAP1 POP SWAP2 SWAP1 POP JUMP JUMPDEST PUSH0 PUSH1 0x20 DUP3 ADD SWAP1 POP DUP2 DUP2 SUB PUSH0 DUP4 ADD MSTORE PUSH2 0x1665 DUP2 PUSH2 0x162C JUMP JUMPDEST SWAP1 POP SWAP2 SWAP1 POP JUMP JUMPDEST PUSH32 0x5472616E736665727320617265206E6F7420617661696C61626C652061742074 PUSH0 DUP3 ADD MSTORE PUSH32 0x6869732074696D652E0000000000000000000000000000000000000000000000 PUSH1 0x20 DUP3 ADD MSTORE POP JUMP JUMPDEST PUSH0 PUSH2 0x16C6 PUSH1 0x29 DUP4 PUSH2 0x124F JUMP JUMPDEST SWAP2 POP PUSH2 0x16D1 DUP3 PUSH2 0x166C JUMP JUMPDEST PUSH1 0x40 DUP3 ADD SWAP1 POP SWAP2 SWAP1 POP JUMP JUMPDEST PUSH0 PUSH1 0x20 DUP3 ADD SWAP1 POP DUP2 DUP2 SUB PUSH0 DUP4 ADD MSTORE PUSH2 0x16F3 DUP2 PUSH2 0x16BA JUMP JUMPDEST SWAP1 POP SWAP2 SWAP1 POP JUMP JUMPDEST PUSH32 0x66726F6D2063616E6E6F74206265207A65726F20616464726573730000000000 PUSH0 DUP3 ADD MSTORE POP JUMP JUMPDEST PUSH0 PUSH2 0x172E PUSH1 0x1B DUP4 PUSH2 0x124F JUMP JUMPDEST SWAP2 POP PUSH2 0x1739 DUP3 PUSH2 0x16FA JUMP JUMPDEST PUSH1 0x20 DUP3 ADD SWAP1 POP SWAP2 SWAP1 POP JUMP JUMPDEST PUSH0 PUSH1 0x20 DUP3 ADD SWAP1 POP DUP2 DUP2 SUB PUSH0 DUP4 ADD MSTORE PUSH2 0x175B DUP2 PUSH2 0x1722 JUMP JUMPDEST SWAP1 POP SWAP2 SWAP1 POP JUMP JUMPDEST PUSH32 0x746F2063616E6E6F74206265207A65726F206164647265737300000000000000 PUSH0 DUP3 ADD MSTORE POP JUMP JUMPDEST PUSH0 PUSH2 0x1796 PUSH1 0x19 DUP4 PUSH2 0x124F JUMP JUMPDEST SWAP2 POP PUSH2 0x17A1 DUP3 PUSH2 0x1762 JUMP JUMPDEST PUSH1 0x20 DUP3 ADD SWAP1 POP SWAP2 SWAP1 POP JUMP JUMPDEST PUSH0 PUSH1 0x20 DUP3 ADD SWAP1 POP DUP2 DUP2 SUB PUSH0 DUP4 ADD MSTORE PUSH2 0x17C3 DUP2 PUSH2 0x178A JUMP JUMPDEST SWAP1 POP SWAP2 SWAP1 POP JUMP JUMPDEST PUSH32 0x696E737566666369656E742062616C616E636500000000000000000000000000 PUSH0 DUP3 ADD MSTORE POP JUMP JUMPDEST PUSH0 PUSH2 0x17FE PUSH1 0x13 DUP4 PUSH2 0x124F JUMP JUMPDEST SWAP2 POP PUSH2 0x1809 DUP3 PUSH2 0x17CA JUMP JUMPDEST PUSH1 0x20 DUP3 ADD SWAP1 POP SWAP2 SWAP1 POP JUMP JUMPDEST PUSH0 PUSH1 0x20 DUP3 ADD SWAP1 POP DUP2 DUP2 SUB PUSH0 DUP4 ADD MSTORE PUSH2 0x182B DUP2 PUSH2 0x17F2 JUMP JUMPDEST SWAP1 POP SWAP2 SWAP1 POP JUMP JUMPDEST PUSH32 0x696E737566666369656E7420616C6C6F77656E63650000000000000000000000 PUSH0 DUP3 ADD MSTORE POP JUMP JUMPDEST PUSH0 PUSH2 0x1866 PUSH1 0x15 DUP4 PUSH2 0x124F JUMP JUMPDEST SWAP2 POP PUSH2 0x1871 DUP3 PUSH2 0x1832 JUMP JUMPDEST PUSH1 0x20 DUP3 ADD SWAP1 POP SWAP2 SWAP1 POP JUMP JUMPDEST PUSH0 PUSH1 0x20 DUP3 ADD SWAP1 POP DUP2 DUP2 SUB PUSH0 DUP4 ADD MSTORE PUSH2 0x1893 DUP2 PUSH2 0x185A JUMP JUMPDEST SWAP1 POP SWAP2 SWAP1 POP JUMP JUMPDEST PUSH32 0x4E487B7100000000000000000000000000000000000000000000000000000000 PUSH0 MSTORE PUSH1 0x11 PUSH1 0x4 MSTORE PUSH1 0x24 PUSH0 REVERT JUMPDEST PUSH0 PUSH2 0x18D1 DUP3 PUSH2 0x1333 JUMP JUMPDEST SWAP2 POP PUSH2 0x18DC DUP4 PUSH2 0x1333 JUMP JUMPDEST SWAP3 POP DUP3 DUP3 SUB SWAP1 POP DUP2 DUP2 GT ISZERO PUSH2 0x18F4 JUMPI PUSH2 0x18F3 PUSH2 0x189A JUMP JUMPDEST JUMPDEST SWAP3 SWAP2 POP POP JUMP JUMPDEST PUSH0 PUSH2 0x1904 DUP3 PUSH2 0x1333 JUMP JUMPDEST SWAP2 POP PUSH2 0x190F DUP4 PUSH2 0x1333 JUMP JUMPDEST SWAP3 POP DUP3 DUP3 ADD SWAP1 POP DUP1 DUP3 GT ISZERO PUSH2 0x1927 JUMPI PUSH2 0x1926 PUSH2 0x189A JUMP JUMPDEST JUMPDEST SWAP3 SWAP2 POP POP JUMP JUMPDEST PUSH32 0x6F6E6C7920746865206F776E65722063616E20646F2074686973206F70657261 PUSH0 DUP3 ADD MSTORE PUSH32 0x74696F6E00000000000000000000000000000000000000000000000000000000 PUSH1 0x20 DUP3 ADD MSTORE POP JUMP JUMPDEST PUSH0 PUSH2 0x1987 PUSH1 0x24 DUP4 PUSH2 0x124F JUMP JUMPDEST SWAP2 POP PUSH2 0x1992 DUP3 PUSH2 0x192D JUMP JUMPDEST PUSH1 0x40 DUP3 ADD SWAP1 POP SWAP2 SWAP1 POP JUMP JUMPDEST PUSH0 PUSH1 0x20 DUP3 ADD SWAP1 POP DUP2 DUP2 SUB PUSH0 DUP4 ADD MSTORE PUSH2 0x19B4 DUP2 PUSH2 0x197B JUMP JUMPDEST SWAP1 POP SWAP2 SWAP1 POP JUMP JUMPDEST PUSH32 0x696E737566666369656E742062616C616E636520746F206275726E0000000000 PUSH0 DUP3 ADD MSTORE POP JUMP JUMPDEST PUSH0 PUSH2 0x19EF PUSH1 0x1B DUP4 PUSH2 0x124F JUMP JUMPDEST SWAP2 POP PUSH2 0x19FA DUP3 PUSH2 0x19BB JUMP JUMPDEST PUSH1 0x20 DUP3 ADD SWAP1 POP SWAP2 SWAP1 POP JUMP JUMPDEST PUSH0 PUSH1 0x20 DUP3 ADD SWAP1 POP DUP2 DUP2 SUB PUSH0 DUP4 ADD MSTORE PUSH2 0x1A1C DUP2 PUSH2 0x19E3 JUMP JUMPDEST SWAP1 POP SWAP2 SWAP1 POP JUMP JUMPDEST PUSH32 0x63616E206E6F74207472616E7366657220746F207A65726F2061646472657373 PUSH0 DUP3 ADD MSTORE POP JUMP JUMPDEST PUSH0 PUSH2 0x1A57 PUSH1 0x20 DUP4 PUSH2 0x124F JUMP JUMPDEST SWAP2 POP PUSH2 0x1A62 DUP3 PUSH2 0x1A23 JUMP JUMPDEST PUSH1 0x20 DUP3 ADD SWAP1 POP SWAP2 SWAP1 POP JUMP JUMPDEST PUSH0 PUSH1 0x20 DUP3 ADD SWAP1 POP DUP2 DUP2 SUB PUSH0 DUP4 ADD MSTORE PUSH2 0x1A84 DUP2 PUSH2 0x1A4B JUMP JUMPDEST SWAP1 POP SWAP2 SWAP1 POP JUMP INVALID LOG2 PUSH5 0x6970667358 0x22 SLT KECCAK256 0xD3 MUL PUSH27 0xB096BA06489A2EBEB7204556F27E7DBF406C2541F57403E25445E2 0xC SWAP2 PUSH5 0x736F6C6343 STOP ADDMOD 0x1E STOP CALLER "
				},
				"gasEstimates": {
					"creation": {
						"codeDepositCost": "1369800",
						"executionCost": "infinite",
						"totalCost": "infinite"
					},
					"external": {
						"allowences(address,address)": "infinite",
						"approve(address,uint256)": "infinite",
						"balanceOf(address)": "2869",
						"burn(uint256)": "infinite",
						"decimals()": "2533",
						"mint(address,uint256)": "infinite",
						"name()": "infinite",
						"owner()": "infinite",
						"showMyBalance()": "2564",
						"switchEnable()": "infinite",
						"sybol()": "infinite",
						"totalSupply()": "2493",
						"transfer(address,uint256)": "infinite",
						"transferEnable()": "2511",
						"transferFrom(address,address,uint256)": "infinite"
					}
				},
				"methodIdentifiers": {
					"allowences(address,address)": "d7295c9a",
					"approve(address,uint256)": "095ea7b3",
					"balanceOf(address)": "70a08231",
					"burn(uint256)": "42966c68",
					"decimals()": "313ce567",
					"mint(address,uint256)": "40c10f19",
					"name()": "06fdde03",
					"owner()": "8da5cb5b",
					"showMyBalance()": "52796d42",
					"switchEnable()": "74c5d7f2",
					"sybol()": "85672f44",
					"totalSupply()": "18160ddd",
					"transfer(address,uint256)": "a9059cbb",
					"transferEnable()": "242654a2",
					"transferFrom(address,address,uint256)": "23b872dd"
				}
			},
			"storageLayout": {
				"storage": [
					{
						"astId": 3,
						"contract": "5.1MyToken.sol:MyToken",
						"label": "name",
						"offset": 0,
						"slot": "0",
						"type": "t_string_storage"
					},
					{
						"astId": 5,
						"contract": "5.1MyToken.sol:MyToken",
						"label": "sybol",
						"offset": 0,
						"slot": "1",
						"type": "t_string_storage"
					},
					{
						"astId": 7,
						"contract": "5.1MyToken.sol:MyToken",
						"label": "decimals",
						"offset": 0,
						"slot": "2",
						"type": "t_uint8"
					},
					{
						"astId": 9,
						"contract": "5.1MyToken.sol:MyToken",
						"label": "totalSupply",
						"offset": 0,
						"slot": "3",
						"type": "t_uint256"
					},
					{
						"astId": 11,
						"contract": "5.1MyToken.sol:MyToken",
						"label": "transferEnable",
						"offset": 0,
						"slot": "4",
						"type": "t_bool"
					},
					{
						"astId": 17,
						"contract": "5.1MyToken.sol:MyToken",
						"label": "balanceOf",
						"offset": 0,
						"slot": "5",
						"type": "t_mapping(t_address,t_uint256)"
					},
					{
						"astId": 23,
						"contract": "5.1MyToken.sol:MyToken",
						"label": "allowences",
						"offset": 0,
						"slot": "6",
						"type": "t_mapping(t_address,t_mapping(t_address,t_uint256))"
					}
				],
				"types": {
					"t_address": {
						"encoding": "inplace",
						"label": "address",
						"numberOfBytes": "20"
					},
					"t_bool": {
						"encoding": "inplace",
						"label": "bool",
						"numberOfBytes": "1"
					},
					"t_mapping(t_address,t_mapping(t_address,t_uint256))": {
						"encoding": "mapping",
						"key": "t_address",
						"label": "mapping(address => mapping(address => uint256))",
						"numberOfBytes": "32",
						"value": "t_mapping(t_address,t_uint256)"
					},
					"t_mapping(t_address,t_uint256)": {
						"encoding": "mapping",
						"key": "t_address",
						"label": "mapping(address => uint256)",
						"numberOfBytes": "32",
						"value": "t_uint256"
					},
					"t_string_storage": {
						"encoding": "bytes",
						"label": "string",
						"numberOfBytes": "32"
					},
					"t_uint256": {
						"encoding": "inplace",
						"label": "uint256",
						"numberOfBytes": "32"
					},
					"t_uint8": {
						"encoding": "inplace",
						"label": "uint8",
						"numberOfBytes": "1"
					}
				}
			},
			"userdoc": {
				"kind": "user",
				"methods": {},
				"version": 1
			}
		}
	}
}