{
	"crowdfunding.sol": {
		"crowdfunding": {
			"abi": [
				{
					"inputs": [
						{
							"internalType": "uint256",
							"name": "_goalAmount",
							"type": "uint256"
						},
						{
							"internalType": "uint256",
							"name": "_durationInDays",
							"type": "uint256"
						}
					],
					"stateMutability": "nonpayable",
					"type": "constructor"
				},
				{
					"anonymous": false,
					"inputs": [
						{
							"indexed": false,
							"internalType": "address",
							"name": "sender",
							"type": "address"
						},
						{
							"indexed": false,
							"internalType": "uint256",
							"name": "value",
							"type": "uint256"
						},
						{
							"indexed": false,
							"internalType": "uint256",
							"name": "currentAmount",
							"type": "uint256"
						}
					],
					"name": "ContributionReceived",
					"type": "event"
				},
				{
					"anonymous": false,
					"inputs": [
						{
							"indexed": false,
							"internalType": "uint256",
							"name": "amount",
							"type": "uint256"
						},
						{
							"indexed": false,
							"internalType": "address",
							"name": "owner",
							"type": "address"
						},
						{
							"indexed": false,
							"internalType": "uint256",
							"name": "timestamp",
							"type": "uint256"
						}
					],
					"name": "FundsWithDraw",
					"type": "event"
				},
				{
					"anonymous": false,
					"inputs": [
						{
							"indexed": false,
							"internalType": "uint256",
							"name": "amount",
							"type": "uint256"
						},
						{
							"indexed": false,
							"internalType": "address",
							"name": "refunder",
							"type": "address"
						},
						{
							"indexed": false,
							"internalType": "uint256",
							"name": "timestamp",
							"type": "uint256"
						}
					],
					"name": "RefundIssue",
					"type": "event"
				},
				{
					"anonymous": false,
					"inputs": [
						{
							"indexed": false,
							"internalType": "enum crowdfunding.State",
							"name": "_state",
							"type": "uint8"
						}
					],
					"name": "StateChange",
					"type": "event"
				},
				{
					"inputs": [],
					"name": "MIN_CONTRIBUTION",
					"outputs": [
						{
							"internalType": "uint256",
							"name": "",
							"type": "uint256"
						}
					],
					"stateMutability": "view",
					"type": "function"
				},
				{
					"inputs": [],
					"name": "contribute",
					"outputs": [],
					"stateMutability": "payable",
					"type": "function"
				},
				{
					"inputs": [
						{
							"internalType": "address",
							"name": "",
							"type": "address"
						}
					],
					"name": "contributions",
					"outputs": [
						{
							"internalType": "uint256",
							"name": "",
							"type": "uint256"
						}
					],
					"stateMutability": "view",
					"type": "function"
				},
				{
					"inputs": [],
					"name": "currentRaiseAmount",
					"outputs": [
						{
							"internalType": "uint256",
							"name": "",
							"type": "uint256"
						}
					],
					"stateMutability": "view",
					"type": "function"
				},
				{
					"inputs": [],
					"name": "currentState",
					"outputs": [
						{
							"internalType": "enum crowdfunding.State",
							"name": "",
							"type": "uint8"
						}
					],
					"stateMutability": "view",
					"type": "function"
				},
				{
					"inputs": [],
					"name": "deadline",
					"outputs": [
						{
							"internalType": "uint256",
							"name": "",
							"type": "uint256"
						}
					],
					"stateMutability": "view",
					"type": "function"
				},
				{
					"inputs": [],
					"name": "getState",
					"outputs": [
						{
							"internalType": "enum crowdfunding.State",
							"name": "",
							"type": "uint8"
						}
					],
					"stateMutability": "view",
					"type": "function"
				},
				{
					"inputs": [],
					"name": "goalAmount",
					"outputs": [
						{
							"internalType": "uint256",
							"name": "",
							"type": "uint256"
						}
					],
					"stateMutability": "view",
					"type": "function"
				},
				{
					"inputs": [],
					"name": "owner",
					"outputs": [
						{
							"internalType": "address",
							"name": "",
							"type": "address"
						}
					],
					"stateMutability": "view",
					"type": "function"
				},
				{
					"inputs": [],
					"name": "refund",
					"outputs": [],
					"stateMutability": "payable",
					"type": "function"
				},
				{
					"inputs": [],
					"name": "withDraw",
					"outputs": [],
					"stateMutability": "payable",
					"type": "function"
				}
			],
			"devdoc": {
				"kind": "dev",
				"methods": {},
				"version": 1
			},
			"evm": {
				"assembly": "    /* \"crowdfunding.sol\":57:3271  contract crowdfunding {... */\n  mstore(0x40, 0xe0)\n    /* \"crowdfunding.sol\":540:845  constructor(uint256 _goalAmount, uint256 _durationInDays){... */\n  callvalue\n  dup1\n  iszero\n  tag_1\n  jumpi\n  revert(0x00, 0x00)\ntag_1:\n  pop\n  mload(0x40)\n  sub(codesize, bytecodeSize)\n  dup1\n  bytecodeSize\n  dup4\n  codecopy\n  dup2\n  dup2\n  add\n  0x40\n  mstore\n  dup2\n  add\n  swap1\n  tag_2\n  swap2\n  swap1\n  tag_3\n  jump\t// in\ntag_2:\n    /* \"crowdfunding.sol\":615:625  msg.sender */\n  caller\n    /* \"crowdfunding.sol\":607:625  owner = msg.sender */\n  0xffffffffffffffffffffffffffffffffffffffff\n  and\n  0x80\n  dup2\n  0xffffffffffffffffffffffffffffffffffffffff\n  and\n  dup2\n  mstore\n  pop\n  pop\n    /* \"crowdfunding.sol\":648:659  _goalAmount */\n  dup2\n    /* \"crowdfunding.sol\":635:659  goalAmount = _goalAmount */\n  0xa0\n  dup2\n  dup2\n  mstore\n  pop\n  pop\n    /* \"crowdfunding.sol\":718:724  1 days */\n  0x015180\n    /* \"crowdfunding.sol\":700:715  _durationInDays */\n  dup2\n    /* \"crowdfunding.sol\":700:724  _durationInDays * 1 days */\n  tag_6\n  swap2\n  swap1\n  tag_7\n  jump\t// in\ntag_6:\n    /* \"crowdfunding.sol\":681:696  block.timestamp */\n  timestamp\n    /* \"crowdfunding.sol\":681:725  block.timestamp + (_durationInDays * 1 days) */\n  tag_8\n  swap2\n  swap1\n  tag_9\n  jump\t// in\ntag_8:\n    /* \"crowdfunding.sol\":670:725  deadline = block.timestamp + (_durationInDays * 1 days) */\n  0xc0\n  dup2\n  dup2\n  mstore\n  pop\n  pop\n    /* \"crowdfunding.sol\":821:838  State.Fundraising */\n  0x00\n    /* \"crowdfunding.sol\":806:818  currentState */\n  0x00\n  0x00\n    /* \"crowdfunding.sol\":806:838  currentState = State.Fundraising */\n  0x0100\n  exp\n  dup2\n  sload\n  dup2\n  0xff\n  mul\n  not\n  and\n  swap1\n  dup4\n  0x03\n  dup2\n  gt\n  iszero\n  tag_10\n  jumpi\n  tag_11\n  tag_12\n  jump\t// in\ntag_11:\ntag_10:\n  mul\n  or\n  swap1\n  sstore\n  pop\n    /* \"crowdfunding.sol\":540:845  constructor(uint256 _goalAmount, uint256 _durationInDays){... */\n  pop\n  pop\n    /* \"crowdfunding.sol\":57:3271  contract crowdfunding {... */\n  jump(tag_13)\n    /* \"#utility.yul\":88:205   */\ntag_15:\n    /* \"#utility.yul\":197:198   */\n  0x00\n    /* \"#utility.yul\":194:195   */\n  0x00\n    /* \"#utility.yul\":187:199   */\n  revert\n    /* \"#utility.yul\":334:411   */\ntag_17:\n    /* \"#utility.yul\":371:378   */\n  0x00\n    /* \"#utility.yul\":400:405   */\n  dup2\n    /* \"#utility.yul\":389:405   */\n  swap1\n  pop\n    /* \"#utility.yul\":334:411   */\n  swap2\n  swap1\n  pop\n  jump\t// out\n    /* \"#utility.yul\":417:539   */\ntag_18:\n    /* \"#utility.yul\":490:514   */\n  tag_27\n    /* \"#utility.yul\":508:513   */\n  dup2\n    /* \"#utility.yul\":490:514   */\n  tag_17\n  jump\t// in\ntag_27:\n    /* \"#utility.yul\":483:488   */\n  dup2\n    /* \"#utility.yul\":480:515   */\n  eq\n    /* \"#utility.yul\":470:533   */\n  tag_28\n  jumpi\n    /* \"#utility.yul\":529:530   */\n  0x00\n    /* \"#utility.yul\":526:527   */\n  0x00\n    /* \"#utility.yul\":519:531   */\n  revert\n    /* \"#utility.yul\":470:533   */\ntag_28:\n    /* \"#utility.yul\":417:539   */\n  pop\n  jump\t// out\n    /* \"#utility.yul\":545:688   */\ntag_19:\n    /* \"#utility.yul\":602:607   */\n  0x00\n    /* \"#utility.yul\":633:639   */\n  dup2\n    /* \"#utility.yul\":627:640   */\n  mload\n    /* \"#utility.yul\":618:640   */\n  swap1\n  pop\n    /* \"#utility.yul\":649:682   */\n  tag_30\n    /* \"#utility.yul\":676:681   */\n  dup2\n    /* \"#utility.yul\":649:682   */\n  tag_18\n  jump\t// in\ntag_30:\n    /* \"#utility.yul\":545:688   */\n  swap3\n  swap2\n  pop\n  pop\n  jump\t// out\n    /* \"#utility.yul\":694:1201   */\ntag_3:\n    /* \"#utility.yul\":773:779   */\n  0x00\n    /* \"#utility.yul\":781:787   */\n  0x00\n    /* \"#utility.yul\":830:832   */\n  0x40\n    /* \"#utility.yul\":818:827   */\n  dup4\n    /* \"#utility.yul\":809:816   */\n  dup6\n    /* \"#utility.yul\":805:828   */\n  sub\n    /* \"#utility.yul\":801:833   */\n  slt\n    /* \"#utility.yul\":798:917   */\n  iszero\n  tag_32\n  jumpi\n    /* \"#utility.yul\":836:915   */\n  tag_33\n  tag_15\n  jump\t// in\ntag_33:\n    /* \"#utility.yul\":798:917   */\ntag_32:\n    /* \"#utility.yul\":956:957   */\n  0x00\n    /* \"#utility.yul\":981:1045   */\n  tag_34\n    /* \"#utility.yul\":1037:1044   */\n  dup6\n    /* \"#utility.yul\":1028:1034   */\n  dup3\n    /* \"#utility.yul\":1017:1026   */\n  dup7\n    /* \"#utility.yul\":1013:1035   */\n  add\n    /* \"#utility.yul\":981:1045   */\n  tag_19\n  jump\t// in\ntag_34:\n    /* \"#utility.yul\":971:1045   */\n  swap3\n  pop\n    /* \"#utility.yul\":927:1055   */\n  pop\n    /* \"#utility.yul\":1094:1096   */\n  0x20\n    /* \"#utility.yul\":1120:1184   */\n  tag_35\n    /* \"#utility.yul\":1176:1183   */\n  dup6\n    /* \"#utility.yul\":1167:1173   */\n  dup3\n    /* \"#utility.yul\":1156:1165   */\n  dup7\n    /* \"#utility.yul\":1152:1174   */\n  add\n    /* \"#utility.yul\":1120:1184   */\n  tag_19\n  jump\t// in\ntag_35:\n    /* \"#utility.yul\":1110:1184   */\n  swap2\n  pop\n    /* \"#utility.yul\":1065:1194   */\n  pop\n    /* \"#utility.yul\":694:1201   */\n  swap3\n  pop\n  swap3\n  swap1\n  pop\n  jump\t// out\n    /* \"#utility.yul\":1207:1387   */\ntag_20:\n    /* \"#utility.yul\":1255:1332   */\n  0x4e487b7100000000000000000000000000000000000000000000000000000000\n    /* \"#utility.yul\":1252:1253   */\n  0x00\n    /* \"#utility.yul\":1245:1333   */\n  mstore\n    /* \"#utility.yul\":1352:1356   */\n  0x11\n    /* \"#utility.yul\":1349:1350   */\n  0x04\n    /* \"#utility.yul\":1342:1357   */\n  mstore\n    /* \"#utility.yul\":1376:1380   */\n  0x24\n    /* \"#utility.yul\":1373:1374   */\n  0x00\n    /* \"#utility.yul\":1366:1381   */\n  revert\n    /* \"#utility.yul\":1393:1803   */\ntag_7:\n    /* \"#utility.yul\":1433:1440   */\n  0x00\n    /* \"#utility.yul\":1456:1476   */\n  tag_38\n    /* \"#utility.yul\":1474:1475   */\n  dup3\n    /* \"#utility.yul\":1456:1476   */\n  tag_17\n  jump\t// in\ntag_38:\n    /* \"#utility.yul\":1451:1476   */\n  swap2\n  pop\n    /* \"#utility.yul\":1490:1510   */\n  tag_39\n    /* \"#utility.yul\":1508:1509   */\n  dup4\n    /* \"#utility.yul\":1490:1510   */\n  tag_17\n  jump\t// in\ntag_39:\n    /* \"#utility.yul\":1485:1510   */\n  swap3\n  pop\n    /* \"#utility.yul\":1545:1546   */\n  dup3\n    /* \"#utility.yul\":1542:1543   */\n  dup3\n    /* \"#utility.yul\":1538:1547   */\n  mul\n    /* \"#utility.yul\":1567:1597   */\n  tag_40\n    /* \"#utility.yul\":1585:1596   */\n  dup2\n    /* \"#utility.yul\":1567:1597   */\n  tag_17\n  jump\t// in\ntag_40:\n    /* \"#utility.yul\":1556:1597   */\n  swap2\n  pop\n    /* \"#utility.yul\":1746:1747   */\n  dup3\n    /* \"#utility.yul\":1737:1744   */\n  dup3\n    /* \"#utility.yul\":1733:1748   */\n  div\n    /* \"#utility.yul\":1730:1731   */\n  dup5\n    /* \"#utility.yul\":1727:1749   */\n  eq\n    /* \"#utility.yul\":1707:1708   */\n  dup4\n    /* \"#utility.yul\":1700:1709   */\n  iszero\n    /* \"#utility.yul\":1680:1763   */\n  or\n    /* \"#utility.yul\":1657:1796   */\n  tag_41\n  jumpi\n    /* \"#utility.yul\":1776:1794   */\n  tag_42\n  tag_20\n  jump\t// in\ntag_42:\n    /* \"#utility.yul\":1657:1796   */\ntag_41:\n    /* \"#utility.yul\":1441:1803   */\n  pop\n    /* \"#utility.yul\":1393:1803   */\n  swap3\n  swap2\n  pop\n  pop\n  jump\t// out\n    /* \"#utility.yul\":1809:2000   */\ntag_9:\n    /* \"#utility.yul\":1849:1852   */\n  0x00\n    /* \"#utility.yul\":1868:1888   */\n  tag_44\n    /* \"#utility.yul\":1886:1887   */\n  dup3\n    /* \"#utility.yul\":1868:1888   */\n  tag_17\n  jump\t// in\ntag_44:\n    /* \"#utility.yul\":1863:1888   */\n  swap2\n  pop\n    /* \"#utility.yul\":1902:1922   */\n  tag_45\n    /* \"#utility.yul\":1920:1921   */\n  dup4\n    /* \"#utility.yul\":1902:1922   */\n  tag_17\n  jump\t// in\ntag_45:\n    /* \"#utility.yul\":1897:1922   */\n  swap3\n  pop\n    /* \"#utility.yul\":1945:1946   */\n  dup3\n    /* \"#utility.yul\":1942:1943   */\n  dup3\n    /* \"#utility.yul\":1938:1947   */\n  add\n    /* \"#utility.yul\":1931:1947   */\n  swap1\n  pop\n    /* \"#utility.yul\":1966:1969   */\n  dup1\n    /* \"#utility.yul\":1963:1964   */\n  dup3\n    /* \"#utility.yul\":1960:1970   */\n  gt\n    /* \"#utility.yul\":1957:1993   */\n  iszero\n  tag_46\n  jumpi\n    /* \"#utility.yul\":1973:1991   */\n  tag_47\n  tag_20\n  jump\t// in\ntag_47:\n    /* \"#utility.yul\":1957:1993   */\ntag_46:\n    /* \"#utility.yul\":1809:2000   */\n  swap3\n  swap2\n  pop\n  pop\n  jump\t// out\n    /* \"#utility.yul\":2006:2186   */\ntag_12:\n    /* \"#utility.yul\":2054:2131   */\n  0x4e487b7100000000000000000000000000000000000000000000000000000000\n    /* \"#utility.yul\":2051:2052   */\n  0x00\n    /* \"#utility.yul\":2044:2132   */\n  mstore\n    /* \"#utility.yul\":2151:2155   */\n  0x21\n    /* \"#utility.yul\":2148:2149   */\n  0x04\n    /* \"#utility.yul\":2141:2156   */\n  mstore\n    /* \"#utility.yul\":2175:2179   */\n  0x24\n    /* \"#utility.yul\":2172:2173   */\n  0x00\n    /* \"#utility.yul\":2165:2180   */\n  revert\n    /* \"crowdfunding.sol\":57:3271  contract crowdfunding {... */\ntag_13:\n  mload(0x80)\n  mload(0xa0)\n  mload(0xc0)\n  codecopy(0x00, dataOffset(sub_0), dataSize(sub_0))\n  0x00\n  assignImmutable(\"0x7f8b6b088b6d74c2852fc86c796dca07b44eed6fb3daf5e6b59f7c364db14528\")\n  0x00\n  assignImmutable(\"0x1a192fabce13988b84994d4296e6cdc418d55e2f1d7f942188d4040b94fc57ac\")\n  0x00\n  assignImmutable(\"0xe4b1702d9298fee62dfeccc57d322a463ad55ca201256d01f62b45b2e1c21c10\")\n  return(0x00, dataSize(sub_0))\nstop\n\nsub_0: assembly {\n        /* \"crowdfunding.sol\":57:3271  contract crowdfunding {... */\n      mstore(0x40, 0x80)\n      jumpi(tag_1, lt(calldatasize, 0x04))\n      shr(0xe0, calldataload(0x00))\n      dup1\n      0x29dcb0cf\n      gt\n      tag_13\n      jumpi\n      dup1\n      0x29dcb0cf\n      eq\n      tag_7\n      jumpi\n      dup1\n      0x40650c91\n      eq\n      tag_8\n      jumpi\n      dup1\n      0x42e94c90\n      eq\n      tag_9\n      jumpi\n      dup1\n      0x590e1ae3\n      eq\n      tag_10\n      jumpi\n      dup1\n      0x8da5cb5b\n      eq\n      tag_11\n      jumpi\n      dup1\n      0xd7bb99ba\n      eq\n      tag_12\n      jumpi\n      jump(tag_1)\n    tag_13:\n      dup1\n      0x086231bb\n      eq\n      tag_2\n      jumpi\n      dup1\n      0x0c3f6acf\n      eq\n      tag_3\n      jumpi\n      dup1\n      0x0fdb1c10\n      eq\n      tag_4\n      jumpi\n      dup1\n      0x1865c57d\n      eq\n      tag_5\n      jumpi\n      dup1\n      0x2636b945\n      eq\n      tag_6\n      jumpi\n    tag_1:\n      revert(0x00, 0x00)\n        /* \"crowdfunding.sol\":500:533  uint256 public currentRaiseAmount */\n    tag_2:\n      callvalue\n      dup1\n      iszero\n      tag_14\n      jumpi\n      revert(0x00, 0x00)\n    tag_14:\n      pop\n      tag_15\n      tag_16\n      jump\t// in\n    tag_15:\n      mload(0x40)\n      tag_17\n      swap2\n      swap1\n      tag_18\n      jump\t// in\n    tag_17:\n      mload(0x40)\n      dup1\n      swap2\n      sub\n      swap1\n      return\n        /* \"crowdfunding.sol\":415:440  State public currentState */\n    tag_3:\n      callvalue\n      dup1\n      iszero\n      tag_19\n      jumpi\n      revert(0x00, 0x00)\n    tag_19:\n      pop\n      tag_20\n      tag_21\n      jump\t// in\n    tag_20:\n      mload(0x40)\n      tag_22\n      swap2\n      swap1\n      tag_23\n      jump\t// in\n    tag_22:\n      mload(0x40)\n      dup1\n      swap2\n      sub\n      swap1\n      return\n        /* \"crowdfunding.sol\":2110:2490  function withDraw() public payable _ownerChecker stateChecker(State.Successed) {... */\n    tag_4:\n      tag_24\n      tag_25\n      jump\t// in\n    tag_24:\n      stop\n        /* \"crowdfunding.sol\":2940:3269  function getState() public view returns(State){... */\n    tag_5:\n      callvalue\n      dup1\n      iszero\n      tag_26\n      jumpi\n      revert(0x00, 0x00)\n    tag_26:\n      pop\n      tag_27\n      tag_28\n      jump\t// in\n    tag_27:\n      mload(0x40)\n      tag_29\n      swap2\n      swap1\n      tag_23\n      jump\t// in\n    tag_29:\n      mload(0x40)\n      dup1\n      swap2\n      sub\n      swap1\n      return\n        /* \"crowdfunding.sol\":276:311  uint256 public immutable goalAmount */\n    tag_6:\n      callvalue\n      dup1\n      iszero\n      tag_30\n      jumpi\n      revert(0x00, 0x00)\n    tag_30:\n      pop\n      tag_31\n      tag_32\n      jump\t// in\n    tag_31:\n      mload(0x40)\n      tag_33\n      swap2\n      swap1\n      tag_18\n      jump\t// in\n    tag_33:\n      mload(0x40)\n      dup1\n      swap2\n      sub\n      swap1\n      return\n        /* \"crowdfunding.sol\":317:350  uint256 public immutable deadline */\n    tag_7:\n      callvalue\n      dup1\n      iszero\n      tag_34\n      jumpi\n      revert(0x00, 0x00)\n    tag_34:\n      pop\n      tag_35\n      tag_36\n      jump\t// in\n    tag_35:\n      mload(0x40)\n      tag_37\n      swap2\n      swap1\n      tag_18\n      jump\t// in\n    tag_37:\n      mload(0x40)\n      dup1\n      swap2\n      sub\n      swap1\n      return\n        /* \"crowdfunding.sol\":356:408  uint256 public constant MIN_CONTRIBUTION = 0.1 ether */\n    tag_8:\n      callvalue\n      dup1\n      iszero\n      tag_38\n      jumpi\n      revert(0x00, 0x00)\n    tag_38:\n      pop\n      tag_39\n      tag_40\n      jump\t// in\n    tag_39:\n      mload(0x40)\n      tag_41\n      swap2\n      swap1\n      tag_18\n      jump\t// in\n    tag_41:\n      mload(0x40)\n      dup1\n      swap2\n      sub\n      swap1\n      return\n        /* \"crowdfunding.sol\":446:494  mapping(address => uint256) public contributions */\n    tag_9:\n      callvalue\n      dup1\n      iszero\n      tag_42\n      jumpi\n      revert(0x00, 0x00)\n    tag_42:\n      pop\n      tag_43\n      0x04\n      dup1\n      calldatasize\n      sub\n      dup2\n      add\n      swap1\n      tag_44\n      swap2\n      swap1\n      tag_45\n      jump\t// in\n    tag_44:\n      tag_46\n      jump\t// in\n    tag_43:\n      mload(0x40)\n      tag_47\n      swap2\n      swap1\n      tag_18\n      jump\t// in\n    tag_47:\n      mload(0x40)\n      dup1\n      swap2\n      sub\n      swap1\n      return\n        /* \"crowdfunding.sol\":2496:2934  function refund() public payable  stateChecker(State.Failed) {... */\n    tag_10:\n      tag_48\n      tag_49\n      jump\t// in\n    tag_48:\n      stop\n        /* \"crowdfunding.sol\":240:270  address public immutable owner */\n    tag_11:\n      callvalue\n      dup1\n      iszero\n      tag_50\n      jumpi\n      revert(0x00, 0x00)\n    tag_50:\n      pop\n      tag_51\n      tag_52\n      jump\t// in\n    tag_51:\n      mload(0x40)\n      tag_53\n      swap2\n      swap1\n      tag_54\n      jump\t// in\n    tag_53:\n      mload(0x40)\n      dup1\n      swap2\n      sub\n      swap1\n      return\n        /* \"crowdfunding.sol\":1541:2104  function contribute() public payable stateChecker(State.Fundraising) {... */\n    tag_12:\n      tag_55\n      tag_56\n      jump\t// in\n    tag_55:\n      stop\n        /* \"crowdfunding.sol\":500:533  uint256 public currentRaiseAmount */\n    tag_16:\n      sload(0x02)\n      dup2\n      jump\t// out\n        /* \"crowdfunding.sol\":415:440  State public currentState */\n    tag_21:\n      0x00\n      0x00\n      swap1\n      sload\n      swap1\n      0x0100\n      exp\n      swap1\n      div\n      0xff\n      and\n      dup2\n      jump\t// out\n        /* \"crowdfunding.sol\":2110:2490  function withDraw() public payable _ownerChecker stateChecker(State.Successed) {... */\n    tag_25:\n        /* \"crowdfunding.sol\":906:911  owner */\n      immutable(\"0xe4b1702d9298fee62dfeccc57d322a463ad55ca201256d01f62b45b2e1c21c10\")\n        /* \"crowdfunding.sol\":892:911  msg.sender == owner */\n      0xffffffffffffffffffffffffffffffffffffffff\n      and\n        /* \"crowdfunding.sol\":892:902  msg.sender */\n      caller\n        /* \"crowdfunding.sol\":892:911  msg.sender == owner */\n      0xffffffffffffffffffffffffffffffffffffffff\n      and\n      eq\n        /* \"crowdfunding.sol\":884:949  require(msg.sender == owner, \"only owner can call this function\") */\n      tag_58\n      jumpi\n      mload(0x40)\n      0x08c379a000000000000000000000000000000000000000000000000000000000\n      dup2\n      mstore\n      0x04\n      add\n      tag_59\n      swap1\n      tag_60\n      jump\t// in\n    tag_59:\n      mload(0x40)\n      dup1\n      swap2\n      sub\n      swap1\n      revert\n    tag_58:\n        /* \"crowdfunding.sol\":2172:2187  State.Successed */\n      0x01\n        /* \"crowdfunding.sol\":1032:1047  block.timestamp */\n      timestamp\n        /* \"crowdfunding.sol\":1021:1029  deadline */\n      immutable(\"0x7f8b6b088b6d74c2852fc86c796dca07b44eed6fb3daf5e6b59f7c364db14528\")\n        /* \"crowdfunding.sol\":1021:1047  deadline < block.timestamp */\n      lt\n        /* \"crowdfunding.sol\":1021:1084  deadline < block.timestamp && currentState == State.Fundraising */\n      dup1\n      iszero\n      tag_62\n      jumpi\n      pop\n        /* \"crowdfunding.sol\":1067:1084  State.Fundraising */\n      0x00\n        /* \"crowdfunding.sol\":1051:1084  currentState == State.Fundraising */\n      0x03\n      dup2\n      gt\n      iszero\n      tag_63\n      jumpi\n      tag_64\n      tag_65\n      jump\t// in\n    tag_64:\n    tag_63:\n        /* \"crowdfunding.sol\":1051:1063  currentState */\n      0x00\n      0x00\n      swap1\n      sload\n      swap1\n      0x0100\n      exp\n      swap1\n      div\n      0xff\n      and\n        /* \"crowdfunding.sol\":1051:1084  currentState == State.Fundraising */\n      0x03\n      dup2\n      gt\n      iszero\n      tag_66\n      jumpi\n      tag_67\n      tag_65\n      jump\t// in\n    tag_67:\n    tag_66:\n      eq\n        /* \"crowdfunding.sol\":1021:1084  deadline < block.timestamp && currentState == State.Fundraising */\n    tag_62:\n        /* \"crowdfunding.sol\":1021:1119  deadline < block.timestamp && currentState == State.Fundraising && currentRaiseAmount < goalAmount */\n      dup1\n      iszero\n      tag_68\n      jumpi\n      pop\n        /* \"crowdfunding.sol\":1109:1119  goalAmount */\n      immutable(\"0x1a192fabce13988b84994d4296e6cdc418d55e2f1d7f942188d4040b94fc57ac\")\n        /* \"crowdfunding.sol\":1088:1106  currentRaiseAmount */\n      sload(0x02)\n        /* \"crowdfunding.sol\":1088:1119  currentRaiseAmount < goalAmount */\n      lt\n        /* \"crowdfunding.sol\":1021:1119  deadline < block.timestamp && currentState == State.Fundraising && currentRaiseAmount < goalAmount */\n    tag_68:\n        /* \"crowdfunding.sol\":1018:1172  if(deadline < block.timestamp && currentState == State.Fundraising && currentRaiseAmount < goalAmount){... */\n      iszero\n      tag_69\n      jumpi\n        /* \"crowdfunding.sol\":1149:1161  State.Failed */\n      0x02\n        /* \"crowdfunding.sol\":1134:1146  currentState */\n      0x00\n      0x00\n        /* \"crowdfunding.sol\":1134:1161  currentState = State.Failed */\n      0x0100\n      exp\n      dup2\n      sload\n      dup2\n      0xff\n      mul\n      not\n      and\n      swap1\n      dup4\n      0x03\n      dup2\n      gt\n      iszero\n      tag_70\n      jumpi\n      tag_71\n      tag_65\n      jump\t// in\n    tag_71:\n    tag_70:\n      mul\n      or\n      swap1\n      sstore\n      pop\n        /* \"crowdfunding.sol\":1018:1172  if(deadline < block.timestamp && currentState == State.Fundraising && currentRaiseAmount < goalAmount){... */\n    tag_69:\n        /* \"crowdfunding.sol\":1199:1211  currentState */\n      0x00\n      0x00\n      swap1\n      sload\n      swap1\n      0x0100\n      exp\n      swap1\n      div\n      0xff\n      and\n        /* \"crowdfunding.sol\":1189:1211  _state == currentState */\n      0x03\n      dup2\n      gt\n      iszero\n      tag_72\n      jumpi\n      tag_73\n      tag_65\n      jump\t// in\n    tag_73:\n    tag_72:\n        /* \"crowdfunding.sol\":1189:1195  _state */\n      dup2\n        /* \"crowdfunding.sol\":1189:1211  _state == currentState */\n      0x03\n      dup2\n      gt\n      iszero\n      tag_74\n      jumpi\n      tag_75\n      tag_65\n      jump\t// in\n    tag_75:\n    tag_74:\n      eq\n        /* \"crowdfunding.sol\":1181:1248  require(_state == currentState, \"invalid state for this operation\") */\n      tag_76\n      jumpi\n      mload(0x40)\n      0x08c379a000000000000000000000000000000000000000000000000000000000\n      dup2\n      mstore\n      0x04\n      add\n      tag_77\n      swap1\n      tag_78\n      jump\t// in\n    tag_77:\n      mload(0x40)\n      dup1\n      swap2\n      sub\n      swap1\n      revert\n    tag_76:\n        /* \"crowdfunding.sol\":2215:2229  State.Withdraw */\n      0x03\n        /* \"crowdfunding.sol\":2200:2212  currentState */\n      0x00\n      0x00\n        /* \"crowdfunding.sol\":2200:2229  currentState = State.Withdraw */\n      0x0100\n      exp\n      dup2\n      sload\n      dup2\n      0xff\n      mul\n      not\n      and\n      swap1\n      dup4\n      0x03\n      dup2\n      gt\n      iszero\n      tag_80\n      jumpi\n      tag_81\n      tag_65\n      jump\t// in\n    tag_81:\n    tag_80:\n      mul\n      or\n      swap1\n      sstore\n      pop\n        /* \"crowdfunding.sol\":2244:2269  StateChange(currentState) */\n      0xa4248ceb280c6f9303d3ba87af96d45c3b0c834338095ab6350dbe86d38c9fc5\n        /* \"crowdfunding.sol\":2256:2268  currentState */\n      0x00\n      0x00\n      swap1\n      sload\n      swap1\n      0x0100\n      exp\n      swap1\n      div\n      0xff\n      and\n        /* \"crowdfunding.sol\":2244:2269  StateChange(currentState) */\n      mload(0x40)\n      tag_82\n      swap2\n      swap1\n      tag_23\n      jump\t// in\n    tag_82:\n      mload(0x40)\n      dup1\n      swap2\n      sub\n      swap1\n      log1\n        /* \"crowdfunding.sol\":2280:2294  uint256 amount */\n      0x00\n        /* \"crowdfunding.sol\":2297:2315  currentRaiseAmount */\n      sload(0x02)\n        /* \"crowdfunding.sol\":2280:2315  uint256 amount = currentRaiseAmount */\n      swap1\n      pop\n        /* \"crowdfunding.sol\":2326:2338  bool success */\n      0x00\n        /* \"crowdfunding.sol\":2351:2356  owner */\n      immutable(\"0xe4b1702d9298fee62dfeccc57d322a463ad55ca201256d01f62b45b2e1c21c10\")\n        /* \"crowdfunding.sol\":2343:2362  payable(owner).call */\n      0xffffffffffffffffffffffffffffffffffffffff\n      and\n        /* \"crowdfunding.sol\":2369:2375  amount */\n      dup3\n        /* \"crowdfunding.sol\":2343:2380  payable(owner).call{value:amount}(\"\") */\n      mload(0x40)\n      tag_83\n      swap1\n      tag_84\n      jump\t// in\n    tag_83:\n      0x00\n      mload(0x40)\n      dup1\n      dup4\n      sub\n      dup2\n      dup6\n      dup8\n      gas\n      call\n      swap3\n      pop\n      pop\n      pop\n      returndatasize\n      dup1\n      0x00\n      dup2\n      eq\n      tag_87\n      jumpi\n      mload(0x40)\n      swap2\n      pop\n      and(add(returndatasize, 0x3f), not(0x1f))\n      dup3\n      add\n      0x40\n      mstore\n      returndatasize\n      dup3\n      mstore\n      returndatasize\n      0x00\n      0x20\n      dup5\n      add\n      returndatacopy\n      jump(tag_86)\n    tag_87:\n      0x60\n      swap2\n      pop\n    tag_86:\n      pop\n        /* \"crowdfunding.sol\":2325:2380  (bool success,) = payable(owner).call{value:amount}(\"\") */\n      pop\n      swap1\n      pop\n        /* \"crowdfunding.sol\":2398:2405  success */\n      dup1\n        /* \"crowdfunding.sol\":2390:2425  require(success, \"withdraw failed\") */\n      tag_88\n      jumpi\n      mload(0x40)\n      0x08c379a000000000000000000000000000000000000000000000000000000000\n      dup2\n      mstore\n      0x04\n      add\n      tag_89\n      swap1\n      tag_90\n      jump\t// in\n    tag_89:\n      mload(0x40)\n      dup1\n      swap2\n      sub\n      swap1\n      revert\n    tag_88:\n        /* \"crowdfunding.sol\":2440:2483  FundsWithDraw(amount,owner,block.timestamp) */\n      0x54ffefddad2dcf5ad1c375dcc85616b8b2dc792824935fda9827591cc0be9032\n        /* \"crowdfunding.sol\":2454:2460  amount */\n      dup3\n        /* \"crowdfunding.sol\":2461:2466  owner */\n      immutable(\"0xe4b1702d9298fee62dfeccc57d322a463ad55ca201256d01f62b45b2e1c21c10\")\n        /* \"crowdfunding.sol\":2467:2482  block.timestamp */\n      timestamp\n        /* \"crowdfunding.sol\":2440:2483  FundsWithDraw(amount,owner,block.timestamp) */\n      mload(0x40)\n      tag_91\n      swap4\n      swap3\n      swap2\n      swap1\n      tag_92\n      jump\t// in\n    tag_91:\n      mload(0x40)\n      dup1\n      swap2\n      sub\n      swap1\n      log1\n        /* \"crowdfunding.sol\":2189:2490  {... */\n      pop\n      pop\n        /* \"crowdfunding.sol\":959:960  _ */\n      pop\n        /* \"crowdfunding.sol\":2110:2490  function withDraw() public payable _ownerChecker stateChecker(State.Successed) {... */\n      jump\t// out\n        /* \"crowdfunding.sol\":2940:3269  function getState() public view returns(State){... */\n    tag_28:\n        /* \"crowdfunding.sol\":2980:2985  State */\n      0x00\n        /* \"crowdfunding.sol\":3015:3032  State.Fundraising */\n      0x00\n        /* \"crowdfunding.sol\":2999:3032  currentState == State.Fundraising */\n      0x03\n      dup2\n      gt\n      iszero\n      tag_94\n      jumpi\n      tag_95\n      tag_65\n      jump\t// in\n    tag_95:\n    tag_94:\n        /* \"crowdfunding.sol\":2999:3011  currentState */\n      0x00\n      0x00\n      swap1\n      sload\n      swap1\n      0x0100\n      exp\n      swap1\n      div\n      0xff\n      and\n        /* \"crowdfunding.sol\":2999:3032  currentState == State.Fundraising */\n      0x03\n      dup2\n      gt\n      iszero\n      tag_96\n      jumpi\n      tag_97\n      tag_65\n      jump\t// in\n    tag_97:\n    tag_96:\n      eq\n        /* \"crowdfunding.sol\":2999:3062  currentState == State.Fundraising && deadline < block.timestamp */\n      dup1\n      iszero\n      tag_98\n      jumpi\n      pop\n        /* \"crowdfunding.sol\":3047:3062  block.timestamp */\n      timestamp\n        /* \"crowdfunding.sol\":3036:3044  deadline */\n      immutable(\"0x7f8b6b088b6d74c2852fc86c796dca07b44eed6fb3daf5e6b59f7c364db14528\")\n        /* \"crowdfunding.sol\":3036:3062  deadline < block.timestamp */\n      lt\n        /* \"crowdfunding.sol\":2999:3062  currentState == State.Fundraising && deadline < block.timestamp */\n    tag_98:\n        /* \"crowdfunding.sol\":2996:3234  if(currentState == State.Fundraising && deadline < block.timestamp){... */\n      iszero\n      tag_99\n      jumpi\n        /* \"crowdfunding.sol\":3102:3112  goalAmount */\n      immutable(\"0x1a192fabce13988b84994d4296e6cdc418d55e2f1d7f942188d4040b94fc57ac\")\n        /* \"crowdfunding.sol\":3080:3098  currentRaiseAmount */\n      sload(0x02)\n        /* \"crowdfunding.sol\":3080:3112  currentRaiseAmount >= goalAmount */\n      lt\n        /* \"crowdfunding.sol\":3077:3224  if(currentRaiseAmount >= goalAmount){... */\n      tag_100\n      jumpi\n        /* \"crowdfunding.sol\":3138:3153  State.Successed */\n      0x01\n        /* \"crowdfunding.sol\":3131:3153  return State.Successed */\n      swap1\n      pop\n      jump(tag_93)\n        /* \"crowdfunding.sol\":3077:3224  if(currentRaiseAmount >= goalAmount){... */\n    tag_100:\n        /* \"crowdfunding.sol\":3197:3209  State.Failed */\n      0x02\n        /* \"crowdfunding.sol\":3190:3209  return State.Failed */\n      swap1\n      pop\n      jump(tag_93)\n        /* \"crowdfunding.sol\":2996:3234  if(currentState == State.Fundraising && deadline < block.timestamp){... */\n    tag_99:\n        /* \"crowdfunding.sol\":3250:3262  currentState */\n      0x00\n      0x00\n      swap1\n      sload\n      swap1\n      0x0100\n      exp\n      swap1\n      div\n      0xff\n      and\n        /* \"crowdfunding.sol\":3243:3262  return currentState */\n      swap1\n      pop\n        /* \"crowdfunding.sol\":2940:3269  function getState() public view returns(State){... */\n    tag_93:\n      swap1\n      jump\t// out\n        /* \"crowdfunding.sol\":276:311  uint256 public immutable goalAmount */\n    tag_32:\n      immutable(\"0x1a192fabce13988b84994d4296e6cdc418d55e2f1d7f942188d4040b94fc57ac\")\n      dup2\n      jump\t// out\n        /* \"crowdfunding.sol\":317:350  uint256 public immutable deadline */\n    tag_36:\n      immutable(\"0x7f8b6b088b6d74c2852fc86c796dca07b44eed6fb3daf5e6b59f7c364db14528\")\n      dup2\n      jump\t// out\n        /* \"crowdfunding.sol\":356:408  uint256 public constant MIN_CONTRIBUTION = 0.1 ether */\n    tag_40:\n        /* \"crowdfunding.sol\":399:408  0.1 ether */\n      0x016345785d8a0000\n        /* \"crowdfunding.sol\":356:408  uint256 public constant MIN_CONTRIBUTION = 0.1 ether */\n      dup2\n      jump\t// out\n        /* \"crowdfunding.sol\":446:494  mapping(address => uint256) public contributions */\n    tag_46:\n      mstore(0x20, 0x01)\n      dup1\n      0x00\n      mstore\n      keccak256(0x00, 0x40)\n      0x00\n      swap2\n      pop\n      swap1\n      pop\n      sload\n      dup2\n      jump\t// out\n        /* \"crowdfunding.sol\":2496:2934  function refund() public payable  stateChecker(State.Failed) {... */\n    tag_49:\n        /* \"crowdfunding.sol\":2543:2555  State.Failed */\n      0x02\n        /* \"crowdfunding.sol\":1032:1047  block.timestamp */\n      timestamp\n        /* \"crowdfunding.sol\":1021:1029  deadline */\n      immutable(\"0x7f8b6b088b6d74c2852fc86c796dca07b44eed6fb3daf5e6b59f7c364db14528\")\n        /* \"crowdfunding.sol\":1021:1047  deadline < block.timestamp */\n      lt\n        /* \"crowdfunding.sol\":1021:1084  deadline < block.timestamp && currentState == State.Fundraising */\n      dup1\n      iszero\n      tag_103\n      jumpi\n      pop\n        /* \"crowdfunding.sol\":1067:1084  State.Fundraising */\n      0x00\n        /* \"crowdfunding.sol\":1051:1084  currentState == State.Fundraising */\n      0x03\n      dup2\n      gt\n      iszero\n      tag_104\n      jumpi\n      tag_105\n      tag_65\n      jump\t// in\n    tag_105:\n    tag_104:\n        /* \"crowdfunding.sol\":1051:1063  currentState */\n      0x00\n      0x00\n      swap1\n      sload\n      swap1\n      0x0100\n      exp\n      swap1\n      div\n      0xff\n      and\n        /* \"crowdfunding.sol\":1051:1084  currentState == State.Fundraising */\n      0x03\n      dup2\n      gt\n      iszero\n      tag_106\n      jumpi\n      tag_107\n      tag_65\n      jump\t// in\n    tag_107:\n    tag_106:\n      eq\n        /* \"crowdfunding.sol\":1021:1084  deadline < block.timestamp && currentState == State.Fundraising */\n    tag_103:\n        /* \"crowdfunding.sol\":1021:1119  deadline < block.timestamp && currentState == State.Fundraising && currentRaiseAmount < goalAmount */\n      dup1\n      iszero\n      tag_108\n      jumpi\n      pop\n        /* \"crowdfunding.sol\":1109:1119  goalAmount */\n      immutable(\"0x1a192fabce13988b84994d4296e6cdc418d55e2f1d7f942188d4040b94fc57ac\")\n        /* \"crowdfunding.sol\":1088:1106  currentRaiseAmount */\n      sload(0x02)\n        /* \"crowdfunding.sol\":1088:1119  currentRaiseAmount < goalAmount */\n      lt\n        /* \"crowdfunding.sol\":1021:1119  deadline < block.timestamp && currentState == State.Fundraising && currentRaiseAmount < goalAmount */\n    tag_108:\n        /* \"crowdfunding.sol\":1018:1172  if(deadline < block.timestamp && currentState == State.Fundraising && currentRaiseAmount < goalAmount){... */\n      iszero\n      tag_109\n      jumpi\n        /* \"crowdfunding.sol\":1149:1161  State.Failed */\n      0x02\n        /* \"crowdfunding.sol\":1134:1146  currentState */\n      0x00\n      0x00\n        /* \"crowdfunding.sol\":1134:1161  currentState = State.Failed */\n      0x0100\n      exp\n      dup2\n      sload\n      dup2\n      0xff\n      mul\n      not\n      and\n      swap1\n      dup4\n      0x03\n      dup2\n      gt\n      iszero\n      tag_110\n      jumpi\n      tag_111\n      tag_65\n      jump\t// in\n    tag_111:\n    tag_110:\n      mul\n      or\n      swap1\n      sstore\n      pop\n        /* \"crowdfunding.sol\":1018:1172  if(deadline < block.timestamp && currentState == State.Fundraising && currentRaiseAmount < goalAmount){... */\n    tag_109:\n        /* \"crowdfunding.sol\":1199:1211  currentState */\n      0x00\n      0x00\n      swap1\n      sload\n      swap1\n      0x0100\n      exp\n      swap1\n      div\n      0xff\n      and\n        /* \"crowdfunding.sol\":1189:1211  _state == currentState */\n      0x03\n      dup2\n      gt\n      iszero\n      tag_112\n      jumpi\n      tag_113\n      tag_65\n      jump\t// in\n    tag_113:\n    tag_112:\n        /* \"crowdfunding.sol\":1189:1195  _state */\n      dup2\n        /* \"crowdfunding.sol\":1189:1211  _state == currentState */\n      0x03\n      dup2\n      gt\n      iszero\n      tag_114\n      jumpi\n      tag_115\n      tag_65\n      jump\t// in\n    tag_115:\n    tag_114:\n      eq\n        /* \"crowdfunding.sol\":1181:1248  require(_state == currentState, \"invalid state for this operation\") */\n      tag_116\n      jumpi\n      mload(0x40)\n      0x08c379a000000000000000000000000000000000000000000000000000000000\n      dup2\n      mstore\n      0x04\n      add\n      tag_117\n      swap1\n      tag_78\n      jump\t// in\n    tag_117:\n      mload(0x40)\n      dup1\n      swap2\n      sub\n      swap1\n      revert\n    tag_116:\n        /* \"crowdfunding.sol\":2568:2594  uint256 contributionAmount */\n      0x00\n        /* \"crowdfunding.sol\":2597:2610  contributions */\n      0x01\n        /* \"crowdfunding.sol\":2597:2622  contributions[msg.sender] */\n      0x00\n        /* \"crowdfunding.sol\":2611:2621  msg.sender */\n      caller\n        /* \"crowdfunding.sol\":2597:2622  contributions[msg.sender] */\n      0xffffffffffffffffffffffffffffffffffffffff\n      and\n      0xffffffffffffffffffffffffffffffffffffffff\n      and\n      dup2\n      mstore\n      0x20\n      add\n      swap1\n      dup2\n      mstore\n      0x20\n      add\n      0x00\n      keccak256\n      sload\n        /* \"crowdfunding.sol\":2568:2622  uint256 contributionAmount = contributions[msg.sender] */\n      swap1\n      pop\n        /* \"crowdfunding.sol\":2661:2662  0 */\n      0x00\n        /* \"crowdfunding.sol\":2640:2658  contributionAmount */\n      dup2\n        /* \"crowdfunding.sol\":2640:2662  contributionAmount > 0 */\n      gt\n        /* \"crowdfunding.sol\":2632:2689  require(contributionAmount > 0, \"contribution not found\") */\n      tag_119\n      jumpi\n      mload(0x40)\n      0x08c379a000000000000000000000000000000000000000000000000000000000\n      dup2\n      mstore\n      0x04\n      add\n      tag_120\n      swap1\n      tag_121\n      jump\t// in\n    tag_120:\n      mload(0x40)\n      dup1\n      swap2\n      sub\n      swap1\n      revert\n    tag_119:\n        /* \"crowdfunding.sol\":2728:2729  0 */\n      0x00\n        /* \"crowdfunding.sol\":2700:2713  contributions */\n      0x01\n        /* \"crowdfunding.sol\":2700:2725  contributions[msg.sender] */\n      0x00\n        /* \"crowdfunding.sol\":2714:2724  msg.sender */\n      caller\n        /* \"crowdfunding.sol\":2700:2725  contributions[msg.sender] */\n      0xffffffffffffffffffffffffffffffffffffffff\n      and\n      0xffffffffffffffffffffffffffffffffffffffff\n      and\n      dup2\n      mstore\n      0x20\n      add\n      swap1\n      dup2\n      mstore\n      0x20\n      add\n      0x00\n      keccak256\n        /* \"crowdfunding.sol\":2700:2729  contributions[msg.sender] = 0 */\n      dup2\n      swap1\n      sstore\n      pop\n        /* \"crowdfunding.sol\":2740:2752  bool success */\n      0x00\n        /* \"crowdfunding.sol\":2765:2775  msg.sender */\n      caller\n        /* \"crowdfunding.sol\":2757:2781  payable(msg.sender).call */\n      0xffffffffffffffffffffffffffffffffffffffff\n      and\n        /* \"crowdfunding.sol\":2788:2806  contributionAmount */\n      dup3\n        /* \"crowdfunding.sol\":2757:2811  payable(msg.sender).call{value:contributionAmount}(\"\") */\n      mload(0x40)\n      tag_122\n      swap1\n      tag_84\n      jump\t// in\n    tag_122:\n      0x00\n      mload(0x40)\n      dup1\n      dup4\n      sub\n      dup2\n      dup6\n      dup8\n      gas\n      call\n      swap3\n      pop\n      pop\n      pop\n      returndatasize\n      dup1\n      0x00\n      dup2\n      eq\n      tag_125\n      jumpi\n      mload(0x40)\n      swap2\n      pop\n      and(add(returndatasize, 0x3f), not(0x1f))\n      dup3\n      add\n      0x40\n      mstore\n      returndatasize\n      dup3\n      mstore\n      returndatasize\n      0x00\n      0x20\n      dup5\n      add\n      returndatacopy\n      jump(tag_124)\n    tag_125:\n      0x60\n      swap2\n      pop\n    tag_124:\n      pop\n        /* \"crowdfunding.sol\":2739:2811  (bool success,) = payable(msg.sender).call{value:contributionAmount}(\"\") */\n      pop\n      swap1\n      pop\n        /* \"crowdfunding.sol\":2829:2836  success */\n      dup1\n        /* \"crowdfunding.sol\":2821:2853  require(success,\"refund failed\") */\n      tag_126\n      jumpi\n      mload(0x40)\n      0x08c379a000000000000000000000000000000000000000000000000000000000\n      dup2\n      mstore\n      0x04\n      add\n      tag_127\n      swap1\n      tag_128\n      jump\t// in\n    tag_127:\n      mload(0x40)\n      dup1\n      swap2\n      sub\n      swap1\n      revert\n    tag_126:\n        /* \"crowdfunding.sol\":2869:2927  RefundIssue(contributionAmount,msg.sender,block.timestamp) */\n      0x243279c2c310ddeb46b40be7238147333b57692f47b046924b623d14a03655d8\n        /* \"crowdfunding.sol\":2881:2899  contributionAmount */\n      dup3\n        /* \"crowdfunding.sol\":2900:2910  msg.sender */\n      caller\n        /* \"crowdfunding.sol\":2911:2926  block.timestamp */\n      timestamp\n        /* \"crowdfunding.sol\":2869:2927  RefundIssue(contributionAmount,msg.sender,block.timestamp) */\n      mload(0x40)\n      tag_129\n      swap4\n      swap3\n      swap2\n      swap1\n      tag_92\n      jump\t// in\n    tag_129:\n      mload(0x40)\n      dup1\n      swap2\n      sub\n      swap1\n      log1\n        /* \"crowdfunding.sol\":2557:2934  {... */\n      pop\n      pop\n        /* \"crowdfunding.sol\":2496:2934  function refund() public payable  stateChecker(State.Failed) {... */\n      pop\n      jump\t// out\n        /* \"crowdfunding.sol\":240:270  address public immutable owner */\n    tag_52:\n      immutable(\"0xe4b1702d9298fee62dfeccc57d322a463ad55ca201256d01f62b45b2e1c21c10\")\n      dup2\n      jump\t// out\n        /* \"crowdfunding.sol\":1541:2104  function contribute() public payable stateChecker(State.Fundraising) {... */\n    tag_56:\n        /* \"crowdfunding.sol\":1591:1608  State.Fundraising */\n      0x00\n        /* \"crowdfunding.sol\":1032:1047  block.timestamp */\n      timestamp\n        /* \"crowdfunding.sol\":1021:1029  deadline */\n      immutable(\"0x7f8b6b088b6d74c2852fc86c796dca07b44eed6fb3daf5e6b59f7c364db14528\")\n        /* \"crowdfunding.sol\":1021:1047  deadline < block.timestamp */\n      lt\n        /* \"crowdfunding.sol\":1021:1084  deadline < block.timestamp && currentState == State.Fundraising */\n      dup1\n      iszero\n      tag_131\n      jumpi\n      pop\n        /* \"crowdfunding.sol\":1067:1084  State.Fundraising */\n      0x00\n        /* \"crowdfunding.sol\":1051:1084  currentState == State.Fundraising */\n      0x03\n      dup2\n      gt\n      iszero\n      tag_132\n      jumpi\n      tag_133\n      tag_65\n      jump\t// in\n    tag_133:\n    tag_132:\n        /* \"crowdfunding.sol\":1051:1063  currentState */\n      0x00\n      0x00\n      swap1\n      sload\n      swap1\n      0x0100\n      exp\n      swap1\n      div\n      0xff\n      and\n        /* \"crowdfunding.sol\":1051:1084  currentState == State.Fundraising */\n      0x03\n      dup2\n      gt\n      iszero\n      tag_134\n      jumpi\n      tag_135\n      tag_65\n      jump\t// in\n    tag_135:\n    tag_134:\n      eq\n        /* \"crowdfunding.sol\":1021:1084  deadline < block.timestamp && currentState == State.Fundraising */\n    tag_131:\n        /* \"crowdfunding.sol\":1021:1119  deadline < block.timestamp && currentState == State.Fundraising && currentRaiseAmount < goalAmount */\n      dup1\n      iszero\n      tag_136\n      jumpi\n      pop\n        /* \"crowdfunding.sol\":1109:1119  goalAmount */\n      immutable(\"0x1a192fabce13988b84994d4296e6cdc418d55e2f1d7f942188d4040b94fc57ac\")\n        /* \"crowdfunding.sol\":1088:1106  currentRaiseAmount */\n      sload(0x02)\n        /* \"crowdfunding.sol\":1088:1119  currentRaiseAmount < goalAmount */\n      lt\n        /* \"crowdfunding.sol\":1021:1119  deadline < block.timestamp && currentState == State.Fundraising && currentRaiseAmount < goalAmount */\n    tag_136:\n        /* \"crowdfunding.sol\":1018:1172  if(deadline < block.timestamp && currentState == State.Fundraising && currentRaiseAmount < goalAmount){... */\n      iszero\n      tag_137\n      jumpi\n        /* \"crowdfunding.sol\":1149:1161  State.Failed */\n      0x02\n        /* \"crowdfunding.sol\":1134:1146  currentState */\n      0x00\n      0x00\n        /* \"crowdfunding.sol\":1134:1161  currentState = State.Failed */\n      0x0100\n      exp\n      dup2\n      sload\n      dup2\n      0xff\n      mul\n      not\n      and\n      swap1\n      dup4\n      0x03\n      dup2\n      gt\n      iszero\n      tag_138\n      jumpi\n      tag_139\n      tag_65\n      jump\t// in\n    tag_139:\n    tag_138:\n      mul\n      or\n      swap1\n      sstore\n      pop\n        /* \"crowdfunding.sol\":1018:1172  if(deadline < block.timestamp && currentState == State.Fundraising && currentRaiseAmount < goalAmount){... */\n    tag_137:\n        /* \"crowdfunding.sol\":1199:1211  currentState */\n      0x00\n      0x00\n      swap1\n      sload\n      swap1\n      0x0100\n      exp\n      swap1\n      div\n      0xff\n      and\n        /* \"crowdfunding.sol\":1189:1211  _state == currentState */\n      0x03\n      dup2\n      gt\n      iszero\n      tag_140\n      jumpi\n      tag_141\n      tag_65\n      jump\t// in\n    tag_141:\n    tag_140:\n        /* \"crowdfunding.sol\":1189:1195  _state */\n      dup2\n        /* \"crowdfunding.sol\":1189:1211  _state == currentState */\n      0x03\n      dup2\n      gt\n      iszero\n      tag_142\n      jumpi\n      tag_143\n      tag_65\n      jump\t// in\n    tag_143:\n    tag_142:\n      eq\n        /* \"crowdfunding.sol\":1181:1248  require(_state == currentState, \"invalid state for this operation\") */\n      tag_144\n      jumpi\n      mload(0x40)\n      0x08c379a000000000000000000000000000000000000000000000000000000000\n      dup2\n      mstore\n      0x04\n      add\n      tag_145\n      swap1\n      tag_78\n      jump\t// in\n    tag_145:\n      mload(0x40)\n      dup1\n      swap2\n      sub\n      swap1\n      revert\n    tag_144:\n        /* \"crowdfunding.sol\":399:408  0.1 ether */\n      0x016345785d8a0000\n        /* \"crowdfunding.sol\":1628:1637  msg.value */\n      callvalue\n        /* \"crowdfunding.sol\":1628:1657  msg.value >= MIN_CONTRIBUTION */\n      lt\n      iszero\n        /* \"crowdfunding.sol\":1620:1707  require(msg.value >= MIN_CONTRIBUTION,\"contribution must be at least MIN_CONTRIBUTION\") */\n      tag_147\n      jumpi\n      mload(0x40)\n      0x08c379a000000000000000000000000000000000000000000000000000000000\n      dup2\n      mstore\n      0x04\n      add\n      tag_148\n      swap1\n      tag_149\n      jump\t// in\n    tag_148:\n      mload(0x40)\n      dup1\n      swap2\n      sub\n      swap1\n      revert\n    tag_147:\n        /* \"crowdfunding.sol\":1744:1752  deadline */\n      immutable(\"0x7f8b6b088b6d74c2852fc86c796dca07b44eed6fb3daf5e6b59f7c364db14528\")\n        /* \"crowdfunding.sol\":1725:1740  block.timestamp */\n      timestamp\n        /* \"crowdfunding.sol\":1725:1752  block.timestamp <= deadline */\n      gt\n      iszero\n        /* \"crowdfunding.sol\":1717:1783  require(block.timestamp <= deadline, \"contribution already ended\") */\n      tag_150\n      jumpi\n      mload(0x40)\n      0x08c379a000000000000000000000000000000000000000000000000000000000\n      dup2\n      mstore\n      0x04\n      add\n      tag_151\n      swap1\n      tag_152\n      jump\t// in\n    tag_151:\n      mload(0x40)\n      dup1\n      swap2\n      sub\n      swap1\n      revert\n    tag_150:\n        /* \"crowdfunding.sol\":1823:1832  msg.value */\n      callvalue\n        /* \"crowdfunding.sol\":1794:1807  contributions */\n      0x01\n        /* \"crowdfunding.sol\":1794:1819  contributions[msg.sender] */\n      0x00\n        /* \"crowdfunding.sol\":1808:1818  msg.sender */\n      caller\n        /* \"crowdfunding.sol\":1794:1819  contributions[msg.sender] */\n      0xffffffffffffffffffffffffffffffffffffffff\n      and\n      0xffffffffffffffffffffffffffffffffffffffff\n      and\n      dup2\n      mstore\n      0x20\n      add\n      swap1\n      dup2\n      mstore\n      0x20\n      add\n      0x00\n      keccak256\n      0x00\n        /* \"crowdfunding.sol\":1794:1832  contributions[msg.sender] += msg.value */\n      dup3\n      dup3\n      sload\n      tag_153\n      swap2\n      swap1\n      tag_154\n      jump\t// in\n    tag_153:\n      swap3\n      pop\n      pop\n      dup2\n      swap1\n      sstore\n      pop\n        /* \"crowdfunding.sol\":1864:1873  msg.value */\n      callvalue\n        /* \"crowdfunding.sol\":1842:1860  currentRaiseAmount */\n      0x02\n      0x00\n        /* \"crowdfunding.sol\":1842:1873  currentRaiseAmount += msg.value */\n      dup3\n      dup3\n      sload\n      tag_155\n      swap2\n      swap1\n      tag_154\n      jump\t// in\n    tag_155:\n      swap3\n      pop\n      pop\n      dup2\n      swap1\n      sstore\n      pop\n        /* \"crowdfunding.sol\":1909:1919  goalAmount */\n      immutable(\"0x1a192fabce13988b84994d4296e6cdc418d55e2f1d7f942188d4040b94fc57ac\")\n        /* \"crowdfunding.sol\":1887:1905  currentRaiseAmount */\n      sload(0x02)\n        /* \"crowdfunding.sol\":1887:1919  currentRaiseAmount >= goalAmount */\n      lt\n        /* \"crowdfunding.sol\":1884:2020  if(currentRaiseAmount >= goalAmount) {... */\n      tag_156\n      jumpi\n        /* \"crowdfunding.sol\":1950:1965  State.Successed */\n      0x01\n        /* \"crowdfunding.sol\":1935:1947  currentState */\n      0x00\n      0x00\n        /* \"crowdfunding.sol\":1935:1965  currentState = State.Successed */\n      0x0100\n      exp\n      dup2\n      sload\n      dup2\n      0xff\n      mul\n      not\n      and\n      swap1\n      dup4\n      0x03\n      dup2\n      gt\n      iszero\n      tag_157\n      jumpi\n      tag_158\n      tag_65\n      jump\t// in\n    tag_158:\n    tag_157:\n      mul\n      or\n      swap1\n      sstore\n      pop\n        /* \"crowdfunding.sol\":1984:2009  StateChange(currentState) */\n      0xa4248ceb280c6f9303d3ba87af96d45c3b0c834338095ab6350dbe86d38c9fc5\n        /* \"crowdfunding.sol\":1996:2008  currentState */\n      0x00\n      0x00\n      swap1\n      sload\n      swap1\n      0x0100\n      exp\n      swap1\n      div\n      0xff\n      and\n        /* \"crowdfunding.sol\":1984:2009  StateChange(currentState) */\n      mload(0x40)\n      tag_159\n      swap2\n      swap1\n      tag_23\n      jump\t// in\n    tag_159:\n      mload(0x40)\n      dup1\n      swap2\n      sub\n      swap1\n      log1\n        /* \"crowdfunding.sol\":1884:2020  if(currentRaiseAmount >= goalAmount) {... */\n    tag_156:\n        /* \"crowdfunding.sol\":2034:2097  ContributionReceived(msg.sender, msg.value, currentRaiseAmount) */\n      0xd2dff949d20e874cc6ba1dcefb840fb8cf6000a4197bfb69accfea5a32443ff5\n        /* \"crowdfunding.sol\":2055:2065  msg.sender */\n      caller\n        /* \"crowdfunding.sol\":2067:2076  msg.value */\n      callvalue\n        /* \"crowdfunding.sol\":2078:2096  currentRaiseAmount */\n      sload(0x02)\n        /* \"crowdfunding.sol\":2034:2097  ContributionReceived(msg.sender, msg.value, currentRaiseAmount) */\n      mload(0x40)\n      tag_160\n      swap4\n      swap3\n      swap2\n      swap1\n      tag_161\n      jump\t// in\n    tag_160:\n      mload(0x40)\n      dup1\n      swap2\n      sub\n      swap1\n      log1\n        /* \"crowdfunding.sol\":1541:2104  function contribute() public payable stateChecker(State.Fundraising) {... */\n      pop\n      jump\t// out\n        /* \"#utility.yul\":7:84   */\n    tag_162:\n        /* \"#utility.yul\":44:51   */\n      0x00\n        /* \"#utility.yul\":73:78   */\n      dup2\n        /* \"#utility.yul\":62:78   */\n      swap1\n      pop\n        /* \"#utility.yul\":7:84   */\n      swap2\n      swap1\n      pop\n      jump\t// out\n        /* \"#utility.yul\":90:208   */\n    tag_163:\n        /* \"#utility.yul\":177:201   */\n      tag_198\n        /* \"#utility.yul\":195:200   */\n      dup2\n        /* \"#utility.yul\":177:201   */\n      tag_162\n      jump\t// in\n    tag_198:\n        /* \"#utility.yul\":172:175   */\n      dup3\n        /* \"#utility.yul\":165:202   */\n      mstore\n        /* \"#utility.yul\":90:208   */\n      pop\n      pop\n      jump\t// out\n        /* \"#utility.yul\":214:436   */\n    tag_18:\n        /* \"#utility.yul\":307:311   */\n      0x00\n        /* \"#utility.yul\":345:347   */\n      0x20\n        /* \"#utility.yul\":334:343   */\n      dup3\n        /* \"#utility.yul\":330:348   */\n      add\n        /* \"#utility.yul\":322:348   */\n      swap1\n      pop\n        /* \"#utility.yul\":358:429   */\n      tag_200\n        /* \"#utility.yul\":426:427   */\n      0x00\n        /* \"#utility.yul\":415:424   */\n      dup4\n        /* \"#utility.yul\":411:428   */\n      add\n        /* \"#utility.yul\":402:408   */\n      dup5\n        /* \"#utility.yul\":358:429   */\n      tag_163\n      jump\t// in\n    tag_200:\n        /* \"#utility.yul\":214:436   */\n      swap3\n      swap2\n      pop\n      pop\n      jump\t// out\n        /* \"#utility.yul\":442:622   */\n    tag_65:\n        /* \"#utility.yul\":490:567   */\n      0x4e487b7100000000000000000000000000000000000000000000000000000000\n        /* \"#utility.yul\":487:488   */\n      0x00\n        /* \"#utility.yul\":480:568   */\n      mstore\n        /* \"#utility.yul\":587:591   */\n      0x21\n        /* \"#utility.yul\":584:585   */\n      0x04\n        /* \"#utility.yul\":577:592   */\n      mstore\n        /* \"#utility.yul\":611:615   */\n      0x24\n        /* \"#utility.yul\":608:609   */\n      0x00\n        /* \"#utility.yul\":601:616   */\n      revert\n        /* \"#utility.yul\":628:740   */\n    tag_164:\n        /* \"#utility.yul\":708:709   */\n      0x04\n        /* \"#utility.yul\":701:706   */\n      dup2\n        /* \"#utility.yul\":698:710   */\n      lt\n        /* \"#utility.yul\":688:734   */\n      tag_203\n      jumpi\n        /* \"#utility.yul\":714:732   */\n      tag_204\n      tag_65\n      jump\t// in\n    tag_204:\n        /* \"#utility.yul\":688:734   */\n    tag_203:\n        /* \"#utility.yul\":628:740   */\n      pop\n      jump\t// out\n        /* \"#utility.yul\":746:871   */\n    tag_165:\n        /* \"#utility.yul\":790:797   */\n      0x00\n        /* \"#utility.yul\":819:824   */\n      dup2\n        /* \"#utility.yul\":808:824   */\n      swap1\n      pop\n        /* \"#utility.yul\":825:865   */\n      tag_206\n        /* \"#utility.yul\":859:864   */\n      dup3\n        /* \"#utility.yul\":825:865   */\n      tag_164\n      jump\t// in\n    tag_206:\n        /* \"#utility.yul\":746:871   */\n      swap2\n      swap1\n      pop\n      jump\t// out\n        /* \"#utility.yul\":877:1002   */\n    tag_166:\n        /* \"#utility.yul\":932:941   */\n      0x00\n        /* \"#utility.yul\":965:996   */\n      tag_208\n        /* \"#utility.yul\":990:995   */\n      dup3\n        /* \"#utility.yul\":965:996   */\n      tag_165\n      jump\t// in\n    tag_208:\n        /* \"#utility.yul\":952:996   */\n      swap1\n      pop\n        /* \"#utility.yul\":877:1002   */\n      swap2\n      swap1\n      pop\n      jump\t// out\n        /* \"#utility.yul\":1008:1149   */\n    tag_167:\n        /* \"#utility.yul\":1100:1142   */\n      tag_210\n        /* \"#utility.yul\":1136:1141   */\n      dup2\n        /* \"#utility.yul\":1100:1142   */\n      tag_166\n      jump\t// in\n    tag_210:\n        /* \"#utility.yul\":1095:1098   */\n      dup3\n        /* \"#utility.yul\":1088:1143   */\n      mstore\n        /* \"#utility.yul\":1008:1149   */\n      pop\n      pop\n      jump\t// out\n        /* \"#utility.yul\":1155:1387   */\n    tag_23:\n        /* \"#utility.yul\":1253:1257   */\n      0x00\n        /* \"#utility.yul\":1291:1293   */\n      0x20\n        /* \"#utility.yul\":1280:1289   */\n      dup3\n        /* \"#utility.yul\":1276:1294   */\n      add\n        /* \"#utility.yul\":1268:1294   */\n      swap1\n      pop\n        /* \"#utility.yul\":1304:1380   */\n      tag_212\n        /* \"#utility.yul\":1377:1378   */\n      0x00\n        /* \"#utility.yul\":1366:1375   */\n      dup4\n        /* \"#utility.yul\":1362:1379   */\n      add\n        /* \"#utility.yul\":1353:1359   */\n      dup5\n        /* \"#utility.yul\":1304:1380   */\n      tag_167\n      jump\t// in\n    tag_212:\n        /* \"#utility.yul\":1155:1387   */\n      swap3\n      swap2\n      pop\n      pop\n      jump\t// out\n        /* \"#utility.yul\":1474:1591   */\n    tag_169:\n        /* \"#utility.yul\":1583:1584   */\n      0x00\n        /* \"#utility.yul\":1580:1581   */\n      0x00\n        /* \"#utility.yul\":1573:1585   */\n      revert\n        /* \"#utility.yul\":1720:1846   */\n    tag_171:\n        /* \"#utility.yul\":1757:1764   */\n      0x00\n        /* \"#utility.yul\":1797:1839   */\n      0xffffffffffffffffffffffffffffffffffffffff\n        /* \"#utility.yul\":1790:1795   */\n      dup3\n        /* \"#utility.yul\":1786:1840   */\n      and\n        /* \"#utility.yul\":1775:1840   */\n      swap1\n      pop\n        /* \"#utility.yul\":1720:1846   */\n      swap2\n      swap1\n      pop\n      jump\t// out\n        /* \"#utility.yul\":1852:1948   */\n    tag_172:\n        /* \"#utility.yul\":1889:1896   */\n      0x00\n        /* \"#utility.yul\":1918:1942   */\n      tag_218\n        /* \"#utility.yul\":1936:1941   */\n      dup3\n        /* \"#utility.yul\":1918:1942   */\n      tag_171\n      jump\t// in\n    tag_218:\n        /* \"#utility.yul\":1907:1942   */\n      swap1\n      pop\n        /* \"#utility.yul\":1852:1948   */\n      swap2\n      swap1\n      pop\n      jump\t// out\n        /* \"#utility.yul\":1954:2076   */\n    tag_173:\n        /* \"#utility.yul\":2027:2051   */\n      tag_220\n        /* \"#utility.yul\":2045:2050   */\n      dup2\n        /* \"#utility.yul\":2027:2051   */\n      tag_172\n      jump\t// in\n    tag_220:\n        /* \"#utility.yul\":2020:2025   */\n      dup2\n        /* \"#utility.yul\":2017:2052   */\n      eq\n        /* \"#utility.yul\":2007:2070   */\n      tag_221\n      jumpi\n        /* \"#utility.yul\":2066:2067   */\n      0x00\n        /* \"#utility.yul\":2063:2064   */\n      0x00\n        /* \"#utility.yul\":2056:2068   */\n      revert\n        /* \"#utility.yul\":2007:2070   */\n    tag_221:\n        /* \"#utility.yul\":1954:2076   */\n      pop\n      jump\t// out\n        /* \"#utility.yul\":2082:2221   */\n    tag_174:\n        /* \"#utility.yul\":2128:2133   */\n      0x00\n        /* \"#utility.yul\":2166:2172   */\n      dup2\n        /* \"#utility.yul\":2153:2173   */\n      calldataload\n        /* \"#utility.yul\":2144:2173   */\n      swap1\n      pop\n        /* \"#utility.yul\":2182:2215   */\n      tag_223\n        /* \"#utility.yul\":2209:2214   */\n      dup2\n        /* \"#utility.yul\":2182:2215   */\n      tag_173\n      jump\t// in\n    tag_223:\n        /* \"#utility.yul\":2082:2221   */\n      swap3\n      swap2\n      pop\n      pop\n      jump\t// out\n        /* \"#utility.yul\":2227:2556   */\n    tag_45:\n        /* \"#utility.yul\":2286:2292   */\n      0x00\n        /* \"#utility.yul\":2335:2337   */\n      0x20\n        /* \"#utility.yul\":2323:2332   */\n      dup3\n        /* \"#utility.yul\":2314:2321   */\n      dup5\n        /* \"#utility.yul\":2310:2333   */\n      sub\n        /* \"#utility.yul\":2306:2338   */\n      slt\n        /* \"#utility.yul\":2303:2422   */\n      iszero\n      tag_225\n      jumpi\n        /* \"#utility.yul\":2341:2420   */\n      tag_226\n      tag_169\n      jump\t// in\n    tag_226:\n        /* \"#utility.yul\":2303:2422   */\n    tag_225:\n        /* \"#utility.yul\":2461:2462   */\n      0x00\n        /* \"#utility.yul\":2486:2539   */\n      tag_227\n        /* \"#utility.yul\":2531:2538   */\n      dup5\n        /* \"#utility.yul\":2522:2528   */\n      dup3\n        /* \"#utility.yul\":2511:2520   */\n      dup6\n        /* \"#utility.yul\":2507:2529   */\n      add\n        /* \"#utility.yul\":2486:2539   */\n      tag_174\n      jump\t// in\n    tag_227:\n        /* \"#utility.yul\":2476:2539   */\n      swap2\n      pop\n        /* \"#utility.yul\":2432:2549   */\n      pop\n        /* \"#utility.yul\":2227:2556   */\n      swap3\n      swap2\n      pop\n      pop\n      jump\t// out\n        /* \"#utility.yul\":2562:2680   */\n    tag_175:\n        /* \"#utility.yul\":2649:2673   */\n      tag_229\n        /* \"#utility.yul\":2667:2672   */\n      dup2\n        /* \"#utility.yul\":2649:2673   */\n      tag_172\n      jump\t// in\n    tag_229:\n        /* \"#utility.yul\":2644:2647   */\n      dup3\n        /* \"#utility.yul\":2637:2674   */\n      mstore\n        /* \"#utility.yul\":2562:2680   */\n      pop\n      pop\n      jump\t// out\n        /* \"#utility.yul\":2686:2908   */\n    tag_54:\n        /* \"#utility.yul\":2779:2783   */\n      0x00\n        /* \"#utility.yul\":2817:2819   */\n      0x20\n        /* \"#utility.yul\":2806:2815   */\n      dup3\n        /* \"#utility.yul\":2802:2820   */\n      add\n        /* \"#utility.yul\":2794:2820   */\n      swap1\n      pop\n        /* \"#utility.yul\":2830:2901   */\n      tag_231\n        /* \"#utility.yul\":2898:2899   */\n      0x00\n        /* \"#utility.yul\":2887:2896   */\n      dup4\n        /* \"#utility.yul\":2883:2900   */\n      add\n        /* \"#utility.yul\":2874:2880   */\n      dup5\n        /* \"#utility.yul\":2830:2901   */\n      tag_175\n      jump\t// in\n    tag_231:\n        /* \"#utility.yul\":2686:2908   */\n      swap3\n      swap2\n      pop\n      pop\n      jump\t// out\n        /* \"#utility.yul\":2914:3083   */\n    tag_176:\n        /* \"#utility.yul\":2998:3009   */\n      0x00\n        /* \"#utility.yul\":3032:3038   */\n      dup3\n        /* \"#utility.yul\":3027:3030   */\n      dup3\n        /* \"#utility.yul\":3020:3039   */\n      mstore\n        /* \"#utility.yul\":3072:3076   */\n      0x20\n        /* \"#utility.yul\":3067:3070   */\n      dup3\n        /* \"#utility.yul\":3063:3077   */\n      add\n        /* \"#utility.yul\":3048:3077   */\n      swap1\n      pop\n        /* \"#utility.yul\":2914:3083   */\n      swap3\n      swap2\n      pop\n      pop\n      jump\t// out\n        /* \"#utility.yul\":3089:3309   */\n    tag_177:\n        /* \"#utility.yul\":3229:3263   */\n      0x6f6e6c79206f776e65722063616e2063616c6c20746869732066756e6374696f\n        /* \"#utility.yul\":3225:3226   */\n      0x00\n        /* \"#utility.yul\":3217:3223   */\n      dup3\n        /* \"#utility.yul\":3213:3227   */\n      add\n        /* \"#utility.yul\":3206:3264   */\n      mstore\n        /* \"#utility.yul\":3298:3301   */\n      0x6e00000000000000000000000000000000000000000000000000000000000000\n        /* \"#utility.yul\":3293:3295   */\n      0x20\n        /* \"#utility.yul\":3285:3291   */\n      dup3\n        /* \"#utility.yul\":3281:3296   */\n      add\n        /* \"#utility.yul\":3274:3302   */\n      mstore\n        /* \"#utility.yul\":3089:3309   */\n      pop\n      jump\t// out\n        /* \"#utility.yul\":3315:3681   */\n    tag_178:\n        /* \"#utility.yul\":3457:3460   */\n      0x00\n        /* \"#utility.yul\":3478:3545   */\n      tag_235\n        /* \"#utility.yul\":3542:3544   */\n      0x21\n        /* \"#utility.yul\":3537:3540   */\n      dup4\n        /* \"#utility.yul\":3478:3545   */\n      tag_176\n      jump\t// in\n    tag_235:\n        /* \"#utility.yul\":3471:3545   */\n      swap2\n      pop\n        /* \"#utility.yul\":3554:3647   */\n      tag_236\n        /* \"#utility.yul\":3643:3646   */\n      dup3\n        /* \"#utility.yul\":3554:3647   */\n      tag_177\n      jump\t// in\n    tag_236:\n        /* \"#utility.yul\":3672:3674   */\n      0x40\n        /* \"#utility.yul\":3667:3670   */\n      dup3\n        /* \"#utility.yul\":3663:3675   */\n      add\n        /* \"#utility.yul\":3656:3675   */\n      swap1\n      pop\n        /* \"#utility.yul\":3315:3681   */\n      swap2\n      swap1\n      pop\n      jump\t// out\n        /* \"#utility.yul\":3687:4106   */\n    tag_60:\n        /* \"#utility.yul\":3853:3857   */\n      0x00\n        /* \"#utility.yul\":3891:3893   */\n      0x20\n        /* \"#utility.yul\":3880:3889   */\n      dup3\n        /* \"#utility.yul\":3876:3894   */\n      add\n        /* \"#utility.yul\":3868:3894   */\n      swap1\n      pop\n        /* \"#utility.yul\":3940:3949   */\n      dup2\n        /* \"#utility.yul\":3934:3938   */\n      dup2\n        /* \"#utility.yul\":3930:3950   */\n      sub\n        /* \"#utility.yul\":3926:3927   */\n      0x00\n        /* \"#utility.yul\":3915:3924   */\n      dup4\n        /* \"#utility.yul\":3911:3928   */\n      add\n        /* \"#utility.yul\":3904:3951   */\n      mstore\n        /* \"#utility.yul\":3968:4099   */\n      tag_238\n        /* \"#utility.yul\":4094:4098   */\n      dup2\n        /* \"#utility.yul\":3968:4099   */\n      tag_178\n      jump\t// in\n    tag_238:\n        /* \"#utility.yul\":3960:4099   */\n      swap1\n      pop\n        /* \"#utility.yul\":3687:4106   */\n      swap2\n      swap1\n      pop\n      jump\t// out\n        /* \"#utility.yul\":4112:4294   */\n    tag_179:\n        /* \"#utility.yul\":4252:4286   */\n      0x696e76616c696420737461746520666f722074686973206f7065726174696f6e\n        /* \"#utility.yul\":4248:4249   */\n      0x00\n        /* \"#utility.yul\":4240:4246   */\n      dup3\n        /* \"#utility.yul\":4236:4250   */\n      add\n        /* \"#utility.yul\":4229:4287   */\n      mstore\n        /* \"#utility.yul\":4112:4294   */\n      pop\n      jump\t// out\n        /* \"#utility.yul\":4300:4666   */\n    tag_180:\n        /* \"#utility.yul\":4442:4445   */\n      0x00\n        /* \"#utility.yul\":4463:4530   */\n      tag_241\n        /* \"#utility.yul\":4527:4529   */\n      0x20\n        /* \"#utility.yul\":4522:4525   */\n      dup4\n        /* \"#utility.yul\":4463:4530   */\n      tag_176\n      jump\t// in\n    tag_241:\n        /* \"#utility.yul\":4456:4530   */\n      swap2\n      pop\n        /* \"#utility.yul\":4539:4632   */\n      tag_242\n        /* \"#utility.yul\":4628:4631   */\n      dup3\n        /* \"#utility.yul\":4539:4632   */\n      tag_179\n      jump\t// in\n    tag_242:\n        /* \"#utility.yul\":4657:4659   */\n      0x20\n        /* \"#utility.yul\":4652:4655   */\n      dup3\n        /* \"#utility.yul\":4648:4660   */\n      add\n        /* \"#utility.yul\":4641:4660   */\n      swap1\n      pop\n        /* \"#utility.yul\":4300:4666   */\n      swap2\n      swap1\n      pop\n      jump\t// out\n        /* \"#utility.yul\":4672:5091   */\n    tag_78:\n        /* \"#utility.yul\":4838:4842   */\n      0x00\n        /* \"#utility.yul\":4876:4878   */\n      0x20\n        /* \"#utility.yul\":4865:4874   */\n      dup3\n        /* \"#utility.yul\":4861:4879   */\n      add\n        /* \"#utility.yul\":4853:4879   */\n      swap1\n      pop\n        /* \"#utility.yul\":4925:4934   */\n      dup2\n        /* \"#utility.yul\":4919:4923   */\n      dup2\n        /* \"#utility.yul\":4915:4935   */\n      sub\n        /* \"#utility.yul\":4911:4912   */\n      0x00\n        /* \"#utility.yul\":4900:4909   */\n      dup4\n        /* \"#utility.yul\":4896:4913   */\n      add\n        /* \"#utility.yul\":4889:4936   */\n      mstore\n        /* \"#utility.yul\":4953:5084   */\n      tag_244\n        /* \"#utility.yul\":5079:5083   */\n      dup2\n        /* \"#utility.yul\":4953:5084   */\n      tag_180\n      jump\t// in\n    tag_244:\n        /* \"#utility.yul\":4945:5084   */\n      swap1\n      pop\n        /* \"#utility.yul\":4672:5091   */\n      swap2\n      swap1\n      pop\n      jump\t// out\n        /* \"#utility.yul\":5097:5244   */\n    tag_181:\n        /* \"#utility.yul\":5198:5209   */\n      0x00\n        /* \"#utility.yul\":5235:5238   */\n      dup2\n        /* \"#utility.yul\":5220:5238   */\n      swap1\n      pop\n        /* \"#utility.yul\":5097:5244   */\n      swap3\n      swap2\n      pop\n      pop\n      jump\t// out\n        /* \"#utility.yul\":5250:5364   */\n    tag_182:\n      pop\n      jump\t// out\n        /* \"#utility.yul\":5370:5768   */\n    tag_183:\n        /* \"#utility.yul\":5529:5532   */\n      0x00\n        /* \"#utility.yul\":5550:5633   */\n      tag_248\n        /* \"#utility.yul\":5631:5632   */\n      0x00\n        /* \"#utility.yul\":5626:5629   */\n      dup4\n        /* \"#utility.yul\":5550:5633   */\n      tag_181\n      jump\t// in\n    tag_248:\n        /* \"#utility.yul\":5543:5633   */\n      swap2\n      pop\n        /* \"#utility.yul\":5642:5735   */\n      tag_249\n        /* \"#utility.yul\":5731:5734   */\n      dup3\n        /* \"#utility.yul\":5642:5735   */\n      tag_182\n      jump\t// in\n    tag_249:\n        /* \"#utility.yul\":5760:5761   */\n      0x00\n        /* \"#utility.yul\":5755:5758   */\n      dup3\n        /* \"#utility.yul\":5751:5762   */\n      add\n        /* \"#utility.yul\":5744:5762   */\n      swap1\n      pop\n        /* \"#utility.yul\":5370:5768   */\n      swap2\n      swap1\n      pop\n      jump\t// out\n        /* \"#utility.yul\":5774:6153   */\n    tag_84:\n        /* \"#utility.yul\":5958:5961   */\n      0x00\n        /* \"#utility.yul\":5980:6127   */\n      tag_251\n        /* \"#utility.yul\":6123:6126   */\n      dup3\n        /* \"#utility.yul\":5980:6127   */\n      tag_183\n      jump\t// in\n    tag_251:\n        /* \"#utility.yul\":5973:6127   */\n      swap2\n      pop\n        /* \"#utility.yul\":6144:6147   */\n      dup2\n        /* \"#utility.yul\":6137:6147   */\n      swap1\n      pop\n        /* \"#utility.yul\":5774:6153   */\n      swap2\n      swap1\n      pop\n      jump\t// out\n        /* \"#utility.yul\":6159:6324   */\n    tag_184:\n        /* \"#utility.yul\":6299:6316   */\n      0x7769746864726177206661696c65640000000000000000000000000000000000\n        /* \"#utility.yul\":6295:6296   */\n      0x00\n        /* \"#utility.yul\":6287:6293   */\n      dup3\n        /* \"#utility.yul\":6283:6297   */\n      add\n        /* \"#utility.yul\":6276:6317   */\n      mstore\n        /* \"#utility.yul\":6159:6324   */\n      pop\n      jump\t// out\n        /* \"#utility.yul\":6330:6696   */\n    tag_185:\n        /* \"#utility.yul\":6472:6475   */\n      0x00\n        /* \"#utility.yul\":6493:6560   */\n      tag_254\n        /* \"#utility.yul\":6557:6559   */\n      0x0f\n        /* \"#utility.yul\":6552:6555   */\n      dup4\n        /* \"#utility.yul\":6493:6560   */\n      tag_176\n      jump\t// in\n    tag_254:\n        /* \"#utility.yul\":6486:6560   */\n      swap2\n      pop\n        /* \"#utility.yul\":6569:6662   */\n      tag_255\n        /* \"#utility.yul\":6658:6661   */\n      dup3\n        /* \"#utility.yul\":6569:6662   */\n      tag_184\n      jump\t// in\n    tag_255:\n        /* \"#utility.yul\":6687:6689   */\n      0x20\n        /* \"#utility.yul\":6682:6685   */\n      dup3\n        /* \"#utility.yul\":6678:6690   */\n      add\n        /* \"#utility.yul\":6671:6690   */\n      swap1\n      pop\n        /* \"#utility.yul\":6330:6696   */\n      swap2\n      swap1\n      pop\n      jump\t// out\n        /* \"#utility.yul\":6702:7121   */\n    tag_90:\n        /* \"#utility.yul\":6868:6872   */\n      0x00\n        /* \"#utility.yul\":6906:6908   */\n      0x20\n        /* \"#utility.yul\":6895:6904   */\n      dup3\n        /* \"#utility.yul\":6891:6909   */\n      add\n        /* \"#utility.yul\":6883:6909   */\n      swap1\n      pop\n        /* \"#utility.yul\":6955:6964   */\n      dup2\n        /* \"#utility.yul\":6949:6953   */\n      dup2\n        /* \"#utility.yul\":6945:6965   */\n      sub\n        /* \"#utility.yul\":6941:6942   */\n      0x00\n        /* \"#utility.yul\":6930:6939   */\n      dup4\n        /* \"#utility.yul\":6926:6943   */\n      add\n        /* \"#utility.yul\":6919:6966   */\n      mstore\n        /* \"#utility.yul\":6983:7114   */\n      tag_257\n        /* \"#utility.yul\":7109:7113   */\n      dup2\n        /* \"#utility.yul\":6983:7114   */\n      tag_185\n      jump\t// in\n    tag_257:\n        /* \"#utility.yul\":6975:7114   */\n      swap1\n      pop\n        /* \"#utility.yul\":6702:7121   */\n      swap2\n      swap1\n      pop\n      jump\t// out\n        /* \"#utility.yul\":7127:7569   */\n    tag_92:\n        /* \"#utility.yul\":7276:7280   */\n      0x00\n        /* \"#utility.yul\":7314:7316   */\n      0x60\n        /* \"#utility.yul\":7303:7312   */\n      dup3\n        /* \"#utility.yul\":7299:7317   */\n      add\n        /* \"#utility.yul\":7291:7317   */\n      swap1\n      pop\n        /* \"#utility.yul\":7327:7398   */\n      tag_259\n        /* \"#utility.yul\":7395:7396   */\n      0x00\n        /* \"#utility.yul\":7384:7393   */\n      dup4\n        /* \"#utility.yul\":7380:7397   */\n      add\n        /* \"#utility.yul\":7371:7377   */\n      dup7\n        /* \"#utility.yul\":7327:7398   */\n      tag_163\n      jump\t// in\n    tag_259:\n        /* \"#utility.yul\":7408:7480   */\n      tag_260\n        /* \"#utility.yul\":7476:7478   */\n      0x20\n        /* \"#utility.yul\":7465:7474   */\n      dup4\n        /* \"#utility.yul\":7461:7479   */\n      add\n        /* \"#utility.yul\":7452:7458   */\n      dup6\n        /* \"#utility.yul\":7408:7480   */\n      tag_175\n      jump\t// in\n    tag_260:\n        /* \"#utility.yul\":7490:7562   */\n      tag_261\n        /* \"#utility.yul\":7558:7560   */\n      0x40\n        /* \"#utility.yul\":7547:7556   */\n      dup4\n        /* \"#utility.yul\":7543:7561   */\n      add\n        /* \"#utility.yul\":7534:7540   */\n      dup5\n        /* \"#utility.yul\":7490:7562   */\n      tag_163\n      jump\t// in\n    tag_261:\n        /* \"#utility.yul\":7127:7569   */\n      swap5\n      swap4\n      pop\n      pop\n      pop\n      pop\n      jump\t// out\n        /* \"#utility.yul\":7575:7747   */\n    tag_186:\n        /* \"#utility.yul\":7715:7739   */\n      0x636f6e747269627574696f6e206e6f7420666f756e6400000000000000000000\n        /* \"#utility.yul\":7711:7712   */\n      0x00\n        /* \"#utility.yul\":7703:7709   */\n      dup3\n        /* \"#utility.yul\":7699:7713   */\n      add\n        /* \"#utility.yul\":7692:7740   */\n      mstore\n        /* \"#utility.yul\":7575:7747   */\n      pop\n      jump\t// out\n        /* \"#utility.yul\":7753:8119   */\n    tag_187:\n        /* \"#utility.yul\":7895:7898   */\n      0x00\n        /* \"#utility.yul\":7916:7983   */\n      tag_264\n        /* \"#utility.yul\":7980:7982   */\n      0x16\n        /* \"#utility.yul\":7975:7978   */\n      dup4\n        /* \"#utility.yul\":7916:7983   */\n      tag_176\n      jump\t// in\n    tag_264:\n        /* \"#utility.yul\":7909:7983   */\n      swap2\n      pop\n        /* \"#utility.yul\":7992:8085   */\n      tag_265\n        /* \"#utility.yul\":8081:8084   */\n      dup3\n        /* \"#utility.yul\":7992:8085   */\n      tag_186\n      jump\t// in\n    tag_265:\n        /* \"#utility.yul\":8110:8112   */\n      0x20\n        /* \"#utility.yul\":8105:8108   */\n      dup3\n        /* \"#utility.yul\":8101:8113   */\n      add\n        /* \"#utility.yul\":8094:8113   */\n      swap1\n      pop\n        /* \"#utility.yul\":7753:8119   */\n      swap2\n      swap1\n      pop\n      jump\t// out\n        /* \"#utility.yul\":8125:8544   */\n    tag_121:\n        /* \"#utility.yul\":8291:8295   */\n      0x00\n        /* \"#utility.yul\":8329:8331   */\n      0x20\n        /* \"#utility.yul\":8318:8327   */\n      dup3\n        /* \"#utility.yul\":8314:8332   */\n      add\n        /* \"#utility.yul\":8306:8332   */\n      swap1\n      pop\n        /* \"#utility.yul\":8378:8387   */\n      dup2\n        /* \"#utility.yul\":8372:8376   */\n      dup2\n        /* \"#utility.yul\":8368:8388   */\n      sub\n        /* \"#utility.yul\":8364:8365   */\n      0x00\n        /* \"#utility.yul\":8353:8362   */\n      dup4\n        /* \"#utility.yul\":8349:8366   */\n      add\n        /* \"#utility.yul\":8342:8389   */\n      mstore\n        /* \"#utility.yul\":8406:8537   */\n      tag_267\n        /* \"#utility.yul\":8532:8536   */\n      dup2\n        /* \"#utility.yul\":8406:8537   */\n      tag_187\n      jump\t// in\n    tag_267:\n        /* \"#utility.yul\":8398:8537   */\n      swap1\n      pop\n        /* \"#utility.yul\":8125:8544   */\n      swap2\n      swap1\n      pop\n      jump\t// out\n        /* \"#utility.yul\":8550:8713   */\n    tag_188:\n        /* \"#utility.yul\":8690:8705   */\n      0x726566756e64206661696c656400000000000000000000000000000000000000\n        /* \"#utility.yul\":8686:8687   */\n      0x00\n        /* \"#utility.yul\":8678:8684   */\n      dup3\n        /* \"#utility.yul\":8674:8688   */\n      add\n        /* \"#utility.yul\":8667:8706   */\n      mstore\n        /* \"#utility.yul\":8550:8713   */\n      pop\n      jump\t// out\n        /* \"#utility.yul\":8719:9085   */\n    tag_189:\n        /* \"#utility.yul\":8861:8864   */\n      0x00\n        /* \"#utility.yul\":8882:8949   */\n      tag_270\n        /* \"#utility.yul\":8946:8948   */\n      0x0d\n        /* \"#utility.yul\":8941:8944   */\n      dup4\n        /* \"#utility.yul\":8882:8949   */\n      tag_176\n      jump\t// in\n    tag_270:\n        /* \"#utility.yul\":8875:8949   */\n      swap2\n      pop\n        /* \"#utility.yul\":8958:9051   */\n      tag_271\n        /* \"#utility.yul\":9047:9050   */\n      dup3\n        /* \"#utility.yul\":8958:9051   */\n      tag_188\n      jump\t// in\n    tag_271:\n        /* \"#utility.yul\":9076:9078   */\n      0x20\n        /* \"#utility.yul\":9071:9074   */\n      dup3\n        /* \"#utility.yul\":9067:9079   */\n      add\n        /* \"#utility.yul\":9060:9079   */\n      swap1\n      pop\n        /* \"#utility.yul\":8719:9085   */\n      swap2\n      swap1\n      pop\n      jump\t// out\n        /* \"#utility.yul\":9091:9510   */\n    tag_128:\n        /* \"#utility.yul\":9257:9261   */\n      0x00\n        /* \"#utility.yul\":9295:9297   */\n      0x20\n        /* \"#utility.yul\":9284:9293   */\n      dup3\n        /* \"#utility.yul\":9280:9298   */\n      add\n        /* \"#utility.yul\":9272:9298   */\n      swap1\n      pop\n        /* \"#utility.yul\":9344:9353   */\n      dup2\n        /* \"#utility.yul\":9338:9342   */\n      dup2\n        /* \"#utility.yul\":9334:9354   */\n      sub\n        /* \"#utility.yul\":9330:9331   */\n      0x00\n        /* \"#utility.yul\":9319:9328   */\n      dup4\n        /* \"#utility.yul\":9315:9332   */\n      add\n        /* \"#utility.yul\":9308:9355   */\n      mstore\n        /* \"#utility.yul\":9372:9503   */\n      tag_273\n        /* \"#utility.yul\":9498:9502   */\n      dup2\n        /* \"#utility.yul\":9372:9503   */\n      tag_189\n      jump\t// in\n    tag_273:\n        /* \"#utility.yul\":9364:9503   */\n      swap1\n      pop\n        /* \"#utility.yul\":9091:9510   */\n      swap2\n      swap1\n      pop\n      jump\t// out\n        /* \"#utility.yul\":9516:9749   */\n    tag_190:\n        /* \"#utility.yul\":9656:9690   */\n      0x636f6e747269627574696f6e206d757374206265206174206c65617374204d49\n        /* \"#utility.yul\":9652:9653   */\n      0x00\n        /* \"#utility.yul\":9644:9650   */\n      dup3\n        /* \"#utility.yul\":9640:9654   */\n      add\n        /* \"#utility.yul\":9633:9691   */\n      mstore\n        /* \"#utility.yul\":9725:9741   */\n      0x4e5f434f4e545249425554494f4e000000000000000000000000000000000000\n        /* \"#utility.yul\":9720:9722   */\n      0x20\n        /* \"#utility.yul\":9712:9718   */\n      dup3\n        /* \"#utility.yul\":9708:9723   */\n      add\n        /* \"#utility.yul\":9701:9742   */\n      mstore\n        /* \"#utility.yul\":9516:9749   */\n      pop\n      jump\t// out\n        /* \"#utility.yul\":9755:10121   */\n    tag_191:\n        /* \"#utility.yul\":9897:9900   */\n      0x00\n        /* \"#utility.yul\":9918:9985   */\n      tag_276\n        /* \"#utility.yul\":9982:9984   */\n      0x2e\n        /* \"#utility.yul\":9977:9980   */\n      dup4\n        /* \"#utility.yul\":9918:9985   */\n      tag_176\n      jump\t// in\n    tag_276:\n        /* \"#utility.yul\":9911:9985   */\n      swap2\n      pop\n        /* \"#utility.yul\":9994:10087   */\n      tag_277\n        /* \"#utility.yul\":10083:10086   */\n      dup3\n        /* \"#utility.yul\":9994:10087   */\n      tag_190\n      jump\t// in\n    tag_277:\n        /* \"#utility.yul\":10112:10114   */\n      0x40\n        /* \"#utility.yul\":10107:10110   */\n      dup3\n        /* \"#utility.yul\":10103:10115   */\n      add\n        /* \"#utility.yul\":10096:10115   */\n      swap1\n      pop\n        /* \"#utility.yul\":9755:10121   */\n      swap2\n      swap1\n      pop\n      jump\t// out\n        /* \"#utility.yul\":10127:10546   */\n    tag_149:\n        /* \"#utility.yul\":10293:10297   */\n      0x00\n        /* \"#utility.yul\":10331:10333   */\n      0x20\n        /* \"#utility.yul\":10320:10329   */\n      dup3\n        /* \"#utility.yul\":10316:10334   */\n      add\n        /* \"#utility.yul\":10308:10334   */\n      swap1\n      pop\n        /* \"#utility.yul\":10380:10389   */\n      dup2\n        /* \"#utility.yul\":10374:10378   */\n      dup2\n        /* \"#utility.yul\":10370:10390   */\n      sub\n        /* \"#utility.yul\":10366:10367   */\n      0x00\n        /* \"#utility.yul\":10355:10364   */\n      dup4\n        /* \"#utility.yul\":10351:10368   */\n      add\n        /* \"#utility.yul\":10344:10391   */\n      mstore\n        /* \"#utility.yul\":10408:10539   */\n      tag_279\n        /* \"#utility.yul\":10534:10538   */\n      dup2\n        /* \"#utility.yul\":10408:10539   */\n      tag_191\n      jump\t// in\n    tag_279:\n        /* \"#utility.yul\":10400:10539   */\n      swap1\n      pop\n        /* \"#utility.yul\":10127:10546   */\n      swap2\n      swap1\n      pop\n      jump\t// out\n        /* \"#utility.yul\":10552:10728   */\n    tag_192:\n        /* \"#utility.yul\":10692:10720   */\n      0x636f6e747269627574696f6e20616c726561647920656e646564000000000000\n        /* \"#utility.yul\":10688:10689   */\n      0x00\n        /* \"#utility.yul\":10680:10686   */\n      dup3\n        /* \"#utility.yul\":10676:10690   */\n      add\n        /* \"#utility.yul\":10669:10721   */\n      mstore\n        /* \"#utility.yul\":10552:10728   */\n      pop\n      jump\t// out\n        /* \"#utility.yul\":10734:11100   */\n    tag_193:\n        /* \"#utility.yul\":10876:10879   */\n      0x00\n        /* \"#utility.yul\":10897:10964   */\n      tag_282\n        /* \"#utility.yul\":10961:10963   */\n      0x1a\n        /* \"#utility.yul\":10956:10959   */\n      dup4\n        /* \"#utility.yul\":10897:10964   */\n      tag_176\n      jump\t// in\n    tag_282:\n        /* \"#utility.yul\":10890:10964   */\n      swap2\n      pop\n        /* \"#utility.yul\":10973:11066   */\n      tag_283\n        /* \"#utility.yul\":11062:11065   */\n      dup3\n        /* \"#utility.yul\":10973:11066   */\n      tag_192\n      jump\t// in\n    tag_283:\n        /* \"#utility.yul\":11091:11093   */\n      0x20\n        /* \"#utility.yul\":11086:11089   */\n      dup3\n        /* \"#utility.yul\":11082:11094   */\n      add\n        /* \"#utility.yul\":11075:11094   */\n      swap1\n      pop\n        /* \"#utility.yul\":10734:11100   */\n      swap2\n      swap1\n      pop\n      jump\t// out\n        /* \"#utility.yul\":11106:11525   */\n    tag_152:\n        /* \"#utility.yul\":11272:11276   */\n      0x00\n        /* \"#utility.yul\":11310:11312   */\n      0x20\n        /* \"#utility.yul\":11299:11308   */\n      dup3\n        /* \"#utility.yul\":11295:11313   */\n      add\n        /* \"#utility.yul\":11287:11313   */\n      swap1\n      pop\n        /* \"#utility.yul\":11359:11368   */\n      dup2\n        /* \"#utility.yul\":11353:11357   */\n      dup2\n        /* \"#utility.yul\":11349:11369   */\n      sub\n        /* \"#utility.yul\":11345:11346   */\n      0x00\n        /* \"#utility.yul\":11334:11343   */\n      dup4\n        /* \"#utility.yul\":11330:11347   */\n      add\n        /* \"#utility.yul\":11323:11370   */\n      mstore\n        /* \"#utility.yul\":11387:11518   */\n      tag_285\n        /* \"#utility.yul\":11513:11517   */\n      dup2\n        /* \"#utility.yul\":11387:11518   */\n      tag_193\n      jump\t// in\n    tag_285:\n        /* \"#utility.yul\":11379:11518   */\n      swap1\n      pop\n        /* \"#utility.yul\":11106:11525   */\n      swap2\n      swap1\n      pop\n      jump\t// out\n        /* \"#utility.yul\":11531:11711   */\n    tag_194:\n        /* \"#utility.yul\":11579:11656   */\n      0x4e487b7100000000000000000000000000000000000000000000000000000000\n        /* \"#utility.yul\":11576:11577   */\n      0x00\n        /* \"#utility.yul\":11569:11657   */\n      mstore\n        /* \"#utility.yul\":11676:11680   */\n      0x11\n        /* \"#utility.yul\":11673:11674   */\n      0x04\n        /* \"#utility.yul\":11666:11681   */\n      mstore\n        /* \"#utility.yul\":11700:11704   */\n      0x24\n        /* \"#utility.yul\":11697:11698   */\n      0x00\n        /* \"#utility.yul\":11690:11705   */\n      revert\n        /* \"#utility.yul\":11717:11908   */\n    tag_154:\n        /* \"#utility.yul\":11757:11760   */\n      0x00\n        /* \"#utility.yul\":11776:11796   */\n      tag_288\n        /* \"#utility.yul\":11794:11795   */\n      dup3\n        /* \"#utility.yul\":11776:11796   */\n      tag_162\n      jump\t// in\n    tag_288:\n        /* \"#utility.yul\":11771:11796   */\n      swap2\n      pop\n        /* \"#utility.yul\":11810:11830   */\n      tag_289\n        /* \"#utility.yul\":11828:11829   */\n      dup4\n        /* \"#utility.yul\":11810:11830   */\n      tag_162\n      jump\t// in\n    tag_289:\n        /* \"#utility.yul\":11805:11830   */\n      swap3\n      pop\n        /* \"#utility.yul\":11853:11854   */\n      dup3\n        /* \"#utility.yul\":11850:11851   */\n      dup3\n        /* \"#utility.yul\":11846:11855   */\n      add\n        /* \"#utility.yul\":11839:11855   */\n      swap1\n      pop\n        /* \"#utility.yul\":11874:11877   */\n      dup1\n        /* \"#utility.yul\":11871:11872   */\n      dup3\n        /* \"#utility.yul\":11868:11878   */\n      gt\n        /* \"#utility.yul\":11865:11901   */\n      iszero\n      tag_290\n      jumpi\n        /* \"#utility.yul\":11881:11899   */\n      tag_291\n      tag_194\n      jump\t// in\n    tag_291:\n        /* \"#utility.yul\":11865:11901   */\n    tag_290:\n        /* \"#utility.yul\":11717:11908   */\n      swap3\n      swap2\n      pop\n      pop\n      jump\t// out\n        /* \"#utility.yul\":11914:12356   */\n    tag_161:\n        /* \"#utility.yul\":12063:12067   */\n      0x00\n        /* \"#utility.yul\":12101:12103   */\n      0x60\n        /* \"#utility.yul\":12090:12099   */\n      dup3\n        /* \"#utility.yul\":12086:12104   */\n      add\n        /* \"#utility.yul\":12078:12104   */\n      swap1\n      pop\n        /* \"#utility.yul\":12114:12185   */\n      tag_293\n        /* \"#utility.yul\":12182:12183   */\n      0x00\n        /* \"#utility.yul\":12171:12180   */\n      dup4\n        /* \"#utility.yul\":12167:12184   */\n      add\n        /* \"#utility.yul\":12158:12164   */\n      dup7\n        /* \"#utility.yul\":12114:12185   */\n      tag_175\n      jump\t// in\n    tag_293:\n        /* \"#utility.yul\":12195:12267   */\n      tag_294\n        /* \"#utility.yul\":12263:12265   */\n      0x20\n        /* \"#utility.yul\":12252:12261   */\n      dup4\n        /* \"#utility.yul\":12248:12266   */\n      add\n        /* \"#utility.yul\":12239:12245   */\n      dup6\n        /* \"#utility.yul\":12195:12267   */\n      tag_163\n      jump\t// in\n    tag_294:\n        /* \"#utility.yul\":12277:12349   */\n      tag_295\n        /* \"#utility.yul\":12345:12347   */\n      0x40\n        /* \"#utility.yul\":12334:12343   */\n      dup4\n        /* \"#utility.yul\":12330:12348   */\n      add\n        /* \"#utility.yul\":12321:12327   */\n      dup5\n        /* \"#utility.yul\":12277:12349   */\n      tag_163\n      jump\t// in\n    tag_295:\n        /* \"#utility.yul\":11914:12356   */\n      swap5\n      swap4\n      pop\n      pop\n      pop\n      pop\n      jump\t// out\n\n    auxdata: 0xa2646970667358221220167f838b1816fd0655cd5f2374a622655e124cac7ae5dd9de541d34d719d465c64736f6c634300081e0033\n}\n",
				"bytecode": {
					"linkReferences": {},
					"object": "60e060405234801561000f575f5ffd5b50604051611534380380611534833981810160405281019061003191906100f4565b3373ffffffffffffffffffffffffffffffffffffffff1660808173ffffffffffffffffffffffffffffffffffffffff16815250508160a08181525050620151808161007c919061015f565b4261008791906101a0565b60c081815250505f5f5f6101000a81548160ff021916908360038111156100b1576100b06101d3565b5b02179055505050610200565b5f5ffd5b5f819050919050565b6100d3816100c1565b81146100dd575f5ffd5b50565b5f815190506100ee816100ca565b92915050565b5f5f6040838503121561010a576101096100bd565b5b5f610117858286016100e0565b9250506020610128858286016100e0565b9150509250929050565b7f4e487b71000000000000000000000000000000000000000000000000000000005f52601160045260245ffd5b5f610169826100c1565b9150610174836100c1565b9250828202610182816100c1565b9150828204841483151761019957610198610132565b5b5092915050565b5f6101aa826100c1565b91506101b5836100c1565b92508282019050808211156101cd576101cc610132565b5b92915050565b7f4e487b71000000000000000000000000000000000000000000000000000000005f52602160045260245ffd5b60805160a05160c0516112af6102855f395f81816102c9015281816105ce01528181610669015281816106b1015281816109b10152610b2901525f818161032e015281816105f6015281816106450152818161071601528181610a160152610bf701525f81816102380152818161046a01528181610553015261098b01526112af5ff3fe60806040526004361061009b575f3560e01c806329dcb0cf1161006357806329dcb0cf1461015157806340650c911461017b57806342e94c90146101a5578063590e1ae3146101e15780638da5cb5b146101eb578063d7bb99ba146102155761009b565b8063086231bb1461009f5780630c3f6acf146100c95780630fdb1c10146100f35780631865c57d146100fd5780632636b94514610127575b5f5ffd5b3480156100aa575f5ffd5b506100b361021f565b6040516100c09190610ce4565b60405180910390f35b3480156100d4575f5ffd5b506100dd610225565b6040516100ea9190610d70565b60405180910390f35b6100fb610236565b005b348015610108575f5ffd5b5061011161058f565b60405161011e9190610d70565b60405180910390f35b348015610132575f5ffd5b5061013b610643565b6040516101489190610ce4565b60405180910390f35b34801561015c575f5ffd5b50610165610667565b6040516101729190610ce4565b60405180910390f35b348015610186575f5ffd5b5061018f61068b565b60405161019c9190610ce4565b60405180910390f35b3480156101b0575f5ffd5b506101cb60048036038101906101c69190610de7565b610697565b6040516101d89190610ce4565b60405180910390f35b6101e96106ac565b005b3480156101f6575f5ffd5b506101ff610989565b60405161020c9190610e21565b60405180910390f35b61021d6109ad565b005b60025481565b5f5f9054906101000a900460ff1681565b7f000000000000000000000000000000000000000000000000000000000000000073ffffffffffffffffffffffffffffffffffffffff163373ffffffffffffffffffffffffffffffffffffffff16146102c4576040517f08c379a00000000000000000000000000000000000000000000000000000000081526004016102bb90610eba565b60405180910390fd5b6001427f000000000000000000000000000000000000000000000000000000000000000010801561032557505f600381111561030357610302610cfd565b5b5f5f9054906101000a900460ff16600381111561032357610322610cfd565b5b145b801561035257507f0000000000000000000000000000000000000000000000000000000000000000600254105b156103815760025f5f6101000a81548160ff0219169083600381111561037b5761037a610cfd565b5b02179055505b5f5f9054906101000a900460ff1660038111156103a1576103a0610cfd565b5b8160038111156103b4576103b3610cfd565b5b146103f4576040517f08c379a00000000000000000000000000000000000000000000000000000000081526004016103eb90610f22565b60405180910390fd5b60035f5f6101000a81548160ff0219169083600381111561041857610417610cfd565b5b02179055507fa4248ceb280c6f9303d3ba87af96d45c3b0c834338095ab6350dbe86d38c9fc55f5f9054906101000a900460ff166040516104599190610d70565b60405180910390a15f60025490505f7f000000000000000000000000000000000000000000000000000000000000000073ffffffffffffffffffffffffffffffffffffffff16826040516104ac90610f6d565b5f6040518083038185875af1925050503d805f81146104e6576040519150601f19603f3d011682016040523d82523d5f602084013e6104eb565b606091505b505090508061052f576040517f08c379a000000000000000000000000000000000000000000000000000000000815260040161052690610fcb565b60405180910390fd5b7f54ffefddad2dcf5ad1c375dcc85616b8b2dc792824935fda9827591cc0be9032827f00000000000000000000000000000000000000000000000000000000000000004260405161058293929190610fe9565b60405180910390a1505050565b5f5f60038111156105a3576105a2610cfd565b5b5f5f9054906101000a900460ff1660038111156105c3576105c2610cfd565b5b1480156105ef5750427f0000000000000000000000000000000000000000000000000000000000000000105b1561062f577f0000000000000000000000000000000000000000000000000000000000000000600254106106265760019050610640565b60029050610640565b5f5f9054906101000a900460ff1690505b90565b7f000000000000000000000000000000000000000000000000000000000000000081565b7f000000000000000000000000000000000000000000000000000000000000000081565b67016345785d8a000081565b6001602052805f5260405f205f915090505481565b6002427f000000000000000000000000000000000000000000000000000000000000000010801561070d57505f60038111156106eb576106ea610cfd565b5b5f5f9054906101000a900460ff16600381111561070b5761070a610cfd565b5b145b801561073a57507f0000000000000000000000000000000000000000000000000000000000000000600254105b156107695760025f5f6101000a81548160ff0219169083600381111561076357610762610cfd565b5b02179055505b5f5f9054906101000a900460ff16600381111561078957610788610cfd565b5b81600381111561079c5761079b610cfd565b5b146107dc576040517f08c379a00000000000000000000000000000000000000000000000000000000081526004016107d390610f22565b60405180910390fd5b5f60015f3373ffffffffffffffffffffffffffffffffffffffff1673ffffffffffffffffffffffffffffffffffffffff1681526020019081526020015f205490505f811161085f576040517f08c379a000000000000000000000000000000000000000000000000000000000815260040161085690611068565b60405180910390fd5b5f60015f3373ffffffffffffffffffffffffffffffffffffffff1673ffffffffffffffffffffffffffffffffffffffff1681526020019081526020015f20819055505f3373ffffffffffffffffffffffffffffffffffffffff16826040516108c690610f6d565b5f6040518083038185875af1925050503d805f8114610900576040519150601f19603f3d011682016040523d82523d5f602084013e610905565b606091505b5050905080610949576040517f08c379a0000000000000000000000000000000000000000000000000000000008152600401610940906110d0565b60405180910390fd5b7f243279c2c310ddeb46b40be7238147333b57692f47b046924b623d14a03655d882334260405161097c93929190610fe9565b60405180910390a1505050565b7f000000000000000000000000000000000000000000000000000000000000000081565b5f427f0000000000000000000000000000000000000000000000000000000000000000108015610a0d57505f60038111156109eb576109ea610cfd565b5b5f5f9054906101000a900460ff166003811115610a0b57610a0a610cfd565b5b145b8015610a3a57507f0000000000000000000000000000000000000000000000000000000000000000600254105b15610a695760025f5f6101000a81548160ff02191690836003811115610a6357610a62610cfd565b5b02179055505b5f5f9054906101000a900460ff166003811115610a8957610a88610cfd565b5b816003811115610a9c57610a9b610cfd565b5b14610adc576040517f08c379a0000000000000000000000000000000000000000000000000000000008152600401610ad390610f22565b60405180910390fd5b67016345785d8a0000341015610b27576040517f08c379a0000000000000000000000000000000000000000000000000000000008152600401610b1e9061115e565b60405180910390fd5b7f0000000000000000000000000000000000000000000000000000000000000000421115610b8a576040517f08c379a0000000000000000000000000000000000000000000000000000000008152600401610b81906111c6565b60405180910390fd5b3460015f3373ffffffffffffffffffffffffffffffffffffffff1673ffffffffffffffffffffffffffffffffffffffff1681526020019081526020015f205f828254610bd69190611211565b925050819055503460025f828254610bee9190611211565b925050819055507f000000000000000000000000000000000000000000000000000000000000000060025410610c8c5760015f5f6101000a81548160ff02191690836003811115610c4257610c41610cfd565b5b02179055507fa4248ceb280c6f9303d3ba87af96d45c3b0c834338095ab6350dbe86d38c9fc55f5f9054906101000a900460ff16604051610c839190610d70565b60405180910390a15b7fd2dff949d20e874cc6ba1dcefb840fb8cf6000a4197bfb69accfea5a32443ff53334600254604051610cc193929190611244565b60405180910390a150565b5f819050919050565b610cde81610ccc565b82525050565b5f602082019050610cf75f830184610cd5565b92915050565b7f4e487b71000000000000000000000000000000000000000000000000000000005f52602160045260245ffd5b60048110610d3b57610d3a610cfd565b5b50565b5f819050610d4b82610d2a565b919050565b5f610d5a82610d3e565b9050919050565b610d6a81610d50565b82525050565b5f602082019050610d835f830184610d61565b92915050565b5f5ffd5b5f73ffffffffffffffffffffffffffffffffffffffff82169050919050565b5f610db682610d8d565b9050919050565b610dc681610dac565b8114610dd0575f5ffd5b50565b5f81359050610de181610dbd565b92915050565b5f60208284031215610dfc57610dfb610d89565b5b5f610e0984828501610dd3565b91505092915050565b610e1b81610dac565b82525050565b5f602082019050610e345f830184610e12565b92915050565b5f82825260208201905092915050565b7f6f6e6c79206f776e65722063616e2063616c6c20746869732066756e6374696f5f8201527f6e00000000000000000000000000000000000000000000000000000000000000602082015250565b5f610ea4602183610e3a565b9150610eaf82610e4a565b604082019050919050565b5f6020820190508181035f830152610ed181610e98565b9050919050565b7f696e76616c696420737461746520666f722074686973206f7065726174696f6e5f82015250565b5f610f0c602083610e3a565b9150610f1782610ed8565b602082019050919050565b5f6020820190508181035f830152610f3981610f00565b9050919050565b5f81905092915050565b50565b5f610f585f83610f40565b9150610f6382610f4a565b5f82019050919050565b5f610f7782610f4d565b9150819050919050565b7f7769746864726177206661696c656400000000000000000000000000000000005f82015250565b5f610fb5600f83610e3a565b9150610fc082610f81565b602082019050919050565b5f6020820190508181035f830152610fe281610fa9565b9050919050565b5f606082019050610ffc5f830186610cd5565b6110096020830185610e12565b6110166040830184610cd5565b949350505050565b7f636f6e747269627574696f6e206e6f7420666f756e64000000000000000000005f82015250565b5f611052601683610e3a565b915061105d8261101e565b602082019050919050565b5f6020820190508181035f83015261107f81611046565b9050919050565b7f726566756e64206661696c6564000000000000000000000000000000000000005f82015250565b5f6110ba600d83610e3a565b91506110c582611086565b602082019050919050565b5f6020820190508181035f8301526110e7816110ae565b9050919050565b7f636f6e747269627574696f6e206d757374206265206174206c65617374204d495f8201527f4e5f434f4e545249425554494f4e000000000000000000000000000000000000602082015250565b5f611148602e83610e3a565b9150611153826110ee565b604082019050919050565b5f6020820190508181035f8301526111758161113c565b9050919050565b7f636f6e747269627574696f6e20616c726561647920656e6465640000000000005f82015250565b5f6111b0601a83610e3a565b91506111bb8261117c565b602082019050919050565b5f6020820190508181035f8301526111dd816111a4565b9050919050565b7f4e487b71000000000000000000000000000000000000000000000000000000005f52601160045260245ffd5b5f61121b82610ccc565b915061122683610ccc565b925082820190508082111561123e5761123d6111e4565b5b92915050565b5f6060820190506112575f830186610e12565b6112646020830185610cd5565b6112716040830184610cd5565b94935050505056fea2646970667358221220167f838b1816fd0655cd5f2374a622655e124cac7ae5dd9de541d34d719d465c64736f6c634300081e0033",
					"opcodes": "PUSH1 0xE0 PUSH1 0x40 MSTORE CALLVALUE DUP1 ISZERO PUSH2 0xF JUMPI PUSH0 PUSH0 REVERT JUMPDEST POP PUSH1 0x40 MLOAD PUSH2 0x1534 CODESIZE SUB DUP1 PUSH2 0x1534 DUP4 CODECOPY DUP2 DUP2 ADD PUSH1 0x40 MSTORE DUP2 ADD SWAP1 PUSH2 0x31 SWAP2 SWAP1 PUSH2 0xF4 JUMP JUMPDEST CALLER PUSH20 0xFFFFFFFFFFFFFFFFFFFFFFFFFFFFFFFFFFFFFFFF AND PUSH1 0x80 DUP2 PUSH20 0xFFFFFFFFFFFFFFFFFFFFFFFFFFFFFFFFFFFFFFFF AND DUP2 MSTORE POP POP DUP2 PUSH1 0xA0 DUP2 DUP2 MSTORE POP POP PUSH3 0x15180 DUP2 PUSH2 0x7C SWAP2 SWAP1 PUSH2 0x15F JUMP JUMPDEST TIMESTAMP PUSH2 0x87 SWAP2 SWAP1 PUSH2 0x1A0 JUMP JUMPDEST PUSH1 0xC0 DUP2 DUP2 MSTORE POP POP PUSH0 PUSH0 PUSH0 PUSH2 0x100 EXP DUP2 SLOAD DUP2 PUSH1 0xFF MUL NOT AND SWAP1 DUP4 PUSH1 0x3 DUP2 GT ISZERO PUSH2 0xB1 JUMPI PUSH2 0xB0 PUSH2 0x1D3 JUMP JUMPDEST JUMPDEST MUL OR SWAP1 SSTORE POP POP POP PUSH2 0x200 JUMP JUMPDEST PUSH0 PUSH0 REVERT JUMPDEST PUSH0 DUP2 SWAP1 POP SWAP2 SWAP1 POP JUMP JUMPDEST PUSH2 0xD3 DUP2 PUSH2 0xC1 JUMP JUMPDEST DUP2 EQ PUSH2 0xDD JUMPI PUSH0 PUSH0 REVERT JUMPDEST POP JUMP JUMPDEST PUSH0 DUP2 MLOAD SWAP1 POP PUSH2 0xEE DUP2 PUSH2 0xCA JUMP JUMPDEST SWAP3 SWAP2 POP POP JUMP JUMPDEST PUSH0 PUSH0 PUSH1 0x40 DUP4 DUP6 SUB SLT ISZERO PUSH2 0x10A JUMPI PUSH2 0x109 PUSH2 0xBD JUMP JUMPDEST JUMPDEST PUSH0 PUSH2 0x117 DUP6 DUP3 DUP7 ADD PUSH2 0xE0 JUMP JUMPDEST SWAP3 POP POP PUSH1 0x20 PUSH2 0x128 DUP6 DUP3 DUP7 ADD PUSH2 0xE0 JUMP JUMPDEST SWAP2 POP POP SWAP3 POP SWAP3 SWAP1 POP JUMP JUMPDEST PUSH32 0x4E487B7100000000000000000000000000000000000000000000000000000000 PUSH0 MSTORE PUSH1 0x11 PUSH1 0x4 MSTORE PUSH1 0x24 PUSH0 REVERT JUMPDEST PUSH0 PUSH2 0x169 DUP3 PUSH2 0xC1 JUMP JUMPDEST SWAP2 POP PUSH2 0x174 DUP4 PUSH2 0xC1 JUMP JUMPDEST SWAP3 POP DUP3 DUP3 MUL PUSH2 0x182 DUP2 PUSH2 0xC1 JUMP JUMPDEST SWAP2 POP DUP3 DUP3 DIV DUP5 EQ DUP4 ISZERO OR PUSH2 0x199 JUMPI PUSH2 0x198 PUSH2 0x132 JUMP JUMPDEST JUMPDEST POP SWAP3 SWAP2 POP POP JUMP JUMPDEST PUSH0 PUSH2 0x1AA DUP3 PUSH2 0xC1 JUMP JUMPDEST SWAP2 POP PUSH2 0x1B5 DUP4 PUSH2 0xC1 JUMP JUMPDEST SWAP3 POP DUP3 DUP3 ADD SWAP1 POP DUP1 DUP3 GT ISZERO PUSH2 0x1CD JUMPI PUSH2 0x1CC PUSH2 0x132 JUMP JUMPDEST JUMPDEST SWAP3 SWAP2 POP POP JUMP JUMPDEST PUSH32 0x4E487B7100000000000000000000000000000000000000000000000000000000 PUSH0 MSTORE PUSH1 0x21 PUSH1 0x4 MSTORE PUSH1 0x24 PUSH0 REVERT JUMPDEST PUSH1 0x80 MLOAD PUSH1 0xA0 MLOAD PUSH1 0xC0 MLOAD PUSH2 0x12AF PUSH2 0x285 PUSH0 CODECOPY PUSH0 DUP2 DUP2 PUSH2 0x2C9 ADD MSTORE DUP2 DUP2 PUSH2 0x5CE ADD MSTORE DUP2 DUP2 PUSH2 0x669 ADD MSTORE DUP2 DUP2 PUSH2 0x6B1 ADD MSTORE DUP2 DUP2 PUSH2 0x9B1 ADD MSTORE PUSH2 0xB29 ADD MSTORE PUSH0 DUP2 DUP2 PUSH2 0x32E ADD MSTORE DUP2 DUP2 PUSH2 0x5F6 ADD MSTORE DUP2 DUP2 PUSH2 0x645 ADD MSTORE DUP2 DUP2 PUSH2 0x716 ADD MSTORE DUP2 DUP2 PUSH2 0xA16 ADD MSTORE PUSH2 0xBF7 ADD MSTORE PUSH0 DUP2 DUP2 PUSH2 0x238 ADD MSTORE DUP2 DUP2 PUSH2 0x46A ADD MSTORE DUP2 DUP2 PUSH2 0x553 ADD MSTORE PUSH2 0x98B ADD MSTORE PUSH2 0x12AF PUSH0 RETURN INVALID PUSH1 0x80 PUSH1 0x40 MSTORE PUSH1 0x4 CALLDATASIZE LT PUSH2 0x9B JUMPI PUSH0 CALLDATALOAD PUSH1 0xE0 SHR DUP1 PUSH4 0x29DCB0CF GT PUSH2 0x63 JUMPI DUP1 PUSH4 0x29DCB0CF EQ PUSH2 0x151 JUMPI DUP1 PUSH4 0x40650C91 EQ PUSH2 0x17B JUMPI DUP1 PUSH4 0x42E94C90 EQ PUSH2 0x1A5 JUMPI DUP1 PUSH4 0x590E1AE3 EQ PUSH2 0x1E1 JUMPI DUP1 PUSH4 0x8DA5CB5B EQ PUSH2 0x1EB JUMPI DUP1 PUSH4 0xD7BB99BA EQ PUSH2 0x215 JUMPI PUSH2 0x9B JUMP JUMPDEST DUP1 PUSH4 0x86231BB EQ PUSH2 0x9F JUMPI DUP1 PUSH4 0xC3F6ACF EQ PUSH2 0xC9 JUMPI DUP1 PUSH4 0xFDB1C10 EQ PUSH2 0xF3 JUMPI DUP1 PUSH4 0x1865C57D EQ PUSH2 0xFD JUMPI DUP1 PUSH4 0x2636B945 EQ PUSH2 0x127 JUMPI JUMPDEST PUSH0 PUSH0 REVERT JUMPDEST CALLVALUE DUP1 ISZERO PUSH2 0xAA JUMPI PUSH0 PUSH0 REVERT JUMPDEST POP PUSH2 0xB3 PUSH2 0x21F JUMP JUMPDEST PUSH1 0x40 MLOAD PUSH2 0xC0 SWAP2 SWAP1 PUSH2 0xCE4 JUMP JUMPDEST PUSH1 0x40 MLOAD DUP1 SWAP2 SUB SWAP1 RETURN JUMPDEST CALLVALUE DUP1 ISZERO PUSH2 0xD4 JUMPI PUSH0 PUSH0 REVERT JUMPDEST POP PUSH2 0xDD PUSH2 0x225 JUMP JUMPDEST PUSH1 0x40 MLOAD PUSH2 0xEA SWAP2 SWAP1 PUSH2 0xD70 JUMP JUMPDEST PUSH1 0x40 MLOAD DUP1 SWAP2 SUB SWAP1 RETURN JUMPDEST PUSH2 0xFB PUSH2 0x236 JUMP JUMPDEST STOP JUMPDEST CALLVALUE DUP1 ISZERO PUSH2 0x108 JUMPI PUSH0 PUSH0 REVERT JUMPDEST POP PUSH2 0x111 PUSH2 0x58F JUMP JUMPDEST PUSH1 0x40 MLOAD PUSH2 0x11E SWAP2 SWAP1 PUSH2 0xD70 JUMP JUMPDEST PUSH1 0x40 MLOAD DUP1 SWAP2 SUB SWAP1 RETURN JUMPDEST CALLVALUE DUP1 ISZERO PUSH2 0x132 JUMPI PUSH0 PUSH0 REVERT JUMPDEST POP PUSH2 0x13B PUSH2 0x643 JUMP JUMPDEST PUSH1 0x40 MLOAD PUSH2 0x148 SWAP2 SWAP1 PUSH2 0xCE4 JUMP JUMPDEST PUSH1 0x40 MLOAD DUP1 SWAP2 SUB SWAP1 RETURN JUMPDEST CALLVALUE DUP1 ISZERO PUSH2 0x15C JUMPI PUSH0 PUSH0 REVERT JUMPDEST POP PUSH2 0x165 PUSH2 0x667 JUMP JUMPDEST PUSH1 0x40 MLOAD PUSH2 0x172 SWAP2 SWAP1 PUSH2 0xCE4 JUMP JUMPDEST PUSH1 0x40 MLOAD DUP1 SWAP2 SUB SWAP1 RETURN JUMPDEST CALLVALUE DUP1 ISZERO PUSH2 0x186 JUMPI PUSH0 PUSH0 REVERT JUMPDEST POP PUSH2 0x18F PUSH2 0x68B JUMP JUMPDEST PUSH1 0x40 MLOAD PUSH2 0x19C SWAP2 SWAP1 PUSH2 0xCE4 JUMP JUMPDEST PUSH1 0x40 MLOAD DUP1 SWAP2 SUB SWAP1 RETURN JUMPDEST CALLVALUE DUP1 ISZERO PUSH2 0x1B0 JUMPI PUSH0 PUSH0 REVERT JUMPDEST POP PUSH2 0x1CB PUSH1 0x4 DUP1 CALLDATASIZE SUB DUP2 ADD SWAP1 PUSH2 0x1C6 SWAP2 SWAP1 PUSH2 0xDE7 JUMP JUMPDEST PUSH2 0x697 JUMP JUMPDEST PUSH1 0x40 MLOAD PUSH2 0x1D8 SWAP2 SWAP1 PUSH2 0xCE4 JUMP JUMPDEST PUSH1 0x40 MLOAD DUP1 SWAP2 SUB SWAP1 RETURN JUMPDEST PUSH2 0x1E9 PUSH2 0x6AC JUMP JUMPDEST STOP JUMPDEST CALLVALUE DUP1 ISZERO PUSH2 0x1F6 JUMPI PUSH0 PUSH0 REVERT JUMPDEST POP PUSH2 0x1FF PUSH2 0x989 JUMP JUMPDEST PUSH1 0x40 MLOAD PUSH2 0x20C SWAP2 SWAP1 PUSH2 0xE21 JUMP JUMPDEST PUSH1 0x40 MLOAD DUP1 SWAP2 SUB SWAP1 RETURN JUMPDEST PUSH2 0x21D PUSH2 0x9AD JUMP JUMPDEST STOP JUMPDEST PUSH1 0x2 SLOAD DUP2 JUMP JUMPDEST PUSH0 PUSH0 SWAP1 SLOAD SWAP1 PUSH2 0x100 EXP SWAP1 DIV PUSH1 0xFF AND DUP2 JUMP JUMPDEST PUSH32 0x0 PUSH20 0xFFFFFFFFFFFFFFFFFFFFFFFFFFFFFFFFFFFFFFFF AND CALLER PUSH20 0xFFFFFFFFFFFFFFFFFFFFFFFFFFFFFFFFFFFFFFFF AND EQ PUSH2 0x2C4 JUMPI PUSH1 0x40 MLOAD PUSH32 0x8C379A000000000000000000000000000000000000000000000000000000000 DUP2 MSTORE PUSH1 0x4 ADD PUSH2 0x2BB SWAP1 PUSH2 0xEBA JUMP JUMPDEST PUSH1 0x40 MLOAD DUP1 SWAP2 SUB SWAP1 REVERT JUMPDEST PUSH1 0x1 TIMESTAMP PUSH32 0x0 LT DUP1 ISZERO PUSH2 0x325 JUMPI POP PUSH0 PUSH1 0x3 DUP2 GT ISZERO PUSH2 0x303 JUMPI PUSH2 0x302 PUSH2 0xCFD JUMP JUMPDEST JUMPDEST PUSH0 PUSH0 SWAP1 SLOAD SWAP1 PUSH2 0x100 EXP SWAP1 DIV PUSH1 0xFF AND PUSH1 0x3 DUP2 GT ISZERO PUSH2 0x323 JUMPI PUSH2 0x322 PUSH2 0xCFD JUMP JUMPDEST JUMPDEST EQ JUMPDEST DUP1 ISZERO PUSH2 0x352 JUMPI POP PUSH32 0x0 PUSH1 0x2 SLOAD LT JUMPDEST ISZERO PUSH2 0x381 JUMPI PUSH1 0x2 PUSH0 PUSH0 PUSH2 0x100 EXP DUP2 SLOAD DUP2 PUSH1 0xFF MUL NOT AND SWAP1 DUP4 PUSH1 0x3 DUP2 GT ISZERO PUSH2 0x37B JUMPI PUSH2 0x37A PUSH2 0xCFD JUMP JUMPDEST JUMPDEST MUL OR SWAP1 SSTORE POP JUMPDEST PUSH0 PUSH0 SWAP1 SLOAD SWAP1 PUSH2 0x100 EXP SWAP1 DIV PUSH1 0xFF AND PUSH1 0x3 DUP2 GT ISZERO PUSH2 0x3A1 JUMPI PUSH2 0x3A0 PUSH2 0xCFD JUMP JUMPDEST JUMPDEST DUP2 PUSH1 0x3 DUP2 GT ISZERO PUSH2 0x3B4 JUMPI PUSH2 0x3B3 PUSH2 0xCFD JUMP JUMPDEST JUMPDEST EQ PUSH2 0x3F4 JUMPI PUSH1 0x40 MLOAD PUSH32 0x8C379A000000000000000000000000000000000000000000000000000000000 DUP2 MSTORE PUSH1 0x4 ADD PUSH2 0x3EB SWAP1 PUSH2 0xF22 JUMP JUMPDEST PUSH1 0x40 MLOAD DUP1 SWAP2 SUB SWAP1 REVERT JUMPDEST PUSH1 0x3 PUSH0 PUSH0 PUSH2 0x100 EXP DUP2 SLOAD DUP2 PUSH1 0xFF MUL NOT AND SWAP1 DUP4 PUSH1 0x3 DUP2 GT ISZERO PUSH2 0x418 JUMPI PUSH2 0x417 PUSH2 0xCFD JUMP JUMPDEST JUMPDEST MUL OR SWAP1 SSTORE POP PUSH32 0xA4248CEB280C6F9303D3BA87AF96D45C3B0C834338095AB6350DBE86D38C9FC5 PUSH0 PUSH0 SWAP1 SLOAD SWAP1 PUSH2 0x100 EXP SWAP1 DIV PUSH1 0xFF AND PUSH1 0x40 MLOAD PUSH2 0x459 SWAP2 SWAP1 PUSH2 0xD70 JUMP JUMPDEST PUSH1 0x40 MLOAD DUP1 SWAP2 SUB SWAP1 LOG1 PUSH0 PUSH1 0x2 SLOAD SWAP1 POP PUSH0 PUSH32 0x0 PUSH20 0xFFFFFFFFFFFFFFFFFFFFFFFFFFFFFFFFFFFFFFFF AND DUP3 PUSH1 0x40 MLOAD PUSH2 0x4AC SWAP1 PUSH2 0xF6D JUMP JUMPDEST PUSH0 PUSH1 0x40 MLOAD DUP1 DUP4 SUB DUP2 DUP6 DUP8 GAS CALL SWAP3 POP POP POP RETURNDATASIZE DUP1 PUSH0 DUP2 EQ PUSH2 0x4E6 JUMPI PUSH1 0x40 MLOAD SWAP2 POP PUSH1 0x1F NOT PUSH1 0x3F RETURNDATASIZE ADD AND DUP3 ADD PUSH1 0x40 MSTORE RETURNDATASIZE DUP3 MSTORE RETURNDATASIZE PUSH0 PUSH1 0x20 DUP5 ADD RETURNDATACOPY PUSH2 0x4EB JUMP JUMPDEST PUSH1 0x60 SWAP2 POP JUMPDEST POP POP SWAP1 POP DUP1 PUSH2 0x52F JUMPI PUSH1 0x40 MLOAD PUSH32 0x8C379A000000000000000000000000000000000000000000000000000000000 DUP2 MSTORE PUSH1 0x4 ADD PUSH2 0x526 SWAP1 PUSH2 0xFCB JUMP JUMPDEST PUSH1 0x40 MLOAD DUP1 SWAP2 SUB SWAP1 REVERT JUMPDEST PUSH32 0x54FFEFDDAD2DCF5AD1C375DCC85616B8B2DC792824935FDA9827591CC0BE9032 DUP3 PUSH32 0x0 TIMESTAMP PUSH1 0x40 MLOAD PUSH2 0x582 SWAP4 SWAP3 SWAP2 SWAP1 PUSH2 0xFE9 JUMP JUMPDEST PUSH1 0x40 MLOAD DUP1 SWAP2 SUB SWAP1 LOG1 POP POP POP JUMP JUMPDEST PUSH0 PUSH0 PUSH1 0x3 DUP2 GT ISZERO PUSH2 0x5A3 JUMPI PUSH2 0x5A2 PUSH2 0xCFD JUMP JUMPDEST JUMPDEST PUSH0 PUSH0 SWAP1 SLOAD SWAP1 PUSH2 0x100 EXP SWAP1 DIV PUSH1 0xFF AND PUSH1 0x3 DUP2 GT ISZERO PUSH2 0x5C3 JUMPI PUSH2 0x5C2 PUSH2 0xCFD JUMP JUMPDEST JUMPDEST EQ DUP1 ISZERO PUSH2 0x5EF JUMPI POP TIMESTAMP PUSH32 0x0 LT JUMPDEST ISZERO PUSH2 0x62F JUMPI PUSH32 0x0 PUSH1 0x2 SLOAD LT PUSH2 0x626 JUMPI PUSH1 0x1 SWAP1 POP PUSH2 0x640 JUMP JUMPDEST PUSH1 0x2 SWAP1 POP PUSH2 0x640 JUMP JUMPDEST PUSH0 PUSH0 SWAP1 SLOAD SWAP1 PUSH2 0x100 EXP SWAP1 DIV PUSH1 0xFF AND SWAP1 POP JUMPDEST SWAP1 JUMP JUMPDEST PUSH32 0x0 DUP2 JUMP JUMPDEST PUSH32 0x0 DUP2 JUMP JUMPDEST PUSH8 0x16345785D8A0000 DUP2 JUMP JUMPDEST PUSH1 0x1 PUSH1 0x20 MSTORE DUP1 PUSH0 MSTORE PUSH1 0x40 PUSH0 KECCAK256 PUSH0 SWAP2 POP SWAP1 POP SLOAD DUP2 JUMP JUMPDEST PUSH1 0x2 TIMESTAMP PUSH32 0x0 LT DUP1 ISZERO PUSH2 0x70D JUMPI POP PUSH0 PUSH1 0x3 DUP2 GT ISZERO PUSH2 0x6EB JUMPI PUSH2 0x6EA PUSH2 0xCFD JUMP JUMPDEST JUMPDEST PUSH0 PUSH0 SWAP1 SLOAD SWAP1 PUSH2 0x100 EXP SWAP1 DIV PUSH1 0xFF AND PUSH1 0x3 DUP2 GT ISZERO PUSH2 0x70B JUMPI PUSH2 0x70A PUSH2 0xCFD JUMP JUMPDEST JUMPDEST EQ JUMPDEST DUP1 ISZERO PUSH2 0x73A JUMPI POP PUSH32 0x0 PUSH1 0x2 SLOAD LT JUMPDEST ISZERO PUSH2 0x769 JUMPI PUSH1 0x2 PUSH0 PUSH0 PUSH2 0x100 EXP DUP2 SLOAD DUP2 PUSH1 0xFF MUL NOT AND SWAP1 DUP4 PUSH1 0x3 DUP2 GT ISZERO PUSH2 0x763 JUMPI PUSH2 0x762 PUSH2 0xCFD JUMP JUMPDEST JUMPDEST MUL OR SWAP1 SSTORE POP JUMPDEST PUSH0 PUSH0 SWAP1 SLOAD SWAP1 PUSH2 0x100 EXP SWAP1 DIV PUSH1 0xFF AND PUSH1 0x3 DUP2 GT ISZERO PUSH2 0x789 JUMPI PUSH2 0x788 PUSH2 0xCFD JUMP JUMPDEST JUMPDEST DUP2 PUSH1 0x3 DUP2 GT ISZERO PUSH2 0x79C JUMPI PUSH2 0x79B PUSH2 0xCFD JUMP JUMPDEST JUMPDEST EQ PUSH2 0x7DC JUMPI PUSH1 0x40 MLOAD PUSH32 0x8C379A000000000000000000000000000000000000000000000000000000000 DUP2 MSTORE PUSH1 0x4 ADD PUSH2 0x7D3 SWAP1 PUSH2 0xF22 JUMP JUMPDEST PUSH1 0x40 MLOAD DUP1 SWAP2 SUB SWAP1 REVERT JUMPDEST PUSH0 PUSH1 0x1 PUSH0 CALLER PUSH20 0xFFFFFFFFFFFFFFFFFFFFFFFFFFFFFFFFFFFFFFFF AND PUSH20 0xFFFFFFFFFFFFFFFFFFFFFFFFFFFFFFFFFFFFFFFF AND DUP2 MSTORE PUSH1 0x20 ADD SWAP1 DUP2 MSTORE PUSH1 0x20 ADD PUSH0 KECCAK256 SLOAD SWAP1 POP PUSH0 DUP2 GT PUSH2 0x85F JUMPI PUSH1 0x40 MLOAD PUSH32 0x8C379A000000000000000000000000000000000000000000000000000000000 DUP2 MSTORE PUSH1 0x4 ADD PUSH2 0x856 SWAP1 PUSH2 0x1068 JUMP JUMPDEST PUSH1 0x40 MLOAD DUP1 SWAP2 SUB SWAP1 REVERT JUMPDEST PUSH0 PUSH1 0x1 PUSH0 CALLER PUSH20 0xFFFFFFFFFFFFFFFFFFFFFFFFFFFFFFFFFFFFFFFF AND PUSH20 0xFFFFFFFFFFFFFFFFFFFFFFFFFFFFFFFFFFFFFFFF AND DUP2 MSTORE PUSH1 0x20 ADD SWAP1 DUP2 MSTORE PUSH1 0x20 ADD PUSH0 KECCAK256 DUP2 SWAP1 SSTORE POP PUSH0 CALLER PUSH20 0xFFFFFFFFFFFFFFFFFFFFFFFFFFFFFFFFFFFFFFFF AND DUP3 PUSH1 0x40 MLOAD PUSH2 0x8C6 SWAP1 PUSH2 0xF6D JUMP JUMPDEST PUSH0 PUSH1 0x40 MLOAD DUP1 DUP4 SUB DUP2 DUP6 DUP8 GAS CALL SWAP3 POP POP POP RETURNDATASIZE DUP1 PUSH0 DUP2 EQ PUSH2 0x900 JUMPI PUSH1 0x40 MLOAD SWAP2 POP PUSH1 0x1F NOT PUSH1 0x3F RETURNDATASIZE ADD AND DUP3 ADD PUSH1 0x40 MSTORE RETURNDATASIZE DUP3 MSTORE RETURNDATASIZE PUSH0 PUSH1 0x20 DUP5 ADD RETURNDATACOPY PUSH2 0x905 JUMP JUMPDEST PUSH1 0x60 SWAP2 POP JUMPDEST POP POP SWAP1 POP DUP1 PUSH2 0x949 JUMPI PUSH1 0x40 MLOAD PUSH32 0x8C379A000000000000000000000000000000000000000000000000000000000 DUP2 MSTORE PUSH1 0x4 ADD PUSH2 0x940 SWAP1 PUSH2 0x10D0 JUMP JUMPDEST PUSH1 0x40 MLOAD DUP1 SWAP2 SUB SWAP1 REVERT JUMPDEST PUSH32 0x243279C2C310DDEB46B40BE7238147333B57692F47B046924B623D14A03655D8 DUP3 CALLER TIMESTAMP PUSH1 0x40 MLOAD PUSH2 0x97C SWAP4 SWAP3 SWAP2 SWAP1 PUSH2 0xFE9 JUMP JUMPDEST PUSH1 0x40 MLOAD DUP1 SWAP2 SUB SWAP1 LOG1 POP POP POP JUMP JUMPDEST PUSH32 0x0 DUP2 JUMP JUMPDEST PUSH0 TIMESTAMP PUSH32 0x0 LT DUP1 ISZERO PUSH2 0xA0D JUMPI POP PUSH0 PUSH1 0x3 DUP2 GT ISZERO PUSH2 0x9EB JUMPI PUSH2 0x9EA PUSH2 0xCFD JUMP JUMPDEST JUMPDEST PUSH0 PUSH0 SWAP1 SLOAD SWAP1 PUSH2 0x100 EXP SWAP1 DIV PUSH1 0xFF AND PUSH1 0x3 DUP2 GT ISZERO PUSH2 0xA0B JUMPI PUSH2 0xA0A PUSH2 0xCFD JUMP JUMPDEST JUMPDEST EQ JUMPDEST DUP1 ISZERO PUSH2 0xA3A JUMPI POP PUSH32 0x0 PUSH1 0x2 SLOAD LT JUMPDEST ISZERO PUSH2 0xA69 JUMPI PUSH1 0x2 PUSH0 PUSH0 PUSH2 0x100 EXP DUP2 SLOAD DUP2 PUSH1 0xFF MUL NOT AND SWAP1 DUP4 PUSH1 0x3 DUP2 GT ISZERO PUSH2 0xA63 JUMPI PUSH2 0xA62 PUSH2 0xCFD JUMP JUMPDEST JUMPDEST MUL OR SWAP1 SSTORE POP JUMPDEST PUSH0 PUSH0 SWAP1 SLOAD SWAP1 PUSH2 0x100 EXP SWAP1 DIV PUSH1 0xFF AND PUSH1 0x3 DUP2 GT ISZERO PUSH2 0xA89 JUMPI PUSH2 0xA88 PUSH2 0xCFD JUMP JUMPDEST JUMPDEST DUP2 PUSH1 0x3 DUP2 GT ISZERO PUSH2 0xA9C JUMPI PUSH2 0xA9B PUSH2 0xCFD JUMP JUMPDEST JUMPDEST EQ PUSH2 0xADC JUMPI PUSH1 0x40 MLOAD PUSH32 0x8C379A000000000000000000000000000000000000000000000000000000000 DUP2 MSTORE PUSH1 0x4 ADD PUSH2 0xAD3 SWAP1 PUSH2 0xF22 JUMP JUMPDEST PUSH1 0x40 MLOAD DUP1 SWAP2 SUB SWAP1 REVERT JUMPDEST PUSH8 0x16345785D8A0000 CALLVALUE LT ISZERO PUSH2 0xB27 JUMPI PUSH1 0x40 MLOAD PUSH32 0x8C379A000000000000000000000000000000000000000000000000000000000 DUP2 MSTORE PUSH1 0x4 ADD PUSH2 0xB1E SWAP1 PUSH2 0x115E JUMP JUMPDEST PUSH1 0x40 MLOAD DUP1 SWAP2 SUB SWAP1 REVERT JUMPDEST PUSH32 0x0 TIMESTAMP GT ISZERO PUSH2 0xB8A JUMPI PUSH1 0x40 MLOAD PUSH32 0x8C379A000000000000000000000000000000000000000000000000000000000 DUP2 MSTORE PUSH1 0x4 ADD PUSH2 0xB81 SWAP1 PUSH2 0x11C6 JUMP JUMPDEST PUSH1 0x40 MLOAD DUP1 SWAP2 SUB SWAP1 REVERT JUMPDEST CALLVALUE PUSH1 0x1 PUSH0 CALLER PUSH20 0xFFFFFFFFFFFFFFFFFFFFFFFFFFFFFFFFFFFFFFFF AND PUSH20 0xFFFFFFFFFFFFFFFFFFFFFFFFFFFFFFFFFFFFFFFF AND DUP2 MSTORE PUSH1 0x20 ADD SWAP1 DUP2 MSTORE PUSH1 0x20 ADD PUSH0 KECCAK256 PUSH0 DUP3 DUP3 SLOAD PUSH2 0xBD6 SWAP2 SWAP1 PUSH2 0x1211 JUMP JUMPDEST SWAP3 POP POP DUP2 SWAP1 SSTORE POP CALLVALUE PUSH1 0x2 PUSH0 DUP3 DUP3 SLOAD PUSH2 0xBEE SWAP2 SWAP1 PUSH2 0x1211 JUMP JUMPDEST SWAP3 POP POP DUP2 SWAP1 SSTORE POP PUSH32 0x0 PUSH1 0x2 SLOAD LT PUSH2 0xC8C JUMPI PUSH1 0x1 PUSH0 PUSH0 PUSH2 0x100 EXP DUP2 SLOAD DUP2 PUSH1 0xFF MUL NOT AND SWAP1 DUP4 PUSH1 0x3 DUP2 GT ISZERO PUSH2 0xC42 JUMPI PUSH2 0xC41 PUSH2 0xCFD JUMP JUMPDEST JUMPDEST MUL OR SWAP1 SSTORE POP PUSH32 0xA4248CEB280C6F9303D3BA87AF96D45C3B0C834338095AB6350DBE86D38C9FC5 PUSH0 PUSH0 SWAP1 SLOAD SWAP1 PUSH2 0x100 EXP SWAP1 DIV PUSH1 0xFF AND PUSH1 0x40 MLOAD PUSH2 0xC83 SWAP2 SWAP1 PUSH2 0xD70 JUMP JUMPDEST PUSH1 0x40 MLOAD DUP1 SWAP2 SUB SWAP1 LOG1 JUMPDEST PUSH32 0xD2DFF949D20E874CC6BA1DCEFB840FB8CF6000A4197BFB69ACCFEA5A32443FF5 CALLER CALLVALUE PUSH1 0x2 SLOAD PUSH1 0x40 MLOAD PUSH2 0xCC1 SWAP4 SWAP3 SWAP2 SWAP1 PUSH2 0x1244 JUMP JUMPDEST PUSH1 0x40 MLOAD DUP1 SWAP2 SUB SWAP1 LOG1 POP JUMP JUMPDEST PUSH0 DUP2 SWAP1 POP SWAP2 SWAP1 POP JUMP JUMPDEST PUSH2 0xCDE DUP2 PUSH2 0xCCC JUMP JUMPDEST DUP3 MSTORE POP POP JUMP JUMPDEST PUSH0 PUSH1 0x20 DUP3 ADD SWAP1 POP PUSH2 0xCF7 PUSH0 DUP4 ADD DUP5 PUSH2 0xCD5 JUMP JUMPDEST SWAP3 SWAP2 POP POP JUMP JUMPDEST PUSH32 0x4E487B7100000000000000000000000000000000000000000000000000000000 PUSH0 MSTORE PUSH1 0x21 PUSH1 0x4 MSTORE PUSH1 0x24 PUSH0 REVERT JUMPDEST PUSH1 0x4 DUP2 LT PUSH2 0xD3B JUMPI PUSH2 0xD3A PUSH2 0xCFD JUMP JUMPDEST JUMPDEST POP JUMP JUMPDEST PUSH0 DUP2 SWAP1 POP PUSH2 0xD4B DUP3 PUSH2 0xD2A JUMP JUMPDEST SWAP2 SWAP1 POP JUMP JUMPDEST PUSH0 PUSH2 0xD5A DUP3 PUSH2 0xD3E JUMP JUMPDEST SWAP1 POP SWAP2 SWAP1 POP JUMP JUMPDEST PUSH2 0xD6A DUP2 PUSH2 0xD50 JUMP JUMPDEST DUP3 MSTORE POP POP JUMP JUMPDEST PUSH0 PUSH1 0x20 DUP3 ADD SWAP1 POP PUSH2 0xD83 PUSH0 DUP4 ADD DUP5 PUSH2 0xD61 JUMP JUMPDEST SWAP3 SWAP2 POP POP JUMP JUMPDEST PUSH0 PUSH0 REVERT JUMPDEST PUSH0 PUSH20 0xFFFFFFFFFFFFFFFFFFFFFFFFFFFFFFFFFFFFFFFF DUP3 AND SWAP1 POP SWAP2 SWAP1 POP JUMP JUMPDEST PUSH0 PUSH2 0xDB6 DUP3 PUSH2 0xD8D JUMP JUMPDEST SWAP1 POP SWAP2 SWAP1 POP JUMP JUMPDEST PUSH2 0xDC6 DUP2 PUSH2 0xDAC JUMP JUMPDEST DUP2 EQ PUSH2 0xDD0 JUMPI PUSH0 PUSH0 REVERT JUMPDEST POP JUMP JUMPDEST PUSH0 DUP2 CALLDATALOAD SWAP1 POP PUSH2 0xDE1 DUP2 PUSH2 0xDBD JUMP JUMPDEST SWAP3 SWAP2 POP POP JUMP JUMPDEST PUSH0 PUSH1 0x20 DUP3 DUP5 SUB SLT ISZERO PUSH2 0xDFC JUMPI PUSH2 0xDFB PUSH2 0xD89 JUMP JUMPDEST JUMPDEST PUSH0 PUSH2 0xE09 DUP5 DUP3 DUP6 ADD PUSH2 0xDD3 JUMP JUMPDEST SWAP2 POP POP SWAP3 SWAP2 POP POP JUMP JUMPDEST PUSH2 0xE1B DUP2 PUSH2 0xDAC JUMP JUMPDEST DUP3 MSTORE POP POP JUMP JUMPDEST PUSH0 PUSH1 0x20 DUP3 ADD SWAP1 POP PUSH2 0xE34 PUSH0 DUP4 ADD DUP5 PUSH2 0xE12 JUMP JUMPDEST SWAP3 SWAP2 POP POP JUMP JUMPDEST PUSH0 DUP3 DUP3 MSTORE PUSH1 0x20 DUP3 ADD SWAP1 POP SWAP3 SWAP2 POP POP JUMP JUMPDEST PUSH32 0x6F6E6C79206F776E65722063616E2063616C6C20746869732066756E6374696F PUSH0 DUP3 ADD MSTORE PUSH32 0x6E00000000000000000000000000000000000000000000000000000000000000 PUSH1 0x20 DUP3 ADD MSTORE POP JUMP JUMPDEST PUSH0 PUSH2 0xEA4 PUSH1 0x21 DUP4 PUSH2 0xE3A JUMP JUMPDEST SWAP2 POP PUSH2 0xEAF DUP3 PUSH2 0xE4A JUMP JUMPDEST PUSH1 0x40 DUP3 ADD SWAP1 POP SWAP2 SWAP1 POP JUMP JUMPDEST PUSH0 PUSH1 0x20 DUP3 ADD SWAP1 POP DUP2 DUP2 SUB PUSH0 DUP4 ADD MSTORE PUSH2 0xED1 DUP2 PUSH2 0xE98 JUMP JUMPDEST SWAP1 POP SWAP2 SWAP1 POP JUMP JUMPDEST PUSH32 0x696E76616C696420737461746520666F722074686973206F7065726174696F6E PUSH0 DUP3 ADD MSTORE POP JUMP JUMPDEST PUSH0 PUSH2 0xF0C PUSH1 0x20 DUP4 PUSH2 0xE3A JUMP JUMPDEST SWAP2 POP PUSH2 0xF17 DUP3 PUSH2 0xED8 JUMP JUMPDEST PUSH1 0x20 DUP3 ADD SWAP1 POP SWAP2 SWAP1 POP JUMP JUMPDEST PUSH0 PUSH1 0x20 DUP3 ADD SWAP1 POP DUP2 DUP2 SUB PUSH0 DUP4 ADD MSTORE PUSH2 0xF39 DUP2 PUSH2 0xF00 JUMP JUMPDEST SWAP1 POP SWAP2 SWAP1 POP JUMP JUMPDEST PUSH0 DUP2 SWAP1 POP SWAP3 SWAP2 POP POP JUMP JUMPDEST POP JUMP JUMPDEST PUSH0 PUSH2 0xF58 PUSH0 DUP4 PUSH2 0xF40 JUMP JUMPDEST SWAP2 POP PUSH2 0xF63 DUP3 PUSH2 0xF4A JUMP JUMPDEST PUSH0 DUP3 ADD SWAP1 POP SWAP2 SWAP1 POP JUMP JUMPDEST PUSH0 PUSH2 0xF77 DUP3 PUSH2 0xF4D JUMP JUMPDEST SWAP2 POP DUP2 SWAP1 POP SWAP2 SWAP1 POP JUMP JUMPDEST PUSH32 0x7769746864726177206661696C65640000000000000000000000000000000000 PUSH0 DUP3 ADD MSTORE POP JUMP JUMPDEST PUSH0 PUSH2 0xFB5 PUSH1 0xF DUP4 PUSH2 0xE3A JUMP JUMPDEST SWAP2 POP PUSH2 0xFC0 DUP3 PUSH2 0xF81 JUMP JUMPDEST PUSH1 0x20 DUP3 ADD SWAP1 POP SWAP2 SWAP1 POP JUMP JUMPDEST PUSH0 PUSH1 0x20 DUP3 ADD SWAP1 POP DUP2 DUP2 SUB PUSH0 DUP4 ADD MSTORE PUSH2 0xFE2 DUP2 PUSH2 0xFA9 JUMP JUMPDEST SWAP1 POP SWAP2 SWAP1 POP JUMP JUMPDEST PUSH0 PUSH1 0x60 DUP3 ADD SWAP1 POP PUSH2 0xFFC PUSH0 DUP4 ADD DUP7 PUSH2 0xCD5 JUMP JUMPDEST PUSH2 0x1009 PUSH1 0x20 DUP4 ADD DUP6 PUSH2 0xE12 JUMP JUMPDEST PUSH2 0x1016 PUSH1 0x40 DUP4 ADD DUP5 PUSH2 0xCD5 JUMP JUMPDEST SWAP5 SWAP4 POP POP POP POP JUMP JUMPDEST PUSH32 0x636F6E747269627574696F6E206E6F7420666F756E6400000000000000000000 PUSH0 DUP3 ADD MSTORE POP JUMP JUMPDEST PUSH0 PUSH2 0x1052 PUSH1 0x16 DUP4 PUSH2 0xE3A JUMP JUMPDEST SWAP2 POP PUSH2 0x105D DUP3 PUSH2 0x101E JUMP JUMPDEST PUSH1 0x20 DUP3 ADD SWAP1 POP SWAP2 SWAP1 POP JUMP JUMPDEST PUSH0 PUSH1 0x20 DUP3 ADD SWAP1 POP DUP2 DUP2 SUB PUSH0 DUP4 ADD MSTORE PUSH2 0x107F DUP2 PUSH2 0x1046 JUMP JUMPDEST SWAP1 POP SWAP2 SWAP1 POP JUMP JUMPDEST PUSH32 0x726566756E64206661696C656400000000000000000000000000000000000000 PUSH0 DUP3 ADD MSTORE POP JUMP JUMPDEST PUSH0 PUSH2 0x10BA PUSH1 0xD DUP4 PUSH2 0xE3A JUMP JUMPDEST SWAP2 POP PUSH2 0x10C5 DUP3 PUSH2 0x1086 JUMP JUMPDEST PUSH1 0x20 DUP3 ADD SWAP1 POP SWAP2 SWAP1 POP JUMP JUMPDEST PUSH0 PUSH1 0x20 DUP3 ADD SWAP1 POP DUP2 DUP2 SUB PUSH0 DUP4 ADD MSTORE PUSH2 0x10E7 DUP2 PUSH2 0x10AE JUMP JUMPDEST SWAP1 POP SWAP2 SWAP1 POP JUMP JUMPDEST PUSH32 0x636F6E747269627574696F6E206D757374206265206174206C65617374204D49 PUSH0 DUP3 ADD MSTORE PUSH32 0x4E5F434F4E545249425554494F4E000000000000000000000000000000000000 PUSH1 0x20 DUP3 ADD MSTORE POP JUMP JUMPDEST PUSH0 PUSH2 0x1148 PUSH1 0x2E DUP4 PUSH2 0xE3A JUMP JUMPDEST SWAP2 POP PUSH2 0x1153 DUP3 PUSH2 0x10EE JUMP JUMPDEST PUSH1 0x40 DUP3 ADD SWAP1 POP SWAP2 SWAP1 POP JUMP JUMPDEST PUSH0 PUSH1 0x20 DUP3 ADD SWAP1 POP DUP2 DUP2 SUB PUSH0 DUP4 ADD MSTORE PUSH2 0x1175 DUP2 PUSH2 0x113C JUMP JUMPDEST SWAP1 POP SWAP2 SWAP1 POP JUMP JUMPDEST PUSH32 0x636F6E747269627574696F6E20616C726561647920656E646564000000000000 PUSH0 DUP3 ADD MSTORE POP JUMP JUMPDEST PUSH0 PUSH2 0x11B0 PUSH1 0x1A DUP4 PUSH2 0xE3A JUMP JUMPDEST SWAP2 POP PUSH2 0x11BB DUP3 PUSH2 0x117C JUMP JUMPDEST PUSH1 0x20 DUP3 ADD SWAP1 POP SWAP2 SWAP1 POP JUMP JUMPDEST PUSH0 PUSH1 0x20 DUP3 ADD SWAP1 POP DUP2 DUP2 SUB PUSH0 DUP4 ADD MSTORE PUSH2 0x11DD DUP2 PUSH2 0x11A4 JUMP JUMPDEST SWAP1 POP SWAP2 SWAP1 POP JUMP JUMPDEST PUSH32 0x4E487B7100000000000000000000000000000000000000000000000000000000 PUSH0 MSTORE PUSH1 0x11 PUSH1 0x4 MSTORE PUSH1 0x24 PUSH0 REVERT JUMPDEST PUSH0 PUSH2 0x121B DUP3 PUSH2 0xCCC JUMP JUMPDEST SWAP2 POP PUSH2 0x1226 DUP4 PUSH2 0xCCC JUMP JUMPDEST SWAP3 POP DUP3 DUP3 ADD SWAP1 POP DUP1 DUP3 GT ISZERO PUSH2 0x123E JUMPI PUSH2 0x123D PUSH2 0x11E4 JUMP JUMPDEST JUMPDEST SWAP3 SWAP2 POP POP JUMP JUMPDEST PUSH0 PUSH1 0x60 DUP3 ADD SWAP1 POP PUSH2 0x1257 PUSH0 DUP4 ADD DUP7 PUSH2 0xE12 JUMP JUMPDEST PUSH2 0x1264 PUSH1 0x20 DUP4 ADD DUP6 PUSH2 0xCD5 JUMP JUMPDEST PUSH2 0x1271 PUSH1 0x40 DUP4 ADD DUP5 PUSH2 0xCD5 JUMP JUMPDEST SWAP5 SWAP4 POP POP POP POP JUMP INVALID LOG2 PUSH5 0x6970667358 0x22 SLT KECCAK256 AND PUSH32 0x838B1816FD0655CD5F2374A622655E124CAC7AE5DD9DE541D34D719D465C6473 PUSH16 0x6C634300081E00330000000000000000 "
				},
				"gasEstimates": {
					"creation": {
						"codeDepositCost": "956600",
						"executionCost": "infinite",
						"totalCost": "infinite"
					},
					"external": {
						"MIN_CONTRIBUTION()": "347",
						"contribute()": "infinite",
						"contributions(address)": "2846",
						"currentRaiseAmount()": "2426",
						"currentState()": "2576",
						"deadline()": "infinite",
						"getState()": "infinite",
						"goalAmount()": "infinite",
						"owner()": "infinite",
						"refund()": "infinite",
						"withDraw()": "infinite"
					}
				},
				"methodIdentifiers": {
					"MIN_CONTRIBUTION()": "40650c91",
					"contribute()": "d7bb99ba",
					"contributions(address)": "42e94c90",
					"currentRaiseAmount()": "086231bb",
					"currentState()": "0c3f6acf",
					"deadline()": "29dcb0cf",
					"getState()": "1865c57d",
					"goalAmount()": "2636b945",
					"owner()": "8da5cb5b",
					"refund()": "590e1ae3",
					"withDraw()": "0fdb1c10"
				}
			},
			"storageLayout": {
				"storage": [
					{
						"astId": 18,
						"contract": "crowdfunding.sol:crowdfunding",
						"label": "currentState",
						"offset": 0,
						"slot": "0",
						"type": "t_enum(State)6"
					},
					{
						"astId": 22,
						"contract": "crowdfunding.sol:crowdfunding",
						"label": "contributions",
						"offset": 0,
						"slot": "1",
						"type": "t_mapping(t_address,t_uint256)"
					},
					{
						"astId": 24,
						"contract": "crowdfunding.sol:crowdfunding",
						"label": "currentRaiseAmount",
						"offset": 0,
						"slot": "2",
						"type": "t_uint256"
					}
				],
				"types": {
					"t_address": {
						"encoding": "inplace",
						"label": "address",
						"numberOfBytes": "20"
					},
					"t_enum(State)6": {
						"encoding": "inplace",
						"label": "enum crowdfunding.State",
						"numberOfBytes": "1"
					},
					"t_mapping(t_address,t_uint256)": {
						"encoding": "mapping",
						"key": "t_address",
						"label": "mapping(address => uint256)",
						"numberOfBytes": "32",
						"value": "t_uint256"
					},
					"t_uint256": {
						"encoding": "inplace",
						"label": "uint256",
						"numberOfBytes": "32"
					}
				}
			},
			"userdoc": {
				"kind": "user",
				"methods": {},
				"version": 1
			}
		}
	}
}